:100000000C94410B0C945E0B0C945E0B0C945E0BE9
:100010000C945E0B0C945E0B0C945E0B0C945E0BBC
:100020000C945E0B0C945E0B0C9466280C94C42804
:100030000C945E0B0C945E0B0C945E0B0C945E0B9C
:100040000C945E0B0C945E0B0C945E0B0C945E0B8C
:100050000C945E0B0C94E8270C945E0B0C945E0BD6
:100060000C945E0B0C940D280C945E0B0C945E0BA0
:100070000C945E0B0C945E0B0C945E0B0C945E0B5C
:100080000C945E0B0C945E0B0C945E0B0C945E0B4C
:100090000C945E0B0C945E0B0C945E0B0C945E0B3C
:1000A0000C945E0B0C945E0B0C945E0B232061622F
:1000B0006F72742C20717565756520666C75736838
:1000C0006564004F4B004F4B20534B495020004F6D
:1000D0004B2041424F52542000756E6B6E6F776E0D
:1000E0002053455420706172616D657465720075AE
:1000F000736167653A204F4E7C4F464600626164EB
:100100002076616C75650075736167653A205345AB
:10011000542050524553537C4741507C53455454CE
:100120004C457C444541447C4A49545445527C45A5
:1001300043484F7C47554152447C434150534649C4
:1001400058203C76616C75653E0020726573656E63
:1001500064733D002064726F707065643D002066BA
:1001600072616D696E673D002061626F7274733DEC
:1001700000206C617374636D643D30780020636DA2
:1001800064733D00232073656E743D0020717565B6
:100190007565643D0020696E7470753D0020707552
:1001A0006C6C7570733D00206461743D00232063A6
:1001B0006C6B3D00206C6564733D30780020736586
:1001C000743D0020656E61626C65643D006175740C
:1001D0006F0070733200757362002070696E3D00AD
:1001E00023206D6F64653D002068656C646B6579E4
:1001F000733D002068656C646D6F64733D307800FA
:100200002061626F7274733D00206C6F6E676C6961
:100210006E653D002320727864726F703D0020731C
:100220006B69707065643D002074797065643D0091
:10023000206572726F72733D0073206C696E657316
:100240003D002320757074696D653D002320505377
:1002500032205B4F4E7C4F46467C4155544F7C428A
:1002600041547C454E41424C457C50524F42457C66
:1002700050554C4C5550204F4E7C4F46467C524179
:1002800057203C6865783E5D2020707332206B6299
:10029000642044373D636C6B2041373D64617400DA
:1002A000232048554E54204F4E7C4F464620202058
:1002B00020206379636C65206174746163682F64C6
:1002C00065746163682F73706565642F72657375FB
:1002D0006D6520756E74696C206120686F73742081
:1002E000726561637473002320504F4C4C203C3185
:1002F0002E2E3634206D733E7C44454641554C5479
:10030000202073657420696E746572727570742034
:1003100062496E74657276616C2028316D733D316F
:10032000303030487A292C20736176656420696EFC
:1003300020656570726F6D2C2072652D656E756D10
:100340006572617465002320434F4E53554D4552ED
:10035000203C564F4C55507C564F4C444E7C4D558E
:1003600054457C504C41597C4E4558547C50524524
:10037000567C53544F503E202073656E642061209C
:100380006D65646961206B65792028636F6E737594
:100390006D657220666F726D6174290023204C4177
:1003A000594F5554205B45537C55537C4445464139
:1003B000554C545D202063686172616374657220DE
:1003C0006C61796F7574207573656420627920544F
:1003D00059504520616E64204C494E452028736178
:1003E00076656420696E20656570726F6D290023E3
:1003F000204B524F20424F4F547C4E4B524F7C412A
:10040000525241597C4D554C54497C4859425249AD
:10041000447C485942524944327C434F4E53554DD7
:1004200045527C4C534D554C54497C4C53434F4E94
:1004300053554D45522020736574207265706F725C
:100440007420666F726D617420287361766564290B
:1004500000232053504545442046554C4C7C4C4F7E
:10046000577C44454641554C542020736574207593
:1004700073622073706565642028736176656420FB
:10048000696E20656570726F6D2C207573656420D0
:100490006F6E207265626F6F74292C2072652D65F6
:1004A0006E756D6572617465207C205245454E55B0
:1004B0004D00232050494E47207C20494E464F2076
:1004C0007C20535441545553207C20555342207C6A
:1004D0002048454C50207C205245534554207C20D8
:1004E0005245424F4F54207C20464143544F52596D
:1004F0005F524553455400232053455420505245E4
:1005000053537C4741507C534554544C457C44459F
:1005100041447C4A4954544552203C6D733E207CF2
:1005200020534554204543484F7C47554152447C15
:1005300043415053464958204F4E7C4F4646002376
:1005400020444F574E203C6B65793E207C2055500F
:10055000203C6B65793E207C2052454C207C204419
:10056000454C4159203C6D733E207C205241572020
:100570003C6D6F643E203C636F64653E00232054F5
:10058000595045203C746578743E207C204C494E7F
:1005900045203C746578743E207C204B4559203CB6
:1005A0006B65793E205B6E5D207C20434F4D424F52
:1005B000203C612B622B6B65793E205B6E5D0045B4
:1005C000525220756E6B6E6F776E20636F6D6D612A
:1005D0006E643A2000686964207265706F727420DE
:1005E00072656A6563746564006C696E6B206E6F1A
:1005F000742072656164790075736167653A205291
:100600004157203C6D6F645F6865783E203C636FA6
:1006100064655F6865783E00696E76616C69642028
:100620006B6579006C696E6B206E6F74207265610A
:100630006479006D697373696E67206B6579006C0E
:10064000696E6B206E6F7420726561647900696EEB
:1006500076616C696420636F6D626F006261642013
:10066000636F756E74006D697373696E6720636F75
:100670006D626F006C696E6B206E6F7420726561C5
:1006800064790062616420636F756E74006D6973D4
:1006900073696E67206B6579006C696E6B206E6F95
:1006A00074207265616479004F4B2041424F52546F
:1006B000203000626164206D7300756E6B6E6F7721
:1006C0006E206D65646961206B6579007573616783
:1006D000653A20434F4E53554D455220564F4C5589
:1006E000507C564F4C444E7C4D5554457C504C41AB
:1006F000597C4E4558547C505245567C53544F506B
:1007000000636F6E73756D6572206E65656473202E
:10071000757362207265706F72742070726F746F7F
:10072000636F6C00736574204B524F20434F4E53E0
:10073000554D4552206F72204C53434F4E53554DEB
:1007400045522066697273740075736167653A205B
:10075000504F4C4C203C312E2E3634206D733E7C55
:1007600044454641554C540075736167653A2050C5
:100770004F4C4C203C312E2E3634206D733E7C4441
:10078000454641554C540075736167653A204B529C
:100790004F20424F4F547C4E4B524F7C415252415E
:1007A000597C4D554C54497C4859425249447C48E7
:1007B0005942524944327C434F4E53554D45527C29
:1007C0004C534D554C54497C4C53434F4E53554D0F
:1007D00045520023206C61796F75743D007573611B
:1007E00067653A204C41594F55542045537C555329
:1007F0007C44454641554C540023206C61796F750B
:10080000743D0023206E6F74653A206375727265C3
:100810006E74206B726F20666F726D6174207265EA
:100820007175697265732066756C6C20737065658F
:10083000640075736167653A20535045454420460E
:10084000554C4C7C4C4F577C44454641554C5400CC
:1008500075736167653A2053504545442046554CB1
:100860004C7C4C4F577C44454641554C5400757365
:100870006167653A2048554E54204F4E7C4F46469E
:10088000002320666163746F7279207265736574EA
:100890003A20656570726F6D20636C656172656486
:1008A0002C207265626F6F74696E6720696E746F59
:1008B0002074686520636F6D70696C656420646581
:1008C0006661756C74730075736167653A20505387
:1008D00032205B4F4E7C4F46467C4155544F7C4204
:1008E00041547C454E41424C457C50524F42457CE0
:1008F00050554C4C5550204F4E7C4F46467C5241F3
:1009000057203C6865783E5D0075736167653A20E5
:1009100050533220524157203C6865783E00757331
:100920006167653A205053322050554C4C55502049
:100930004F4E7C4F464600504F4E47004552522086
:100940000052454144590023206175746F2D726532
:100950006C656173653A2068656C64206B657973BA
:100960002074696D6564206F7574002077616B6514
:100970007570733D002073757370656E64733D0010
:1009800020766275735F6C6173745F6D733D0020D8
:10099000766275735F6368616E6765733D002320DF
:1009A0007564696E745F7365656E3D3078002066AE
:1009B00061696C65643D0023207265706F727473A9
:1009C000206F6B3D00206C6564733D30780072656C
:1009D000706F727400626F6F74002070726F746F4A
:1009E000636F6C3D00206C617374646573633D30AC
:1009F0007800206C617374726571747970653D3034
:100A0000780023206C6173747265713D307800202A
:100A10007374616C6C733D0020736574636F6E66F4
:100A200069673D0020736574616464723D002067EE
:100A30006574646573633D00207365747570733D00
:100A40000020736F663D0023207265736574733DEB
:100A500000207573627374613D3078002075736295
:100A6000636F6E3D307800207564636F6E3D307843
:100A700000207564616464723D30780023207662E2
:100A800075733D00290066756C6C006C6F770020F3
:100A9000646F6E652C206E6F207265616374696F80
:100AA0006E202873706565643D00232048554E54C0
:100AB0003A20726F756E64200020726F756E64202C
:100AC00000232048554E543A20686F737420726595
:100AD00061637465642061742073746570200066BE
:100AE000756C6C006C6F770023206D6F64653D75CD
:100AF00073622073706565643D0023206D6F6465CB
:100B00003D70733220636C6B3D4437206461743DEB
:100B100041372070756C6C7570733D0023207573C0
:100B20006220706F776572206C6F73742C20707206
:100B30006F62696E6720616761696E004F464600AB
:100B40004F4E0070726F6265007573620070733291
:100B50000065732D455300656E2D5553006D412082
:100B6000696E74657276616C3D0020706F77657296
:100B70003D00206263643D307800206570303D00A8
:100B8000626F6F74006C73636F6E73756D65720066
:100B90006C736D756C746900636F6E73756D6572DF
:100BA000006879627269643200687962726964000F
:100BB0006D756C7469006172726179006E6B726F31
:100BC00000206B726F3D0066756C6C006C6F770077
:100BD0002073706565643D007265616479007375AA
:100BE0007370656E64656400756E636F6E666967C9
:100BF000757265640023207573623D002063617027
:100C0000736669783D002067756172643D006D739D
:100C1000206563686F3D006D73206A697474657246
:100C20003D006D7320646561643D006D73207365E4
:100C300074746C653D006D73206761703D002038F1
:100C40004E312070726573733D002320756172749C
:100C50003D0020626F6172643D70726F6D696372F6
:100C60006F206C65643D52582F504230206275737E
:100C7000793D5044362F6E630020656E61626C656D
:100C8000643D002070733220636C6B3D44372064F8
:100C900061743D41372070756C6C7570733D002335
:100CA000206D6F64653D00206275696C643D41751F
:100CB0006720323620323032362032333A34383AF6
:100CC00032320023206F6B68692D6B62642D617670
:100CD000722076342E32206C61796F75743D000875
:100CE0002008006C696E6520746F6F206C6F6E67F2
:100CF00000524541445900232070726F62696E674B
:100D00003A20757362207472616666696320776940
:100D10006E732C206F7468657277697365207073C9
:100D200032206B6579626F617264206F6E20443788
:100D30003D636C6B2041373D64617400454E544502
:100D400052000000000000002852455455524E0049
:100D50000000000000284553430000000000000090
:100D60000000294553434150450000000000002980
:100D70004241434B53504143450000002A424B53EC
:100D80005000000000000000002A54414200000012
:100D90000000000000002B535041434500000000BC
:100DA0000000002C535041434542415200000000D6
:100DB0002C434150534C4F434B0000000039463107
:100DC000000000000000000000003A463200000071
:100DD000000000000000003B46330000000000005F
:100DE000000000003C46340000000000000000004D
:100DF000003D4635000000000000000000003E46B7
:100E000036000000000000000000003F46370000F0
:100E10000000000000000000404638000000000014
:100E20000000000000414639000000000000000002
:100E30000000424631300000000000000000004386
:100E4000463131000000000000000000444631320D
:100E5000000000000000000000455052494E54536D
:100E6000435245454E004650525453430000000043
:100E7000000000465343524F4C4C4C4F434B000034
:100E800047504155534500000000000000484252C1
:100E900045414B0000000000000048494E534552B8
:100EA0005400000000000049494E530000000000BB
:100EB0000000000049484F4D4500000000000000C0
:100EC000004A5041474555500000000000004B507B
:100ED00047555000000000000000004B44454C45C1
:100EE00054450000000000004C44454C0000000048
:100EF00000000000004C454E4400000000000000CF
:100F000000004D50414745444F574E000000004EF1
:100F10005047444E00000000000000004E52494778
:100F20004854000000000000004F4C4546540000AB
:100F300000000000000050444F574E4152524F579E
:100F40000000005155504152524F57000000000020
:100F5000524E554D4C4F434B0000000000534B5038
:100F600044495600000000000000544B504D554CC1
:100F700000000000000000554B504D494E555300F5
:100F800000000000564B50504C555300000000002C
:100F900000574B50454E5445520000000000584B3E
:100FA0005031000000000000000000594B5032009A
:100FB00000000000000000005A4B50330000000009
:100FC00000000000005B4B503400000000000000F7
:100FD00000005C4B50350000000000000000005D88
:100FE0004B50360000000000000000005E4B503700
:100FF0000000000000000000005F4B5038000000BF
:10100000000000000000604B5039000000000000AC
:10101000000000614B5030000000000000000000A4
:10102000624B50444F5400000000000000634D45E7
:101030004E550000000000000000654150500000C7
:101040000000000000000065200000002C002100CE
:1010500000001E02220000003402230000002002D3
:1010600024000000210225000000220226000000CA
:101070002402270000003400280000002602290076
:10108000000027022A00000025022B0000002E028B
:101090002C00000036002D0000002D002E00000066
:1010A00037002F00000038003A00000033023B00F8
:1010B000000033003C00000036023D0000002E001E
:1010C0003E00000037023F000000380240000000F0
:1010D0001F025B0000002F005C00000031005D007B
:1010E000000030005E00000023025F0000002D02BF
:1010F0006000000035007B0000002F027C00000033
:1011000031027D00000030027E0000003502A000A8
:1011100000002C00132000002D00142000002D00E2
:101120001820000034001920000034001C200000AA
:1011300034021D2000003402200000002C00210099
:1011400000001E02220000001F02230000002040B9
:1011500024000000210225000000220226000000D9
:101160002302270000002D0028000000250229008E
:10117000000026022A00000030022B000000300090
:101180002C00000036002D00000038002E0000006A
:1011900037002F00000024023A00000037023B0015
:1011A000000036023C00000064003D000000270201
:1011B0003E00000064023F0000002D0240000000DD
:1011C0001F405B0000002F405C00000035405D00C8
:1011D000000030405E002F022C005F00000038024B
:1011E00060002F002C007B00000034407C000000D9
:1011F0001E407D00000031407E0021402C00A000F8
:1012000000002C00A10000002E00A80034022C00D9
:10121000AA0000003502AC0000002340B4003400F6
:101220002C00B70000002002BA0000003500BF000B
:1012300000002E02C70000003102D100000033027E
:10124000E70000003100F10000003300AC20000096
:101250000840E10034000400C10034000402E90049
:1012600034000800C90034000802ED0034000C000E
:10127000CD0034000C02F30034001200D30034001F
:101280001202FA0034001800DA0034001802FC00E0
:1012900034021800DC0034021802EF0034020C00A3
:1012A000EB0034020800E0002F000400E8002F00EB
:1012B0000800EC002F000C00F2002F001200F900D3
:1012C0002F001800E2002F020400EA002F0208009D
:1012D000EE002F020C00F4002F021200FB002F0280
:1012E0001800E30021400400F50021401200132003
:1012F00000003800142000003800182000002D00E5
:10130000192000002D001C2000001F021D200000DD
:101310001F02000000001C322123242B3433433BE6
:10132000424B3A31444D152D1B2C3C2A1D22351AB7
:10133000161E26252E363D3E46455A76660D294E0A
:1013400055545B5D5D4C520E41494A580506040CEC
:10135000030B830A01097807007E00706C7D7169B8
:101360007A746B7275774A7C7B795A69727A6B737F
:10137000746C757D7071612F370F1412111F145921
:10138000112712036B006500790062006F00610095
:101390007200640010036F006B0068006900200099
:1013A0006C0061000403090409023B00020100A073
:1013B00032090400000103010100092111010001AB
:1013C000223F000705810308000A09040100010308
:1013D0000000000921110100012217000705820306
:1013E00008000A09023B00020100A03209040000C3
:1013F0000103010100092111010001223F0007053D
:10140000810308000A09040100010300000009210A
:1014100011010001223F000705820308000A0902AA
:101420003B00020100A03209040000010301010099
:10143000092111010001223F000705810308000A6C
:10144000090401000103000000092111010001222B
:101450003900070582031000010902220001010082
:10146000A03209040000010301010009211101005B
:1014700001223F000705810308000A050C0901A1AC
:1014800001150026FF0319002AFF0375109501813D
:1014900000C005010906A1018501050719E029E73A
:1014A00015002501750195088102950175088101D6
:1014B0009505750105081901290591029501750326
:1014C000910195067508150025A40507190029A4A2
:1014D0008100C0050C0901A1018502150026FF034A
:1014E00019002AFF03751095018100C00501090646
:1014F000A1018501050719E029E7150025017501FE
:101500009508810295017508810195057501050809
:101510001901290591029501750391019506750838
:10152000150025A40507190029A4810085060507D3
:1015300019E029E7150025017501950881020507C5
:101540001900297715002501750195788102C005DC
:10155000010906A1018501050719E029E715002504
:101560000175019508810295017508810195057540
:10157000010508190129059102950175039101954D
:10158000067508150025A40507190029A481008502
:1015900002050719E029E715002501750195088165
:1015A0000295017508810195067508150025A405A9
:1015B00007190029A48100C005010906A10105073A
:1015C00019E029E7150025017501950881029501AB
:1015D0007508810195057501050819012905910214
:1015E00095017503910195107508150025A405074F
:1015F000190029A48100C005010906A101050719E8
:10160000E029E715002501750195088102050819F3
:101610000129059505750191029501750391010553
:10162000071900297715002501750195788102C0F9
:1016300005010906A101050719E029E715002501A3
:10164000750195088102950175088103950575015D
:101650000508190129059102950175039103950665
:101660007508150025650507190029658100C01258
:101670000110010000000841233680000101020032
:10168000010011241FBECFEFDAE0DEBFCDBF12E0B4
:10169000A0E0B1E0ECECFFE502C005900D92A63AA7
:1016A000B107D9F725E0A6EAB2E001C01D92AE3B32
:1016B000B207E1F70E944E2B0C94E42F0C9400002B
:1016C0002FB7F8946091BA057091BB058091BC0565
:1016D0009091BD052FBF08959091C80095FFFCCF54
:1016E0008093CE000895CF93DF93EC01899181110F
:1016F00003C0DF91CF910895EFDFF8CFCF93DF9351
:10170000EC01FE0184912196811103C0DF91CF91FC
:101710000895E2DFF6CF8DE0DFDF8AE0DDCF83ECF6
:1017200090E0ECDFF8CF882319F080E49BE0E6CF6F
:101730008CE39BE0FCCFCF93DF93EC018091AB0473
:101740009091AC04A091AD04B091AE040196A11D9E
:10175000B11D8093AB049093AC04A093AD04B093FF
:10176000AE048CE399E0CADFCE01C8DFDF91CF91F0
:10177000D2CF9091080180916404992319F08A30A6
:1017800008F48AE00895E0916304E150E63028F41B
:10179000F0E0E056FD4F8081089588E00895809143
:1017A0006304853039F0EFDF91E0893008F490E090
:1017B000892F089581E0089590916304953031F068
:1017C000975081E0923018F080E0089581E008950C
:1017D00076986E9A08955F98579A08958CB186FB13
:1017E000882780F9089589B1881F8827881F089560
:1017F0008091A5038093A4030895E0EEF0E080813A
:1018000081608083089580919E048F5F80939E0401
:1018100081E28093EB000895AEEF2091E800322F33
:101820003570D9F322FD16C09B016830710510F0A8
:1018300028E030E0522FFC01422F41110CC0820FF2
:10184000931F621B730BA093E8006115710529F7C4
:10185000583019F30895B491B093F1004150319686
:10186000ECCFAEEF2091E800322F3570D9F322FD96
:1018700016C09B016830710510F028E030E0522F4F
:10188000FC01422F41110CC0820F931F621B730B8E
:10189000A093E8006115710529F7583019F30895F0
:1018A000B191B093F1004150EDCFFC0191919111B4
:1018B00001C008958FE9890F8A31C0F7DF011197C0
:1018C00090529C93F3CFFC018081882339F18033BF
:1018D00029F481818F7D883509F4329680818823AF
:1018E000E9F090E080E02191211104C0FB018083A8
:1018F00081E0089530ED320F3A3030F03FE9320F99
:10190000363070F439EA320F24E0880F991F2A9597
:10191000E1F7832B8F3F910531F328F380E00895A1
:101920003FEB320F3630D0F739ECEDCF80915604D3
:10193000823019F48DE49BE0E1CE80915604813031
:1019400019F489E49BE0F8CF83E49BE0F5CF809124
:101950006504813019F487E59BE0D0CE81E59BE0FA
:10196000FCCF8091C80086FD04C08091C80085FF2F
:10197000F8CF8FE39FE10197F1F700C000000895D1
:10198000EF92FF920F931F93CF93DF93FC01EB0134
:101990008A016081A1E0B0E07D01022E01C0EE0C61
:1019A0000A94EAF758815E2188813E2D3095832381
:1019B000888380818E2980838FEE90E00197F1F7F4
:1019C00000C000008081832380839AE69A95F1F716
:1019D00000C0D8018C9190E002C0959587952A951A
:1019E000E2F78170962F9E2181F090819E2990834D
:1019F0009881552369F0AE2DA92BA883DF91CF9153
:101A00001F910F91FF90EF90089590819323EFCF56
:101A100039233883F3CFCF9326E04CE250E06EE2D7
:101A200070E08DE290E0ACDFC82F27E049E250E0A3
:101A30006BE270E08AE290E0A3DFCC2339F091E022
:101A4000811101C090E0892FCF91089580E0FCCFF3
:101A50008091D70081608093D70080EA8093D8007E
:101A600082E189BD09B400FEFDCF80E98093D800F2
:101A70008091E00081608093E000809108018823DC
:101A800041F18091E00084608093E0008FE193E079
:101A90000197F1F700C000008091E000847F8093FF
:101AA000E0001092AA041092E90081E08093EB001C
:101AB0001092EC0082E08093ED0088E08093F000CB
:101AC0008091E100867E8093E1008DE08093E200CA
:101AD00008958091E0008B7FD7CF1F93CF93DF9342
:101AE00000D000D0CDB7DEB7182F40E1BE016F5F48
:101AF0007F4F90E00E94682F103110F480E3ECDDFE
:101B0000CE010196F0DD0F900F900F900F90DF91B6
:101B1000CF911F910895CF93DF93CDB7DEB72C9768
:101B20000FB6F894DEBF0FBECDBF2AE0AE014F5F07
:101B30005F4F0E94472FCE010196D5DD2C960FB640
:101B4000F894DEBF0FBECDBFDF91CF91089580EE38
:101B500091E0D4DDEBDE8AED91E0D0DD809155049B
:101B6000813009F09DC086ED91E0C8DD83EC91E005
:101B7000C5DD6091070170E090E080E0CCDF8DEB87
:101B800091E0BCDD6091060170E090E080E0C3DF91
:101B900084EB91E0B3DD80914A049FDFBCDD8DEAE8
:101BA00091E0ACDD1BDE682F70E090E080E0B3DFF9
:101BB00087EA91E0A3DD17DE682F70E090E080E017
:101BC000AADF8DE991E09ADD60914F0470E090E02A
:101BD00080E0A1DF85E991E091DD6091050170E091
:101BE00090E080E098DF8CE891E088DD6091A503CB
:101BF0008091A403681B6F7770E090E080E08BDF3A
:101C00008ADD84E891E07ADD6091420470914304BA
:101C100080914404909145047EDF8DE791E06EDD74
:101C200060913E0470913F04809140049091410482
:101C300072DF81E791E062DD809147044EDF88E644
:101C400091E05CDD60913A0470913B0480913C042A
:101C500090913D0460DF8EE591E050DD60913204AB
:101C600070913304809134049091350454DF84E5FD
:101C700091E044DD6091360470913704809138041E
:101C80009091390448DF8AE491E038DD60912E04B8
:101C900070912F0480913004909131043CDF3BCD52
:101CA000823019F482ED91E060CF8DEC91E05DCF50
:101CB00083EC9CE023DD4BDE87EA9CE01FDD2BDD1F
:101CC0008FE99CE01BDD32DE83E89CE017DD60914C
:101CD0004F0470E090E080E01EDF89E79CE00EDDBD
:101CE0006091070170E090E080E015DF82E59CE004
:101CF00005DD11DD8AE49CE001DD60E875E280E04D
:101D000090E009DF8EE39CE0F9DC6091660470915D
:101D1000670490E080E0FFDE86E39CE0EFDC60910A
:101D200068047091690490E080E0F5DE8BE29CE04D
:101D3000E5DC60916A0470916B0490E080E0EBDE7A
:101D400082E29CE0DBDC60916C0470916D0490E0B9
:101D500080E0E1DE87E19CE0D1DC60916E0470916F
:101D60006F0490E080E0D7DE8EE09CE0C7DC8091DD
:101D70007004D9DC86E09CE0C1DC80917104D3DC86
:101D80008CEF9BE0BBDC80917204CDDCC4DC85EF82
:101D90009BE0B4DC8091AA04811124C088EE9BE012
:101DA000ADDC80ED9BE0AADC80910801882321F165
:101DB0008CEC9BE0A3DC81EC9BE0A0DCE091630475
:101DC000E15080E89BE0E830E0F4F0E0E651F14FCC
:101DD0000C94A62EFF0E230F260F290F2C0F2F0F6A
:101DE000320F350F8091A904882319F08EED9BE006
:101DF000D7CF88ED9BE0D4CF87EC9BE0DBCF8CEB9B
:101E00009BE07CDC8AE79BE079DC68E070E080E0C6
:101E100090E081DE82E79BE071DC81E05EDE80E1C4
:101E20005CDE8AE69BE06ADC64E670E080E090E0DD
:101E300072DE8DE59BE062DC9CDC682F70E090E058
:101E400080E069DE68CC86EB9BE0DBCF80EB9BE03B
:101E5000D8CF89EA9BE0D5CF81EA9BE0D2CF88E951
:101E60009BE0CFCF80E99BE0CCCF85E89BE0C9CF5A
:101E70008CE79AE043DC6091D900617070E090E0FB
:101E800080E049DE81E79AE039DC8091E30025DEDD
:101E900087E69AE033DC8091E0001FDE8CE59AE073
:101EA0002DDC8091D80019DE81E59AE027DC809155
:101EB000D90013DE30DC87E49AE020DC6091A504D1
:101EC0007091A60490E080E026DE81E49AE016DCC2
:101ED00060919C0470919D0490E080E01CDE88E39A
:101EE0009AE00CDC6091A3047091A40490E080E07F
:101EF00012DE8EE29AE002DC6091A1047091A204ED
:101F000090E080E008DE84E29AE0F8DB6091A004D3
:101F100070E090E080E0FFDD88E19AE0EFDB609127
:101F20009F0470E090E080E0F6DD8FE09AE0E6DB71
:101F300060919E0470E090E080E0EDDDECDB82E0FB
:101F40009AE0DCDB80910B01C8DD82EF99E0D6DB03
:101F500080910A01C2DD85EE99E0D0DB8091090114
:101F6000BCDD8AED99E0CADB80910C01811152C081
:101F700085ED99E0C3DB85EC99E0C0DB8091A70497
:101F8000ACDDC9DB87EB99E0B9DB60918704709128
:101F900088048091890490918A04BDDD8EEA99E0DD
:101FA000ADDB6091830470918404809185049091ED
:101FB0008604B1DDB0DB8EE999E0A0DB80919B0463
:101FC0008CDD8FE899E09ADB6091990470919A0416
:101FD00090E080E0A0DD80E899E090DB60919504DE
:101FE00070919604809197049091980494DD85E710
:101FF00099E084DB6091940470E090E080E08BDDF8
:102000008BE699E07BDB6091930470E090E080E0E8
:1020100082DD81CB8EEC99E0ADCFEF92FF920F93F2
:102020001F93CF93DF93CDB7DEB72D970FB6F894FC
:10203000DEBF0FBECDBF7C010CE31DE04DE050E0E4
:10204000B801CE0101960E941A2FBE016F5F7F4F2B
:10205000C7010E94372F892B71F48D852D960FB6FD
:10206000F894DEBF0FBECDBFDF91CF911F910F91CE
:10207000FF90EF900895035F1F4F80E10834180729
:10208000E9F680E0EBCFFC019081992391F081810A
:1020900081110FC08FEB890F8A3118F483EC890FFF
:1020A00008958FEC890F893010F48DEEF8CF9033BE
:1020B00011F0CF01B2CF87E208956E9880910501AB
:1020C000882311F0769A08957698089581DB85ED3E
:1020D0008A95F1F70000F1DF9AE69A95F1F700C0D2
:1020E00082DB9AE69A95F1F700C00895579880919F
:1020F0000501882311F05F9A08955F980895DDDF48
:10210000F5CF809305016E9BD8DF579BEFCF0895E5
:10211000882399F0EBDF80E58A95F1F75FDB882370
:1021200059F056DB85ED8A95F1F70000C6DF85EDA5
:102130008A95F1F7000081E008954DDBECCFCF9256
:10214000DF92FF920F931F93CF93DF93F82E46DB1E
:10215000811102C080E052C046DB8823D9F3C5E07C
:1021600025E32A95F1F7000039DB882399F33BDB5F
:10217000882381F3C150A1F70FB7F89480E0C8DF3E
:10218000882309F443C0D0E0C0E011E0CF2CD12C6B
:10219000C6010C2E02C0959587950A94E2F78170CE
:1021A0001827B6DF882391F12196C830D10581F731
:1021B000812FAEDF882351F181E0AADF882331F13E
:1021C0009EDF0FBF8FEE90E00197F1F700C0000097
:1021D000F09248048091420490914304A0914404F9
:1021E000B09145040196A11DB11D809342049093C6
:1021F0004304A0934404B093450481E0DF91CF9160
:102200001F910F91FF90DF90CF90089578DF0FBF5F
:1022100080913A0490913B04A0913C04B0913D041C
:102220000196A11DB11D80933A0490933B04A093A5
:102230003C04B0933D048ECFE0919B0391E09E0F50
:10224000977020919A03291314C0809136049091BD
:102250003704A0913804B09139040196A11DB11D35
:102260008093360490933704A0933804B0933904D4
:102270000895F0E0E456FC4F808390939B0308950B
:10228000CF93DF93D9019FB7F8943091E900809301
:10229000E900F0E0E0E05091E80055FF0EC0262F85
:1022A000FB018E2F821B8417B8F18AE38093E8002C
:1022B0003093E9009FBF81E01FC03093E9009FBFCA
:1022C0009091AA04992321F03196AE17BF07B8F474
:1022D0008091830490918404A0918504B091860438
:1022E0000196A11DB11D8093830490938404A09353
:1022F0008504B093860480E0DF91CF910895C7EC08
:10230000D0E02197F1F700C000009FB7F89430911A
:10231000E9008093E900BFCF81918093F100C1CFA4
:10232000CF93DF9300D01F92CDB7DEB790915604C4
:102330009130C1F49091AA049923A1F090910C01DD
:10234000992381F090916304963091F492E09983FF
:102350008A831B8220E43FE143E0BE016F5F7F4F31
:1023600081E08EDF0F900F900F90DF91CF91089555
:102370009830C1F789831A8220ED37E042E0BE0130
:102380006F5F7F4F82E0EDCF882311F0289808958A
:10239000289A0895CF92DF92EF92FF920F931F93A6
:1023A0008FD900918B0310918C0320918D03309174
:1023B0008E03011511052105310531F16B017C01F9
:1023C000C01AD10AE20AF30A9701860137FF14C046
:1023D0002CE330E040E050E00E94842EDA01C90195
:1023E00080959095A095B09581701F910F91FF9069
:1023F000EF90DF90CF90C8CF10928B0310928C0398
:1024000010928D0310928E0320918F03211122C010
:1024100020915604223049F42091070121111AC05D
:1024200024E630E040E050E008C02091AA042111E9
:102430000DC024EF31E040E050E00E94842E209552
:102440003095409550952170822FCFCF2091A904CF
:102450002111E6CF21E0F8CF80938F03882311F07C
:102460005E9A98CF5E98FDCF0F931F93CF93DF9323
:102470008B01FC012081222371F1EC0120E030E08E
:10248000A901E991E1110BC0F80120833183428356
:10249000538381E0DF91CF911F910F91089580EDDB
:1024A0008E0F8A30C0F42939F9E93F074F07F9E167
:1024B0005F0788F4AAE0B0E00E94AC2E4E2F405394
:1024C000550B9A01032E000C440B550B260F371F9A
:1024D000481F591FD6CF80E0DDCFCF93DF93EC01AB
:1024E0006623E9F08091A6029091A702A091A8022C
:1024F000B091A9020196A11DB11D8093A6029093EF
:10250000A702A093A802B093A9028FEC90E0F6D89E
:10251000BE0190E080E0FFDADF91CF91FCC8892B0B
:1025200019F086EC90E0F3CFDF91CF91F8C880915D
:102530005604813049F15CD910924904E0DD88E00D
:10254000E6E2F4E0DF01982F1D929A95E9F7EBE8B7
:10255000F4E0DF011D928A95E9F710929903109239
:1025600098031092A70481E08093560488EE9AE0C5
:10257000C5D880910801882321F084EE9AE0BED866
:10258000CAC88FED9AE0FBCF0895FF920F931F9377
:10259000CF93DF9301ED17E026D9C82F811167C0D3
:1025A00001ED17E01BD9882309F46EC0FFB6F8943B
:1025B00010E000E0D1E08ADD282F002E01C0220FBC
:1025C0000A94EAF7C22BD8270F5F1F4F0830110576
:1025D00091F77CDD082F7ADD182FFDD8A0E5AA95AC
:1025E000F1F7F6D8B5EDBA95F1F7000066DD80E5B4
:1025F0008A95F1F77BDDFFBEAFEEB0E01197F1F702
:1026000000C00000D0134AC0112309F447C08091D4
:102610003E0490913F04A0914004B0914104019682
:10262000A11DB11D80933E0490933F04A0934004EC
:10263000B093410410914904112309F452C010923F
:1026400049048AEFF9DD113009F03CC0C770C0932E
:102650004A04EC2FEE0FEE0FE470C695CE2BC0931C
:10266000A704DF91CF911F910F91FF90089585E30B
:102670008A95F1F70000A8950150110909F08CCF57
:102680003EDD3DDD8EEF6DC095E39A95F1F70000DC
:10269000A8950150110909F085CFF2CF809132043D
:1026A00090913304A0913404B09135040196A11D9A
:1026B000B11D8093320490933304A0933404B093FB
:1026C0003504DFCF123069F680910601CC2309F47E
:1026D00048C08FEF8C0F833008F0C3CFC093060142
:1026E000C0CFC0934704CD5EC33160F6EC2FF0E05D
:1026F000E458FC4E0C94A62ECF13CD134213D413E2
:102700004213D813D613DE13EA13DE13D213D213F7
:10271000D213D213D213D213D213B7138F1368D894
:1027200080919B0380939A031092490481E08093E7
:10273000070182E08093060110924A041092A704D8
:1027400088E0E6E2F4E0DF01982F1D929A95E9F720
:10275000EBE8F4E0DF011D928A95E9F78AEF6CDD82
:102760008AEADF91CF911F910F91FF9065CD809103
:102770002E0490912F04A0913004B0913104019661
:10278000A11DB11D80932E0490932F04A0933004BB
:10279000B093310480914804E4CF8EEEE2CF81E023
:1027A000809349048AEFDDCF82E0FACF83E0F8CF4F
:1027B0008AEF42DD8BEA40DD83E8D3CF19D8E6E229
:1027C000F4E088E0DF011D928A95E9F781E08093CB
:1027D0000701E8CF109207010BD888E0E6E2F4E0A9
:1027E000DF01982F1D929A95E9F7EBE8F4E0DF01FD
:1027F0001D928A95E9F7D6CFCF93DF938091560447
:10280000823009F042C08091460481113EC081E0CF
:10281000809346040E94EE0BCDE2D1E08823C1F004
:102820000E94F30B882311F1E0919A0380919B039E
:102830008E17B9F1F0E0E456FC4F808180DC8823EC
:1028400011F180919A038F5F877080939A031BC068
:102850000E94EE0B882361F00E94F30BC1EDD7E0DC
:10286000811111C00E94EE0B882391F08EDE0BC007
:102870000E94F30B882381F385E38A95F1F700002A
:10288000A895219729F710924604DF91CF910895DA
:1028900085E38A95F1F70000A895219719F72FDCB9
:1028A000F2CFE091A4038091A5038E1761F3F0E0CD
:1028B000EA55FC4F808143DC882329F38091A403EF
:1028C0008F5F8F778093A403DECF4F925F926F92DA
:1028D0007F928F929F92AF92BF92CF92DF92EF92B0
:1028E000FF92CF936C010E94600B4B015C01C0E032
:1028F000F12CE12C9091A5038091A40398130CC0B6
:1029000081E090E030919B0320919A03321302C042
:1029100090E080E0892BD1F0409042045090430435
:10292000609044047090450467DFA895809142044C
:1029300090914304A0914404B091450484159505F9
:10294000A605B70589F4CF5FC93078F0CF91FF9025
:10295000EF90DF90CF90BF90AF909F908F907F903F
:102960006F905F904F900895C0E00E94600B6819CF
:1029700079098A099B096C157D058E059F0508F468
:10298000B9CFE4CF0F931F93CF93DF93EC018B016B
:102990000E94550C6DE071E0CE010E94372F892B0B
:1029A00041F481E0F8018083DF91CF911F910F9175
:1029B000089560E171E0CE010E94372F892B21F448
:1029C000F801108281E0F0CF80E0EECFCF93DF936B
:1029D000EC016DE171E00E94372F892B09F49CC056
:1029E00064E171E0CE010E94372F892B09F494C075
:1029F0006CE171E0CE010E94372F892B09F48CC065
:102A000063E271E0CE010E94372F892B09F486C062
:102A100062E271E0CE010E94372F892B09F47EC05B
:102A20006AE271E0CE010E94372F892B09F478C049
:102A300069E271E0CE010E94372F892B09F470C042
:102A400066E471E0CE010E94372F892B09F46AC039
:102A500061E771E0CE010E94372F892B09F462C033
:102A60006EE271E0CE010E94372F892B09F45AC023
:102A700066E371E0CE010E94372F892B09F452C022
:102A80006AE371E0CE010E94372F892B09F44AC016
:102A900060E471E0CE010E94372F892B09F442C017
:102AA00065E471E0CE010E94372F892BD9F16AE4E9
:102AB00071E0CE010E94372F892BB1F160E571E002
:102AC000CE010E94372F892B79F169E571E0CE01A3
:102AD0000E94372F892B41F16EE571E0CE010E94F3
:102AE000372F892B19F164E671E0CE010E94372F50
:102AF000892BF1F06BE671E0CE010E94372F892B14
:102B0000C9F060E771E0CE010E94372F892B91F068
:102B100080E0DF91CF91089581E0FBCF82E0F9CF93
:102B200084E0F7CF88E0F5CF80E4F3CF80E1F1CF08
:102B300080E2EFCF80E8EDCFAF92BF92CF92DF92ED
:102B4000EF92FF920F931F93CF93DF936B017A0164
:102B5000DB01ED91FC91DF01A254BD4FBD01E817EF
:102B6000F907B0F54C911196403281F1493071F17D
:102B7000DF01A254BD4FEF014D91403231F0493099
:102B800021F02196C817D907B8F35E01AE1ABF0A23
:102B9000890101501109A016B10608F48501A801A8
:102BA000C7010E94232F0E0D1F1DF8011082D601B0
:102BB000CD93DC93C501DF91CF911F910F91FF90D1
:102BC000EF90DF90CF90BF90AF9008953196C6CF31
:102BD000EF01DBCFEFE5F4E080E09191890F94E025
:102BE000E337F907D1F795EA89270895F3DF809352
:102BF000730445E150E070E060E08FE594E00C94F0
:102C0000A12FCF93DF93AC0180E030E020E061E0C2
:102C100070E0F90193E0F695E7959A95E1F7EC58A5
:102C2000FB4FD901A770BB27EB0102C0CC0FDD1F02
:102C3000AA95E2F790819C2329F0FA01E80FF11D93
:102C400020838F5F2F5F3F4F2837310511F0803190
:102C500001F7DF91CF910895FF920F931F93CF93C8
:102C6000DF93CDB7DEB760970FB6F894DEBF0FBE27
:102C7000CDBF20910C0121110BC0ABE8B4E0FC01E9
:102C800008962D912193E817F907D9F788E03CC001
:102C9000F62E8C0180916304833009F455C078F4DA
:102CA000813021F18230E1F1ABE8B4E0F801C801F4
:102CB00008962D912193E817F907D9F7E7CF8430CB
:102CC00009F464C0863081F781E0F8018083809147
:102CD0008B0481831282ADE8B4E03396075F1F4F07
:102CE0008D918193E017F107D9F74EC080918B0445
:102CF000F8018193A4E7B4E0005F1F4F8D918193A9
:102D0000E017F107D9F780E160960FB6F894DEBFBF
:102D10000FBECDBFDF91CF911F910F91FF9008950E
:102D200080918B04F80180831182C801029669DFCB
:102D3000E82FF0E03296E00FF11F803110F082E1D1
:102D4000E3CF8F5F1192F9CFCE0101965ADF91E068
:102D50009F0DF801908390918B04918312826F2DC7
:102D6000660F6F0D660F339626E0260F90E068170A
:102D700038F4A1E0B0E0AC0FBD1FA60FB11D9C91CF
:102D800091936F5F6213F2CF89E0BECF86E0F801C6
:102D9000808380918B048183A4E7B4E032960F5E38
:102DA0001F4F8D918193E017F107D9F781E1ACCFE7
:102DB000E091A50391E09E0F9F772091A403291332
:102DC00014C08091360490913704A0913804B091DA
:102DD00039040196A11DB11D8093360490933704E8
:102DE000A0933804B09339040895F0E0EA55FC4FFD
:102DF00080839093A5030895CF93DF93909107016B
:102E0000992309F460C0D62F8634B9F480EE662386
:102E100049F0CEDF82E1CCDF80EECADF8CE7DF91C4
:102E2000CF91C6CFC5DF80EFC3DF8CE7C1DF80EE77
:102E3000BFDF80EFBDDF82E1F2CF883499F46623F3
:102E400009F441C081EEB4DF84E1B2DF87E7B0DF8F
:102E500081EEAEDF80EFACDF84E1AADF80EFA8DF98
:102E600087E7DDCF90E2980F9830B0F4282F205EEE
:102E7000330BF901E658FC4EC491CC2321F187367F
:102E8000D0F4853630F4843521F068F489548A30E2
:102E900060F480EE8DDF09C08836A8F4E82FF0E0FA
:102EA000EE5EFC4EE9CF8835A1F3D11102C080EF70
:102EB0007FDF8C2FB4CF833EC0F3853E50F3865E18
:102EC000823098F7E6CFDF91CF910895AF92BF920D
:102ED000CF92DF92EF92FF920F931F93CF93DF93E6
:102EE000CDB7DEB7A2970FB6F894DEBF0FBECDBF49
:102EF00080915604823009F08DC0F0902604E09055
:102F00008B0410E000E0CC24C394D12CC601002E29
:102F100001C0880F0A94EAF72E2D282331F08F2163
:102F200021F461E080EE800F67DF0F5F1F4F0830F4
:102F3000110561F733E9C32E34E0D32E0DE814E018
:102F40004EE2A42E44E0B42EF80181918F01882333
:102F500051F0E8E2F4E09191891729F0AE16BF062E
:102F6000D1F761E049DFC016D10671F798E2C92EAA
:102F700094E0D92E2EE2A22E24E0B22EF601819109
:102F80006F01882351F0EDE8F4E09191891729F061
:102F90000E171F07D1F760E02FDFAC14BD0471F7E7
:102FA00010E000E0CC24C394D12CC601002E01C057
:102FB000880F0A94EAF72E2D282331F48F2121F06F
:102FC00060E080EE800F18DF0F5F1F4F08301105A3
:102FD00061F788E0EBE8F4E0A6E2B4E001900D923E
:102FE0008A95E1F78CE390E070DC80918704909102
:102FF0008804A0918904B0918A040196A11DB11D95
:103000008093870490938804A0938904B0938A04E2
:1030100081E018C08091AA04811125C080918304A9
:1030200090918404A0918504B09186040196A11D1D
:10303000B11D8093830490938404A0938504B0937E
:10304000860480E0A2960FB6F894DEBF0FBECDBF17
:10305000DF91CF911F910F91FF90EF90DF90CF9074
:10306000BF90AF9008950E94DC0B182F882309F4BD
:103070009EC080916304853079F580910C018111A7
:1030800011C0ABE8B4E0FE01319683E994E0BF01E2
:103090002D9121938A179B07D9F720E43FE148E05F
:1030A00081E015C080918B048983E4E7F4E0DE01C0
:1030B000129683E894E021912D938E179F07D9F7FC
:1030C00028EC30E040E1BE016F5F7F4F82E0D8D84E
:1030D000882309F4B7CF48C0873009F05AC0CE0121
:1030E00043968FDDD82E80918B0489831A827E01CE
:1030F000F3E0EF0EF11C8E010D5E1F4FF801D701BA
:1031000080E090E08D1508F490819D938F5F31965B
:103110008630B9F728E532E048E0BE016F5F7F4FA7
:1031200081E0AED8C82E80918B0489831A8286E014
:1031300090E08D1510F4F8019681F70191937F01CD
:103140008F5F0F5F1F4F8C3099F728E532E048E022
:10315000BE016F5F7F4F82E093D8882309F472CF5E
:1031600081E0CC2009F46DCF409187045091880410
:103170006091890470918A044F5F5F4F6F4F7F4F5A
:1031800040938704509388046093890470938A0461
:1031900059CFABE8B4E0FE013196BF018D91819328
:1031A00084E0A339B807D1F728E532E078CF8091E1
:1031B0000C01813029F48091630402E0833009F02E
:1031C00001E0612FCE01019647DD20E43FE1482F69
:1031D000BE016F5F7F4F81E053D8882309F432CF5F
:1031E0001F5F1013EECF01CFEBE8F4E0982F90951E
:1031F0008081892380836ACECF93DF93882399F0DF
:10320000C82F80E28C0F883090F4C05EDD0B21E087
:1032100030E001C0220FCA95EAF780918B04822B1F
:1032200080938B0453DE81E0DF91CF910895C837FE
:10323000A0F4EC2FE695E695E695F0E0EC58FB4F10
:103240002C2F277081E090E0AC0102C0440F551F85
:103250002A95E2F78081842B8083ADE8B4E0FD01FC
:1032600081918C17F9F254E0E339F507C9F782E050
:1032700090E02D91211105C085579B4FFC01C08323
:10328000D1CF019688309105A1F720DE80916304AB
:10329000982F977F29F0863019F081E0C83720F207
:1032A00080E0C2CF882371F190E2980F983048F403
:1032B000805E990B91E001C0990F8A95EAF7892FFA
:1032C00093CF883798F4E82FE695E695E695F0E0F9
:1032D000EC58FB4F982F977021E030E001C0220F8F
:1032E0009A95EAF72095908129232083EBE8F4E072
:1032F0009281981301C01282319694E0E139F90766
:10330000B9F7E4CD0895EBE8F4E088E0DF011D9221
:103310008A95E9F7E4E7F4E08FE0DF011D928A95F2
:10332000E9F7D4CDF0DF1092990310929803089535
:103330001092B5048091A6029091A702A091A802D4
:10334000B091A9020196A11DB11D8093A602909390
:10335000A702A093A802B093A902E4DF80E07CD882
:103360008091B8049091B9049093B7048093B60407
:103370008CEA90E00E947E0B0C948B0B809156049B
:103380008230B1F188E0EBE8F4E0DF01982F1D9284
:103390009A95E9F7E6E2F4E0DF011D928A95E9F7F4
:1033A000109299031092980380917D008B7F8093F7
:1033B0007D000E947F100E94F80B1092490481E06A
:1033C0008093070110924A041092A70482E0809330
:1033D00056048AEAEDDC8AEF9AE00E947E0B609147
:1033E0004F0470E090E080E00E948B0D0C948B0BFA
:1033F0000895CF92DF92EF92FF92CF9380915E0477
:10340000811163C080915504813031F4CF91FF90D8
:10341000EF90DF90CF908BC8823031F4CF91FF9046
:10342000EF90DF90CF90AACFC091D900C17080916A
:103430005604811155C08091A3049091A404892B56
:1034400029F72091A5043091A60481E090E0223074
:10345000310510F490E080E0892BC1F60E94600BEA
:10346000C0905104D0905204E0905304F090540462
:103470009B01AC012C193D094E095F0969017A01D4
:103480008091500481110DC03CE3C316D104E104C6
:10349000F10438F081E0809350040E940B0D80937A
:1034A0004F048CE291E0A0E0B0E0CC2341F08091A9
:1034B0004F04811110C084EC99E0A0E0B0E0C81680
:1034C000D906EA06FB0608F0A9CFCF91FF90EF904E
:1034D000DF90CF90089580E293E0A0E0B0E0EFCFDE
:1034E000809156048230A9F48091A3049091A404A1
:1034F000892B09F08BCF2091A5043091A60481E09F
:1035000090E02230310510F490E080E0892BE9F260
:103510007DCFCC2349F010924B0410924C041092B2
:103520004D0410924E04D1CFC0904B04D0904C0467
:10353000E0904D04F0904E04C114D104E104F10474
:1035400059F40E94600B60934B0470934C04809379
:103550004D0490934E04B9CF0E94600B6C197D0905
:103560008E099F096C3D75408105910508F4ADCF2A
:1035700010924B0410924C0410924D0410924E0481
:103580001092A6041092A5041092A4041092A30411
:103590001092AA04109250040E94600B6093510490
:1035A00070935204809353049093540410925604E1
:1035B0008CE19BE00E947E0BCF91FF90EF90DF901B
:1035C000CF900C948B0B8F929F92AF92BF92CF9221
:1035D000DF92EF92FF926B017C010E94600B4B0126
:1035E0005C010E94CA1105DF07D9A8950E94600BF3
:1035F000681979098A099B096C157D058E059F0557
:1036000080F3FF90EF90DF90CF90BF90AF909F90AE
:103610008F900895CF92DF92EF92FF92809156049F
:10362000823031F481E0FF90EF90DF90CF900895E9
:10363000809171048823B1F380915604813071F434
:103640008091AA04882351F02091A90481E090E0A0
:10365000222311F090E080E0892B21F70E94600B7B
:103660006B017C010E94600B6C197D098E099F091A
:103670006C3D75408105910510F080E0D4CF8091BC
:103680005604823079F28091AA04882351F0209167
:10369000A90481E090E0222311F090E080E0892BE2
:1036A00009F665E070E080E090E08DDFDBCFCF923F
:1036B000DF92EF92FF9280919903811128C080914F
:1036C0009803811124C0C0909003D0909103E090A2
:1036D0009203F0909303C114D104E104F10461F466
:1036E00012DE60916A0470916B0490E080E0FF90BC
:1036F000EF90DF90CF9067CF0E94600B6C197D092F
:103700008E099F096A3F71058105910548F7FF9071
:10371000EF90DF90CF9008951F93CF93DF93D62F34
:10372000C0919903C095C82369F080918B048C2BBC
:1037300080938B04CBDB60916A0470916B0490E002
:1037400080E041DFDD2309F454C08D2F55DD811168
:1037500047C08D2FA7DD8D2F4FDD11E0811101C0F6
:1037600010E0609166047091670490E080E02BDFC8
:103770008D2F98DDCC2349F060916A0470916B0421
:1037800090E080E020DF8C2F2FDD80916E049091FF
:103790006F04892B11F10E940C2F60916E047091BF
:1037A0006F046F5F7F4F0E94702E6091680470916C
:1037B0006904680F791F90E080E005DF0E94600BCC
:1037C000609390037093910380939203909393037B
:1037D000812FDF91CF911F91089590E080E0E5CF98
:1037E000609166047091670490E080E0ECDE11E087
:1037F000BFCF609166047091670490E080E0E3DEE3
:1038000011E0B8CF90917204992391F09091A704A0
:1038100091FF0EC09CEF960F9A3140F09091650495
:10382000911106C0962F9D7F913311F492E0892764
:1038300073CF4F925F926F927F928F929F92AF92CF
:10384000BF92CF92DF92EF92FF920F931F93CF938D
:10385000DF9300D000D000D0CDB7DEB73C016B01C4
:103860002A01FA0110820E94600BCB010E940F2FE7
:1038700081E00E942C121BDF10E000E0F12CE12C13
:103880004601B12CA12C0C151D0538F48091B5040E
:103890008823F1F081E0F201808380E00E942C1205
:1038A000C70126960FB6F894DEBF0FBECDBFDF91DD
:1038B000CF911F910F91FF90EF90DF90CF90BF902D
:1038C000AF909F908F907F906F905F904F900895F2
:1038D000F301E00FF11F808187FD0FC00F5F1F4FC5
:1038E00090E09C01215631092A31310508F060C071
:1038F00063EA680F80E086DF7BC0982F907E903C63
:1039000079F58F7190E021E0422F50E070E060E0A7
:10391000400F511F611D711D481559056A057B0532
:1039200008F0B0C00F5F1F4FF301E00FF11F41E03F
:103930003191532F507C503801F556E0880F991F74
:103940005A95E1F73F73832B4F5F241788F7020FD7
:10395000111D233091F08D3FFFEF9F0771F0C1CF14
:10396000982F907F903E21F48F7090E022E0CCCF92
:10397000887F803FC9F00F5F1F4F2FEFE21AF20AD6
:103980008091AE029091AF02A091B002B091B102CD
:103990000196A11DB11D8093AE029093AF02A0933A
:1039A000B002B093B1026FCF90E080E023E0ACCFE3
:1039B0009C01215431092A31310520F463EC680F50
:1039C00082E099CF9C01215331096DEE680F2930B7
:1039D000310560F067E28033910541F06BE2893098
:1039E000910521F08A309105C9F468E280E094DE07
:1039F000882319F28091B2029091B302A091B4028F
:103A0000B091B5020196A11DB11D8093B2029093B1
:103A1000B302A093B402B093B50235CF20916504F0
:103A200068E371E1AFE4B0E0213021F468E470E1D3
:103A3000A8E2B0E030E020E0FB0145915491481746
:103A4000590741F02F5F3F4F6A5F7F4F2A173B07AF
:103A500099F793CF46E050E0CE0101960E941A2FCD
:103A60006B81662361F08C8157DE882309F485CF52
:103A700060916C0470916D0490E080E0A4DD6D8134
:103A80008E8139CF860179CF8F929F92AF92BF926C
:103A9000CF92DF92EF92FF920F931F93CF93DF931A
:103AA000CDB7DEB7C756D1090FB6F894DEBF0FBE4B
:103AB000CDBF7C018091B6029091B702A091B8026F
:103AC000B091B9020196A11DB11D8093B6029093E9
:103AD000B702A093B802B093B9021092B504EEEB0E
:103AE000F2E030E020E02E153F0509F181918032AF
:103AF000A9F0893099F0F901E254FD4FC9014191D3
:103B00006C015FEFC51AD50A403211F0493049F413
:103B1000821B930B79F40E948F0BBFC32F5F3F4F23
:103B2000E2CFC601CE14DF0450F36701F1CFC90123
:103B30006901EECF8031910510F08FE090E0F9013E
:103B4000E254FD4F8E01075B1F4FD80121913FE9E1
:103B5000320F3A3108F420522D939D01201B310B76
:103B60002817390798F3800F911FFC01108265E731
:103B700071E0C8010E94372F892B39F487E399E05F
:103B80000E947E0B0E948B0B88C36AE771E0C8011C
:103B90000E94372F892B09F043C08DE795E00E94E2
:103BA0007E0B0E948B0B8FE395E00E947E0B0E94A0
:103BB0008B0B87EF94E00E947E0B0E948B0B82EBB5
:103BC00094E00E947E0B0E948B0B81E594E00E94A2
:103BD0007E0B0E948B0B8FEE93E00E947E0B0E9467
:103BE0008B0B8CE993E00E947E0B0E948B0B86E48A
:103BF00093E00E947E0B0E948B0B87EE92E00E9466
:103C00007E0B0E948B0B80EA92E00E947E0B0E944A
:103C10008B0B8CE492E00E947E0B0E948B0B7BCF7F
:103C20006FE771E0C8010E94372F892B19F40E94B9
:103C3000580E71CF64E871E0C8010E94372F892BBC
:103C400009F088C082E492E00E947E0B0E94600B23
:103C500028EE33E040E050E00E94842ECA01B90112
:103C60000E948B0D89E392E00E947E0B6091B60268
:103C70007091B7028091B8029091B9020E948B0DA9
:103C800080E392E00E947E0B6091AB047091AC04E3
:103C90008091AD049091AE040E948B0D88E292E079
:103CA0000E947E0B6091B2027091B3028091B402C7
:103CB0009091B5020E948B0D8EE192E00E947E0BE6
:103CC0006091AE027091AF028091B0029091B1020A
:103CD0000E948B0D0E948B0B84E192E00E947E0B70
:103CE0006091B1047091B2048091B3049091B404D6
:103CF0000E948B0D89E092E00E947E0B6091AA02E7
:103D00007091AB028091AC029091AD020E948B0D3C
:103D100080E092E00E947E0B6091A6027091A70263
:103D20008091A8029091A9020E948B0D83EF91E0EF
:103D30000E947E0B809199030E946D0D88EE91E0A8
:103D40000E947E0B6091980370E090E080E00E94FA
:103D50008B0D63CF6BE871E0C8010E94372F892B70
:103D600019F40E94380FD7CE6FE871E0C8010E94A5
:103D7000372F892B09F0D2C06B96DFAECEAE6B9792
:103D80002AE030E0AE014F5F5F4FBE01675A7F4FC0
:103D9000C7010E949C15892B19F40E94A70DBBCE68
:103DA000CE0101960E94550C6DE071E0CE010196A6
:103DB0000E94372F892B29F482E080935504DEDAA4
:103DC000AACE60E171E0CE0101960E94372F892BC7
:103DD00031F481E0809355040E9497129CCE63E9F0
:103DE00071E0CE0101960E94372F892B89F4109241
:103DF000550410925604109250040E94600B609378
:103E0000510470935204809353049093540483CECE
:103E100068E971E0CE0101960E94372F892B41F4A9
:103E20008AEA0E94D8168CE291E00E94651473CE53
:103E30006CE971E0CE0101960E94372F892B21F4A5
:103E400081E08093070167CE63EA71E0CE010196BD
:103E50000E94372F892B29F40E940B0D80934F0469
:103E60009CCF69EA71E0CE0101960E94372F892B21
:103E700069F528E030E0AE014F5C5F4FBE01675A44
:103E80007F4FC7010E949C15892B09F486CFCE0174
:103E9000C1960E94550C6DE071E0CE01C1960E9462
:103EA000372F892B21F481E00E94811076CF60E1C9
:103EB00071E0CE01C1960E94372F892B11F480E06A
:103EC000F3CF8EE199E00E949B0BE7C160EB71E0BC
:103ED000CE0101960E94372F892BE9F428E030E0CB
:103EE000AE014F5C5F4FBE01675A7F4FC7010E9412
:103EF0009C15892B19F489E099E0E5CFBE016F5933
:103F00007F4FCE01C1960E94630C8823A1F3A29635
:103F10008FADA29786CF87EC98E0D5CF64EB71E0A8
:103F2000C8010E94372F892B29F4FCD980E00E9418
:103F30002C12F1CD60EC71E0C8010E94372F892B63
:103F400091F5F0D980E00E942C128EE190E09093E0
:103F5000670480936604909369048093680482E305
:103F600090E090936B0480936A0488E290E09093D1
:103F70006D0480936C0485E090E090936F048093CF
:103F80006E0481E0809370048093710480937204C6
:103F90000E94F6158091B8049091B9049093B704EB
:103FA0008093B604B8CD68EB71E0C8010E94372F4A
:103FB000892B09F061C010E000E06FEFC8010E949A
:103FC000B02F0F5F1F4F05311105B9F788E49BE44F
:103FD0009093600480935F0481E0809361048093F8
:103FE0006204109263049AE0909364041092650452
:103FF0002EE130E030936704209366043093690427
:104000002093680422E330E030936B0420936A0429
:1040100028E230E030936D0420936C0425E030E01A
:1040200030936F0420936E04809370048093710426
:10403000809372040E94EA158093730481E898E0EB
:104040000E947E0B0E948B0B0E948F0B0E94B10C72
:1040500069D90E94FD0B64E670E080E090E0B3DA7D
:10406000F89488E198E00FB6F894A89580936000E2
:104070000FBE90936000FFCF66EC71E0C8010E9414
:10408000372F892BC1F40E948F0B0E94B10C4AD9A3
:104090000E94FD0B64E670E080E090E094DAF89412
:1040A00088E198E00FB6F894A895809360000FBE61
:1040B00090936000FFCF6DEC71E0C8010E94372F34
:1040C000892B09F053C0DAAAC9AA81E06A968FAF9A
:1040D0006A9728E030E0AE014F5F5F4FBE016F5C32
:1040E0007F4FC7010E949C15892B61F0BE01675A62
:1040F0007F4FCE0101960E94C214811103C08EE64B
:1041000098E0E1CE6A968FAD6A9780935E04109234
:104110005D0410925C0410925B040E94600B60933B
:104120005704709358048093590490935A046A96E4
:104130008FAD6A97882309F4EECC1092A6041092F2
:10414000A5041092A4041092A3041092A204109249
:10415000A1041092A00410929F0410929E04109249
:104160009B041092940410929304D5CC62ED71E0FC
:10417000C8010E94372F892B09F0A5C0DAAAC9AA65
:1041800028E030E0AE014F5F5F4FBE016F5C7F4FB4
:10419000C7010E949C15892B19F480E598E093CE05
:1041A000CE0101960E94550C68ED71E0CE0101969A
:1041B0000E94372F892B09F484C06CED71E0CE0189
:1041C00001960E94372F892B61F061EE71E0CE01DC
:1041D00001960E94372F892B09F473C082E398E07F
:1041E00072CE10E0109362040E94F6150E948F0BAD
:1041F000112351F00E94CF0B882331F083E098E027
:104200000E947E0B0E948B0B0E94B10CF8940E94BE
:10421000FD0B78946CE271E080E090E0D4D91092CC
:10422000A6041092A5041092A4041092A304109264
:10423000A2041092A1041092A00410929F04109264
:104240009E0410929D0410929C048FEF80930B01AA
:1042500080930A01809309011092870410928804C8
:104260001092890410928A0410928304109284049C
:104270001092850410928604F8940E94CF0B81114D
:1042800010E0109308010E94280D789464EF71E00B
:1042900080E090E098D90E94580EC959DF4F0FB6C0
:1042A000F894DEBF0FBECDBFDF91CF911F910F916C
:1042B000FF90EF90DF90CF90BF90AF909F908F9046
:1042C000089511E08FCF69EE71E0C8010E94372F89
:1042D000892B09F040C0DAAAC9AA2CE030E0AE016F
:1042E0004F5F5F4FBE016F5C7F4FC7010E949C15FF
:1042F000892B39F489EF97E00E947E0B0E94A70C6E
:104300008CCCCE0101960E94550C60EF71E0CE017D
:1043100001960E94372F892BA1F061EE71E0CE014A
:1043200001960E94372F892B61F068E871E0CE0179
:1043300001960E94372F11E0892B21F08DED97E037
:10434000C2CD10E0109365040E94F6151093650429
:1043500083ED97E0D1CF64EF71E0C8010E94372F61
:10436000892B09F0C6C0DAAAC9AA2CE030E0AE0158
:104370004F5F5F4FBE016F5C7F4FC7010E949C156E
:10438000892B19F487E897E09ECDCE0101960E9413
:10439000550C68EC71E0CE0101960E94372F892BF5
:1043A00009F495C063EF71E0CE0101960E94372FAA
:1043B000892B09F48EC068EF71E0CE0101960E944E
:1043C000372F892B09F487C06FE072E0CE01019688
:1043D0000E94372F892B09F480C06EEF71E0CE0167
:1043E00001960E94372F892B09F479C065E072E0AD
:1043F000CE0101960E94372F892B09F472C067E124
:1044000072E0CE0101960E94372F892B09F46BC010
:104410006DE072E0CE0101960E94372F892B09F4DE
:1044200064C065E172E0CE0101960E94372F18E06A
:10443000892B09F0A7CF109363040E94F6150E9400
:104440008F0B0E94B10C0E949219F8940E94FD0BF0
:1044500078946CE271E080E090E0B5D81092A60408
:104460001092A5041092A4041092A3041092A20426
:104470001092A1041092A00410929F0410929E0426
:1044800010929D0410929C048FEF80930B018093F7
:104490000A018093090110928704109288041092F7
:1044A000890410928A04109283041092840410925A
:1044B000850410928604F894109363040E94CF0B35
:1044C000811115C08091620480930801DCCE10E058
:1044D000B2CF11E0B0CF12E0AECF13E0ACCF14E01A
:1044E000AACF15E0A8CF16E0A6CF17E0A4CF80E0B2
:1044F000EBCF60E272E0C8010E94372F892B09F0F0
:1045000081C06B96DFAECEAE6B972AE030E0AE0195
:104510004F5F5F4FBE01675A7F4FC7010E949C15D6
:10452000892B19F488E697E0CECCCE0101960E9443
:10453000550C61EE71E0CE0101960E94372F892B58
:1045400009F45EC0BE016F5C7F4FCE0101960E94F0
:104550003412882379F089A99AA9ABA9BCA9AC0126
:10456000BD0141505109610971094034510561058E
:10457000710518F089E497E0A6CC182F1093640415
:104580000E94F6150E948F0B0E94B10CF8940E94B5
:10459000FD0B78946CE271E080E090E014D810920A
:1045A000A6041092A5041092A4041092A3041092E1
:1045B000A2041092A1041092A00410929F041092E1
:1045C0009E0410929D0410929C048FEF80930B0127
:1045D00080930A0180930901109287041092880445
:1045E0001092890410928A04109283041092840419
:1045F0001092850410928604F8941093640443CEBC
:104600001AE0BCCF67E172E0C8010E94372F892B06
:1046100009F09AC080916304863029F0883019F03F
:1046200084E297E050CC80915604813041F480912F
:10463000AA04882321F080910C01811103C081E03C
:1046400097E041CCDAAAC9AA2CE030E0AE014F5F76
:104650005F4FBE016F5C7F4FC7010E949C15892B85
:1046600019F48CEC96E02FCCCE0101960E94550CEB
:1046700065E272E0CE0101960E94372F892BC1F1CD
:104680006BE272E0CE0101960E94372F892B09F46C
:104690004CC061E372E0CE0101960E94372F892B56
:1046A00009F446C066E372E0CE0101960E94372FFE
:1046B000892B09F440C06BE372E0CE0101960E94A1
:1046C000372F892BD9F160E472E0CE0101960E9468
:1046D000372F892BB1F165E472E0CE0101960E947B
:1046E000372F07EB10E0892B29F08AEB96E0EBCB14
:1046F00009EE10E081E00E942C12C8010E94901186
:10470000609166047091670490E080E00E94E31A73
:1047100090E080E00E9490116091680470916904BB
:1047200090E080E00E94E31A01CC0AEE10E0E2CFB4
:1047300002EE10E0DFCF0DEC10E0DCCF05EB10E077
:10474000D9CF06EB10E0D6CF6AE472E0C8010E9430
:10475000372F892B89F50E948F0B0E94B10CF8949A
:104760000E94FD0B78946CE271E080E090E00E9482
:10477000E31A1092A6041092A5041092A4041092B9
:10478000A3041092A2041092A1041092A00410920B
:104790009F0410929E0410929D0410929C04F89421
:1047A0000E94280D789464EF71E080E090E00E9410
:1047B000E31A0E94380F71CD62EC71E0C8010E94CB
:1047C000372F892B09F0F5C0A396DFAECEAEA397A5
:1047D00020E130E0AE014F5C5F4FBE016F597F4F6B
:1047E000C7010E949C156C0120E130E0AE014F5FD3
:1047F0005F4FBE016F597F4FC7010E949C158C010E
:1048000087E091E0CD2809F45ECBCE01C1960E94ED
:10481000550C61E572E0CE01C1960E94372F892BBD
:1048200009F167E572E0CE01C1960E94372F892B0E
:10483000C9F06BE572E0CE01C1960E94372F892B3B
:1048400089F062E672E0CE01C1960E94372F892B73
:1048500049F067E672E0CE01C1960E94372F892B9E
:1048600009F062C0012B19F48DEF90E02CCBBE0152
:10487000675A7F4FCE0101960E9434128823A1F31C
:104880006D968CAD9DADAEADBFAD6D97893E93403D
:10489000A105B10550F088EE93E0A0E0B0E06D9680
:1048A0008CAF9DAFAEAFBFAF6D9761E572E0CE014B
:1048B000C1960E94372F6B960EAD1FAD6B97892B5B
:1048C00039F410936704009366040E94F61523C917
:1048D00067E572E0CE01C1960E94372F892B29F43B
:1048E0001093690400936804F0CF6BE572E0CE0189
:1048F000C1960E94372F892B29F410936B040093E3
:104900006A04E3CF62E672E0CE01C1960E94372FBF
:10491000892B29F410936D0400936C04D6CF109367
:104920006F0400936E04D1CF6EE672E0CE01C196A3
:104930000E94372F892B81F063E772E0CE01C19688
:104940000E94372F892B41F069E772E0CE01C196B2
:104950000E94372F892B51F5012B19F48FEE90E02F
:10496000B2CABE01675A7F4FCE0101960E94C2149F
:104970008823A1F36EE672E0CE01C1960E94372F24
:104980006A961FAD6A97892B19F4109370049DCF16
:1049900063E772E0CE01C1960E94372F892B19F48C
:1049A0001093710492CF109372048FCF89ED90E031
:1049B0008ACA61E872E0C8010E94372F892B09F08A
:1049C00063C06B96DFAECEAE6B972CE030E0AE01ED
:1049D0004F5F5F4FBE01675A7F4FC7010E949C1512
:1049E000892B19F483EB96E06ECABE016F5C7F4F92
:1049F000CE0101960E9434128823A1F389A99AA9B5
:104A0000ABA9BCA981369A4EA105B10540F080E65C
:104A10009AEEA0E0B0E089AB9AABABABBCAB0E9426
:104A2000600B6B017C010E94600B6C197D098E0983
:104A30009F0909A91AA92BA93CA960177107820728
:104A4000930708F068C88091B5048823B1F080917D
:104A5000A6029091A702A091A802B091A902019686
:104A6000A11DB11D8093A6029093A702A093A80256
:104A7000B093A90288EA96E083C865E070E080E020
:104A800090E00E94E31ACFCF67E872E0C8010E946D
:104A9000372F892B39F06CE872E0C8010E94372F5C
:104AA000892B79F5F801B0800E940A1B811103C09F
:104AB00089E996E008CA1982B7016C197D09AE012F
:104AC0004F5F5F4FC60182549D4F0E94191C8C019D
:104AD000FCE4BF1211C0898181110EC081E00E94E7
:104AE0002C1268E280E00E948C1B811102C00F5FD3
:104AF0001F4F80E00E942C126981C8010E946D1234
:104B0000CCCB61E972E0C8010E94372F892B09F0F4
:104B1000B7C0A796DFAECEAEA7976E0121E3C20E57
:104B2000D11C28E130E0A601BE016B597F4FC701BF
:104B30000E949C15892B19F48DE896E0C4C981E088
:104B400090E0A0E0B0E0A5968CAF9DAFAEAFBFAF58
:104B5000A59728E030E0AE01475A5F4FBE016B5980
:104B60007F4FC7010E949C15892B31F1BE016F59FF
:104B70007F4FCE01875A9F4F0E943412882351F0F5
:104B8000A5968CAD9DADAEADBFADA5970097A10527
:104B9000B10519F483E896E096C9893C9105A10511
:104BA000B10550F088EC90E0A0E0B0E0A5968CAFA5
:104BB0009DAFAEAFBFAFA5970E940A1B811103C086
:104BC00084E796E080C9B601CE0101960E94402F8D
:104BD000CE0101960E94550CCE0101960E940D1047
:104BE000F82E81E00E942C120E94571B812C912CE0
:104BF000540110E000E0A5968CAD9DADAEADBFAD0B
:104C0000A59788169906AA06BB0630F0F12C80E01D
:104C10000E942C126F2D71CF8091B50481112DC08F
:104C2000FF2069F06F2D0E948C1B811102C00F5F65
:104C30001F4F5FEF851A950AA50AB50ADCCF80E001
:104C40000E942C12A8961FAEA897F6010190002092
:104C5000E9F73197BF016C197D09AE0149595F4FE2
:104C6000C6010E94191C080F191F81E00E942C1216
:104C7000A8968FADA8978823E1F2FF24F394C7CFBD
:104C800065E972E0C8010E94372F892B09F0B0C096
:104C9000A396DFAECEAEA39720E330E0AE014F5F28
:104CA0005F4FBE016F597F4FC7010E949C15892B32
:104CB00019F486E696E007C981E090E0A0E0B0E054
:104CC0006D968CAF9DAFAEAFBFAF6D9728E030E073
:104CD000AE014F5C5F4FBE016F597F4FC7010E940D
:104CE0009C15892B29F1BE01675A7F4FCE01C196D1
:104CF0000E943412882351F06D968CAD9DADAEADFF
:104D0000BFAD6D970097A105B10519F48CE596E04C
:104D1000DAC8893C9105A105B10550F088EC90E016
:104D2000A0E0B0E06D968CAF9DAFAEAFBFAF6D971A
:104D3000CE0101960E94550CF12C8E010F5F1F4F82
:104D40006BE270E0C8010E942C2F6C01009711F0FB
:104D5000FC011082F8018081811103C08EE496E08D
:104D6000B2C8C8010E94E614C114D10439F08823E6
:104D7000A9F3F82A86010F5F1F4FE2CF882349F07D
:104D8000F82AE12C0E940A1B81110AC08FE396E0E9
:104D90009AC8C8010E944310E82E8111F3CFDECFDC
:104DA00081E00E942C120E94571B812C912C5401EF
:104DB00010E000E06D968CAD9DADAEADBFAD6D97D2
:104DC00088169906AA06BB0608F020CF8091B50484
:104DD000811153CF6E2D8F2D0E948C1B811102C02B
:104DE0000F5F1F4FFFEF8F1A9F0AAF0ABF0AE2CF74
:104DF0006BE972E0C8010E94372F892B41F06DEA00
:104E000071E0C8010E94372F892B09F069C0DAAA26
:104E1000C9AA28E130E0AE014F5F5F4FBE016F5C71
:104E20007F4FC7010E949C15892B19F483E396E0FC
:104E30004AC8F8010081043439F40E940A1B811128
:104E400003C084E296E03FC8CE0101960E94550C53
:104E5000CE0101960E94E614182F882309F104342C
:104E6000C1F480918B04812B80938B040E94661780
:104E700080919903182B109399030E94600B609303
:104E800094037093950380939603909397030C94E7
:104E90008B1D0E94F4181095809199031823EBCF75
:104EA000CE0101960E9443108823B1F0043461F4CE
:104EB0000E94FC18882381F0809198038630E8F6E0
:104EC0008F5F80939803D9CF0E94521980919803E5
:104ED000882399F28150F5CF88E196E00C94631F06
:104EE00060EB71E0C801C3D7892B09F055C06B9600
:104EF000DFAECEAE6B9728E030E0AE014F5C5F4F87
:104F0000BE01675A7F4FC7010E949C158C0128E0A3
:104F100030E0AE014F5F5F4FBE01675A7F4FC70160
:104F20000E949C15012B21F488EF95E00C94631FDF
:104F3000892BD1F3BE016B597F4FCE01C1960E94E0
:104F4000630C882389F3BE016F597F4FCE01019610
:104F50000E94630C882341F30E940A1B811104C044
:104F600089EE95E00C94631F81E00E942C120E9450
:104F7000571BA2966FADA297A6968FADA6970E94DB
:104F80008C1B182F80E00E942C1211110C948B1D89
:104F900085ED95E00C94631F8091AB049091AC0477
:104FA000A091AD04B091AE040196A11DB11D8093F6
:104FB000AB049093AC04A093AD04B093AE048FEB1C
:104FC00095E00E947E0BC8010E94730B0C94C21DD9
:104FD0001F920F920FB60F9211248F939F93AF934E
:104FE000BF938091BA059091BB05A091BC05B0918B
:104FF000BD050196A11DB11D8093BA059093BB0517
:10500000A093BC05B093BD05BF91AF919F918F91C7
:105010000F900FBE0F901F9018951F920F920FB612
:105020000F9211242F934F935F938F939F93AF937E
:10503000BF93EF93FF932091CE0081E08093AF0464
:10504000233011F0283189F481E08093B504FF9179
:10505000EF91BF91AF919F918F915F914F912F9160
:105060000F900FBE0F901F901895822F8D7F81316A
:1050700071F38091B8049091B904019699274091F9
:10508000B6045091B70448175907A1F48091B104B0
:105090009091B204A091B304B091B4040196A11D03
:1050A000B11D8093B1049093B204A093B304B09364
:1050B000B404CDCFE091B804F091B904E654FB4FAD
:1050C00020839093B9048093B804C1CF1F920F92AC
:1050D0000FB60F9211242F933F938F939F9380913C
:1050E000E1001092E10090919B04982B90939B0417
:1050F00083FF1BC02091A5043091A6042F5F3F4F72
:105100003093A6042093A5041092E90091E09093B7
:10511000EB001092EC0092E09093ED0098E09093F9
:10512000F0001092AA041092A90482FF11C02091ED
:105130009C0430919D042F3F3F4F51F020919C04DF
:1051400030919D042F5F3F4F30939D0420939C042A
:1051500080FF08C091E09093A904909194049F5F10
:105160009093940484FF07C01092A9048091930443
:105170008F5F809393049F918F913F912F910F9018
:105180000FBE0F901F9018951F920F920FB60F929F
:1051900011249F92AF92BF92CF92DF92EF92FF9233
:1051A0000F931F932F933F934F935F936F937F932F
:1051B0008F939F93AF93BF93EF93FF93CF93DF931F
:1051C000CDB7DEB7EB97DEBFCDBF1092E90080917F
:1051D000E80083FF81C0C090F100D090F100809181
:1051E000F100E090F100FE2CE82E8091F100A090FB
:1051F000F100BA2CA82E6091F1000091F100102F5F
:10520000062F82EF8093E8008091A3049091A4047C
:1052100001969093A4048093A304D0920B01C092B2
:105220000A0126E0D2122FC18091A1049091A2041C
:1052300001969093A2048093A1049F2CF0920901FF
:105240000E94DC0B882309F4A8C082E0F81220C079
:105250008091630463EE73E1873031F06EE174E1B5
:10526000883011F468EA73E14BE350E0CE01019617
:10527000E1D50E94B90B8AA30E94B90B8BAF0B3307
:10528000110510F00BE310E0B801CE010196C7C084
:1052900021E0F21211C042E150E06FE676E1CE016A
:1052A0000196C8D58DEE8B878EEF8C870231110564
:1052B00058F302E110E0E8CF81E2F8122FC08091AC
:1052C0006304873009F4DAC1883009F0E0C188EA64
:1052D00093E1DFC10E94030CEB960FB6F894DEBF9A
:1052E0000FBECDBFDF91CF91FF91EF91BF91AF91F5
:1052F0009F918F917F916F915F914F913F912F91EE
:105300001F910F91FF90EF90DF90CF90BF90AF90E3
:105310009F900F900FBE0F901F90189522E2F212EF
:1053200015C0AA94AB2839F5809163048530F1F05B
:10533000873009F127E130E08BE794E1B8012017CD
:10534000310708F4B9010E940C0CC6CF23E0F21219
:10535000C1CFEE20A9F081E0E816B9F022E0E21218
:10536000B9CF22E130E082E893E1E8CF29E330E0F1
:1053700087EF95E1E3CF2FE330E080E396E1DECFE6
:1053800024E030E084EA93E1D9CF20E130E084E901
:1053900093E1D4CF8EE094E1D1CF80916304833048
:1053A00009F440C058F4813009F448C0823081F0DB
:1053B0005FE3C52ED12C80E396E10FC08430C1F1AC
:1053C0008630B1F76AE5C62ED12C82E994E105C09A
:1053D000FFE3CF2ED12C88EB95E122E0921619F055
:1053E00021E2921235C042E250E069E574E1CE015B
:1053F000019620D5CA8E1B8E0E94C30B88A30E94E3
:10540000B90B8AA382E09816F9F0CE01439639E0F1
:1054100020E0632F722F0617170708F4B8010E94C7
:10542000310C5ACFE9E6CE2ED12C8FE495E1D5CFC1
:1054300073E6C72ED12C8CEE94E1CFCF49E3C42E76
:10544000D12C87EF95E1C9CFCE01019632E2E0CFB2
:1054500021E0921609F4F6C022E2921609F4F7C090
:1054600083E0981237CFEE2009F4F8C021E0E2166D
:1054700009F4FAC082E0E8122DCF82E1C82ED12CC7
:1054800082E893E1E4C025E0D21211C0C11088C0C7
:1054900081E08093A0048EEF8093E8008091E80083
:1054A00080FFFCCF8E2D80688093E30015CF89E0CC
:1054B000D81254C0C11074C081E080939F04E09260
:1054C000AA048EEF8093E80016E01093E900809123
:1054D000EB008E7F8093EB008091ED008D7F8093B9
:1054E000ED00115091F781E08093E9008093EB008B
:1054F00081E88093EC000E94C30B803231F080344D
:1055000049F1803149F580E101C080E282608093F9
:10551000ED0002E00093EA001092EA000E94DC0B2A
:105520008823A9F00093E90081E08093EB0081E8F3
:105530008093EC0080916304853009F410E11260DF
:105540001093ED0084E08093EA001092EA0010923C
:10555000E900C2CE80E3DACF80E0D8CF28E0D212D3
:1055600009C080E8C8121CC08091AA04898361E048
:1055700070E08BCED11009C08C2D8D7F803881F4E6
:1055800019821A8262E070E080CE8D2D8D7F81308D
:1055900039F48C2D8D7F21F48EEF8093E8009CCE22
:1055A000A114B10449F00E94DC0B882309F492CEC7
:1055B000AA94AB2809F08ECE81EAC81217C021E068
:1055C000D21208C060E0CE0101960E942C16682F0E
:1055D00070E05BCE82E0D81203C08091A804C6CFF1
:1055E00023E0D21277CE80910C01C0CF81E2C812A5
:1055F00071CE2AE0D21203C0F092A804CDCF8BE086
:10560000D81203C0E0920C01C7CF29E0D21262CEBB
:105610008091E80082FFFCCF90E080E020E08017DE
:10562000910769F08830910531F42093A7048BEF3E
:105630008093E800B1CF2091F1000196F0CF892B43
:10564000B1F3F3CF32E1C32ED12C8FE696E1B8014E
:10565000C016D10608F077CEB60175CE24E0C22E72
:10566000D12C84EA93E1F3CF90E1C92ED12C84E9C7
:1056700093E1EDCF8B9629E030E060CE29E030E079
:10568000AA94AB2809F486CE85EF93E157CE8EE13C
:1056900094E1AA94AB2871F34296EDCF14BE0FB6F5
:1056A000F894A895809160008861809360001092C2
:1056B00060000FBE80E00E94C411209A569A5E9846
:1056C00080E8809361001092610045E150E070E055
:1056D00060E08FE594E025D480915F0490916004B0
:1056E00088349B4409F047C080916104813009F0FF
:1056F00042C0C09173040E94EA15C8133CC0809157
:1057000063048930C0F5809165048230A0F58091F2
:1057100064048150803478F5809166049091670428
:10572000893E934040F58091680490916904893ED8
:10573000934008F580916A0490916B04893E9340F0
:10574000D0F480916C0490916D04893E934098F45C
:1057500080916E0490916F04893E934060F4809133
:105760007004823040F480917104823020F4809182
:1057700072048230C0F188E49BE4909360048093CB
:105780005F0481E08093610480936204109263045B
:105790009AE090936404109265042EE130E0309317
:1057A000670420936604309369042093680422E31D
:1057B00030E030936B0420936A0428E230E03093A9
:1057C0006D0420936C0425E030E030936F04209347
:1057D0006E048093700480937104809372040E941D
:1057E000EA158093730480916204809308010E94FB
:1057F000CF0B81111092080180917D008B7F8093E7
:105800007D000E947F100E94280D789482E084BD64
:1058100093E095BD99EF97BD80936E001092CD00F7
:1058200087E68093CC001092C80086E08093CA007F
:1058300088E98093C90088E198E20FB6F894A895AA
:10584000809360000FBE909360000E94600B609395
:1058500051047093520480935304909354040E9413
:10586000580E87EF9CE00E947E0B0E948B0B81EF0D
:105870009CE00E947E0B0E948B0B0E94600B609349
:105880008703709388038093890390938A038091A0
:10589000D900817001E0A8951091D900117081178D
:1058A00099F08091990490919A04019690939A04AA
:1058B000809399040E94600B609395047093960402
:1058C00080939704909398048091AF04882391F07B
:1058D0001092AF040093B0040E94600B6053784FA5
:1058E0008F4F9F4F60938B0370938C0380938D0336
:1058F00090938E030E94CA110E94F9190E94FC1312
:105900008091B50481110E94981980915E048823CA
:1059100039F080915604823009F098C010925E04EC
:1059200080919903811104C0809198038823D9F054
:105930000E94600BC0909403D0909503E090960372
:10594000F09097036C197D098E099F0960337547A4
:105950008105910540F00E94921987E499E00E9428
:105960007E0B0E948B0B8091B00481112AC0C091E4
:105970000401CC2331F10E94600BC0908703D090CA
:105980008803E0908903F0908A036C197D098E09E1
:105990009F09683B7B408105910598F00E94600B50
:1059A00060938703709388038093890390938A039D
:1059B000C150C093040181E499E00E947E0B0E94D3
:1059C0008B0B2091B8043091B9048091B60490916A
:1059D000B7042817390709F44CC1E091B604F091D7
:1059E000B704E654FB4FC0818091B6049091B70490
:1059F000019699279093B7048093B6048091B004E0
:105A0000811110C00093B0040E94600B6053784F66
:105A10008F4F9F4F60938B0370938C0380938D0304
:105A200090938E038C2F90E0009759F28D30910562
:105A300009F4C9C08A30910509F01DC18091BA02EC
:105A40008D3009F0C5C01092BA02BBCF8091A50479
:105A50009091A604892B31F48091A3049091A40421
:105A6000892BF1F010925E0481EC9AE00E947E0B8B
:105A700060915D0470E090E080E00E948B0D89EB06
:105A80009AE00E947E0B60915B0470915C0490E050
:105A900080E00E948B0D0E948B0B0E94380F40CF3C
:105AA0000E94600BC0905704D0905804E0905904B5
:105AB000F0905A046C197D098E099F09603B74406F
:105AC0008105910508F42CCF0E94600B6093570468
:105AD000709358048093590490935A0480915D0404
