:020000041000EA
:1000000000B5324B212058609868022188439860DF
:10001000D860186158612E4B002199600221596106
:100020000121F02299502B49196001219960352056
:1000300000F044F80222904214D00621196600F024
:1000400034F8196E01211966002018661A6600F04E
:100050002CF8196E196E196E052000F02FF8012189
:100060000842F9D1002199601B49196000215960AB
:100070001A491B48016001219960EB211966A021F2
:10008000196600F012F800219960164914480160C1
:100090000121996001BC002800D000471248134993
:1000A000086003C880F30888084703B5996A0420EC
:1000B0000142FBD001200142F8D103BD02B5186610
:1000C0001866FFF7F2FF186E186E02BD00000240BE
:1000D000000000180000070000035F00212200005C
:1000E000F4000018222000A00001001008ED00E03C
:1000F00000000000000000000000000074B24E7A12
:1001000000200420F7010010CB0100105D500020FA
:10011000C9010010C9010010C9010010C901001077
:10012000C9010010C9010010C9010010CF01001061
:10013000C9010010C9010010D1010010D301001045
:10014000C1010010C1010010C1010010C101001067
:10015000C1010010C1010010C1010010C101001057
:10016000C1010010C1010010C1010010C101001047
:10017000C1010010C1010010C1010010C101001037
:10018000C1010010C1010010C1010010C101001027
:10019000C1010010C1010010C1010010C101001017
:1001A000C1010010C1010010C1010010C101001007
:1001B000C1010010C1010010C1010010C1010010F7
:1001C000EFF30580103800BE00BE00BE00BE00BECA
:1001D00000BE00BEF2EB88718C020010BC02001061
:1001E0003802001090A31AE700202149086006C8D1
:1001F00081F3088810471F480068002801D00020BC
:10020000F3E70DA40ECC002902D000F012F8F9E7B4
:1002100019491A4A002000E001C19142FCD1184955
:100220008847184988471849884700BEFDE701C933
:1002300001C29A42FBD37047BC020010F4000020B8
:10024000ECAA0020B4AC0010F0AA002018E20020B4
:10025000DCE300100000042000000420DCE30010B8
:10026000001004200010042000000000704700006F
:1002700008ED00E0000000D018E20020A8090320EB
:0C028000A5940020795000206794002015
:10028C006CD9002078D9002084D9002090D9002086
:10029C009CD90020A8D90020B4D90020C0D90020B6
:1002AC00CCD9002040DA002038DA00202CDA0020EB
:1002BC0070B50500081CEC21890507F027FF061C0A
:1002CC0007F070FF84B2002C12D0200007F042FF20
:1002DC00011C301C07F015FF8721C90507F031FF01
:1002EC0007F060FFC3B21B0224041C432C6070BDDA
:1002FC002300F8E710B504001022002108F01CF8C8
:10030C0080235B022360F8235B0263608023DB02A3
:10031C00A360C0231B03A360200010BD10B5002AEE
:10032C001BD0202300291AD0102423433034A44698
:10033C00644623438363002905D0436B38210B406B
:10034C00084941180B60002A06D0436B0722134062
:10035C00044A94466044036010BD1300E2E78C46E7
:10036C00E6E7C0463410000082B000226B46D91D6F
:10037C0006E08369DB06FCD403680B7001320131A3
:10038C00002AF6D06B46D87902B0704770B50400DD
:10039C000D00FFF7AFFF2A001E32636804490B40C3
:1003AC00ED012B43120313436360200070BDC04664
:1003BC007F00FEFF70B505000C00FFF79BFFA21C31
:1003CC0013346B6804490B40D201134324032343B9
:1003DC006B60280070BDC0467F00FEFF10B5140096
:1003EC0093009B185B019B1A5A019B189B001B1BCB
:1003FC005A01D31A1A02D21A120112190A4B9C462C
:10040C006244002A0DD0002408E053035A40530CD8
:10041C0053405A015A40130E035501348C42F4D305
:10042C0010BD014AEFE7C046B979379E054B1B6BEF
:10043C00DB0705D5034B9B699B06FBD4014B18606E
:10044C007047C0460080034010B5040002E0013440
:10045C00FFF7ECFF20780028F9D110BD70B505002E
:10046C000848FFF7F1FF1C2408E02A00E2400F23A4
:10047C001340054AD05CFFF7D9FF043C002CF4DA9A
:10048C0070BDC04680B4002048B0002010B50C00F0
:10049C00FFF7DAFF2000FFF7E1FF0248FFF7D4FF78
:1004AC0010BDC04684B400200148FF239843704718
:1004BC00DBE4001088204005704710B5FFF7FAFF09
:1004CC000400FFF7F1FF201A10BD000082B0EFF31B
:1004DC00108172B6144B1A6880239B015340C022C2
:1004EC0092011340114A13600023019302E0019B17
:1004FC0001330193019AFA239B009A42F7DBD02334
:10050C001B069B68022018408007C00F012358402F
:10051C00C0B2054B1B68C02292011340034A136002
:10052C0081F3108802B070470C8001400C900140A0
:10053C0070B503000C00150000210EE0605C584003
:10054C0006090F231840074A80008058704006099E
:10055C0003409B009B5873400131A942EED3180015
:10056C0070BDC046FCAF002010B50A00012301008D
:10057C005842FFF7DDFFC04310BD10B580235B056B
:10058C009C466044FFF7F0FF10BD00000348FF23BA
:10059C009843F0231B069C4660447047DBE4001034
:1005AC0010B504000268074B9A4208D12421FFF7CA
:1005BC00DBFF636AC01A43425841C0B210BD002031
:1005CC00FCE7C0464F4B4B49030000785A781202A7
:1005DC0010439A7812041043DB781B0618437047BB
:1005EC0001700B0A43700B0C8370090EC1707047BD
:1005FC000022FF2A06D8835C013BDBB2FD2B03D91A
:10060C000132F6E7012000E000207047044B9B69A3
:10061C001B07FBD4034B9B691B07FBD47047C046DD
:10062C000040034000800340024B9B6C5B09072099
:10063C0018407047008000400B490A683F23134064
:10064C000A4A13608B681B051B0D094A1360CB68A3
:10065C001B0C0722134007480360CB681B0B1A4086
:10066C00054B1A607047C04600C0024044E70020AA
:10067C0038E700203CE7002040E700204379032BBB
:10068C0001D000207047427B034B1B789A4201D06B
:10069C000020F7E70120F5E78F090320F0B5C646E7
:1006AC0000B50400884615000D49042207F04AFEE7
:1006BC00261D29003000FFF793FF20000830434629
:1006CC00EA183021FFF78AFE34213000FFF74CFF87
:1006DC00010020003830FFF783FF80BCB846F0BD26
:1006EC0088B4002070B5CE46464640B58468002CD0
:1006FC0030D0456B002D32D00369002B31D1036B08
:10070C001E1E30D1C36A9C4222D9E31A9946C36893
:10071C009D4201D9EB1A1E00FA218900200006F037
:10072C0097FE8046FA218900280006F091FE104BB6
:10073C009C4201D8032398460D4B9D4200D80320C0
:10074C004B46434511D80023B0425B41D8B202E07E
:10075C00B146DCE7002060BCB146A84670BD002065
:10076C00F9E70020F7E70020F5E70020F3E7C046A3
:10077C00B70B000010B53C23C35C012B18D0836869
:10078C00002B18D00269002A17D14269002A16D111
:10079C00428D1F2A15D8C2689C1AFA2189001800AC
:1007AC0006F056FE03000020A3424041C0B203E015
:1007BC00FFF798FF00E0002010BD0020FCE70020B0
:1007CC00FAE70020F8E730B53C23CA5CC254C36A90
:1007DC00CA6A9B18C362036B0A6B9B180363436B57
:1007EC004A6B9B1843630B6803604B6843604B6A0E
:1007FC0043623823CA5CC2540133CA5CC25401330D
:10080C00CA5CC2540133CA5CC25483688A689B18A0
:10081C008360C368CA689B18C36003690A699B1824
:10082C00036143694A699B184361036A0A6A9B180E
:10083C0003628269C3698C69CD6912196B4182614B
:10084C00C3610B8D028D934200D203854B8D428D7B
:10085C00934200D9438530BD044B1B78043BDBB27B
:10086C00002001229A424041C0B270478B090320FC
:10087C00004870478813000030B504000D000022BA
:10088C00074809E0A15C4140FF230B4005495B0090
:10089C005B5A000A58400132AA42F3DB30BDC04615
:1008AC00FFFF00005CB1002030B505000C000023F8
:1008BC00FF2004E0EA5C42400249885C0133A34219
:1008CC00F8DB30BD5CB0002010B5002907D01B4B05
:1008DC001B689C461A4A9B5801336446A350052852
:1008EC000BD00938012802D9164B00221A700029A6
:1008FC0002D0144B00221A7010BD104B1B6812480A
:10090C001A5801321A500F4A1278002A0DD00F4A89
:10091C0012689200D058844680200004644620431C
:10092C00D0500B481A5801321A500A4B1B68023B24
:10093C00064A1360034B01221A70D8E7F8F2022022
:10094C000CFA0000A009032014FA0000ECF20220BB
:10095C0018FA0000F0F2022070B5DE4656464D46FD
:10096C00444670B584B00300754A12689046754AC7
:10097C00106880004044824600240026002100209C
:10098C0000220192802212068146029418002CE06B
:10099C001F239C4638E0002804DB80231B060198AB
:1009AC0018430190002405E001348B401E430131B3
:1009BC0008290CD00135AC4512DD1000D343DB0FF8
:1009CC005200062CE7D00028EEDA0024EDE753465F
:1009DC0049465E5401239846C14400260021E9E7AC
:1009EC0002940398D8466346C01A002814D0564D7A
:1009FC002B685C1C2C609B0044461D591E28C7DCD0
:100A0C001E231B1A9D4084466B006B405A400025E8
:100A1C00C346029C0390CEE74B461D00002904D030
:100A2C0080231B05019A1A430192002D63DD534666
:100A3C001A78FA231B024146CB5C002B34D080235E
:100A4C009A4204D080235B05019A1A430192012D2E
:100A5C0051DD53465B780F241C40DB431B110F22E6
:100A6C0013409C4222D080239B05019A1A43019289
:100A7C00052C23D0092C21D0012C1FD00D2C1DD0DE
:100A8C00042C1BD0082C3DD0032C05D00B2C03D0F0
:100A9C00072C01D00F2C18D1032D42DC8023DB0452
:100AAC00019A1A43019210E08123C9E7002CDFD18F
:100ABC0080239B05019A1A430192DBE7042D23D076
:100ACC008023DB04019A1A430192019E310020001D
:100ADC00FFF7FAFE1A4B19681A4A1368023B2E43A9
:100AEC009B005E500335E91703230B405B199B10E9
:100AFC0011685B18136004B078BCB346AA46A146D3
:100B0C00984670BD052DDBD1A91E50460230FFF76B
:100B1C00CBFE0928D9D08023DB05019A1A43019218
:100B2C00D3E7A91E50460230FFF7A6FE074B9842AA
:100B3C00CBD08023DB05019A1A430192C5E7C0464E
:100B4C00F8F20220F0F20220E4F2022001B00000E0
:100B5C00084B1A68FA231B02D35C002B04D0064BFB
:100B6C004B431B0CC01A7047044B4B431B0CC01A55
:100B7C00F9E7C046F8F2022055150000ABAA0000B8
:100B8C0010B50E2004F0E8FED0231B068022D20103
:100B9C005A629A6110BD000010B51C2800D010BD1F
:100BAC0004F0DAFE80235B05D0242406A3620E2019
:100BBC0004F0D2FE8023DB01A3620F2004F0CCFEF4
:100BCC0080231B02A362064B064A1A60064808F0F3
:100BDC00A0FE00220021002006F08AFADFE7C046C2
:100BEC00F0000020969669698CB4002010B50D4871
:100BFC0008F08FFE0C4B1B6BDB0704D40A4B1B6BF2
:100C0C009B0707D410BD094808F083FE064B012250
:100C1C001A63F7E7064808F07CFE034B02221A63BE
:100C2C00F0E7C046C8B4002000003050D4B4002017
:100C3C00E4B4002010B50D4808F06BFE0C4B1B6B98
:100C4C00DB0704D40A4B1B6B9B0707D410BD094868
:100C5C0008F05FFE064B01221A63F7E7054808F01F
:100C6C0058FE034B02221A63F0E7C046F4B400208E
:100C7C0000002050D4B4002070B5CE46464640B596
:100C8C00494C236858681968FFF762FF8146474A48
:100C9C0000231360464A1360464A1360464A137099
:100CAC002268464953504649535046495350464989
:100CBC005350002500262FE0444808F02AFE002659
:100CCC00394B1A68424BD65060BCB146A84670BD31
:100CDC001368023B9B00802292045A500120002191
:100CEC004042FFF7F1FD304B1968354A8B58013300
:100CFC008B5046460FE02E4B1B68023B9B0080221C
:100D0C0052045A5000210520FFF7DEFD4646274AC3
:100D1C001368013313600135234B1A682C4BD358DD
:100D2C00AB42CDDD21490B689B009C580B6801330D
:100D3C009B0098582100FFF70BFF80235B029C421D
:100D4C00BAD2194B19681A4A136801339C464B46A0
:100D5C00C01A63469B005850144803680233036062
:100D6C00136802331360731C9846002CB0D0012C0E
:100D7C0009D1FA231B02CB5C002BBCD00C4A1368A4
:100D8C00023B1360C3E7601EFFF7E6FD1F21200046
:100D9C0006F05EFB012901D94646BCE7034A1368FD
:100DAC00013313604646B6E7F8F20220E4F2022063
:100DBC00F0F20220ECF20220A00903200CFA000051
:100DCC0010FA000014FA000018FA000000B5002018
:100DDC0008FA000010B51B4B012204211C2004F062
:100DEC008BFD194C1949200005F02CFF0221102015
:100DFC0004F002FD0221112004F0FEFC236BC02242
:100E0C0012021340124A1360002301220821200011
:100E1C0005F0E6FE0021200005F0F8FE002200217E
:100E2C002000FFF77BFA0F2004F096FDD0231B0661
:100E3C00802212029A62002201210F2004F0F6FC9B
:100E4C0010BDC046DD090020004003408024010095
:100E5C003050034010B5FFF7BDFF00220B4B9A42F8
:100E6C0006DCD0231B065B681B0403D40132F5E7B8
:100E7C00002300E00123002B05D0054808F049FDB4
:100E8C00FFF77EFE10BD0348F8E7C046B70B000025
:100E9C0034B5002044B5002010B5040004F05CFD0E
:100EAC000123A340D02212069362002200212000CD
:100EBC0004F0BCFC10BD000070B5040005000B482C
:100ECC0008F056FD012C0DD0084C20001C302900D8
:100EDC0008F04EFD2000203008F04AFD044808F0D0
:100EEC0018FD70BD034808F043FDF7E780B50020FE
:100EFC00A8B5002094B5002070B5CE46464640B546
:100F0C0088B00600140099460EAB1D781368526A1F
:100F1C001B4800920A00310008F02AFD3823E15CDE
:100F2C00002921D1A168E26823699846206A844689
:100F3C006669208D648D4B46012B1DD0114B002D05
:100F4C001CD0114D06950593202504950394029011
:100F5C0001966346009343460C4808F009FD08B01F
:100F6C0060BCB146A84670BD0133E25C0133E35C62
:100F7C00074808F0FDFCD5E7064BE0E7064DE1E736
:100F8C00D0B50020B4B50020C0B5002010B60020AC
:100F9C00F4B50020ACB50020C8B5002030B583B046
:100FAC00144B1A68144B9A4201D003B030BD114C4B
:100FBC00A16AE26A01231940104808F0D9FC616863
:100FCC00A268E368206984460D486546009508F0E0
:100FDC00CFFC6169A269E369206A8446656A0948A5
:100FEC00643001956546009508F0C2FC002323602F
:100FFC00DBE7C046C0000020DC7E01FA6CB60020A6
:10100C00B8B6002080B6002070B5FFF74DFA050089
:10101C00FFF750FA0400FFF750FA030002482200D1
:10102C00290008F0A5FC70BD18B70020F0B5C64625
:10103C0000B580460E00C046C046C046C046C046FD
:10104C00C046D02424068025AD01A561192005F0E9
:10105C0039FD32004146334809F0EEFEC046C04629
:10106C00C046C046C046C046C046C046C046C04644
:10107C00C046C046C046C046C046C046C046C04634
:10108C00C046C046C046C046C046C046C046C04624
:10109C00C046C046C046C046C046C046C046C04614
:1010AC00C046C046C046C046C046C046C046C04604
:1010BC00C046C046C046C046C046C046C046C046F4
:1010CC00C046C046C046C046C046C046C046C046E4
:1010DC00C046C046C046C046C046C046C046C046D4
:1010EC00C046C046C046C046C046C046C046C046C4
:1010FC00C046C046C046C046C046C046C046C046B4
:10110C00C046C046C046C046C046C046C046C046A3
:10111C006561C046C046C046C046C046C04680BC9D
:10112C00B846F0BD0000044010B5D0231B06802249
:10113C00D2015A61D0231B065B681B04FAD5D0235D
:10114C001B068022D2019A61FFF770FF10BD0000D0
:10115C0070B5C64600B5CDB0724B1C68724D2B688D
:10116C009B001A592B6801339B0018596F4B1B6855
:10117C006F4B1B68C31A09931104090C2B680233BB
:10118C009B00E3185B780F261E40B4462B68023395
:10119C009B00E418674B1C60674B1B78002B03D03B
:1011AC00664B099D9D424FDCCB1C9B1002335E4D60
:1011BC002E68B04643442B605D4B18605E4B012596
:1011CC001D7080235B0415001D402E001A4201D0B7
:1011DC0005239C465A4B1B68022B3AD0584B1B6874
:1011EC00012B39D0574B1B78DDB2002B07D063464F
:1011FC00052B48D1130232D4524B00251D7013021B
:10120C0003D5514B1B68002B2ED0930133D4002EE9
:10121C0000D083E08023DB049A4200D380E0634655
:10122C00092B38D0494B1B78002B08D06346032B75
:10123C0003D00B2B01D0072B01D10C2930D0434B01
:10124C0000221A7001251EE0414808F062FB0025BF
:10125C0019E06346052BC1D1344B1860C2E73D4AF7
:10126C001368013313600EE0364B01221A70394BB0
:10127C001A60012507E0324B1B68032B08D02E4B5C
:10128C0000221A70012528004DB040BCB04670BD3C
:10129C00264B1860F3E72D4B01221A700125F2E75B
:1012AC00E3781B02A27813437F221A401600DB114D
:1012BC000F221A400B9280256D002A0000210CA8E9
:1012CC0007F03AF8A378E278217988466079A17919
:1012DC008C46E1790991217A0A91647A21000CAC4F
:1012EC0007910A9906910999059161460491039019
:1012FC0041460291019200930B9B3200164920004B
:10130C0008F00AF9200008F004FB29002000FFF780
:10131C000BFF124A13680133136090E70125B2E703
:10132C000125B0E7F8F20220D8F20220E8F2022000
:10133C00E0F20220FCF202209E090320102700009C
:10134C00D8DA00209F090320D4F20220A20903203E
:10135C0078B70020DCF20220C0B70020CC080320B4
:10136C0070B5494B1A68494BD358002B21D04848CB
:10137C0008F0CFFA444B1B685968464A11605A680A
:10138C00454B1A60454A00231370454A01211170E0
:10139C00444A1360444A136000243B4B1A683B4B8D
:1013AC00D358A34209DDFFF7D3FE002805D0013442
:1013BC00F3E73E4808F0ADFA5DE0384B1B78002BA4
:1013CC0003D0384B1B68002B56D1394C20002830E9
:1013DC0008F09FFA374D2800443008F0C9FA2A4E1D
:1013EC003268354BD1581C34200008F0C1FA280063
:1013FC004C3008F0BDFA314808F0BAFA3268304B7C
:10140C00D158200008F0B4FA2800583008F0B0FA8F
:10141C002A4808F0ADFA32681C4BD158200008F06D
:10142C00A7FA3268FA231B02D35C002B29D025487B
:10143C0008F09EFA1F4C214808F09AFA124E3268B6
:10144C00214BD158214D280008F092FA200064302D
:10145C0008F08EFA194808F08BFA32681C4BD158F8
:10146C00280008F085FA20006C3008F081FA200082
:10147C007C3008F04EFA70BD0A4B1868FFF71CFD63
:10148C00A3E71448D4E7C046F8F2022008FA00009B
:10149C0030B80020E8F20220E0F202209F0903207D
:1014AC009E090320DCF20220D8F2022014B800209E
:1014BC0080B5002000B800200CFA000054B80020C1
:1014CC0010FA0000FCB7002014FA00009CB50020B4
:1014DC0018FA000008B8002070B5050005F0D2FA23
:1014EC002A0000238018594104000D00D0231B064C
:1014FC005B681B0408D405F0C5FAA94202D8F5D1E3
:10150C00A042F3D9002000E0012070BD70B50400AA
:10151C0008000D000C22002106F00EFF0C23002BFE
:10152C0009DB064A99008A58A24201D9013BF6E729
:10153C002A60012000E0002070BDC046D0B300201E
:10154C0010B50400FA231B02C0181C22002106F05F
:10155C00F3FEFFF78DF9014BE05010BD04FA0000CB
:10156C0070B506000D00154C8022520000212000A1
:10157C0006F0E2FE124B23600323237166710723EE
:10158C00A37125722B0A63722B0CA3722D0EE572BC
:10159C000C4B1B6823731A0A62731A0CA2731B0E72
:1015AC00E3731034084B220023CB23C213CB13C29A
:1015BC00198811809B78937070BDC0465807032022
:1015CC004F4B48434C04032080B8002010B5040056
:1015DC0000210320FFF7C4FF034BDC71034A117891
:1015EC004F22995410BDC046580703208F09032081
:1015FC0010B52822014906F0A5FE10BD00003010E0
:10160C0010B58EB004A8FFF7F3FF80238022184C8E
:10161C0020001C301749029117490191C021890300
:10162C0000919B035203002108F0A2F9FEF7AEFFD4
:10163C0001002000743008F09BF9104B1B68092B3B
:10164C0000D900230E4A9B0099580E4808F090F9D7
:10165C0004A8FEF7A5FF002801D10EB010BD059916
:10166C00069A099B0B9C0848009408F081F9F4E752
:10167C0080B80020001060000010300028F3022019
:10168C00D4AF002010B9002028B9002070B500217B
:10169C000320FFF765FF174B174A11784F22995417
:1016AC00002424E0B0256543144BED18124B1A7836
:1016BC00120323011B1B59015B181B011B1BD218A6
:1016CC000132B0212800FEF789FE0D4BB022290013
:1016DC001D00180006F036FE290040390120D022EA
:1016EC004042FEF725FF074BA20098500134072C0F
:1016FC00D8D970BD580703208F0903204CE7002070
:10170C00A8070320CCEC002070B5114B1E680725F0
:10171C00354001361E60B02169430E4BC9180E4C82
:10172C00B022200006F00EFE200048383100FEF7F3
:10173C0057FF21004C39094BAD00E8580822FEF741
:10174C00F7FEC14320004438FEF74AFF70BDC04687
:10175C0048E700204CE70020A8070320CCEC002031
:10176C0070B5CE46464640B5814688461600C04602
:10177C00C046C046C046C046C046D024240680257C
:10178C00AD01A561192005F09DF93300424649468B
:10179C00334809F02FFBC046C046C046C046C04681
:1017AC00C046C046C046C046C046C046C046C046FD
:1017BC00C046C046C046C046C046C046C046C046ED
:1017CC00C046C046C046C046C046C046C046C046DD
:1017DC00C046C046C046C046C046C046C046C046CD
:1017EC00C046C046C046C046C046C046C046C046BD
:1017FC00C046C046C046C046C046C046C046C046AD
:10180C00C046C046C046C046C046C046C046C0469C
:10181C00C046C046C046C046C046C046C046C0468C
:10182C00C046C046C046C046C046C046C046C0467C
:10183C00C046C046C046C046C046C046C046C0466C
:10184C00C046C046C046C046C0466561C046C0469C
:10185C00C046C046C046C04660BCB146A84670BD36
:10186C000000044070B504000D001600D0231B06C8
:10187C008021C9015961FA20C000FFF72DFE002814
:10188C000AD0D0231B068022D2019A613200290093
:10189C002000FFF765FF70BDD0231B068022D2010C
:1018AC009A610138F7E7000070B50600002400E0EB
:1018BC000134202C0CD8351907490422280008F0D3
:1018CC0079FF0028F4D1231DF35C032BF0D100E049
:1018DC000025280070BDC04604B4002070B500215E
:1018EC000120FFF73DFE7B4C80256D002A00002176
:1018FC00200006F021FD78482A002100FFF7B2FFF6
:10190C00002800DAA3E07348FFF7CEFF041E00D1D5
:10191C00A9E0704BC31A714A1360714A1268934262
:10192C0001D26F4A13606F4A1268934201D96D4A13
:10193C0013606379013BDBB2012B00D9AFE0A279D4
:10194C00694B1A70E579AB07DB0F684A13706B07AC
:10195C00DB0F674A1370EB06DB0F664A137020002F
:10196C000C30FEF731FE644B186020001030FEF78F
:10197C002BFE624B186001232B40614A1370200030
:10198C000830FEF721FE5F4B1860A27E5E4B1A708A
:10199C00E27E5E4B1A70237F627F120213435C4A15
:1019AC001380A37FE27F120213435A4A1380202331
:1019BC00E25C594B1A7020002430FEF705FE574BA1
:1019CC0018602823E25C564B1A702923E25C554BB5
:1019DC001A702A23E25C544B1A703C23E35C3D22C0
:1019EC00A25C12021343514A13802D07ED0F504B8A
:1019FC001D702B23E25C4F4B1A702C23E25C4E4B78
:101A0C001A702D23E25C4D4B1A702E23E25C4C4B6A
:101A1C001A702F23E25C4B4B1A7020003030FEF70B
:101A2C00D3FD494B186020003430FEF7CDFD474BF9
:101A3C00186020003830FEF7C7FD454B1860454B49
:101A4C0001221A70444A13680133136070BD414B74
:101A5C0000221A70414A136801331360404A13681C
:101A6C0001331360F2E73B4B00221A703B4A1368B8
:101A7C00013313603B4A1368013313603A4B15482A
:101A8C00010034C934C31A000B681360FF23C25C15
:101A9C00364B1A70FEF7ACFD354B1870D6E72D4B54
:101AAC00002119702D4A1368013313602D4A1368F5
:101ABC00013313602C4B074A140061CC61C318002E
:101ACC0023680360FF23D25C284B1A70284B1970D3
:101ADC00BCE7C046580603205807032088F20220B2
:101AEC00DCDA00208CF202209109032096090320F5
:101AFC009509032097090320BCF20220B8F20220BA
:101B0C008A09032080F202208F0903208D0903200B
:101B1C0082090320800903208B09032084F2022010
:101B2C00900903208E0903208C09032084090320CB
:101B3C00980903209C0903209B0903209909032081
:101B4C009A0903209D090320C8F20220C4F2022046
:101B5C00C0F2022094090320ACF20220A8F2022069
:101B6C00B4F20220A0F2022090F20220930903208A
:101B7C009209032070B500210120FFF7F1FC0E4BF8
:101B8C0080246400220000211D00180006F0D4FB04
:101B9C000A4822002900FFF765FE002808DB0648EA
:101BAC00FFF782FE002802D04379042B02D170BDCE
:101BBC000020FCE70020FAE7580603205807032012
:101BCC0070B5C64600B583B00600009101920025A1
:101BDC0000E00135172D37DC31000220FFF7C0FC87
:101BEC001A4C80235B0098461A000021200006F056
:101BFC00A3FB174842462100FFF734FE0028E8DB20
:101C0C001248FFF751FE041EE3D04379022BE0D1BA
:101C1C001430FEF7D9FCB042DBD1227E637E1B026E
:101C2C001A4390461300013B9BB27F2BD1D8210065
:101C3C006031009806F086FB019B42461A80012019
:101C4C0003B040BCB04670BD0020F9E75806032035
:101C5C005807032070B5CE46464640B582B0009278
:101C6C001E000B78032B19D8354AD25C824210D057
:101C7C00089B1B6A0133089A13620B78002B35D032
:101C8C0000230B704F2831D101330B702D4B187082
:101C9C002CE05A1C0A702B4AD05427E05A1C0A70AC
:101CAC00284AD0540B783B2B20D900230B70264BA1
:101CBC001C001800FEF788FC019034212000FEF770
:101CCC0053FC0500230034331800FEF77DFC8046DE
:101CDC002B1A5A425341DBB2994685420BD04545EB
:101CEC0027D0089B1B690133089A136102B060BCB2
:101CFC00B146A84670BD009A019B9C466244134BAA
:101D0C0030211C001800FEF769FB1149302220001D
:101D1C0008F050FD0028E2D0002399464B46002BDA
:101D2C00DFD0019A3260089BDB680133089AD360DC
:101D3C00DCE73368019A9342F0D3002BD1D1EDE765
:101D4C00CCB30020080903200C090320D40803207D
:101D5C001009032070B5002500E00135072D22DCA9
:101D6C0005F06CF900210120FFF7FAFB0F4C8026DF
:101D7C00760032000021200006F0DEFA0C4832001A
:101D8C002100FFF76FFD0028E7DB0848FFF78CFD0B
:101D9C000028E2D04379012BDFD12D33C25C054BF7
:101DAC001A70012070BD0020FCE7C04658060320C5
:101DBC00580703209A09032070B5DE4656464D4657
:101DCC00444670B584B000900191029203930CAB21
:101DDC0010CB1B789B46414A13780133DBB213704E
:101DEC00002B02D1130001221A703C4B1B789A462F
:101DFC00002398463FE0002005E00133232B0DD84B
:101E0C00002CF8D0E05C1A00A43235498854002C20
:101E1C00F3D0E25C002AF0D10024EEE7314DC4216E
:101E2C002800FEF7A1FB01002800C430FEF7D8FB08
:101E3C002D4E80235B0099461A000021300006F0DD
:101E4C007BFA281F4A463100FFF70CFD00280FDBF8
:101E5C002548FFF729FD00280AD04379012B07D12B
:101E6C002D33C25C214B1A702323C35C534533D0F2
:101E7C0001239C46E0444346172B21DC05F0DEF899
:101E8C0000210620FFF76CFB154D194B1A784F23D8
:101E9C00EA545346AB729823009AEA540133019AE0
:101EAC00EA5401335A46EA5428009C300299FEF752
:101EBC0097FB2800A0300399FEF792FB00239DE7C7
:101ECC000C4B01221A700120404204B078BCB3467E
:101EDC00AA46A146984670BD0020F6E7A509032046
:101EEC00580703205C070320580603209A09032097
:101EFC009C090320A409032070B5DE4656464D46C6
:101F0C00444670B581468B469246304A137801336D
:101F1C001370002602E0002B51D10136952E4DDCBA
:101F2C0005F08CF800210520FFF71AFB284C294BF3
:101F3C001A784F23E254200050304946FEF750FBEC
:101F4C00200054305946FEF74BFB204B1A7858238F
:101F5C00E25401335246E254201DC421FEF704FB27
:101F6C0001002000C830FEF73BFB1B4D80235B00BB
:101F7C0098461A000021280006F0DEF94246290096
:101F8C002000FFF76FFC0028C7DB1348FFF78CFC21
:101F9C000028C2D04379042BBFD1427A1300591EBA
:101FAC008B41DBB2007A094909788842B5D14946A0
:101FBC000029B0D153425A41D3B2ACE700231800E8
:101FCC0078BCB346AA46A146984670BDA609032024
:101FDC00580703208F0903205806032070B5FF20F3
:101FEC00FFF7F4FA002500E001353F2D1CDC05F06D
:101FFC0025F8FFF789FB0D4C802676003200002176
:10200C00200006F099F90A4832002100FFF72AFC5B
:10201C000028E9DB0548FFF747FC0028E4D0FEF771
:10202C002DFB0028E0D070BD0020FCE758060320F3
:10203C005807032010B5144A13680133136080222B
:10204C005201934200D210BD0F4B00221A6004F0D3
:10205C00F5FF0E4B1B78002BF5D00D4B9B6A0D4AF0
:10206C0012689B1A0C4A9342EDD9084B00221A7045
:10207C0096210A48490007F07BFC00220021002031
:10208C0005F036F8FEE7C046F4FD00208909032070
:10209C0000400540F8FD002000A3E1116CB90020C0
:1020AC0010B5064B00221A6004F0C8FF044B9A6A64
:1020BC00044B1A60044B01221A7010BDF4FD002071
:1020CC0000400540F8FD00208909032010B51A20B6
:1020DC0003F042FCD0231B068022D2045A62002457
:1020EC0008E0D0231B068022D2049A61FA2004F067
:1020FC00C5FB01340B2C09DC04F0A0FFE307F0D581
:10210C00D0231B068022D2045A61EFE7D0231B0692
:10211C008022D2049A619A6210BDF0B5C64600B511
:10212C0080461A2003F018FCD0231B068022D20410
:10213C005A62C82004F0A2FB00240CE0D0252D0626
:10214C008026F6046E61C82004F098FBAE61C820AE
:10215C0004F094FB01344445F0DBD0231B068022B1
:10216C00D2049A6280BCB846F0BD000070B5C64679
:10217C0000B58FB00E2003F0EFFBD0231B0680229E
:10218C00D2015A625A61022004F078FBFFF7E2FD9B
:10219C00002805D0274B1B78002B17D11D0001E020
:1021AC0000231D002C00D0231B068022D2019A6133
:1021BC00022004F063FBFFF7CDFD002809D01D4B76
:1021CC001B78002B13D000231E0004E001231D00FC
:1021DC00E8E700231E00B046D0231B068022D20164
:1021EC009A61002C06D0002E11D1134B03E0012371
:1021FC001E00F0E7104B114A2C2103A807F0A2F99E
:10220C00002C06D04346002B12D1012102E00C4BCE
:10221C00F1E70121C9B20023019303AB0093330012
:10222C002A004020FFF7C8FD0FB040BCB04670BD7F
:10223C000021EFE79A090320B0B90020B8B90020BB
:10224C00A8B9002070B590B000240026002503E04A
:10225C000136FFF77FFD01343F2C08DC04F0EEFE65
:10226C00D0231B065B681B04F2D50135F1E70A4A43
:10227C0005AC00962B002C21200007F063F9694275
:10228C006941C9B200230193009433002A00412014
:10229C00FFF792FD10B070BDCCB9002070B5DE46D2
:1022AC0056464D46444670B584B083460E00002316
:1022BC000B60002807D1002004B078BCB346AA46B6
:1022CC00A146984670BD052004F06CFD05005B46E8
:1022DC0018180138594605F0BBF80400012803D939
:1022EC00C30702D5013400E0022480239B009C42EA
:1022FC0011D82100280005F0ABF8AC4211D8834569
:10230C0012D330607560002333727372B372F37240
:10231C000133039301E00023039301239946B24652
:10232C004DE000230393F8E700230393F5E785249E
:10233C002C486043414605F08BF843089B450FD36E
:10234C00524612689A420BD25246136050600223D6
:10235C001372534654724A469A72DE7201230393E7
:10236C000136B14528D34B46734398461A000023D7
:10237C005846002105F0A8FE04000D0024196D41FB
:10238C0002940195174A00232000290005F09EF8BD
:10239C000400002DCBD103D1134B029A9A42C6D81C
:1023AC00104A0023200005F08FFE0029C0D1D7D1A0
:1023BC000E4B9842BCD8D3E701239C46E1444B46D4
:1023CC00072B01D80126CCE75646039B002B04D0E3
:1023DC003368002B03D100206EE700206CE701204E
:1023EC006AE7C046001BB700FF21D85F7F17B42CEB
:1023FC0070B5DE4656464D46444670B584B00190E5
:10240C00029103929B460C9D734A13780133DBB205
:10241C001370002B02D1130001221A706E4B1B7823
:10242C009A460023984605E0012A00D1BCE001231E
:10243C009C46E0444346172B00DDC3E004F0FEFD50
:10244C0000210420FFF78CF8644C019BE371644B72
:10245C001A784F23E254039B2372029B63725346F8
:10246C00A3725B46E372296820005030FEF7B8F87F
:10247C00696820005430FEF7B3F8A9682000583082
:10248C00FEF7AEF8E96820005C30FEF7A9F8296980
:10249C0020006030FEF7A4F8696920006430FEF774
:1024AC009FF8A869E969FA229200002305F00EF85A
:1024BC00010020006830FEF793F8296A2000743080
:1024CC00FEF78EF8696A20007030FEF789F8454BEC
:1024DC00196820007830FEF783F8052004F062FCC0
:1024EC00010020008030FEF77BF8E96A200088307C
:1024FC00FEF776F8296B20008C30FEF771F8696BCB
:10250C0020009030FEF76CF83C23EA5C5833E25420
:10251C005C3BEA5C4433E254433BEA5C4433E254B4
:10252C00433BEA5C4433E254433BEA5C4433E254BD
:10253C002A8D133BE2542B8D1B0A6D22A3546A8DFA
:10254C006E23E2546B8D1B0A6F22A354201DC421F1
:10255C00FEF70AF801002000C830FEF741F8224EC1
:10256C0080235B0099461A000021300005F0E4FE40
:10257C004A4631002000FFF775F9002800DA56E7CB
:10258C001948FFF791F9002800D150E74279D31E82
:10259C00DBB2012B00D947E7C37B534500D043E79F
:1025AC00807B431E98410FE02323C35C534500D02E
:1025BC003DE72023C25C0D4B1A702223C05C431EE6
:1025CC00984101E00120404204B078BCB346AA46D1
:1025DC00A146984670BDC0468609032058070320C3
:1025EC008F09032030E70020580603208B090320B5
:1025FC0070B5CE46464640B582B081468846160038
:10260C009F2301936C4600230093EFF3108572B661
:10261C000422694601A808F039FD85F31088637817
:10262C0048460370A37841460B70E378337002B0D0
:10263C0060BCB146A84670BD10B582B06B46D81DC3
:10264C00002303706A46911D0B70541D53712200B8
:10265C00FFF7CEFF22781300103BDBB2092B03D817
:10266C000120904002B010BD0020FBE710B5FFF731
:10267C00E3FF024B83428041404210BDFF0F6000DC
:10268C0070B5C64600B583B06B46DD1D00232B70BC
:10269C006A46961D9371541D537122003100280017
:1026AC00FFF7A6FFFFF7C8FF80462378327829781A
:1026BC00104807F05DF94346002B12D044461A0D22
:1026CC000D48190007F054F980256D040B481022B1
:1026DC00290007F04DF9AC4207D0094807F019F969
:1026EC0003E02178074807F043F903B040BCB0463B
:1026FC0070BDC046ECB9002058BA002080BA00204A
:10270C00ACBA002010BA0020F0B5C64600B50600E1
:10271C00884680235B019A4212D3EFF3108572B680
:10272C00802464012100300008F0E8FB22004146BF
:10273C00300008F047FC85F3108880BCB846F0BD2B
:10274C00881880235B019A1AFF2105F0F5FDE4E758
:10275C0070B58EB000256B46DD720A246C44257072
:10276C0009266E443570320021000B236B4418008F
:10277C00FFF73EFF6B46DB7A180421780A02104300
:10278C00040030780443424A03AE019000912C219E
:10279C00300006F0D7FE6B46DB7A013BDBB2FD2145
:1027AC009942894149420195009600232200032059
:1027BC00FFF702FBFFF740FF0400030D354A102121
:1027CC0000911C31300006F0BDFE8023FF22120662
:1027DC00A1184A1E9141C9B2019500965B042200D2
:1027EC000420FFF7E9FA2C4B1B78DB0712D50022EB
:1027FC0080235B019A4218D2284B19784B015B1A43
:10280C00DBB2D100891A5B18DBB25A3324498B54E2
:10281C000132EDE700230193224B009300230022A9
:10282C0003210520FFF7C8FA30E004F007FC8022F2
:10283C001B49E0205201C003FFF766FF04F0FEFBCA
:10284C000023002400E0013380225201934207D27E
:10285C00154A995C124AD25C9142F4D00134F2E7E9
:10286C00E023124A03AD0094DB032C21280006F070
:10287C0069FE802321004A1E9141C9B200220192B7
:10288C0000955B0122000520FFF796FA0EB070BD93
:10289C00F8BA002010BB00209B0903209C090320E0
:1028AC0034F302202CBB0020000070103CBB002035
:1028BC00F0B5C64600B50400134B03602421FDF7A8
:1028CC0053FE606280267600104D3200FF212800F6
:1028DC0005F032FD28222100280005F033FDEFF32E
:1028EC00108872B68021C024A4034901200008F08E
:1028FC0005FB32002900200008F064FB88F31088E7
:10290C0080BCB846F0BDC0464F4B4B493403032046
:10291C0010B58AB06846FEF76BFE6846FDF740FEC0
:10292C00002802D0019B022B01D00AB010BD6846D2
:10293C00002301930293FFF7BBFF024806F0E9FF67
:10294C00F3E7C04654BB002070B5DE4656464D46F4
:10295C00444670B592B06E4B1D68A9466D4B1E680F
:10296C006A1E80235B039A4206D312B078BCB3462E
:10297C00AA46A146984670BDFFF778FE0028F4D011
:10298C0008AC2000FEF734FE2000FDF709FE0028FD
:10299C0002D00F9BAB421DD0002802D00B9B4B45A5
:1029AC001CD05D4B1B68B34203D15C4B1B68052BE1
:1029BC00DBD85B483200494606F0DAFF04F062F8D7
:1029CC0002900391002400239A460025013B0493B6
:1029DC0005961FE0109BB342DED1C6E70C9BB342B9
:1029EC00DFD1C2E7059E04F029FB4B4B1E604B4B1D
:1029FC001A6801321A604B48514606F0B9FFB4E729
:102A0C00281B80239B039C46604447492200FFF708
:102A1C007BFE00244D4537D20E2304AA9446634412
:102A2C0000221A8004F00AFB4B465B1B9B46802B52
:102A3C0001D980239B463C4EA6190E2204AB9C4622
:102A4C00624431005046FFF7BBF80028CAD00E2371
:102A5C0004AA944663441B8898465B45C2D14246FF
:102A6C0031000498FDF764FD0490444445445346FA
:102A7C0001339A462200803280235B019A42BFD8F0
:102A8C004B46AB42C6D8BBE7059E04F0D7FA049B75
:102A9C00DD4303F0F7FF029B039CC01AA141FA220D
:102AAC009200002304F012FD0400AE420BD01A4B2E
:102ABC001E601A4A1368013313601C483200290047
:102ACC0006F056FF51E7154B00221A6008AE300095
:102ADC00FEF78EFD3000FDF763FD002811D008A82D
:102AEC0001234360002383604E46C6610562FFF7F5
:102AFC00DFFE0F4800942B005246310006F038FFE1
:102B0C0033E728220021300005F016FCE7E7C04629
:102B1C00BCF20220B8F2022030F302202CF3022087
:102B2C0084BB0020C0BB002034F3022008BC002072
:102B3C0064BC002070B5DE4656464D46444670B522
:102B4C0082B0834601919146002423E0019BE11859
:102B5C0080235B059C4661441B482A0005F0F2FB70
:102B6C0080235B019E4220D304F068FAEFF3108AB5
:102B7C0072B65B46E61880235B019846190030005C
:102B8C0008F0BCF910494246300008F01BFA8AF3F1
:102B9C00108864194C450FD24B461E1B3500802300
:102BAC005B019E42D2D91D00D0E75A1B064828185B
:102BBC00FF2105F0C1FBD7E702B078BCB346AA46AB
:102BCC00A146984670BDC046ECED002070B58AB0A9
:102BDC006846FEF70DFD6846FDF7E2FC002808D0BC
:102BEC00019B012B05D1079B013B80225203934291
:102BFC0001D30AB070BD04F021FA0799802080033C
:102C0C00FDF7BBFC089B984205D004F017FA384836
:102C1C0006F07FFEEDE704F011FAFDF7B7FC0500B6
:102C2C00421E80235B039A4220D23248290006F0D0
:102C3C009FFE802464032A0000212000FFF77AFF06
:102C4C0004F0FCF929002000FDF797FC04000600B5
:102C5C0004F0F4F929000020FDF78FFCA0420AD003
:102C6C0004F0ECF9244806F054FEC2E7234829008E
:102C7C0006F07EFEBDE704F0E1F905950696032308
:102C8C000193002302936846FFF712FE07991C4834
:102C9C0006F06EFE079A802189030020FFF74AFF99
:102CAC0004F0CCF907990020FDF767FC089B9842CB
:102CBC000AD004F0C3F9134806F02BFE00220021C1
:102CCC00002004F015FAFEE704F0B8F96846022378
:102CDC000193079B0393089B0493FFF7E9FD0A48B4
:102CEC0006F017FE00220021002004F001FAFEE796
:102CFC00B0BC002024BD002064BD0020ECBC002032
:102D0C00ACBD0020ECBD00202CBE002010B58AB05C
:102D1C00524B00221A60FFF7A9FC002804D14F4B3C
:102D2C0001221A600AB010BD6846FEF761FC6846C5
:102D3C00FDF736FC00280BD00499494A1160019B21
:102D4C00032B09D0022B44D0444B03221A60E9E731
:102D5C00424B02221A60E5E707990C004A1E8023B9
:102D6C005B039A4206D280208003FDF706FC089B89
:102D7C0098420AD068460223019301330293FFF76D
:102D8C0097FD364B08221A60CCE78021220089037C
:102D9C000020FFF7CFFE079B1C0019000020FDF759
:102DAC00ECFB089B9842E5D1022201920022029290
:102DBC00039404936846FFF77BFD049A284B1A6032
:102DCC00264B07221A6000221100100004F090F923
:102DDC00FEE7029B01330293032B38D905990C00B3
:102DEC004A1E80235B039A4206D280204003FDF7E3
:102DFC00C4FB069B984203D0184B05221A6091E73E
:102E0C008021220049030020FFF794FE059B1C0043
:102E1C0019000020FDF7B1FB069B984203D00F4B25
:102E2C0009221A607EE768460022019202920394FE
:102E3C000493FFF73DFD0B4B01221A70074B033235
:102E4C001A6000221100100004F052F9FEE76846E7
:102E5C00FFF72EFD014B06221A6063E728F30220D0
:102E6C004C040320A309032070B5C64600B58FB0EF
:102E7C0080460E0010001C0003F09AFF0500144A57
:102E8C00009033002C2103A806F05CFB002C1CD016
:102E9C00149B9C4202D9E31A9D4212D3149BE31853
:102EAC00AB4210D20121C9B20023019303AB0093B2
:102EBC0023002A004046FEF77FFF0FB040BCB0460F
:102ECC0070BD0121EFE70021EDE70421ECE7C046DE
:102EDC005CBE002070B5C64600B58FB007F0D6F9C1
:102EEC00364C02232360364B1A688023DB01534097
:102EFC00E022D2011340334A1360022003F0BEFCDF
:102F0C00042323602E4B1B68DB05FBD52C4B5C6824
:102F1C002404240C2C4A00232000002105F0D4F8B2
:102F2C000905030BCB18294A944663445A01D21A5B
:102F3C009001801AC000C0188001254904F060FA85
:102F4C000500244BC618FA218900300004F058FA09
:102F5C008046F317F0185840FA21890004F050FA13
:102F6C000800642104F074FA009043461A4A2C219C
:102F7C0003A806F0E7FA194B9C466544184B9D4292
:102F8C0019D800210025019503AB009333002200D2
:102F9C000D20FEF711FF134B02221A600195124B04
:102FAC0000930023002203210C20FEF705FF0FB035
:102FBC0040BCB04670BD0221E4E7C04600E00440CE
:102FCC0000C0044000D00440E40C00003EFDFFFFB4
:102FDC0047F9FFFF7869000068BE00208790000069
:102FEC009E86010000F0044078BE002070B5DE46DD
:102FFC0056464D46444670B59AB004AB00221A7042
:10300C000026AA4B0393029300239A469846B14696
:10301C0019E00123AB4052461A439246039B1B789E
:10302C00002B05D1A24B4A46D2009B185B68039338
:10303C00D0231B069C6200220121280002F0F6FB23
:10304C0001239C46E1449B4B1B684B4556D9984B3E
:10305C004A46D200D55C03F0F1FF280002F07CFC5C
:10306C000124AC40D0231B069B469C62002201210C
:10307C00280002F0DBFBC820002103F0E9FB5B46D3
:10308C005E68264001220021280002F0CFFBC820F8
:10309C00002103F0DDFB5B465B682340002E01D072
:1030AC00002B0ED00123AB4042461A439046029BA4
:1030BC001B78002B05D17E4B4A46D2009B185B68CF
:1030CC00029300220021280002F0B0FBD026360625
:1030DC0074627461C820002103F0BAFB736823404A
:1030EC009B46B461C820002103F0B2FB73682340F7
:1030FC005A46002A8DD0002B9AD08AE7FA2040003D
:10310C00002103F0A5FB0025002399463BE0013488
:10311C00684B1B68A34224D9A542F8D0644BE2004B
:10312C00D25CD0231B065968012393400B42EED18D
:10313C00012319004846814093400B431E4304ABC6
:10314C001B78002BE3D15A49EB00CB185B685A4A29
:10315C00E0000918496800912C2104A806F0F2F946
:10316C00D5E74B46B1461E00D0231B065A469A6241
:10317C0000220121300002F059FB96204000002172
:10318C0003F066FB01354B4B1B68AB421BD9484B1C
:10319C00EA00D65C03F052FF00220021300002F05E
:1031AC0045FB0123B3409B46D0231B065A465A626B
:1031BC009A6196204000002103F04AFB0024330062
:1031CC004E469946A4E7002405E0394BE200D05C5A
:1031DC00FDF762FE0134374B1B68A342F5D80D2076
:1031EC0002F0BAFBD024240680239B016362636146
:1031FC000E2002F0B1FB8023DB016362A3612D4B37
:10320C001B684246002A01D12C4A02922C4A0FAC70
:10321C00029900912C21200006F094F9254D2B6881
:10322C0041464A1E9141C9B2002201920094424685
:10323C000F20FEF7C1FD2B685246002A01D1214A0E
:10324C0003921F4A0FAC039900912C21200006F029
:10325C0079F9184B1B6851464A1E9141C9B200229C
:10326C000192009452460E20FEF7A6FD4B46002B11
:10327C001AD004AB144A0FAC2C21200006F062F9D2
:10328C000C4B1B6849464A1E9141C9B2002201925F
:10329C0000944A461020FEF78FFD1AB078BCB34656
:1032AC00AA46A146984670BD084BE3E794BE0020A1
:1032BC005C08032058080320C4BE002098BE0020E0
:1032CC00D0BE0020A4BE0020DCBE0020B0BE00207A
:1032DC0070B5CE46464640B58EB01C2002F03CFB85
:1032EC00D0231B0698461A0080235B0593620022AC
:1032FC0000211C2002F09AFAFA2464000025200018
:10330C00290003F0A5FA4246566880235B051E404F
:10331C00F300DA0F9146012200211C2002F086FAFC
:10332C002000290003F094FA4246546880235B0580
:10333C001C40E500ED0F002200211C2002F076FA63
:10334C00002201211C2002F071FA002C0BD0104B32
:10335C00104A2C2103A806F0F5F8002E05D0002CFD
:10336C0013D1012102E00C4BF2E70121C9B2002379
:10337C00019303AB00932B004A464420FEF71CFD3F
:10338C000EB060BCB146A84670BD0021EEE7C04649
:10339C00E0BE0020ECBE0020E4BE002070B5DE468E
:1033AC0056464D46444670B590B005000C005E4B39
:1033BC001B785B071BD5082002F0CEFAD026360608
:1033CC0080235B007362092002F0C6FA80239B0005
:1033DC0073627361022003F051FA04AB534A1A80F2
:1033EC00002300229246A8461D00A3461DE000259E
:1033FC0001954F4C00940023002203211120FEF76D
:10340C00DBFC019500940023002203211220FEF71F
:10341C00D3FC71E00123A34052461A43924600228A
:10342C000021200002F002FA0135012D2BDC04AB47
:10343C005C5D200002F090FA0126A640D0231B060A
:10344C0099469E6200220121200002F0EFF9FA2039
:10345C004000002103F0FCF94B465B6833400393BA
:10346C0001220021200002F0E1F9FA2040000021A5
:10347C0003F0EEF94A4653681E40039B002BC9D05B
:10348C00002ECCD0C6E745465C46002C3BD0D02362
:10349C001B06802292005A61002D3AD0D0231B06C5
:1034AC00802252005A610123002C39D00121214A7B
:1034BC0005AE00912C21300006F044F80023019356
:1034CC00009623002A0000211120FEF775FC5346BC
:1034DC00002B27D0184B194A05AC2C21200006F0E4
:1034EC0031F8524611004B1E9941C9B20023019389
:1034FC0000941220FEF760FC10B078BCB346AA46CC
:10350C00A146984670BDD0231B06802292009A617A
:10351C00C2E7D0231B06802252009A610023C3E726
:10352C000021C4E7064BD6E79B09032014150000C5
:10353C002CBB00202CBF0020FCBE0020DCBE0020D9
:10354C0018BF002070B5D6464E46454660B59BB0B8
:10355C00B54B00221A70B54B1A60D0231B061E699E
:10356C000132FF321640F205D20F92461D698023BC
:10357C009B001D40A846AB05DB0F99460EABAC4A31
:10358C001A80002214E00EAB995C8900A94B9C4672
:10359C0061444868082303401B07DB0F0DA88354C4
:1035AC00496804230B405B07DB0F0CA98B540132D9
:1035BC00012AE8D900210CE09C4B1A68501C1860B9
:1035CC009D4BD0009D4ACC001B18121911CA11C377
:1035DC0001310929F0D99A4B1A78530700D5AFE07D
:1035EC00984B1978984806F0C3F9984C230014337B
:1035FC00220018320FAD2100203100912C2128001F
:10360C0005F0A0FF0023019300950722042101205F
:10361C00FEF7D2FB8E4B1B68220024322C21280093
:10362C0005F090FF8B4B1B78092B00D18AE0002111
:10363C00884B1A78D2B2002301930FAB009300236E
:10364C000220FEF7B9FBFFF783F8804C21003431E0
:10365C003C230093804B05220A20FFF705FC052034
:10366C0003F0A0FBFA21890003F0F2FE0300210015
:10367C003C31FA256D00009509220620FFF7F4FB7A
:10368C00062003F08FFBFA21890003F0E1FE030012
:10369C002100443100950A220720FFF7E5FB2100A9
:1036AC00503100956D4B0B220820FFF7DDFB2100FC
:1036BC0058310095694B0C220920FFF7D5FB2100EE
:1036CC0060310023009303220B20FFF7CDFBFFF7A3
:1036DC0001FC02AC2000FDF78BFF2000FCF760FF23
:1036EC00002831D05E4B5F4A0FAC2C21200005F036
:1036FC0029FF049B039A00210191009404311320AB
:10370C00FEF75AFBFFF772FCFFF7E2FDFEF72EFD0A
:10371C00FEF798FD49465046FFF740FE00241EE098
:10372C00424B19684C1C1C60434BCC004E49C500E5
:10373C001B19491930C930C301300328F0D94FE7A0
:10374C000020FAE7022173E7484BCCE70EAB185D7B
:10375C000CAB1A5D0DAB195D02F068F80134012C4D
:10376C00F4D9082002F0F8F8D0231B06802252006E
:10377C005A62002E4AD05A61092002F0EDF8D0238B
:10378C001B06802292005A624346002B44D0D02361
:10379C001B065A610D2002F0DFF8D024240680238A
:1037AC009B01636263610E2002F0D6F88023DB017B
:1037BC006362A3610F2002F0CFF880231B02A36287
:1037CC00002201210F2002F031F800230193284B35
:1037DC0000930023002205211420FEF7EDFA124B72
:1037EC001B78002B1ED003230193224B0093002344
:1037FC00002204210020FEF7DFFA1F4806F089F8AA
:10380C001BB070BCB246A946A04670BDD0231B06A7
:10381C00802252009A61AFE7D0231B0680229200CF
:10382C009A61B7E70123DFE7A409032058080320B6
:10383C001415000000C001405C0803207CB300207C
:10384C009B0903209C09032060BF002080BF00203F
:10385C00F8DA0020F4DA0020E02E000080BB000033
:10386C0048BF0020DCBE00205CB3002050BF00200D
:10387C00E8BF002094BE0020F8BF002070B5D646EB
:10388C004E46454660B58BB005000C001600402234
:10389C000021300004F050FD3C230122F2547560ED
:1038AC003D3B33858C4B1A7893009B185B019B1A1C
:1038BC0059015B189B009B1A5901C91A0B025B1A20
:1038CC001B019B189846A844012241462800FEF78C
:1038DC0013FB0490002806D130850BB070BCB246A7
:1038EC00A946A04670BD7D4B99460121180003F0F6
:1038FC008DF92900484603F045F9306002E077481D
:10390C00FCF732FD754B9B69DB06F8D500230F22C3
:10391C0006A98C4662441370089303F0B3F8069022
:10392C000791FA22920000232000002104F0CCFB26
:10393C00069B079C1B184C4102930394684C002572
:10394C000123994633002E0025001C0038E0644EFC
:10395C004A4641463000FCF7A1FE35003C2648465D
:10396C0000E01D00002E37D05C4B9B699B060BD4EE
:10397C006B1C2978594A1160013E002EF1D101309F
:10398C00A2680132A260ECE78146B24623004446AD
:10399C00A8461D000BE0514B1868C0B2009508AB4F
:1039AC0022000F2106AEB4466144FEF753F94B4B8F
:1039BC009B69DB06EFD556462B004546A0461C00FE
:1039CC0003F060F80590039B8B420CD903F036FB97
:1039DC00002EBCD04846C5E78146B246230044467B
:1039EC00A8461D00E3E7029A039B8B4203D1130008
:1039FC00059A9342EAD8260003F044F8069B079CEC
:103A0C00C01AA141B061F1610023338503F03AF88B
:103A1C00344C002524184D4102940395350046463C
:103A2C000FE02E4B1868C0B2009508AB32000F2186
:103A3C0006ACA4466144FEF70DF9284B9B69DB06E6
:103A4C00EFD503F01FF8039B8B4202D903F0F6FA73
:103A5C00F3E7029B039C8C4201D18342F6D8B0461B
:103A6C002E0000250023994633002E001D0012E085
:103A7C00E86220002430FCF7A7FD286320002C30DE
:103A8C00FCF7A2FD686320002830FCF79DFD6861FF
:103A9C00049B99460136172E0FDC03F0CFFAFEF784
:103AAC0069F8041EF6D02030FCF78EFD4B46002B37
:103ABC00DED0EB6A8342EDD8DAE7002241460020E3
:103ACC00FEF71AFA054C0849200003F05BF80021B8
:103ADC00200003F09BF800E78F090320004003400F
:103AEC0044090320204E00008024010010B5054934
:103AFC00054803F047F8E1210903044803F042F8B4
:103B0C0010BDC046802401000040034000800340EB
:103B1C0010B5052003F046F90400FCF777FD2300EF
:103B2C0000220021062003F033F9FFF7DFFF10BD60
:103B3C0010B5FFF7EDFF0249024806F011FB10BD6E
:103B4C00404B4C000000044010B582B00400437A96
:103B5C00002B0BD1FCF75AFD227A6368002106205A
:103B6C0003F016F9FFF7C2FF02B010BDFFF7D0FF4C
:103B7C00637A054A5A43A37AE17A009101210348FA
:103B8C0003F0BCF9E6E7C046001BB70000C00240DA
:103B9C0070B5DE4656464D46444670B584B08346F5
:103BAC000C0092461E00844B1B78012B25D0402222
:103BBC000021300004F0C0FB2368736063687362FB
:103BCC00627A3823F254A27A0133F254E27A013346
:103BDC00F254227A0133F2543C3B33852000FFF738
:103BEC00B3FF2168754806F0BBFA3060FF20FDF783
:103BFC00EDFC0025002399460EE008683200514682
:103C0C00FFF73CFECDE00023994604E000239946E3
:103C1C0001E00023994601353F2D23DC4B46072B51
:103C2C0020DC03F00BFAFDF76FFD654C80235B0085
:103C3C0098461A000021200004F07EFB61484246A1
:103C4C002100FDF70FFE0028DDDB5D48FDF72CFEA3
:103C5C000028DBD0FCF712FD0028DAD001239C46AB
:103C6C00E144D8E75846FDF7B1FC02F00BFF029097
:103C7C000391FA22920000235046002104F024FA0A
:103C8C00029B039C1B184C410093019402E0736946
:103C9C000133736102F0F6FE019B8B426DD903F088
:103CAC00CDF9FDF731FD464B80256D002A00002132
:103CBC001C00180004F040FB42482A002100FDF7CC
:103CCC00D1FD0028E3DBB3680133B3603C48FDF75A
:103CDC00EBFD041E38D03A4BC31A9BB2328D9A427C
:103CEC0000D93385728D9A4200D273852000FCF77F
:103CFC00C5FC00282CD020000830FCF765FC050022
:103D0C00210014310120CC224042FCF711FC10227E
:103D1C002100FCF70DFCC343994620001030FCF742
:103D2C0053FC4B46C31A5A425341DBB248451AD096
:103D3C00254A1268AA4201D2234A1560002B18D0DA
:103D4C00F3680133F360A5E7336901333361A1E70D
:103D5C00336A013333626379012B9BD11F33E25CED
:103D6C001A4B1A7096E7184A1268AA42E0D300233D
:103D7C00DEE73369013333618CE7009B019C8C4295
:103D8C0001D183428BD802F07DFE029B039CC01AAA
:103D9C00A141B061F161328D0D4B9A4208D0FFF711
:103DAC00C7FE04B078BCB346AA46A146984670BD7F
:103DBC0000233385F3E7C0468C0903200000044040
:103DCC00580603205807032028E700208B090320FE
:103DDC00FFFF000070B5D6464E46454660B583B031
:103DEC008C4690469A46264B1C78272C45D81D00AD
:103DFC00631CA9462B70234963001B199B00C9182F
:103E0C00030064CB64C1204B00221A550A9B624606
:103E1C0001002000FFF7BCFE4B4619780A98009071
:103E2C00434600222000FEF7E3FA051E14DB0128AE
:103E3C001AD0002601233340134A135500932B004C
:103E4C000A9A21005046FDF757F8300003B070BCB9
:103E5C00B246A946A04670BD0C482200514605F05A
:103E6C0087FD01267642F0E70A98FCF783FC0028D0
:103E7C0001D02E00DEE70026DCE701267642E4E7DF
:103E8C008709032020E5002000E700201CC000204B
:103E9C0070B5DE4656464D46444670B598B00400A3
:103EAC0080468B4616001D0040220021180004F0AD
:103EBC0043FA01235B422B855B461B682B606B60CE
:103ECC005B465B686B625B465A7A3823EA545B4606
:103EDC009A7A3923EA545B46DA7A3A23EA545B46F7
:103EEC001A7A3B23EA544C4B1978009502230C2286
:103EFC002000FEF77DFA00280DDB5B461968474869
:103F0C00320005F035FD00230593994600245B46ED
:103F1C000793C3462BE0424805F0FBFC002018B089
:103F2C0078BCB346AA46A146984670BD04223BE035
:103F3C00AB6806932A69296A68698446688D80464D
:103F4C003848434603936346029301910092069BC3
:103F5C003200210005F00CFDA64234D95346002B4B
:103F6C0049DB00230593FCF777FC00284DD1B442C4
:103F7C0050D2331B9846FA23DB00984500D998465B
:103F8C0008AB9A46424607995846FFF701FE514640
:103F9C002800FCF718FC444401239C46E1441E4BCA
:103FAC001978A642C2D80022009502235846FEF783
:103FBC001FFA82460A21484603F04AFA0029B7D074
:103FCC00A642C9D8B4E75346002B07DB012B0AD015
:103FDC0000239A46012053461840A0E7124805F0EA
:103FEC0098FC00209BE72800FCF7C4FB0028F1D1CB
:103FFC0000239A46EEE7059B01330593022BB2DDB5
:10400C000A4805F086FC002089E7094805F081FC88
:10401C00002084E7002082E78709032094C0002059
:10402C0058C00020DCC000203CC100207CC1002016
:10403C00C4C1002070B584B0104B1C68002C0CD08F
:10404C000F4B1D680F2D08D90E4B1E68002E04D087
:10405C000D4B1B680393002B01D104B070BD2100E4
:10406C000A4803F0F5F92A004243039B00933300FE
:10407C002100074802F042FFEFE7C04644E700206A
:10408C0038E700203CE7002040E70020001BB70089
:10409C0000C0024070B584B006000C0001AB02AA4F
:1040AC0003A902F0D9FE051E04D1002C09D1200071
:1040BC0004B070BD019A0299039802F099FE2C008D
:1040CC00F5E70248310001F057FCC04604C200205D
:1040DC0070B5DE4656464D46444670B5A4B0C64B48
:1040EC001A689346C54B1B789946C54B1B689A4674
:1040FC00C44B1B780893312A07D9FA23DB009A4268
:10410C0005D9FA23DB009B4601E032239B464B4644
:10411C00013B272B01D92823994651464B1EBA4AFD
:10412C00934205D9B94B994204D9B84B9A4601E050
:10413C0000239A46089B082B01D908230893B44BFB
:10414C001B885C01E41AA400E418E400B14B1B8842
:10415C005D01ED1AAD00ED18ED00AF4B1B789846E4
:10416C00FCF762FAAD4B1860062002F01BFEAC4B5C
:10417C001860052002F016FEAA4B1860AA4B002608
:10418C001E70FCF759FAFDF781FAA84B1E60A84B7C
:10419C001E60A84B1888002801D19E4B1888A64B8E
:1041AC001B78002B0FD0FA22D2000023002103F041
:1041BC008BFF9B4B1A680023002910D1994201D127
:1041CC0090420CD800230A934246012A36D0002B89
:1041DC0036D0944B1B68002B03D10A9330E001239B
:1041EC00F1E7FCF713FA0F2002F01AFF032002F09C
:1041FC0045FB8C4B1868FA21890003F029F9400023
:10420C000021FFF747FF06000A90FFF76FFC002E16
:10421C000DD08A4E052002F0C5FD02000A9B002B32
:10422C000AD0874B8748310005F0A2FB08E00B2031
:10423C0002F0F6FE844EEDE7844BF3E700230A937D
:10424C00FFF776FC0C2200210EA804F075F843460B
:10425C00012B3BD07E4B09937E4B1B780B936C4B05
:10426C001E886C4B19880C91052002F09BFD0300F5
:10427C0079486B4A126806920593089B049353463F
:10428C0003930C9902910196594600914B460B9A57
:10429C00099905F06DFB4346012B00D07EE06F4B76
:1042AC001C68002C01D19624A4016D4B1D68002DB7
:1042BC0000D16C4D96239B019C4200D21C00694B93
:1042CC009D4200D91D000023002603E0664B099394
:1042DC00C2E701330C2B08D8644A99008A58A242D1
:1042EC00F7D3AA42F5D80136F3E7002E00D10136F8
:1042FC004B46B34200D81E00002200210020FDF7DF
:10430C00FBFD0B90002C04D0AC4202D80B9B002B75
:10431C004BD14022002114A804F00EF8AC4242D933
:10432C00534A5448099905F023FB14AB009300231E
:10433C0003220021FF20FEF75BF8FFF7E9FBFFF7F4
:10434C0079FE0A9B002B00D02EE2FCF75FF9344B70
:10435C001B68324A12680021062002F019FDFFF793
:10436C00C5FB4549454805F0FBFE0600444B0022C1
:10437C001A70052002F016FD0500062002F012FD51
:10438C000200404C33002900200005F0F1FA24B063
:10439C0078BCB346AA46A146984670BDFDF71EFEF2
:1043AC000B904E46AEE7384ABBE74346012B03D091
:1043BC00204B1B88002B06D1002300220D92A9460E
:1043CC0035001E0083E05801C01A8000C018C000E0
:1043DC0011A9FDF763FF81460028EDD01199A14288
:1043EC00EAD30EAA11AB61CB61C2284805F0C0FA22
:1043FC0000230B93AAE0C04680F202208D09032013
:10440C0084F2022090090320CE07000080CBA40088
:10441C0082090320800903208C0903202CE700204B
:10442C0030E7002034E700208709032048E700200C
:10443C0028E70020840903208E09032038C20020BD
:10444C0068C20020F4C2002050C2002070C20020BC
:10445C0080C200208F09032028C30020C4F2022050
:10446C00C0F20220C0C62D0078C20020D0B30020BC
:10447C0084C20020BCC30020404B4C000000044010
:10448C008A090320D4C40020A4C20020D4C3002075
:10449C0001330C2B10D8B74A99008858B042F7D387
:1044AC004845F5D8A44546D00134F1E70023002255
:1044BC00B44626001400ECE73400664600200028C1
:1044CC0004D011A9FDF722F800281CD10136B54201
:1044DC0044D9A94B1B78272B32D84346012BE5D066
:1044EC004B461A1B012D29D000233000002103F06C
:1044FC00EBFD6A1E002302F0E9FF201811A9FDF75D
:10450C00CDFE0028E2D0119BA342DFD30C930D9A71
:10451C009342DBD9994B14AA00920022594611A858
:10452C00FFF758FC00280FDBFCF796F9002811D197
:10453C000C9B0D93CAE734006646C0E74846DDE79E
:10454C0000230B93994601E0002399460023A446CF
:10455C00484612E00B9000239946F7E700230B9393
:10456C009946F3E70EAD864A700080198000121848
:10457C0051CA51C508000133DBB27F4A12789A4206
:10458C000FD91E007F4AD15C0029F4D00028E9D055
:10459C007B4D5A00D218920055590E9A9542EAD981
:1045AC00E0E7644681460023002502E00D0001335C
:1045BC00DBB29A4213D97349C95C0029F7D10028A0
:1045CC00F5D06F4E5900C918890089590E9EB14219
:1045DC00EDD9002DEAD0A942E9D20D00E7E74B4610
:1045EC00002B41D00E9A002D06D0674B67480999D5
:1045FC0005F0BEF92E0009E0654BF7E70EAA11ABEA
:10460C0023CB23C2FCF728F900284CD14346012BBD
:10461C002DD00B9B002B2AD14B46002B27D00E9B69
:10462C005C4A9A18B24222D2534A1278272A1ED8D0
:10463C00F01A4008C01811A9FDF730FE051E16D05F
:10464C00119B0E9A934212D9B34210D2524B14AA18
:10465C0000920122594611A8FFF7BCFB002805DB8C
:10466C000128CBD0119ECDE72E00CFE70B950B9BED
:10467C00002B05D14B46002B02D05346002B70D19A
:10468C000B9B002B74D1012514AC4022002120007F
:10469C0003F052FE384B1978009402232A00FF20B5
:1046AC00FDF7A6FE49E60B90E1E70E9914AC169BBC
:1046BC003A48524605F05CF940220021200003F0F4
:1046CC003BFE2D4B1978009402230122FF20FDF7AD
:1046DC008FFE32E6013811A9FCF718FF0028CFD065
:1046EC00119B0E9A9342CBD25B45C9D30EAA11AB48
:1046FC0013CB13C20135A945C2D31F4B18782728F9
:10470C00BED81F4B4200121892000EA98C469B1863
:10471C000A0052CA52C3184B421C1A7014AB5246B0
:10472C006146FFF7B5FB0028BFD1FCF795F80028D0
:10473C001CD10E991A4805F01BF9A945A0D00E986A
:10474C0058459DD94346012BC4D0124B984297D95A
:10475C00144B9C46604411A9FDF7A0FD0028BFD165
:10476C008EE70025089B9946A346C4E70B9087E784
:10477C00032589E7D0B300208709032010C400204B
:10478C0020E5002000E70020BCC2002018C4002057
:10479C00D8C2002040420F0040C4002048C4002072
:1047AC008CC40020C0BDF0FFFBF730FF074B18682E
:1047BC00FA21890002F04CFE0021FFF76BFCFFF799
:1047CC0095F90B2002F02CFCBFE5C04634E7002025
:1047DC0070B5DE4656464D46444670B598B002F06C
:1047EC0051F910901191C34A136801331360C24BF5
:1047FC001A685B68109811998B4206D918B078BC6E
:10480C00B346AA46A146984670BD8B4201D182425E
:10481C00F4D8FDF763F8B94B1978002900D110E1F1
:10482C00B74A0023109C119D12196B41B2480260CB
:10483C004360002920D0B34B1A68B34B1B689A42D3
:10484C0000D101E1B04B1A60B04B1978B04B196034
:10485C00022900D90021100A140C150EFF23184050
:10486C0084461A40AB4889000958AB48019523404F
:10487C000093634605F07CF8A04B1B78A74A12689E
:10488C00934211D0A54A1360002B00D1E4E0A44B55
:10489C009C46A44B1B68A44A1278A448A4490968F6
:1048AC000091614605F064F89E4B1A681400A04B09
:1048BC001B681D009C4662449E4B1B68D31A312B0F
:1048CC0073D99C4B1A609C4B1B6898469B4B1B687E
:1048DC0099469B4B1B689A469A4B1B681E000133EA
:1048EC0000D1BCE0FA22920000231098119902F03A
:1048FC00EDFD03009448059320230493934B1B6810
:10490C0003930296534601934B46009343462A0069
:10491C00210005F02DF8894B1B688D4A12689342D3
:10492C0043D08B4A13608B48017842788378C478E3
:10493C002500047926004479A0468479A146C479DF
:10494C00A246047AA346447A1094847AA446C47A84
:10495C001394047B1494447B1594847BC07B169035
:10496C007D48007817907D48007800287AD07C48E4
:10497C000E9017980D9016980C900B9415980A9011
:10498C001498099013980890604607901098069018
:10499C005846059050460490484603904046029075
:1049AC00019600956F4804F0E3FF544B1B78002BE5
:1049BC0003D06D4A1278002A56D1002B03D06B4BD2
:1049CC001B78002B5ED14D4B1B78002B09D0684B0C
:1049DC001B78002B05D0674B1B78674A12689342F3
:1049EC005CD1464B1B78002B09D0644B1B78002BF9
:1049FC0005D0634B1B78634A126893425CD13F4BE2
:104A0C001B78002B66D13D4B1B78002B03D05E4BE3
:104A1C001B78002B61D1394B1B78002B00D1EDE6B4
:104A2C005A4B1B78002B00D1E8E6FEF7CFF802F0CA
:104A3C0029F8334A0023801859412F4B18605960CC
:104A4C00DCE6534A0023EDE6304B1978304B1B68FB
:104A5C00994200D0F6E60FE74E4B9C4619E700232F
:104A6C001E003FE74C4883E74C4804F052FF4C4B88
:104A7C001B68986805F00EFD00220021002002F052
:104A8C0037FBFEE7FDF722FB01F0FCFF1C4A00237D
:104A9C0080185941184B1860596094E7364A1360D6
:104AAC00FEF750FD01F0EEFF154A00238018594126
:104ABC00114B1860596094E7324A1360FFF708FBFA
:104ACC0001F0E0FF0E4A0023801859410A4B186090
:104ADC00596094E7FDF71CFF95E7FDF735FF01F0F2
:104AEC00D1FF074A002380185941034B18605960C5
:104AFC0091E7C046A4F2022098E300209409032019
:104B0C0050C30000C8F20220ECDA00209D090320FB
:104B1C00E8DA00203CB0002050C50020F0DA00207C
:104B2C0020C50020ACF202209109032074C500209E
:104B3C00A8F20220B0F20220B4F20220A0F202206D
:104B4C0088F20220DCDA0020A8C500208CF20220BA
:104B5C007CF2022090F20220930903209209032098
:104B6C002CC5002014C600209709032099090320A6
:104B7C00980903209C090320E4DA00208A09032009
:104B8C008F090320E0DA0020960903209509032001
:104B9C0020A1070024C5002094BE002088C6002058
:104BAC00C4DF002010B503002D4A1268824206D0E3
:104BBC002C490A68501C08602B498A4207D82B499B
:104BCC000A68501C08602A498A4225D810BD274A19
:104BDC0000211160234A1160214A1360254A126892
:104BEC0025492648040004F097FC200005F080FEBF
:104BFC00431C9C460021220008E0214B9B699B062C
:104C0C00FBD410781E4B1860013101328C45F4D85E
:104C1C001A4804F07EFED9E7144A00211160114AAB
:104C2C001160144A126814491448040004F074FC0E
:104C3C00200005F05DFE431C9C460021220008E08C
:104C4C000F4B9B699B06FBD410780D4B1860013100
:104C5C0001328C45F4D8094804F05BFEB6E7C04637
:104C6C0000F30220D0F20220002D3101D4DA002012
:104C7C00804A5D05F8DA0020CCC6002004F302203F
:104C8C000040034010B5FCF7E5F80D4B00221A600C
:104C9C000AE004F0B0FF0B4B18600B4804F0A1FFC6
:104CAC00FBF7EAFFFCF75CFBD0231B061B6DDB0755
:104CBC00EFD4FFF78DFD024B1868FFF773FFF3E796
:104CCC00CC080320F8F202206969696970B50024E8
:104CDC00002500E00134FA235B009C4205DAFBF767
:104CEC00F5FB0028F6D00135F4E75A2D00DC70BD39
:104CFC000021080002F05CFA10B5094B1A68094B48
:104D0C009A4200D010BD04F0FFFD074804F001FEEC
:104D1C00034B00221A60054801F0B0FDF2E7C046D3
:104D2C00F000002096966969E8C6002050C3000088
:104D3C0070B5CE46464640B582B0804600F00CFEBB
:104D4C0000220121404600F071FD052001F096FD86
:104D5C00D024240666680125434601939D402E40CD
:104D6C003000431E9841C2B29146012200214046B8
:104D7C0000F05CFD052001F081FD63681D4040469C
:104D8C0000F0F5FD002E01D0002D05D0484602B0F4
:104D9C0060BCB146A84670BD0220F8E770B504208F
:104DAC00FFF7C6FF050004000520FFF7C1FF020056
:104DBC000100022D18D0002C01D1022922D0012C87
:104DCC0016D0022C18D028001043C0B2002820D0D6
:104DDC00002C01D1012919D0012C19D1002919D08D
:104DEC00A14219D0092014E0A842E4D1042010E01B
:104DFC000229E6D106200CE0002905D00129E2D1D8
:104E0C00082006E0052004E0072002E0100000E086
:104E1C00092070BD0220FCE70320FAE710B5FFF76C
:104E2C00BDFF304B18701A78D3B2042A3ED0042B35
:104E3C000DD9072B48D021D8052B3ED0062B4AD1B3
:104E4C00294B2A4A1A602A4804F063FD25E0022BFC
:104E5C0025D00AD8002B1AD0012B3CD1224B254A45
:104E6C001A60254804F055FD17E0032B33D11E4B77
:104E7C00224A1A60224804F04CFD0EE0082B2AD17D
:104E8C00194B204A1A60204804F043FD05E0164BEC
:104E9C001E481860043004F03CFD002010BD124B7D
:104EAC001B4A1A601B4804F034FDF6E70E4B1A4AF5
:104EBC001A601A4804F02DFDEFE70B4B184A1A60E4
:104ECC00184804F026FDE8E7074B174A1A60174804
:104EDC0004F01FFDE1E7044B154A1A60154804F075
:104EEC0018FDDAE7F4DA0020F8DA0020CCC700204D
:104EFC00D0C700201CC7002020C7002054C70020AA
:104F0C0058C700202CC8002030C8002000C7002043
:104F1C0038C700203CC7002070C7002074C7002091
:104F2C009CC70020A0C70020FCC7002000C80020A0
:104F3C005CC8002060C8002070B51C2000F00CFD7F
:104F4C00D024240680235B056362A3610E2000F04D
:104F5C0003FD8023DB01A3620F2000F0FDFC802306
:104F6C001B02A362082000F0F7FC80256D0065622F
:104F7C00A561092000F0F0FC80239B006362636153
:104F8C00FFF74CFF04F0C0FC6561642001F076FC77
:104F9C0070BD000070B5174C1749200005F03CF9A6
:104FAC00050001210A2000F027FC01210B2000F054
:104FBC0023FC01210C2000F01FFC0D2000F0CCFC88
:104FCC00D0231B06802292015A625A616368022226
:104FDC0013400A490A60216805325140C8320A4020
:104FEC0007490A60074A13600749084804F0C0FCE7
:104FFC00280070BD00000440404B4C0004300440BD
:10500C00001004400420044094BF00207CC8002001
:10501C0070B50500002400E00134032C0ADC2100EB
:10502C00280004F089FF0028F6D02100280004F0A5
:10503C0057FFF1E770BD000070B5074D2800FFF772
:10504C00E7FF064C2000FFF7E3FF280004F09CFF6D
:10505C00200004F099FF70BD00002050000030507B
:10506C0010B504001F2100F0C7FB00220021200016
:10507C0000F0DCFB0021200000F05AFC10BD000009
:10508C0070B582B0FFF738FEFFF756FFFBF786FFCF
:10509C00304C23001433220020322F4909682000A1
:1050AC002C3004F065FC2D4B1B68986805F0F2F968
:1050BC00D026360680235B05B362002201211C201A
:1050CC0000F0B4FBFFF766FF050003F043F803F0B4
:1050DC0071F80022224B02F008FC02000B002000A9
:1050EC006430009504F044FCFBF78EFFFDF7C8FA22
:1050FC00FCF786FA80239B00B361FFF79DFF05F058
:10510C00C5F81B20FFF7ACFF164B1A6880235B0118
:10511C005340E022D2011340134A1360134B042274
:10512C001A60104B1B68DB05FBD50E4B5C68240426
:10513C00240C200003F014F80D4903F002F803F0DE
:10514C0039F802000B000B48210004F011FC02B0EE
:10515C0070BDC04680C80020F8DA0020C4DF0020F3
:10516C0080842E4100C0044000D0044000E0044084
:10517C003333533A14C9002070B5244C244B2360AC
:10518C00036863614368A3618368E361C368236256
:10519C00036963624369A36083696360C369E36005
:1051AC002061D0231B061B68A362E36A0133E36210
:1051BC00184D28003830FBF747F9A36A0120184036
:1051CC003030FBF733F928005430FBF73DF96168B8
:1051DC0028005C30FBF75AF9A16828006430FBF713
:1051EC0055F9E16828006C30FBF750F9216928006B
:1051FC007430FBF74BF928007C30FBF725F90022C3
:10520C000021002001F074FFFEE7C046C000002022
:10521C00DC7E01FA00C9002071460420084202D14C
:10522C00EFF3088001E0EFF30980014A104700001A
:10523C00BD4F002070B5DE4656464D46444670B50F
:10524C0090B001F04DFFFFF741FDFDF75FFD02202F
:10525C00FCF763FF0121F448FEF71CFF0400F3493F
:10526C00F34804F07DFF0500FFF70AFF01F064FF2F
:10527C00002800D07FE1002C00D183E1ED4804F040
:10528C0048FB280002F066FF02F094FF0022EA4B74
:10529C0002F02BFB02000B00E64C20004030009586
:1052AC0004F066FB162000F057FBD0252D0680235A
:1052BC00DB036B62AB61142000F04EFB80235B03BD
:1052CC00AB62152000F048FB80239B03AB620520EA
:1052DC0001F068FD02F03EFFD84902F01CFF03907C
:1052EC0002F068FF02000B007C3420000024D44D37
:1052FC000094019504F03CFB0721162000F07CFA89
:10530C00F0231B019A46CF4B52461A60CE49092016
:10531C0000F0AAFC0121092000F086FCCB4E0121F3
:10532C00300004F0EDFD0500C949300004F014FE16
:10533C00834601240094012316222900300004F036
:10534C0041FE00220092022314322900300004F0A6
:10535C0039FE0CAB994659461800FBF72BF84B4617
:10536C00DA68BC491140B0239B000B434946CB6023
:10537C00B9491140B94B9C4619434846C1608168F4
:10538C00B74808404B469860B64B19404B4699605D
:10539C00B5490A4063461343A021090388460B43D1
:1053AC004946CB6003994846FAF782FF4B465A466A
:1053BC002900300004F064FE33682000A8400590FA
:1053CC00834333606B005B19DB00A8498C46634454
:1053DC00802109068B46196019602B1D22009A400A
:1053EC00A34B1A6008352200AA401A60A14B5546FF
:1053FC001D60A149072000F037FC0121072000F0B7
:10540C0013FC9E4B99460121180004F079FD050010
:10541C009B49484604F0A0FD04900022009203230F
:10542C0014322900484604F0CDFD08AB9A46049985
:10543C001800FAF7ABFF5346DB68924A134041461B
:10544C000B435146CB604A688F4B1A40A0235B0537
:10545C0013434B608A68824B134019008B4B1943E2
:10546C00504681607F491140194381601204120C2F
:10547C00134359460B4383600399FAF719FF5346BC
:10548C00049A2900484604F0FBFD4B461B6821009A
:10549C00A94004918B4349460B606B0006935B1942
:1054AC00DB007B498846984441465A460A600A60AC
:1054BC002B1D22009A40774B1A602A000832944028
:1054CC001C60754B00221A6074498A460A60744B42
:1054DC00744A00211800039302F02EFF724B714A9C
:1054EC0000210793180002F027FF0398FCF728F817
:1054FC000798FCF725F85246039B13606B4804F0A1
:10550C0008FA524612686A4B0021D150FA208000EA
:10551C0001F0B4F9674A9246100004F017FC012020
:10552C0001F0ACF904F072FB504604F00FFCFA20C9
:10553C00800001F0A3F9FA200021000101F0C4FD64
:10554C00069B5B19DB005C4A944663441F2119607F
:10555C004A46126804980243484602601960434662
:10556C005A461A601A603368059803433360002367
:10557C00984602260CE0514804F0CBF90A20FCF7BF
:10558C00CCFD78E64E4804F0C4F97AE6FCF752FDFF
:10559C003A4B5B682342F9D1FCF782FD2B000833B0
:1055AC009B00364A9B58002B09DB464A964200D991
:1055BC008CE03A4A1268B1008B500136E8E7374A62
:1055CC001068DB43424692001350434601339B0064
:1055DC0000221A50364BC2580132C250B11CC2586C
:1055EC00394BC3589A4202D0B0460E00D0E704F0B3
:1055FC00F8FA04F000FB294B1A68294B9A4210D098
:10560C00274E264B1E60FA231B02F0181C22002189
:10561C0002F092FE3000FBF793FF0023984602261F
:10562C00B6E7214EEDE7C046C0D40100404B4C001C
:10563C000000044000CA002080842E41C0E1644B6D
:10564C0000002E402C213050310A00200000305038
:10565C0008B400201FFCFFFF1FFCFFE3C002000486
:10566C00FFFF0AFEFFFF00C01F7CF0E3D01030509C
:10567C00002030502C212050790A002000002050AE
:10568C0038B40020FF7FF0FFFFFFFFE00000F101C6
:10569C00D010205000202050F8F2022038FE0020BC
:1056AC003CFE00201CFA000058F80120A8CA00207B
:1056BC0008FA0000C94A0020D800205088C90020F0
:1056CC0024CA0020FBF9000004FA00000E4E3068DA
:1056DC0004F087FA04F08FFA32680C4B9A4210D01F
:1056EC000A4E094B1E60FA231B02F0181C220021E3
:1056FC0002F022FE3000FBF723FF0023984602261F
:10570C0046E7034EEDE7C04638FE00203CFE002085
:10571C0058F80120F8B5CE46474680B5D0231B0675
:10572C001F68214BBA00D35898467B00DB191B012C
:10573C001E4A944663449946002627E0EB4012E04B
:10574C0024090135002C20D033000833AB421CD97E
:10575C000F23190021402342F2D0154BBA00D35825
:10576C00202DEBD40023DB07EAD407222A40920039
:10577C00EB08080090403C339B000E4A985043467F
:10578C00002BDDD02800C047DAE708361D2E06D8DE
:10579C00F30808339B004A469C583500D2E7C0BC3E
:1057AC00B946B046F8BDC046ECFD002000410140B2
:1057BC00440403200040014010B5944607220240E7
:1057CC009200C008914002003C329200094C1151E9
:1057DC0080001B186246002A05D080229201944654
:1057EC006344196010BDC022920194466344196051
:1057FC00F8E7C0460040014010B58300084A9A18EB
:10580C00126840245440C0222240064CA4466344F3
:10581C001A60C000044B9C466044416010BDC046F9
:10582C0004C0014004D001400040014080000B4BFB
:10583C009C46604400290ED00823002A00D0042284
:10584C001343026853400C221340802252019446A9
:10585C006044036070470023EFE7C04604C001407A
:10586C0070B505000E00141E04D00D2000F0EEF9EA
:10587C0000280ED0D0231B061A6853009B181B015E
:10588C00074A94466344220031002800FFF794FF36
:10589C0070BD044B044A0548BD2103F0C5FEC0464B
:1058AC0000410140CCCC002010D80020F8CC0020C6
:1058BC0070B50400D0231B061D680D4BAA00D358ED
:1058CC00002B0AD0002803D0094BAD00EC5070BD62
:1058DC0008490D2000F000FBF6E70028F7D0044B38
:1058EC00AD00E850034900220D2000F0E9F9EEE785
:1058FC00ECFD002059550020F8B505000E001400F1
:10590C001F00002A0BD1220031002800FFF7A8FF4E
:10591C00002C08D001210D2000F086F9F8BD1800EC
:10592C00FFF7C6FFEFE73800FFF7C2FFF6E700000E
:10593C00002906D08000064B9C466044402303603F
:10594C0070478000034B9C46604440230360F7E79C
:10595C0004E0014004F0014010B501238340D02243
:10596C001206936293610521FFF746FF10BD10B537
:10597C001F21FFF741FF10BD0FB400B583B00848DD
:10598C0003F0C7FF049B002B07D005A90191180059
:10599C0003F0CEFF034803F0BCFF012003F0FAFD37
:1059AC0040CD002070D40020EFF3108072B6034B72
:1059BC001B68002BFBD0BFF35F8F70472C0100D00E
:1059CC00BFF35F8F024B00221A6080F31088704780
:1059DC002C0100D0CB08C25C07230B40012098405F
:1059EC001040431E9841C0B2704770B505000C00C2
:1059FC001600FFF7D9FFE308EA189446E95C072282
:105A0C002240012393400B4206D1DBB20B4362468A
:105A1C001370FFF7D5FF70BD21003000FFF7ACFF0E
:105A2C00F0B583B00500019114001E00FFF7BCFF18
:105A3C0000E00134B4420CD8E308EF18EB5C07210A
:105A4C00214001228A401A42F3D1D2B21A433A7051
:105A5C0001E001246442FFF7B3FF002C02DB2000BD
:105A6C0003B0F0BD019B002BF9D00898FFF784FF21
:105A7C0070B505000C00FFF797FFE308EA18944691
:105A8C00EA5C0721214001238B40134205D09A4345
:105A9C0063461A70FFF794FF70BD034B034A04482A
:105AAC00332103F0C1FDC04650CD002028D8002082
:105ABC0070CD0020054A1078431CDBB21370172BF5
:105ACC0002D9130010221A707047C046FCDA00206D
