:020000041000EA
:1000000000B5324B212058609868022188439860DF
:10001000D860186158612E4B002199600221596106
:100020000121F02299502B49196001219960352056
:1000300000F044F80222904214D00621196600F024
:1000400034F8196E01211966002018661A6600F04E
:100050002CF8196E196E196E052000F02FF8012189
:100060000842F9D1002199601B49196000215960AB
:100070001A491B48016001219960EB211966A021F2
:10008000196600F012F800219960164914480160C1
:100090000121996001BC002800D000471248134993
:1000A000086003C880F30888084703B5996A0420EC
:1000B0000142FBD001200142F8D103BD02B5186610
:1000C0001866FFF7F2FF186E186E02BD00000240BE
:1000D000000000180000070000035F00212200005C
:1000E000F4000018222000A00001001008ED00E03C
:1000F00000000000000000000000000074B24E7A12
:1001000000200420F7010010C3010010C5010010F9
:10011000C1010010C1010010C1010010C101001097
:10012000C1010010C1010010C1010010C701001081
:10013000C1010010C1010010C9010010CB01001065
:10014000CD010010CD010010CD010010CD01001037
:10015000CD010010CD010010CD010010CD01001027
:10016000CD010010CD010010CD010010CD01001017
:10017000CD010010CD010010CD010010CD01001007
:10018000CD010010CD010010CD010010CD010010F7
:10019000CD010010CD010010CD010010CD010010E7
:1001A000CD010010CD010010CD010010CD010010D7
:1001B000CD010010CD010010CD010010CD010010C7
:1001C00000BE00BE00BE00BE00BE00BEEFF3058054
:1001D000103800BEF2EB8871D80200100403001042
:1001E0003402001090A31AE700202249086006C8D4
:1001F00081F30888104720480068002835D10DA4F5
:100200000ECC002902D000F012F8F9E71B491C4A75
:10021000002000E001C19142FCD11A4988471A49E7
:1002200088471A49884700BEFDE701C901C29A42C2
:10023000FBD3704704030010C0000020E8730020C7
:100240002C760010F07300200C9B0020489D0010BD
:100250000000042000000420489D0010001004202D
:1002600000100420000000007047094800F014F856
:100270000047000008ED00E0000000D0109B0020C7
:10028000D09302209D3C002081130020593C002087
:10029000575600000000000001B40248844601BC2B
:1002A000604700BF454F002006005250ABB360537B
:1002B0008C8F002006005250861C03029C8F002069
:1002C000060052505422A29DA48F002005005250D7
:0802D000DE65F468489D001092
:1002D800CC020010C0020010B4020010B08F002041
:1002E800A8020010BC8F0020C88F0020D48F0020E7
:0C02F800E08F0020349000204090002097
:10030400F8B5C04610B5064C2378002B07D1054B31
:10031400002B02D0044800E000BF0123237010BD6D
:10032400109C002000000000E8730020044B10B56E
:10033400002B03D00349044800E000BF10BDC046B1
:1003440000000000149C0020E873002070B5050034
:100354000E1C081C05F014FE84B2002C12D02000E0
:1003640005F0E6FD011C301C05F0B9FD8721C90527
:1003740005F0D5FD05F004FEC3B21B0224041C43A2
:100384002C6070BD0023F8E710B504001022002192
:1003940005F0C0FE80235B022360F8235B026360E8
:1003A4008023DB02A360C0231B03A360200010BDD5
:1003B400034B1878034B9C466044FF2398437047D3
:1003C400489D0010FF00001088204005704710B5BC
:1003D400FFF7FAFF0400FFF7EBFF201A10BD00003F
:1003E400004870478813000030B505000022074814
:1003F40009E0AC5C4440FF2323405B00044C1B5BDE
:10040400000A584001328A42F3DB30BDFFFF00008E
:10041400207B002030B505000023FF2004E0EA5CC7
:100424004240034CA05C01338B42F8DB30BDC04634
:10043400207D002010B5002905D0194B1C68194AED
:10044400A3580133A35005280BD00938012802D939
:10045400154B00221A70002902D0134B00221A7087
:1004640010BD0F4B1B6811481A5801321A500E4A1E
:100474001278002A0BD00E4A12689200D4588020B9
:1004840000042043D0500B481A5801321A500A4B2A
:100494001B68023B064A1360034B01221A70DAE719
:1004A400609102200CFA0000CC93022014FA0000A0
:1004B4005491022018FA00005891022070B5DE46CB
:1004C40056464D46444670B582B08246744B1A680F
:1004D4000192744B186880009346834400250020E1
:1004E40000210023002290468022120699462BE028
:1004F4001F239C463AE0002E04DB80231B0645465E
:100504001D43A846002505E000258B401843013112
:1005140008290CD00134A44512DD1600D343DB0FA7
:100524005200062DE7D0002EEEDB0135EDE75B46E9
:100534004946585401239A46D14400200021E9E752
:10054400009B64461B1B9A465346002B15D0564C01
:1005540023685E1C26609B00019C1C5953461E2B7D
:10056400C6DC1E2356469B1B9C40D4466300634056
:100574005A40002453460093CDE74D46002904D049
:1005840080231B0542461A439046002D62DD5B46DC
:100594001A78FA231B020199CB5C002B34D08023F8
:1005A4009A4204D080235B0542461A439046012DAB
:1005B40050DD5B465B780F241C40DB431B110F228C
:1005C40013409C4222D080239B0542461A43904606
:1005D400052C1ED0092C1CD0012C1AD00D2C18D09F
:1005E400042C16D0082C14D0032C05D00B2C03D0CB
:1005F400072C01D00F2C17D1032D42DC8023DB0400
:1006040042461A4390460FE08123C9E7002CDFD10C
:10061400D9E7082C25D0082C26D0042D24D08023FB
:10062400DB0442461A43904641462000FFF702FF8E
:100634001B4B18681B490A68023A43462B43920035
:100644001350EE1CF217032313409E19B6100B68C7
:10065400F6180E6002B078BCB346AA46A146984686
:1006640070BD052DDBD1D6E7A91E58460230FFF731
:10067400D1FE0928D8D08023DB0542461A43904690
:10068400D2E7A91E58460230FFF7AEFE074B984248
:10069400CAD08023DB0542461A439046C4E7C046CD
:1006A40060910220589102204C91022001B0000078
:1006B400084B1A68FA231B02D35C002B04D0064BA8
:1006C4005943090C401A7047044B5943090C401A0A
:1006D400F9E7C0466091022055150000ABAA00005E
:1006E40082B0EFF3108172B6134B1A6880239B011A
:1006F4005340C02292011340104A13600023019317
:1007040002E0019B01330193019AFA239B009A4270
:10071400F7DBD0231B069B68022018404342584154
:10072400C0B2054B1B68C02292011340034A1360F8
:1007340081F3108802B070470C8001400C90014096
:1007440010B51C2800D010BD01F038FBD0242406BD
:1007540080235B05A3620E2001F030FB8023DB01C4
:10076400A3620F2001F02AFB80231B02A362064B25
:10077400064A1A60064805F065FE002200210020A2
:1007840003F02CFBDFE7C0460C9B002096966969BA
:10079400A475002010B50E483C3005F053FE0D4BF7
:1007A4001B6BDB0704D40B4B1B6B9B0708D410BDDE
:1007B4000748483005F046FE064B01221A63F6E767
:1007C4000348583005F03EFE024B02221A63EEE75E
:1007D400A47500200000305010B50E48683005F0B4
:1007E40031FE0D4B1B6BDB0704D40B4B1B6B9B07C0
:1007F40008D410BD0748483005F024FE064B0122FA
:100804001A63F6E70348483005F01CFE024B022247
:100814001A63EEE7A47500200000205070B5CE46A0
:10082400464640B54A4C236858681968FFF740FFAC
:1008340080460023474A1360474A1360474A1360BF
:10084400474A137022684749535047495350474910
:100854005350474953500025002630E04548743032
:1008640005F0F0FD00263A4B1A68434BD65060BCA5
:10087400B146A84670BD1368023B9B0080229204D7
:100884005A50012000214042FFF7D4FD304B196833
:10089400354A8B5801338B504E460FE02E4B1B6864
:1008A400023B9B00802252045A5000210520FFF78E
:1008B400C1FD4E46274A1368013313600135244BAA
:1008C4001A682D4BD358AB42CDDD22490B689B00EF
:1008D4009C580B6801339B0098582100FFF7E8FEF1
:1008E40080235B029C42B9D2194B19681A4A1368D7
:1008F40001339C464346C01A63469B005850154832
:10090400036802330360136802331360731C99464F
:10091400002CB0D0012C09D1FA231B02CB5C002B94
:10092400BCD00D4A1368023B1360C3E7601EFFF797
:10093400C5FD1F21200004F079FC012901D94E4690
:10094400BCE7044A1368013313604E46B6E7C04659
:10095400609102204C91022058910220549102206F
:10096400CC9302200CFA000010FA000014FA0000E4
:1009740018FA0000A475002008FA000070B50400FD
:100984000C48283005F08EFD012C0ED0094D2800AE
:100994004430210005F086FD2800483005F082FD32
:1009A4000448503005F04EFD70BD02483C3005F05F
:1009B40079FDF5E72476002010B5294B01220421A6
:1009C4001C2001F087F9274C2749200002F0D2FFB0
:1009D4000221102001F0F2F80221112001F0EEF8BA
:1009E400226BC0231B021A40204980235B010B4366
:1009F4001A60002301220821200002F089FF00214F
:100A0400200002F09BFF0023A3630F2001F0D6F91E
:100A1400D0231B06802212029A62002201210F2099
:100A240001F0E4F80024124B9C420FDCD0231B0697
:100A34005B681B0406D50F482100543005F032FDD5
:100A44000134F0E70B48743005F0FCFC0E2001F093
:100A5400B5F9D0231B068022D2015A629A6110BDD7
:100A64000105002000400340802401003040034081
:100A7400B70B00002476002070B50A00C046C046BB
:100A8400C046C046C046C046D02424068025AD01D9
:100A9400A561C046C046C046C046C046C046C04622
:100AA400C046C046C046C046C046C046C046C04612
:100AB400C046C046C046C046C046C046C046C04602
:100AC400C046C046C046C046C046C046C046C046F2
:100AD400C046C046C046C046C046C046C046C046E2
:100AE400C046C046C046C046C046C046C046C046D2
:100AF400C046C046C046C046C046C046C046C046C2
:100B0400C046C046C046C046C046C046C046C046B1
:100B1400C046C046C046C046C046C046C046C046A1
:100B2400C046C046C046C046C046C046C046C04691
:100B3400C046C046C046C046C046C046C046C04681
:100B4400C046C046C0460100324806F01BFEC046FF
:100B5400C046C046C046C046C046C046C046C04661
:100B6400C046C046C046C046C046C046C046C04651
:100B7400C046C046C046C046C046C046C046C04641
:100B8400C046C046C046C046C046C046C046C04631
:100B9400C046C046C046C046C046C046C046C04621
:100BA400C046C046C046C046C046C046C046C04611
:100BB400C046C046C046C046C046C046C046C04601
:100BC400C046C046C046C046C046C046C046C046F1
:100BD400C046C046C046C046C046C046C046C046E1
:100BE400C046C046C046C046C046C046C046C046D1
:100BF400C046C046C046C046C046C046C046C046C1
:100C0400C0466561C046C046C046C046C046C046F0
:100C140070BDC0460000044010B5D0231B068022DE
:100C2400D2015A61D0231B065B681B04FAD5D0237A
:100C34001B068022D2019A61FFF71EFF10BD00003F
:100C440070B5D6464E46454660B5C9B0704B1B6874
:100C54009C46704C23689B0062469A582368013373
:100C64009B0061465D586C4B1B686C4B1868281AD6
:100C74001104090C236802339B0063445B780F263C
:100C84001E4024680234A4006444654B1C60654B18
:100C94001B78002B02D0644B98424CDCCB1C9B107D
:100CA400023398465B4803689C46434663440360AA
:100CB4005A4B1D605B4B0120187080235B041000AD
:100CC400184084461A4200D00526584B1B68022B54
:100CD40037D0564B1B68012B35D0554B1B78D8B2F7
:100CE400002B06D0052E45D113022FD4504B0020E3
:100CF4001870130203D54F4B1B68002B2BD09301A4
:100D040030D46346002B00D07EE0920E00D07DE00C
:100D1400092E38D0484B1B78002B07D0032E03D064
:100D24000B2E01D0072E01D10C2931D0424B0022C9
:100D34001A7001201EE04148043005F083FB0020B6
:100D440018E0052EC5D1344B1D60C6E73C4A136834
:100D5400013313600EE00133354A1370384A1360CF
:100D6400012007E0314B1B68032B09D02D4B0022D7
:100D74001A70012049B070BCB246A946A04670BDA5
:100D8400254B1D60F2E72C4B01321A700120F1E76C
:100D9400E3781B02A27813437F251D40DB110F2645
:100DA4001E4000230893FC22002109A805F0B2F993
:100DB400A378E278207961798C46A1798846E17933
:100DC4008946217A8A46647A1C49079454460694D3
:100DD4004C4605944446049464460394029001925C
:100DE400009333002A004C3108A804F09FF9040052
:100DF40008A805F027FB210008A8FFF70DFF114AFA
:100E040013680133136091E70120B3E70120B1E7D0
:100E140060910220409102205091022048910220CA
:100E240064910220CA93022010270000E891002058
:100E3400CB9302203C910220CE930220A476002082
:100E440044910220BC930220F0B5C64600B54F4B36
:100E54001A684F4BD358002B22D04E483C3005F033
:100E6400F1FA4A4B1B6859684B4A11605A684B4B5C
:100E74001A6000234A4A13704A4A012111704A4AEF
:100E840013604A4A13600024404B1A68404BD358FD
:100E9400A3420ADDFFF7D4FE002806D00134F3E7AD
:100EA4003C48203005F0CEFA65E03D4B1B78002B22
:100EB40003D03D4B1B68002B60D13D4C20005030CB
:100EC40005F0C0FA334D2800503005F0EBFA2F4EF0
:100ED400384B3268D1584434200005F0E3FA280036
:100EE400583005F0DFFA60239846A844404605F0E0
:100EF400D9FA314B3268D158200005F0D3FA2800D2
:100F0400643005F0CFFA404605F0CCFA204B326845
:100F1400D158200005F0C6FA3268FA231B02D35CCC
:100F2400002B30D01B48143005F0BCFA194C602358
:100F34009846A044404605F0B5FA144E1F4B32685B
:100F4400D1581B4D4435280005F0ACFA2000703010
:100F540005F0A8FA404605F0A5FA3268184BD158B6
:100F6400280005F09FFA2000783005F09BFA154818
:100F7400083005F067FA80BCB846F0BD0A4B186823
:100F8400FFF7FCFC99E703480830CDE760910220A5
:100F940008FA000024770020509102204891022092
:100FA400CB930220CA930220449102204091022054
:100FB400247600200CFA000010FA000014FA000055
:100FC40018FA0000A4770020F0B5C64600B5FFF774
:100FD400F3FC384B00221A60374E00239846002554
:100FE4000EE0344B1B68AB4205D043465A1C334BCE
:100FF400984519D89046721C314B9E4237D816003A
:10100400D0231B061B6D012214001C401A42E8D099
:1010140005F075FB2B4B18602B4805F066FBFFF7BA
:10102400FDFBFFF711FFEBE7224B1D681B68274A06
:1010340012682749274E0C31300004F077F830004D
:1010440006F006FA01302100320008E0224B9B69C9
:101054009B06FBD41678204B1E6001310132884276
:10106400F4D81C4805F0EEF92600A046C8E7114B59
:101074001B68164A12681649164E0C31300004F0EB
:1010840055F8300006F0E4F901302100320008E0A0
:10109400114B9B699B06FBD416780F4B1E600131E4
:1010A40001328842F4D80B4805F0CCF92600A0465A
:1010B400A6E7C046BC930220814A5D05002D31019C
:1010C400804A5D056091022069696969F091002098
:1010D400A4770020689102200040034010B504006A
:1010E400FA231B02C0181C22002105F013F8FFF795
:1010F40077F9014BE05010BD04FA0000F0B5C64684
:1011040000B580461A2000F059FED0231B06802229
:10111400D2045A62C82001F0A3FF00240CE0D025B9
:101124002D068026F6046E61C82001F099FFAE6199
:10113400C82001F095FF01344445F0DBD0231B06A1
:101144008022D2049A6280BCB846F0BD70B50024F7
:10115400002500E00134FA235B009C4205DAFFF726
:10116400BFFA0028F6D00135F4E75A2D00DC70BD33
:10117400034804F007F80300002108009847C0461C
:101184005542000070B5CE46464640B5040000F016
:1011940015FE00220121200000F028FD052001F0A9
:1011A4005FFFD0252D066868E04001263300034028
:1011B4009846994601220021200000F017FD0520E1
:1011C40001F04EFF6D68E5403540200000F001FE5F
:1011D4004346002B01D0002D04D0484660BCB146E4
:1011E400A84670BD0220F9E770B50420FFF7CAFFD6
:1011F400040005000520FFF7C5FF03000200022CD0
:1012040019D0002D01D1022A29D0012D17D0022D89
:1012140019D0022D1BD01C43E0B200280AD0002DA7
:1012240001D1012A1DD0012D15D0012D1BD1012A78
:101234001BD0092070BD0228E3D10420FAE7022A5A
:10124400E5D10620F6E7002AE3D10720F2E7012AD8
:10125400E1D10820EEE7002AE7D10220EAE70520E1
:10126400E8E71800E6E70920E4E70320E2E70000E6
:1012740010B5FFF7B9FF314B18701B78DBB2082BA0
:1012840054D89B002E4AD3589F462E480200283239
:101294002D4B1A602C3005F0D5F8002010BD2948DC
:1012A40002004432284B1A60483005F0CBF8F4E7CA
:1012B400244802006032244B1A60643005F0C2F8FE
:1012C400EBE7204B204A7C331360204805F0BAF842
:1012D400E3E71E48020018321B4B1A601C3005F06D
:1012E400B1F8DAE7194802004432174B1A60483063
:1012F40005F0A8F8D1E7154802007432124B1A60C1
:10130400783005F09FF8C8E71148020024320E4BEC
:101314001A60283005F096F8BFE70D4802005432F1
:10132400094B1A60583005F08DF8B6E70948021DDC
:10133400054B1A60083005F085F8AEE7EC91002003
:1013440080750020A4770020F091002024780020EC
:10135400A47800202479002070B50500002400E062
:101364000134032C0ADC2100280005F01FFB0028AF
:10137400F6D02100280005F0EBFAF1E770BD00007B
:1013840070B5074D2800FFF7E7FF064C2000FFF774
:10139400E3FF280005F036FB200005F033FB70BDA9
:1013A400000020500000305070B5D6464E464546E9
:1013B40060B583B0724B1A68724B9A4200D1D1E087
:1013C4001C2000F0FBFCD024240680256D056562FA
:1013D400A5610E2000F0F2FC8023DB01A3620F2044
:1013E40000F0ECFC80231B02A362082000F0E6FC62
:1013F400802676006662A661092000F0DFFC802367
:101404009B00984663626361FFF732FF05F056F86C
:101414006661642001F024FE5B4803003C33020053
:1014240048325A490968543005F03CF8584B1B6857
:10143400986805F05BFDA562002201211C2000F0E4
:10144400D5FB544E5449300005F024FC814601215B
:101454000A2000F0B3FB01210B2000F0AFFB0121B7
:101464000C2000F0ABFB0D2000F0A8FC80239B01B6
:101474006362636172680220024048498C46C0215D
:101484008901654629430860316805304840CF2109
:10149400014080256D012E43316061460B431A6083
:1014A4003F4E31000C313000103004F0FBFF484651
:1014B40004F03EFD04F06CFD00223A4B04F003F905
:1014C40002000B00300028304946009104F0EAFF86
:1014D400FEF76EFF8146FEF777FF8246FEF777FF41
:1014E4000300300044305246494604F0DBFF4346D3
:1014F400A361FFF745FF05F007FC1F211B2000F047
:101504005DFB002200211B2000F070FB00211B204A
:1015140000F03CFC244B1B685D40E023DB011D40D4
:10152400224B1D60224B04221A601F4B1B68DB05F3
:10153400FBD51D4B5C682404240C200004F0FEFC45
:101544001C4904F0ECFC04F023FD02000B001A48D3
:101554002100243004F0A6FF03B070BCB246A946B3
:10156400A04670BD04F0AAFF0748243004F06AFFC7
:10157400034B00221A60114801F072FD20E7C046B7
:101584000C9B00209696696924790020F091002034
:10159400A892002000000440404B4C00040004408A
:1015A400A479002080842E4100C0044000D004406F
:1015B40000E004403333533A247A002050C300003F
:1015C40070B5DE4656464D46444670B596B0FFF7B4
:1015D400BDFD0220FFF792FD0AAB09AA08A9EF4856
:1015E40000F09AFA002804D1ED48EC49483002F0A2
:1015F400F1FC0A9A0999089800F052FAFFF7D4FE10
:1016040002F010FC002800D093E1E648143004F006
:1016140019FF162000F0D2FBD02424068023DB031C
:101624006362A361142000F0C9FB80235B03A362FF
:10163400152000F0C3FB80239B03A362052002F066
:10164400DDFA04F075FCD84904F053FC814604F03B
:101654009FFC02000B00D34838300024D34D009483
:10166400019504F01FFF0721162000F0A7FA80243B
:10167400A401CF4B2343F022120193461A60CD49B3
:10168400092000F0D9FC0121092000F0C5FCCA4E54
:101694000121300005F06CF90500C849300005F05F
:1016A40095F9804601239A460093162229003000BA
:1016B40005F0C6F90021009102231422290030000C
:1016C40005F0BEF90AA8FEF75FFE4346991C4246A0
:1016D40013320B9B0393BA480340C9010B43120313
:1016E40013430B9310220AAB190012AB180004F039
:1016F40017FD159B0393B34A1A40B34B1343159339
:10170400149A0392B14802401492B1490A401492C7
:10171400B04A1340A022120313431593494612AB57
:101724001800FEF713FE12AB42462900300005F004
:10173400D9F933685246AA40D1430691059293439E
:10174400336018236B43A44A9446634480214901BF
:101754000B43802212061A601A602B1D51469940D1
:1017640023003343196008355146A94019609B4B47
:1017740023435D461D609A49072000F05DFC5146F5
:10178400072000F049FC974DA8465146280005F073
:10179400EFF883469449280005F018F90500002164
:1017A4000091032314225946404605F049F90AAB37
:1017B4001800FEF7E9FD2B001E331A000B9B039360
:1017C4007F480340E9010B43120313430B93102298
:1017D4000AAB19000EAB180004F0A2FC119B039392
:1017E40018007C4B18400300A0200003034311930E
:1017F4000F9B03937D4A1A40A0235B0513430F9369
:10180400109B0393714803401A00794B13431093C0
:101814006F48034010939B009B08802212061343D9
:10182400109349460EA8FEF791FD0EAB2A005946C7
:10183400404605F057F943461B6850465D46A840AC
:10184400C54304950390834345462B6018235D46A6
:101854006B43684D07939C466544802149010D43C1
:10186400802212062A602A605B4604335046984060
:101874004346234318605C4608342200544694408F
:101884001C605D4B002119605C4B994619605C4AF1
:101894005C4804F03FFC5A4A00215B4804F03AFCDF
:1018A4005848FFF71BFC5848FFF718FC4B465548AF
:1018B40018603C48643004F0C5FD4B461A68534B2D
:1018C4000021D150FA20800001F0CAFB504989461A
:1018D400080004F093FF504601F0C2FB04F01AFF25
:1018E400484604F08BFFFA20800001F0B9FBFA208F
:1018F4000021000102F066FA079B46498C466344C6
:101904001F2119604046026804980240039802436C
:10191400404602601960802212062A602A603368F9
:1019240006990B40059A1343336000239846022519
:101934001EE01B487C3004F085FD0A20FFF7DEFB27
:1019440063E62E4B1868F64343469B001E504346FD
:1019540001339B0000221A502C4BC2580132C25052
:10196400A91CC2582C4BC3589A4259D0A8460D0002
:101974001C4B5B682342FBD15B4608339B00194A2E
:101984009E5802F0D9F9002EDBDB244B9D4263D82C
:101994001A4B1B68AA00D6500135E9E7C0D40100F0
:1019A400247A0020A47A0020C0E1644B00002E4079
:1019B4002C0130505505002000003050687E002076
:1019C4007F00FEFF1FFCFFE3C0020004FFFF0AFECE
:1019D400FFFFF5C1FF7FF0FFD00030502C012050F5
:1019E4009905002000002050207E0020FFFFFFE02A
:1019F4000000F101D000205060910220B49C00202E
:101A04001CFA0000B89C0020D496012008FA0000BB
:101A1400890D0020D800205004FA0000FBF90000D2
:101A240004F063FE04F06BFE1A4B1A681A4B9A42D8
:101A340010D0194D174B1D60FA231B02E8181C2205
:101A4400002104F067FB2800FFF748FB00239846B9
:101A540002258DE7114DEDE70E4D286804F045FE93
:101A640004F04DFE2A680C4B9A4210D00A4D094BE3
:101A74001D60FA231B02E8181C22002104F04AFB13
:101A84002800FFF72BFB00239846022570E7034D3F
:101A9400EDE7C046B49C0020B89C0020D4960120F9
:101AA400F0B583B004000D00160000F097F900288B
:101AB40001D003B0F0BD154F00973B000122012176
:101AC400053001F097FF00962B00220001211048F9
:101AD40002F09AF831006943200003F0A7FB0400E8
:101AE4000C4B009300220221042001F083FF009498
:101AF400230000220121052001F07CFF00973B0018
:101B040002220021062001F075FFD2E7006CDC02FE
:101B140000800240001BB700F0B5DE4657464E4633
:101B24004546E0B583B080468B4692460193A02398
:101B34005B0099462AE0013C002C1ED025007D4321
:101B44002900300003F072FB4045F4D12900300035
:101B540003F06CFB0029EED1144B4A4653435A461A
:101B6400136053461F60019B1C60012003B0F0BC4E
:101B7400BB46B246A946A046F0BD013F002F01D0A6
:101B84003C00D9E701235B429C46E1444B460F2BC2
:101B940009D9074E4B465E43064BF218064B9A4250
:101BA400F0D80727EAE70020E0E7C046001BB700AB
:101BB400E02E0000508EF4FF50F80C0010B58300A6
:101BC400084A944663441C6840226240C02414407E
:101BD4008022520113431C60C000034B9C466044A6
:101BE400416010BD04C001400040014080000B4B27
:101BF4009C46604400290DD00823002A0CD00422FE
:101C04001343026853400C221340802252011043B4
:101C1400036070470023F0E70022F1E704C00140AD
:101C240070B50400D0231B061D68AA000C4BD358C2
:101C3400002B0AD0002803D0AD00094BEC5070BD36
:101C440008490D2000F03CFBF6E70028F7D0AD0072
:101C5400034BE850002203490D2000F017FAEEE789
:101C64007C9C0020B51A0020072303409B00C00879
:101C740099403C308000014BC15070470040014006
:101C8400F8B507000C0016001D00FFF7EDFFFB0878
:101C94009B00ED180720384080008440002E04D0BB
:101CA40080239B011D432C60F8BDC0239B011D4371
:101CB4002C60F9E710B5D0231B061B68002B03D05A
:101CC400024BFFF7DDFF10BD014BFAE73041014045
:101CD4000041014070B514001D00FFF7EBFF280020
:101CE400FFF79EFF002C00D170BD01210D2000F0F4
:101CF40093F9F9E7F0B5D6464F464646C0B5D0232A
:101D04001B061F68BA001D4BD3589846002F03D0FA
:101D14001B4B9946002623E01A4B9946FAE72409FF
:101D24000135002C1BD033000833AB4217D90F23E5
:101D34001A00224092462342F1D0BB00124A9A581C
:101D44000123AB401342EAD151462800FFF78CFF30
:101D54004346002BE3D051462800C047DFE708364E
:101D64001D2E06D8F30808339B004A469C583500BC
:101D7400D7E7E0BCBA46B146A846F0BD7C9C00203B
:101D840030410140004101409C910220002909D0CA
:101D94008000094B9C46604480239B0118434023E8
:101DA400036070478000044B9C466044C0239B0141
:101DB400184340230360F4E704C0014010B5012335
:101DC4008340D0221206936293610521FFF7F6FE49
:101DD40010BD10B51F21FFF7F1FE10BD034B1B68AA
:101DE40002201840431E9841C0B2704700C006400C
:101DF400EFF3108072B6034B1B68002BFBD0BFF3CC
:101E04005F8F70472C0100D0BFF35F8F024B00221D
:101E14001A6080F3108870472C0100D0CB08C25C94
:101E240007231940012088401040431E9841C0B246
:101E34007047F8B506000C001500FFF7D9FFE3085A
:101E4400F718F15C07222240012393400B4205D18D
:101E5400DBB20B433B70FFF7D7FFF8BD210028002E
:101E640002F0B8F8F0B583B00600019114001F0029
:101E7400FFF7BEFF00E00134BC420CD8E308F518BC
:101E8400F35C0721214001228A401A42F3D1D2B2E5
:101E94001A432A7001E001246442FFF7B5FF002CC5
:101EA40002DB200003B0F0BD019B002BF9D00898A1
:101EB40002F090F870B505000C00FFF799FFE308F5
:101EC400EE18EA5C07210C400123A340134204D01E
:101ED4009A433270FFF798FF70BD034B034A2C31CD
:101EE400034801F0DDFFC046987E0020187F0020E3
:101EF400B87E0020002307E0054A9A189200BFF339
:101F04005F8F0021116001331F2BF5D97047C04644
:101F140040000034054A1078431CDBB21370172BC1
:101F240002D9130010221A707047C046F4910020A1
:101F3400074B9B68103080001950BFF35F8FBFF3CD
:101F44005F8F044B0021196082F310887047C046EC
:101F540000ED00E0240100D010B5091A081F0A4B57
:101F64009C466144094A914208D8C30706D44010EC
:101F74004005400D064B184380B210BD054B064A80
:101F8400A321064801F08CFFFC070000FE0F0000AF
:101F940000E0FFFF287F002098810020587F002068
:101FA40010B5091A04394C08090B08D14905490D23
:101FB400064A11430180064B2343438010BD054B61
:101FC400054AAB21054801F06BFFC04600F0FFFF56
:101FD40000F8FFFFB47F00206C810020587F0020B0
:101FE40001238340034A10681840431E9841C0B23D
:101FF4007047C04600E100E0002904D0034B18609C
:10200400034B18607047034B1860FBE780E200E065
:1020140000E100E080E100E010B5012383401800F6
:10202400FFF7EAFF10BD0000024B9B6810308000F0
:10203400C058704700ED00E070B504000D00EFF3E8
:10204400108672B60C4B1B68002BFBD0BFF35F8F5E
:102054002000FFF7E9FF094B984201D0A84205D1BF
:10206400320029002000FFF763FF70BD044B054ACE
:102074008621054801F014FF240100D0CD01001091
:10208400C47F0020CC810020587F0020F0B5DE46BC
:1020940057464E464546E0B589B081460191150044
:1020A400EFF3108A72B6744B1B68002BFBD0BFF39E
:1020B4005F8F724B0027DF57002F40DB7C00E41951
:1020C400A4006F4824180622A2566C4B1A706D4B5C
:1020D4009A684B4610339B00D35898461E001B1A2F
:1020E4002F2B38D9684B98452FD105AE674B3380D9
:1020F4007B009B46D8198000614B984640440230CF
:102104006349FFF729FF7080624BB380FF23B371EB
:10211400F571019B07935F44BF0047440ECE0EC781
:1021240001231C43A046524641464846FFF700FFA0
:1021340009B0F0BCBB46B246A946A046F0BD564B1A
:10214400564AD721564801F0ABFE564B534ADE217E
:10215400534801F0A5FEC04340440C2103F066F847
:10216400002912D101239E43B34633000026DA79B5
:10217400AA4211D90621595600290CDB4A005218EB
:1021840092001E003E4B9B18F1E7474B434AEA215D
:10219400434801F085FE1E00002E3AD005AB434AA9
:1021A4001A80813A5A800623F3560293002B17DAD9
:1021B4003F4805AB9B469880029A9A71DD71019A5B
:1021C4000792301D2100FFF7C7FEB080B7717B0076
:1021D400DB199B002A4FFF185B4607CB07C7A2E712
:1021E4007800C0198000264BC0180430321DB38813
:1021F400D90A1C2907D15B05591502314900511828
:10220400FFF7AAFED5E72B4B2B4AB121244801F056
:1022140047FE05AE1D4B33807B000293D819800026
:10222400174A9046020042440392901C1849FFF753
:1022340093FE7080039A101D5946FFF78DFEB080FF
:102244001E4B5A464146521A524153431B0DB37119
:10225400F571019A0792029B9C466744BF0047446C
:102264000ECE0EC7114B5A461380813B5380012377
:102274001C43A04657E7C046240100D0CD9302205A
:10228400F891002000ED00E0CD01001000A1FFFF57
:102294002892002001BDFFFFFC7F0020B4810020B4
:1022A400587F0020248000204C800020014800003A
:1022B40001BD0000C0800020A4810020AAAA000063
:1022C400F0B5CE46474680B583B006000D00EFF367
:1022D400108872B6564B1B68002BFBD0BFF35F8F80
:1022E400544B9A6834001034A300D758524B9F4281
:1022F40007D0AF4200D198E00197504BFB1A2F2B27
:1023040009D9424639003000FFF712FE03B0C0BCC1
:10231400B946B046F0BD3000FFF762FE81460021A9
:102324003000FFF779FEBFF35F8FEFF305810029DB
:1023340001D08C4211D10123019C9C430022A3684B
:10234400AB4212D00622A256002A0DDB53009B1882
:102354009B002200394CE418F1E73621384B394A06
:10236400FF31394801F09CFD2200AB4256D10625CD
:102374006557002D38DB6B005B199A002F4B9B18B7
:102384009A68A260DA79E27106229A56A2719B7960
:102394005BB2002B0FDA2D48A0806B005B199B0009
:1023A400264AD3182A4A1178997115704946300083
:1023B400FFF732FEA5E7201D6B005B199B001F4A47
:1023C4009B181A1D9B88D90A1C2907D15B055B152C
:1023D400023359005118FFF7BFFDDDE71D4B1E4ABC
:1023E400B121194801F05CFD002912D1002A0ED058
:1023F400FF239371194B9380154A1378A371184BDB
:102404000E49641A644163431B0D1370CEE70A4FEF
:10241400F2E7201D1349FFF7C3FDC7E76A21124BFA
:10242400084AFF31084801F03BFD034F69E7C04605
:10243400240100D000ED00E0CD010010F89100204F
:10244400D880002084810020587F002001BD000036
:10245400CD930220C0800020A481002001BDFFFF95
:10246400AAAA0000329200200C81002070B501213C
:1024740001432E4BCB1A2F2B28D8EFF30583002BC7
:102484002BD0EFF3108C72B6294A1268002AFBD0C5
:10249400BFF35F8F274A0400244D641B64416243E9
:1024A400120D54B2244A92689B00D2588A421BD01F
:1024B4000022032A32D853009B189B001B49CB18D7
:1024C4009B795BB2A3421FD00132F2E7C7211B4BB9
:1024D4001B4A49001B4801F0E3FC92211A4B184A9D
:1024E400FF31184801F0DCFC134A92681749D150B7
:1024F400174B1A7882711C70BFF35F8F0C4B00224C
:102504001A608CF3108870BD0D005300991889006F
:102514006918FF268E710F4A8A80E9E7D1210E4B94
:10252400074A4900074801F0BBFCC046F891002067
:10253400240100D0AAAA000000ED00E014810020CC
:1025440050810020587F00203C810020CD010010E4
:10255400CD93022001BDFFFF488100200022044BDF
:1025640002E0044902C30132072AFAD97047C0467F
:1025740000E400E080808080024B9C466144890036
:10258400016070474000003410B50400FFF7C2FC3E
:1025940001002000FFF7F0FFFF232371BFF35F8FDB
:1025A40010BD10B50400FFF7B5FC01002000FFF7D3
:1025B400E3FFFF23237100236371BFF35F8F10BD1B
:1025C40070B505000C00080000F0FEFE094920006B
:1025D40000F03EFEFFF79EFC074B9C4660448000E3
:1025E40068602C75D0231B061B786B75A400034B05
:1025F400E55070BDC5260020400000348C910220B7
:102604000A4B1A68EFF3108172B61368002BFCD0E2
:10261400BFF35F8F054B1B68BFF35F8F00221A6007
:1026240081F3108840BF002000217047A893022046
:1026340010B5002922D003681B7B99421ED8174B82
:102644009C466144090183689C4661440C6849685E
:10265400002A19D003681B7B9A4215D883680F4857
:102664008446624412019A181068536802000120DB
:102674008B4201D80ED00020C0B210BD084B094ACD
:102684003C21094801F00CFC054B064A3C21064854
:1026940001F006FCA242EFD8EDE7C046FFFFFF0FB2
:1026A4009C8300201C8600204883002010B500294C
:1026B4001ED0037B99421BD84B005B18033B046874
:1026C400A4466344002919D0002A1DD0914221D088
:1026D400002A25D0047BA24222D804685000801826
:1026E400033820188170197800291FD11A7010BD81
:1026F400104B114A6821114801F0D2FB104B114ACA
:102704006F310E4801F0CCFB0F4B0E4A70210B4881
:1027140001F0C6FB0D4B0B4A7121084801F0C0FBC8
:10272400044B054A6821054801F0BAFB41701A7050
:10273400DDE7C046C083002088860020DC830020BB
:102744004484002064860020508400205C8400209F
:1027540070B506000D001400002914D0002A14D00E
:10276400806873689847002806D02200290030004A
:10277400FFF79CFF280007E02A0021003000FFF744
:1027840095FF200000E0100070BD0800FCE7000089
:10279400F0B583B00500009201930AAB1C780BAB33
:1027A4001F78002C26D003685A7B944207D101235A
:1027B400002B19D1002C3BD1200003B0F0BD002C1C
:1027C4000CD01A7B944209D81A6863001B19033B86
:1027D400D3189B78002BEBD00123E9E73E4B3F4A0B
:1027E40068213F4801F05CFB3E4B3F4A67213F486C
:1027F40001F056FB03689C7B002CDBD012D01A7BC3
:1028040094420FD862001219033A19688C46624444
:1028140051789973002900D1D973002393705370B0
:102824001370C7E72C4B2D4A68212D4801F038FB63
:10283400002C3AD02B681B7B9C4236D82C4BE318D7
:102844001B01AA6894466344009A1A60019A5A606C
:10285400089A9A60099ADA602E68002C2BD030D03E
:10286400337B9C422DD863001B19033B326894468A
:10287400634400229A705A701A70717B22003000EF
:10288400FFF766FF7073844200D095E7287D009AB5
:10289400019B00F025FD061E01D0002F17D00C9BD4
:1028A400002B00D188E71E7086E7124B124A3C21A8
:1028B4000E4801F0F5FA114B114AA521084801F020
:1028C400EFFA054B054A6821054801F0E9FA286842
:1028D400210000F03DFFE2E7C0830020888600204D
:1028E400DC83002074840020948600204883002028
:1028F400FFFFFF0F9C8300201C86002044830020E0
:1029040078860020F0B5DE4657464E464546E0B58B
:102914008BB00990002308938200B54BD65837003A
:1029240052E0B44BB44A3F21B44801F0B9FAB44B75
:10293400B44A3C21B44801F0B3FA002901D100287B
:1029440069D10021404600F0F9FEA04219D12A685D
:102954006B6806920793AB689846EB689A464346C1
:10296400002B14D0002C18D03B681B7B9C4214D83D
:10297400631EFA68D35C08931B0218433861002075
:1029840015E0A24BA24A8E219F4801F089FAA14B7F
:102994009F4A92219C4801F083FA994B9E4A412117
:1029A400994801F07DFA00239A46984600207B68F6
:1029B400BFF35F8F00221A6086F310884346002B12
:1029C40032D1002800D10CE100F0FEFB02000B1E06
:1029D400A7DB00200021069007917868EFF31086AA
:1029E40072B601680029FCD0BFF35F8F396888464E
:1029F4004C7B002CD7D09AD0097B8C4297D887493E
:102A040065182D01B9688C46654428686968801A80
:102A14009941002991DD2A686B68099800F060FCEF
:102A240000239A469846C2E7089B1B022343994613
:102A340051461800C04705000E007A68EFF3108B6A
:102A440072B6136859424B41D9B2002BF9D1BFF386
:102A54005F8F002E1EDB002E46DD3B69002B47D026
:102A64004B456DD100F0B0FB02000B1E6EDB52191A
:102A74007341002B70DB002B72DB002104910131C8
:102A84000391029451460191414600913800FFF7A9
:102A94007FFE4CE03B69002BDDD04B4514D1069AF8
:102AA400079B521BB341002B14DB002B16DB0021C8
:102AB40004910131039102945146019141460091E0
:102AC4003800FFF765FE32E0554B514AA1214E48CC
:102AD40001F0E6F901225242524BE6E7454B464AE1
:102AE4003F21464801F0DCF9002E01D1002DB4D17C
:102AF4003B68002C50D05A7B944237D101210029E5
:102B04004AD1DA7B002A4DD19A7B002A03D1DA7BA1
:102B1400002A5AD19C73DC73002C5CD03B681B7B6D
:102B24009C4258D8FA68013C135D013313550023C5
:102B34003B617A68BFF35F8F13608BF3108843E7C0
:102B4400374B334AA421304801F0AAF9294B2A4AC9
:102B54003F212A4801F0A4F901225242314B8AE76D
:102B6400244B254A3F21254801F09AF9002C0DD029
:102B74001A7B94420AD862001219033A18688446F0
:102B840062449278002ABAD00121B8E7264B274A3A
:102B94006821274801F084F9264B274AF621244866
:102BA40001F07EF9002A0AD0197B8A4207D8510025
:102BB4008A18033A19688C4662445470A4E71A4B85
:102BC4001A4A68211A4801F06BF91C4B1A4AFB2176
:102BD400174801F065F90A4B0F4A41210A4801F0F0
:102BE4005FF90BB0F0BCBB46B246A946A046F0BDA7
:102BF4008C91022058820020E885002074820020F5
:102C04009C8300201C860020488300209C84002094
:102C140000860020B484002040860020FFFFFF0FC0
:102C2400C0840020FFFFFF7FC0830020888600202F
:102C3400DC830020FC8400205486002020850020B2
:102C440010B50C4B5B68002B04D00A210A48FFF72F
:102C540093FC10BD074C2300084A1021206800F0A3
:102C64007DFC032000F0A4FA03212000FFF7A8FC58
:102C7400EBE7C04640920020A8930220F1230020F5
:102C840010B5064B5B68002B01D0044810BD044B03
:102C9400044A5E21044801F003F9C0464092002032
:102CA400348500202886002048830020F0B5DE46C5
:102CB40057464E464546E0B58BB0804616001F0089
:102CC400149B9A46159B994616AB1B789B461F236B
:102CD40002AA9446634400221A702BE0002809D00B
:102CE40042461268127B904204D8421E4146C9688B
:102CF4008A5C41E0404B414A4121414801F0D0F80F
:102D040007984CE0361BAF41002F07DB002F11DA88
:102D14003C4B3D4A3F213D4801F0C2F80126764232
:102D24003B4FF3E7374B384A3F21384801F0B8F8B6
:102D3400002F4FDB43465A68EFF3108472B61368D2
:102D440059424B41D9B20791002BF8D1BFF35F8FA1
:102D54001F3302AA9446634404930023039302930B
:102D64004B4601935346009332003B004046FFF725
:102D74000FFD031EB2D1020041464968BFF35F8FC5
:102D840000250D6084F31088002B29D01F2302A98D
:102D94008C4663441B78002BB2D112021043002BE3
:102DA40020D05B46002B1DD04946D04704000D00BF
:102DB40003000B431DD00029A4DB00F005FA060034
:102DC4000F1EAFDB36196F41002FB1DA01267642B0
:102DD4000F4FADE70B4B0C4A3F210C4801F060F854
:102DE400012040420BB0F0BCBB46B246A946A04607
:102DF400F0BD0798F6E7C0469C830020408600207B
:102E04004883002058820020E88500207482002036
:102E1400FFFFFF7FF8B50400002900D162E042689B
:102E2400EFF3108572B6136858424341D8B2002BB1
:102E3400F9D1BFF35F8FCBB22268567BB3421BD16B
:102E44000120002848D0206988422BD0090AC9B241
:102E5400002B2ED02068007B83422AD8581EE668B7
:102E6400305C88422BD000206368BFF35F8F002260
:102E74001A6085F31088F8BD002B0DD0167BB34281
:102E84000AD85E00F618033E1768BC466644B67856
:102E9400002ED6D00120D4E7134B144A68211448DD
:102EA40000F0FEFF2C21134B134AFF31134800F0AE
:102EB400F7FF134B134A4121104800F0F1FF1900AA
:102EC400100000F045FC0028CED199210E4B0A4A8F
:102ED40049000A4800F0E4FF23698B42C4D100236F
:102EE4002361C1E70020C6E7C08300208886002054
:102EF400DC83002058850020D085002048830020F2
:102F04009C830020408600207C850020F0B587B09B
:102F140006000F00EFF30583002B1FD10624644243
:102F2400E517A4197D418D4202D803D1844201D909
:102F340000240025002D14DB0494059500F044F9C9
:102F440002000B1E13DBA41A9D41002D17DC14D0C4
:102F54003000390000F044F907B0F0BD234801F017
:102F640039F8234B234A3F21234800F099FF204B93
:102F7400204A3F21204800F093FF002CE8D0FFF7BF
:102F84007FFE0023029301931C4B0093049A059B3C
:102F9400FFF78CFE002818DADAE7002300E00023AC
:102FA400002BD5D1164B1A68EFF3108172B6136853
:102FB400002BFCD0BFF35F8F114B1B68BFF35F8FF7
:102FC40000221A6081F3108820BF0499059A0D4BE2
:102FD4005B6A9A42E3D80B48806A884203D29A42D9
:102FE400DBD00123DCE70123DAE7C046808500203B
:102FF40058820020E885002074820020C12300202C
:10300400A89302200040054070B504000D0000F0B4
:10301400DBF802000B1E0ADB20002900801859414E
:1030240000290ADB00290CDBFFF770FF70BD084B99
:10303400084A3F21084800F033FF01204042074975
:10304400F0E7034B034A3F21034800F029FFC04641
:1030540058820020E885002074820020FFFFFF7F53
:1030640010B5FA2292000023002102F01BFFFFF7A3
:10307400CBFF10BD70B584B005000C00EFF30583E1
:10308400002B1ED1FFF7FCFD002302930193224B7A
:1030940000932A002300FFF709FE061E23DD20BF4C
:1030A400FFF7EEFD3100FFF7B5FE1C4B5B6A9C4257
:1030B4002DD81A4A926AAA422CD29C4225D00120C9
:1030C40026E0164B5B6A994209D8144A926A8242F6
:1030D40007D2994201D001201AE0002018E0002014
:1030E40016E0012014E00D4B5B6A9C4209D80B4AA0
:1030F400926AAA4207D29C4201D0012008E0002033
:1031040006E0002004E0012002E0002000E00020AE
:1031140004B070BD0120FBE7C1230020004005403E
:1031240070B5EFF305801038EFF3108C72B61A4BBC
:103134001B68002BFBD0BFF35F8F01221300834079
:1031440016494B6316490B60164909780C00C440B4
:10315400224214D0114A546A8200134D52599442A7
:1031640006D38200114C125999430E4B197007E093
:103174000A4A031D9B0099589950002200E000223E
:10318400BFF35F8F044B002119608CF31088002A71
:1031940000D0904770BDC046280100D000400540D3
:1031A4003C700540CF930220AC9302206C9C00201D
:1031B40010B50100024A0348FEF73BFE10BDC046AD
:1031C400B8860020C8930220044B5B6A034A906AC5
:1031D4001900536A9942F9D17047C046004005402E
:1031E400084B5B6A01E0074B5B6A8B42FBD301E04F
:1031F400044B5B6A8B4203D1024B9B6A8342F7D335
:103204007047C0460040054070B504000D00FFF74C
:10321400DBFF02000B0020002900801859418B427B
:1032240002D804D1824202D901204042C1170029A8
:1032340002DBFFF7D5FF70BD024B034A3F21034871
:1032440000F02EFE588200207C870020748200202B
:1032540070B504000D00EFF3108672B61B4B1B68AB
:10326400002BFBD0BFF35F8F002D1CD02000FEF796
:10327400DBFE174B83420BD019002000FEF7DCFE67
:1032840001212000FEF7C8FE0123A340114A136068
:10329400A400114BE550BFF35F8F0C4B00221A6062
:1032A40086F3108870BDA2000B4B0021D15001227F
:1032B400A2400A490B7893430B7005492000FEF79E
:1032C400FFFF00212000FEF7A7FEE4E7280100D05D
:1032D400E12E0020386005406C9C0020CF93022032
:1032E400F0B5DE4600B584B00400150001921E005E
:1032F4000293FFF769FF03958E4202D84ED18542AF
:103304004CD9EFF3108B72B6274B1B68002BFBD004
:10331400BFF35F8F254A17780125A540EBB23B43E5
:103324001370234B5D63221D92000199D150A200BA
:103334002049029850501B6A2B4212D11C4B1B6C23
:103344002B4208D00020BFF35F8F174B00221A6076
:103354008BF3108823E0184B184AC521184800F055
:103364009FFDFFF731FF8E4214D802D1039B8342A5
:1033740010D80E4B1B78BB420ED00D4B1D625D6303
:103384001F2004400123A3400E4A1360074B1F7003
:103394001E38D8E70020D6E70120D4E7012004B086
:1033A40080BCBB46F0BDC046280100D0CF930220AC
:1033B40000400540AC930220DC860020608700209A
:1033C4000087002080E200E0EFF3108C72B60B4B14
:1033D4001B68002BFBD0BFF35F8F01238340084A97
:1033E400136208490A789A430A70BFF35F8F034B4C
:1033F40000221A608CF310887047C046280100D060
:1034040000400540CF93022010B500291ED0037B55
:1034140099421BD84B005B18033B0468A4466344E1
:10342400002919D0002A1DD0914221D0002A25D08C
:10343400047BA24222D80468500080180338201864
:103444008170197800291FD11A7010BD104B114AD0
:103454006821114800F024FD104B114A6F310E48C9
:1034640000F01EFD0F4B0E4A70210B4800F018FDB2
:103474000D4B0B4A7121084800F012FD044B054A1C
:103484006821054800F00CFD41701A70DDE7C04664
:10349400C08300209C880020DC830020448400201A
:1034A40088880020508400205C84002070B50600C9
:1034B4000D001400002914D0002A14D08068736809
:1034C4009847002806D0220029003000FFF79CFF0F
:1034D400280007E02A0021003000FFF795FF2000B4
:1034E40000E0100070BD0800FCE7000010B50023E8
:1034F400437301338373037BC3730123027B9A42B7
:1035040014D9002B0CD0027B934209D85A00D2184C
:10351400033A01688C4662440133DBB25370EDE731
:103524000B4B0C4A68210C4800F0BAFC002A09D065
:10353400924207D8016853009A18033A8A18002364
:10354400537010BD024B034A6821034800F0A8FCE5
:10355400C08300209C880020DC83002010B5017308
:1035640042608360FFF7C2FF10BD000070B5040025
:10357400081E00D170BD002934D0237B994231D874
:103584004B005B18033B2268944663445A78002A34
:10359400F0D02DD0237B9A422AD853009B18033BAA
:1035A40021688C4663445D7800215970002825D039
:1035B400237B984222D843001B18033B21688C4686
:1035C40063440021597001002000FFF76FFF0600DB
:1035D40029002000FFF7CAFF020031002000FFF796
:1035E40065FFC7E7084B094A6821094800F058FC01
:1035F400054B064A6821064800F052FC024B034A78
:103604006821034800F04CFCC08300209C88002003
:10361400DC83002070B505000C00160000292FD0B3
:1036240034D0037B994231D84B005B18033B0268CA
:10363400944663445A78002A2ED19A78002A31D1CC
:103644001978FFF793FF0300002E0AD0EA7B002AC3
:103654002ED1AA7B002A03D1EA7B002A3BD1AC738A
:10366400EC73002B3DD1002C4FD02B7B9C424CD8CB
:103674002B6861000C19033C1C190023637070BD96
:10368400254B264A3821264800F00AFC254B264AB9
:103694006821264800F004FC254B204A3A212048A2
:1036A40000F0FEFB234B1D4A3B211D4800F0F8FBB4
:1036B400002A0AD0297B8A4207D851008A18033A83
:1036C40029688C4662445470C3E7164B164A682135
:1036D400164800F0E5FB184B104A4221104800F050
:1036E400DFFB002B0BD02A7B934208D843001B1826
:1036F400033B2A689446634400229A70B3E7094B5B
:10370400094A6821094800F0CBFB064B064A6821A8
:10371400064800F0C5FBC04694870020748800204A
:103724009C870020C08300209C880020DC8300202C
:10373400F0870020188800202085002070B5040040
:103744000A00457B2900FFF765FF6073280070BD00
:1037540070B50400002967D0437B8B420ED000294A
:1037640011D0037B99420ED84B005B18033B0268CF
:10377400D0188378002B0CD1002056E00121FFF7EC
:10378400DDFF012051E0294B294A6821294800F036
:1037940087FB002B20D0227B93421DD85A00D318DC
:1037A400033B2268D2182568EB5C8B421AD0002BAD
:1037B4001BD0227B934218D85A00D318033B2268AB
:1037C400D21853788B4216D0002BF0D11A4B1B4AD7
:1037D4006B211B4800F064FB144B154A6821154803
:1037E40000F05EFB4378137007E0104B104A682129
:1037F400104800F055FB43785370002383704370E6
:1038040001222000FFF706FF0200617B814205D000
:103814002000FFF74BFE6073012006E0094B074AC6
:103824007121074800F03CFB002070BDC0830020DC
:103834009C880020DC830020488100205C880020D4
:103844009C8700203C88002070B5046BE30701D4FA
:10385400200070BD02003032C0239B0113430A4A8A
:103864001A60456A826AAD01AD18AD02062000F007
:10387400C5F9064901F0DAFC0100280001F0D6FC84
:103884000021FFF7C1FCE3E7010300004E0E000036
:1038940070B504000E001500FFF7D6FF22002C328D
:1038A400E16A4E40354080235B0113431D60206371
:1038B40070BD000070B505000C00062000F09EF9F4
:1038C400C000210001F0B2FCC60908D00E4B9E4294
:1038D40016D87F23184001303400460800E0012444
:1038E4006C62AE62002200212800FFF7D1FF06209F
:1038F40000F084F98000A101891901F097FC70BDE2
:103904000026024CECE7C046FEFF0000FFFF00006B
:1039140010B505394901013AD2001143002B09D0F1
:1039240002220A43012B07D0002111436E22FFF724
:10393400AFFF10BD0022F4E70421F6E710B500291B
:1039440000D010211022FFF7A3FF10BD002909D0D9
:103954000A22064B9C466044434258414000044BB3
:10396400C252704780225200F3E7C0460080FCBF79
:10397400C093022070B505000C00062000F03EF94B
:10398400061E27D0164B9D4226D08022D203154B0B
:103994001A60154B1A60154B9B6811009943FAD1B4
:1039A40000212800FFF7D2FF21002800FFF782FF43
:1039B40006000023012208212800FFF7A9FF2A009E
:1039C4002C3280239B01134310221A60084B2B6373
:1039D4000323AB64300070BD80221204D7E7C046D5
:1039E4000080034000E0004000F0004000C00040C0
:1039F40001030000F8B5DE4657464E464546E0B59D
:103A040005000F0092460A9A934250D31A0E91462B
:103A14001E020A9A00233000494601F045FC804604
:103A24006C006419A400304B9C4664446368834270
:103A340000D260602B1FDBB29B46012B3DD9C02313
:103A44009B012343802212011A60AB00274A995834
:103A5400002907D0506901F0E9FB431C5800C01845
:103A64000338FDD253465A0123685A40E0231A40D2
:103A740080235B0123431A605A46012A28D98023F4
:103A84009B012343802212011A604346636042462D
:103A940000233000494601F007FCAD00134B585198
:103AA4000120F0BCBB46B246A946A046F8BD104B67
:103AB400104A3321104800F0F3F9012FBFD1C0237D
:103AC4009B01234303221A60A368DB07FCD5C9E7E3
:103AD4002168794003220A401A60A2680123BB408E
:103AE4001342FAD0CBE7C046008000408C9C0020F3
:103AF400A88800201C890020BC88002030B583B031
:103B04000C2000F011F9FEF769F900280DD000230C
:103B140004E099002D4A2E4888500133092BF8D926
:103B24002A4B2C4A5A6203B030BD2B4B00229A67B1
:103B340000F080F9294B01221A60274B5B6C012BA2
:103B4400FBD1274B03221A60234B9B6B012BFBD128
:103B5400013300930433234A0121234800F054F82D
:103B640005230093214A0121214800F04DF8214BFF
:103B74000093002202210420FFF73CFF1E4D009514
:103B84002B00002201210520FFF734FF104C009484
:103B94002300002200210720FFF72CFF00942300BC
:103BA400002200210820FFF725FF0A4B0093230081
:103BB400002200210920FFF71DFF00952B000022A1
:103BC40000210620FFF716FFADE7C0468C9C0020BD
:103BD400006CDC021BB70000008000403CB00040D9
:103BE40030B00040002F685900800240008C8647A6
:103BF40000C00240001BB700405973078000014B0E
:103C0400C05870478C9C0020F0B5C64600B504002F
:103C14000E0017001D00374801F008FB8046364BA4
:103C2400FA18364B9A4239D80100380001F0FEFAEE
:103C34000200103A98235B009A4235D86B1E062B7B
:103C440038D8069B013B062B34D83F09474537D368
:103C54002D04069B1A0315432368002B36DB284BDF
:103C64009C4244D080225201264B1A60264B1A6093
:103C7400264B9B6811009943FAD12660A060231D4E
:103C8400C02292011A43212313602368002BFCDA1B
:103C9400E5600823136080BCB846F0BD1C4B1D4A88
:103CA40011211D4800F0FCF81C4B1A4A19211A482E
:103CB40000F0F6F81A4B174A1C21174800F0F0F8E8
:103CC400184B144A2321144800F0EAF822683F23D1
:103CD4001340B342C3D1A3681B051B0D8342BED15D
:103CE400E368EE22D2021340AB42B8D1D3E780227C
:103CF4009201B9E7001BB70080E84BD380F8A932E2
:103D040000C0024000E0004000F0004000C000405D
:103D14002C8900206C8A00208C890020E8890020EE
:103D2400048A0020508A002080239B000343014A18
:103D3400D362704700800540024B1A68024B5A60F8
:103D44007047C046889102200080054010B50200EB
:103D5400164B8020C0051860154B164818600029C2
:103D64000AD0154BE021C9041960002A09D1124B6D
:103D7400802212061A6010BD0C4BE021C9041960A0
:103D8400F3E753019B1A9800801800010B4B18604D
:103D940080235B04984202D3084B094A1A60FFF758
:103DA400CBFF054B8022D2051A60E4E700B0054042
:103DB40008200140FCFF010000A00540889102207A
:103DC400FFFFFF0010B5034B034ADA61FFF7BEFFA4
:103DD40010BDC046008005402131B76A10B503000C
:103DE40010000C4A8024E4051460002B0DD001223D
:103DF4001343094A094CD461094C5C401462516272
:103E040093620021FFF7A2FF10BD034B0022DA6189
:103E1400F7E7C04600B0054000800540D3C007B0B6
:103E24002D3FF84F024B9868431E9841C0B270472B
:103E340000800540064BAA2212011A602F22DA6084
:103E4400044B054A1A60024B5B68002BFBDA70478F
:103E5400004002400060024000B0FA0000BEFDE7EE
:103E640003000A4A1268002A08D0084A1068C318D6
:103E7400074A9A4206D3054A13607047034A054924
:103E84001160F2E701204042F7E7C0465C9102204E
:103E940000000420D093022010B5FFF7DFFF0000DC
:103EA40010B582B00C001900002A0CD0084B002A6F
:103EB4000BD00192009323000200064802F0F2FAAC
:103EC4000120FFF7CBFF044BF1E7034AF1E7C046BB
:103ED400788A0020888A0020848A002070B52B4BC1
:103EE4002B4A1A602B4B2C4A1A602C4B9A682A4B8B
:103EF4009343FAD12A4C01E008CC9847294B9C42C1
:103F0400FAD3FFF7FBFD234B274A1A60234B9B6828
:103F1400DB43DB01FAD1254B40229A675A671A67C3
:103F2400DA66234C09E0234B234A87212348FFF711
:103F3400B7FF2000FEF728FB0834214B9C4209D22E
:103F44002368002BF5D0012BEDD12000FEF729FBCF
:103F54000834F2E71B4CA1681B4DC022280002F074
:103F6400DFF8A560EFF30583002B00D000BEFDF75A
:103F7400C1FFFEF7F3FAFEF763FE144C01E008CC30
:103F84009847134B9C42FAD370BDC04600E00040F2
:103F9400BFCDFBFE00F00040FE7F3C0000C00040AF
:103FA400F89A0020089B0020FFFFFF0100F0014069
:103FB400E89A0020B88A00204C8B0020D88A002080
:103FC400F89A002000ED00E000000020089B00208B
:103FD4000C9B00200FB400B583B0084802F032FAFD
:103FE400049B002B07D005A90191180002F03AFAAE
:103FF400034802F027FA0120FFF730FF388B002036
:10400400488B00209A4200D288547047704710B5FC
:10401400002802D00B684968984710BD01000020B1
:1040240007E083001B185B00501C08601078C01860
:1040340030380A681378303BDBB2092BF1D970476A
:10404400F0B5DE4657464E464546E0B583B0934646
:104054001F000C9B9A460D9C0E9B99460F9B9B0739
:1040640003D0B8460F00060022E00192A34688461A
:104074004E46B9460700B44207D2551C4B4641464A
:104084002020B84701342A00F5E73D004F465C463E
:10409400019B9B46B1464646B84637002E0007E0D2
:1040A400013C551C5346185D43463900B0472A006D
:1040B400002CF5D135003E0047460F9B9B0707D4E3
:1040C400100003B0F0BCBB46B246A946A046F0BD02
:1040D400B0464E46B9462F005D46531BB342EFD25D
:1040E400541C4B4641462020B8472200F5E7F0B562
:1040F400CE46474680B585B0944698460C9D0D9CA7
:104104000EAB1B789946109A119B129EB7071CD4CC
:10411400002B0CD0F7070AD54F46002F02D10C37DD
:10412400374204D0013B02E030272F55013494423A
:1041340001D21F2CF8D9F70707D59C4205D21F2CB2
:1041440003D830272F550134F5E7F70615D5770541
:1041540005D4002C03D0944224D09C4222D00F9A40
:10416400102A2BD00F9A102A30D00F9A022A35D059
:104174001F2C02D830222A5501341F2C05D84A4658
:10418400002A31D02D222A5501340396029301943A
:10419400009543466246FFF753FF05B0C0BCB946DD
:1041A400B046F0BD621E012C06D00F9F102F01D027
:1041B4001400D4E7023CD2E71400D0E7B206D1D40D
:1041C4001F2CCFD878222A550134D1E7B206CCD59A
:1041D4001F2CCAD858222A550134C9E71F2CC7D826
:1041E40060322A550134C3E7720703D52B222A55BE
:1041F4000134CAE73207C8D520222A550134C4E75E
:10420400F0B5DE4657464E464546E0B593B0814686
:104214008A46089209931CAB10CB1B789B461E9DC3
:10422400219B9846002C03D1102342469A43904682
:104234008023DB0046461E4042461A4212D0002C20
:1042440022D000260EE03033D9B2771C0AAB995540
:104254002900200000F0EAFFAC4216D31F2F14D827
:104264003E0004002900200000F0E0FFCBB2092B3F
:10427400E9D94246920605D54121C918C9B20A397D
:10428400C9B2E2E76121F8E7270043460693209B81
:1042940005931F9B049303955B46029301970AAB16
:1042A4000093099B089A51464846FFF720FF13B034
:1042B400F0BCBB46B246A946A046F0BDF0B5DE460A
:1042C40057464E464546E0B595B0089009910A9286
:1042D4000B931E9E1F9C20AB1B789B46229B9946EA
:1042E400239D269B9A463300234303D11033524621
:1042F4009A4392468023DB0057461F4052461A4297
:1043040019D0330023432DD0002714E03033DAB220
:104314007B1C98460CABDA554A462B003000210032
:1043240000F0C2FFA5421FD819D043461F2B1BD84B
:10433400474606000C004A462B003000210000F0DE
:10434400B3FFD3B2092BE1D95246920605D54122D7
:10435400D218D2B20A3AD2B2DAE76122F8E7B1450A
:10436400E3D901E00023984653460693259B059321
:10437400249B04934B4603935B4602934346019369
:104384000CAB00930B9B0A9A09990898FFF7AFFEB0
:1043940015B0F0BCBB46B246A946A046F0BD00002D
:1043A400F0B5DE4657464E464546E0B591B08346E5
:1043B4008A460C9298461A9C08941B9D09952200E3
:1043C4002B002000290001F0FAF9002800D0E5E0D4
:1043D40001225242D74B2000290001F0EBF90028BA
:1043E40000D0DBE001225242D34B2000290001F02F
:1043F400CBF9002800D0D1E000220023089E300031
:10440400099D290001F0C0F9002800D0DDE00898DA
:104414000999069007918023DB001E9A1A400D9299
:104424001E9A1A4201D106231C9306980799040088
:104434000D000A000600024300D1D1E0080D40053A
:10444400400DBE4CA44660440A03120BBC4B1343FC
:104454001F0001F0C7F9BB4ABB4B01F052F9BB4A3C
:10446400BB4B01F027F904000D000022B94B3000CA
:10447400390001F016F9B84AB84B01F042F90200CC
:104484000B002000290001F015F901F0C3F9814661
:1044940001F0A8F904000D00B14AB24B01F031F962
:1044A4000022B14B01F006F901F0B4F90600AF4A5D
:1044B400AF4B2000290001F024F904000D00300066
:1044C40001F090F9AB4AAC4B01F01BF902000B0070
:1044D4002000290001F0E5F804000D0002000B00A3
:1044E40001F00FF90A900B91A44BF31800261F0555
:1044F40022002B002000290001F0DCF80E900F911F
:1045040022002B0000208021C90501F0CAF8040014
:104514000D0000229A4B0A980B9901F0D4F800225E
:10452400984B01F0C7F802000B000A980B9901F0B0
:10453400CAF80022944B01F0BDF802000B000A985F
:104544000B9901F0C0F802000B002000290001F0D3
:10455400B1F802000B000E980F9901F0B4F8002294
:10456400774B01F0A7F832003B0001F0CAF80600CF
:104574000F0004000D00069A079B01F01BF90028A8
:1045840030D001235B429C46E14400227D4B300045
:10459400390001F098F804000D0023E01E9B0493F9
:1045A4001D9B03931C9B0293089A099B0092019301
:1045B40043460C9A5146584600F0FCF811B0F0BC42
:1045C400BB46B246A946A046F0BD0023002406938C
:1045D4000794069680231B069C46654407951AE7B4
:1045E400002399464B466333C62B1ED804261E9BD4
:1045F4001B0526D52B0023430FD0644A644B069831
:10460400079901F0CFF8002879D00022614B069871
:10461400079901F0B9F8002871D01C9B4B4506DDC1
:104624004A46981A431E1C9303E00526DFE700233D
:104634001C938023DB001E9A1A431E92002600233B
:1046440099461D9B9E4264D29F1B02231E9A1A40C8
:104654000A921E9A134202D0002E00D000274B4625
:10466400002B07D022002B000698079901F02BF8A5
:1046740006900791002200230898099901F084F814
:10468400002848D1444B1E9A1340049303971C9B63
:104694000293069B079C0093019443460C9A51464F
:1046A400584600F087F8002E00D187E71E9B9B0632
:1046B4003DD54525441C4346020051462800D847B1
:1046C4004B46DA179B18534005220592013E049687
:1046D400002203920A3202924A46D00F01900093BC
:1046E4004346220051465846FFF78AFD0A9B002B99
:1046F40000D163E702005F460C9E1D9D54E01C9BA5
:10470400002B9ED00D9B002B9BD01C9B013B1C932C
:1047140097E7002799E7069C079D2200290080203F
:104724000006844661440B0006920793AAE76525B8
:10473400C0E7C046FFFFEF7FFFFFEFFF01FCFFFF75
:104744000000F03FFB799F501344D33FB3C8608B04
:10475400288AC63F0000F83F61436F63A787D23FB2
:1047640071A379094F930A400000E03F1655B5BB89
:10477400B16B0240EF39FAFE422EE63FFF03000020
:1047840000002C4000002440000018402D431CEB86
:10479400E2361A3F80842E41FFF7FFFF541C434644
:1047A40051462020B8472200931BAB42F6D3100099
:1047B40004E7C046F0B5DE4657464E464546E0B5EA
:1047C40095B00690079193469946209F1E9A1F9B89
:1047D4001000190000F0F3FF002831D101225242E9
:1047E400BF4B1E981F9900F0CFFF002837D101223C
:1047F4005242BC4B1E981F9900F0DCFF00283DD1AB
:104804000022B94B1E981F9900F0D4FF002850D104
:104814000022B64B1E981F9900F0B6FF002848D11D
:10482400002200231E981F9900F0AEFF002850D1EB
:1048340000239846229B5B0500D4B6E0002458E090
:10484400229B0393219B029303230193A84B009380
:104854004B465A4607990698FFF7F2FB0EE1229B56
:104864000393219B029304230193A24B00934B4691
:104874005A4607990698FFF7E3FBFFE00423229AC0
:104884001A4022990B4210D09B4B002A0FD00422CD
:104894002299039121990291019200934B465A4621
:1048A40007990698FFF7CCFBE8E0944BEDE7032269
:1048B400EEE7229B0493219B039302971E9B1F9C6C
:1048C400009301944B465A4607990698FFF768FDF2
:1048D400D4E01E9A1F9B0020002100F0E2FE1E90EF
:1048E4001F9101239846A5E70CAB30221A55013FCE
:1048F40001341F2C01D8092FF6D81E981F9900F0F7
:1049040089FF050000F06EFF02000B001E981F993E
:1049140000F0C7FEFA007A4B9B181A685B680A928B
:104924000B9300F0EEFE0890099100F097FF06004B
:1049340000F054FF02000B000898099900F0B1FE42
:104944000890099100226F4B00F034FF00282ED00C
:104954000136300000F042FF02000B000A980B9968
:1049640000F018FF002801D001350026002F2CD1BB
:10497400280000F037FF02000B001E981F9900F07A
:1049840090FE06000F0000225E4B00F0FDFE0028A2
:1049940046D100225B4B3000390000F00BFF0028A9
:1049A4003ED1EB073CD501353AE0062746E7002225
:1049B400544B0898099900F0E7FE0028D6D1002E40
:1049C40001D0F307D2D50136D0E7AA461F2C11D85F
:1049D400013F0A21300000F029FC651C30310CAB8A
:1049E40019550A21300000F021FC092E0ED90600C9
:1049F4002C00EBE755461F2C0CD87B1E002F09D04A
:104A04000CAA302111551F000134F4E72B00554640
:104A14001C00F0E71F2C03D80CAB2E221A550134CE
:104A24001F2C10D80A21280000F0D8FB661C303156
:104A34000CAB19550A21280000F0D0FB051E01D04B
:104A44003400EDE734000323229A1340012B1CD0D9
:104A54001F2C06D84346002B32D00CAB2D221A55FE
:104A64000134229B0393219B029301940CAB00938A
:104A74004B465A4607990698FFF7E2FA15B0F0BC80
:104A8400BB46B246A946A046F0BD219B002B13D0DD
:104A94004346002B02D10C3313420FD0219B013B20
:104AA4002193190003E00CAB30221A5501348C42D7
:104AB400CED21F2CF7D9CBE72199F8E72199F6E755
:104AC400229B5B0704D50CAB2B221A550134C8E793
:104AD400229B1B07C5D50CAB20221A550134C0E715
:104AE400FFFFEFFFFFFFEF7F65CDCD4165CDCDC16A
:104AF400688B00206C8B0020608B00205C8B002076
:104B0400588D00200000E03FF0B5DE4657464E4683
:104B14004546E0B593B082468B46904611930029F2
:104B240000D1EBE200275546119B1878002800D1EC
:104B3400E7E2252809D07C1C43463A005946A84799
:104B4400119B013311932700EEE7013311930024E5
:104B5400119A11780B00203BD8B2102803D8830097
:104B6400D048C3589F460B00303BDBB2092B2CD9ED
:104B74002A292FD000230A93119B1A782E2A39D080
:104B840000239A46119A1378683BD9B2122976D831
:104B94008B00C549CB589F4601231C430132119217
:104BA400D6E702231C4301321192D1E704231C43AC
:104BB40001321192CCE708231C4301321192C7E75A
:104BC40010231C4301321192C2E711A8FFF726FA01
:104BD4000A90D1E71C9B1A1D1C921868002804DB5C
:104BE4000A90119B01331193C6E702231C434342ED
:104BF4000A93F6E78022D20014435A1C11925A7881
:104C04001300303BDBB2092B04D92A2A07D0002336
:104C14009A46B7E711A8FFF701FA8246B2E71C9B50
:104C24001A1D1C921868002804DB8246119B01336C
:104C34001193A7E70020F8E780235B002343511C6E
:104C4400119152786C2A01D01C0018E0C0239B00FB
:104C54001C430131119112E080232343511C119113
:104C64005278682A01D01C0009E0C0231C4301319A
:104C7400119104E080235B001C4301321192119BCB
:104C840018780300253BDAB2532A00D92CE29300AA
:104C9400864AD3589F4680239B001C4301321192BD
:104CA400EDE780235B001C4301321192E7E778288B
:104CB40009D0582838D06F2838D0622838D010232B
:104CC4009C430A2600E01026582833D0692803D0D4
:104CD400642801D00C229443630501D50122944336
:104CE40069282AD0642828D0A30500D59FE0E305CD
:104CF40000D5B8E0630600D4CAE01C9A111D1C91CB
:104D04001168FF220A4005940A9B049353460393B7
:104D1400029600230193009243463A005946280024
:104D2400FFF76EFA070027E01026CDE70826CBE749
:104D34000226C9E720221443C8E7A30520D4E305CB
:104D440050D4630666D51C9A111D1C911168FF226C
:104D54000A40D317D118594005940A9B049353462B
:104D640003930296D20F0192009143463A005946AA
:104D74002800FFF745FA0700119B01331193D3E68E
:104D84001C9BDA1D07218A43110008311C9111680C
:104D940053689C46DB170C930D930C9A0D9B1000E3
:104DA40048400E90624653400F930E980F990C9A08
:104DB4000D9B801A99410E900F9108940A9B0793BA
:104DC400534606930496002305936346DA0F029232
:104DD4000090019143463A0059462800FFF76EFAC5
:104DE4000700C9E71C9A111D1C911268D317D1182A
:104DF400594005940A9B0493534603930296D20F99
:104E04000192009143463A0059462800FFF7F8F909
:104E14000700B1E7230605D51C9A111D1C91002338
:104E2400D25E96E71C9A111D1C91126891E71C9B97
:104E3400DA1D07218A43110008311C9108940A9B4A
:104E4400079353460693049600230593029313682D
:104E540054680093019443463A0059462800FFF7EA
:104E64002DFA070088E71C9A111D1C9105940A9BD2
:104E7400049353460393029600230193136800930B
:104E840043463A0059462800FFF7BAF9070073E78A
:104E940023060DD51C9A111D1C9112681204120CC4
:104EA40031E7C046748B0020B88B0020048C0020AE
:104EB4001C9A111D1C91126825E746281AD01C9BC8
:104EC4000733072293431A0008321C9204940A9A67
:104ED4000392524602925C681B6800930194434615
:104EE4003A0059462800FFF765FC0700119B01337F
:104EF400119319E620231C43E1E7672801D04728D2
:104F040002D180231B011C43452801D0472801D12D
:104F140020231C431C9B0733072293431A000832A7
:104F24001C9204940A9A0392524602925C681B688B
:104F34000093019443463A0059462800FFF730FA9B
:104F44000700119B01331193EEE502231A0022405E
:104F5400924623421FD001241C9B1A1D1C927A1CCA
:104F64009146187843463A005946A8475346002BC1
:104F740016D1119B013311934F46D5E5561C434678
:104F840059462020B847230032005C1C9D42F5D8C6
:104F94003D001700E0E701233A002F000A9DF4E7E3
:104FA4004A46A9460A9D06E0571C43465946202016
:104FB400C84734003A00661CA542F5D84D469146D0
:104FC400D7E71C9B1A1D1C921B6899465346002B5D
:104FD40000D1013B4E4601E0013613003278002A2D
:104FE40002D05A1E002BF7D14B46F21A109280239E
:104FF400DB0026001E401C4203D0524501D9534613
:10500400109302231A0022400B92234205D03A0047
:1050140037004C46A946554620E03A00109B5F46AF
:10502400B3462E0006E0551C434639002020B04705
:1050340023002A005C1C0A999942F4D835005E4684
:10504400BB46109437004C46A946554606E01D0061
:105054000134561C43465946C8473200207800287C
:1050640004D0002FF4D06B1E002DF0D117004D4654
:105074000B9B002B03D1119B0133119354E50A9F21
:10508400109B06E0561C434659462020A84723009F
:1050940032005C1C9F42F5D81700ECE721231C4327
:1050A4001C9B1A1D1C921B680093059408230493EF
:1050B40053460393102302930023019343463A007B
:1050C40059462800FFF79CF80700119B0133119300
:1050D4002AE57C1C43463A0059462520A847119BE3
:1050E4000133119327001FE57C1C43463A005946BF
:1050F400A847119B01331193270015E50A4B9A46E3
:1051040010E5AA46474502D343465A1E00E03A003A
:10511400434659460020D047380013B0F0BCBB4684
:10512400B246A946A046F0BDCD3D00200EB410B550
:1051340085B0010007AC08CC0394012200945242CC
:105144000348FFF7E1FC05B010BC08BC03B01847E6
:10515400C53D002000B585B0029003910121009364
:1051640013004A4202A90248FFF7CEFC05B000BD75
:10517400CF3D002001480421014B184770920020C4
:10518400654F002010B5010018231B8814221088D5
:10519400984710BD10B5010018231B8816221088EB
:1051A400984710BDF0B5C64600B507000E000025AF
:1051B4000123984600E00135B5420AD2AC003C19FF
:1051C4002068FFF7DFFF20600028F4D10023984611
:1051D400F1E7404680BCB846F0BD0000124A936F28
:1051E4009B0815D29066D166002905D0FFE7FFE73A
:1051F400FFE7516F106F704704B580210906C2178D
:105204005140002800D0C84301F098FD002104BD9E
:10521400F0B5146E556E576F166FFFF7E3FF146603
:10522400556657671667F0BD000000D0114A936FAA
:105234009B0813D210665166002905D0FFE7FFE7EB
:10524400FFE7516F106F704704B5002801D00020AC
:10525400C04301F073FD002104BDC046F0B5146ED7
:10526400556E576F166FFFF7E5FF1466556657675F
:105274001667F0BD000000D094464A4A926F920827
:10528400624601D228E0C046F0B5464E346E756ED3
:10529400776F366F00F020F89446424A14665566DC
:1052A400576716676246F0BD94463E4A926F92086D
:1052B400624601D254E0C046F0B53A4E346E756E83
:1052C400776F366F00F04CF89446364A146655668C
:1052D400576716676246F0BD002B24DB11D0002906
:1052E4003EDA00B5C943404200D1013100F038F83C
:1052F400C943404200D10131DB43524200D1013362
:1053040000BD002AEBD1002801D1002905D00020DE
:10531400C90FC90701D1C043410800B501F00EFD12
:105324000022002300BD00B500290ADBDB43524202
:1053340000D1013300F014F8C943404200D10131D7
:1053440000BDC943404200D10131DB43524200D188
:10535400013300F005F8DB43524200D1013300BDB4
:10536400002923D1002B18D1002A0CD0BC460D4FA4
:1053740038667A6600210023FFE7FFE7FFE77A6FCC
:10538400386F67467047002801D00748010000B510
:1053940001F0D4FC0022002300BD02000B00002019
:1053A40000217047000000D0FFFFFFFF002B00D05A
:1053B400BFE0130C28D1002AE7D080B4114F39661E
:1053C4007A66FFE7FFE730B4040C7B6F396F1B0488
:1053D40023433B667A66FFE7FFE7FFE7C04684B2F4
:1053E4007B6F3D6F1B0423433B667A66FFE7FFE751
:1053F400C04600232C042D0C7A6F386F00196941C4
:10540400B0BC7047000000D0F0B594460025140EDF
:1054140001D112020835140F01D112010435940F81
:1054240001D192000235D40F01D152000135D40BC1
:105434000134254F7C66254C3C660E0C93B2FFE785
:10544400FFE7FFE73C6F6643360C7703BE467343C2
:10545400DF0B5B04C01AB941130C7343DB18C91A80
:10546400CE086643360CB64493B273431F0F1B0138
:10547400C01AB941130C73431F0B1B05C01AB94161
:10548400860D8F023E436643360C092D24DB520AF7
:105494007243801A7703460A6643360C16235B1B55
:1054A400DE40DF40BF1964466643821B7046043504
:1054B40006330100D940A840C01900D30131A242EB
:1054C40006D20023F0BD0000000000D0FFFFFFFF64
:1054D400121B0130F3D3F1E709277F1BFE4064461A
:1054E400A2B27243801A00D20139220C7243130C07
:1054F4001204821A99410B007046043513370100D7
:10550400F940A840801900D30131002B02D1A242F6
:105514000AD2F0BD013000D30131121BFAD2013B93
:10552400F8D1A24200D2F0BD013000D30131121BE8
:10553400F7E7F0B51C0C00D080E00CB400251C0A81
:1055440004D11B02160E3343120208351C0B04D17E
:105554001B01160F3343120104359C0B04D19B002D
:10556400960F334392000235DC0B02D192185B4153
:1055740001351C00971864410134464F7C66464C43
:105584003C660E0CFFE7FFE7FFE7C0463C6F66434F
:10559400360C7703BE4697B27743C01B00D201395D
:1055A400C01B00D201399FB27743C91BC91B170C1A
:1055B40077437E04FF0B801BB941CE086643360C4B
:1055C4000C2D33DBB644120B1F053A431B0B97B269
:1055D4007743C01B00D201399FB27743C91B170C14
:1055E40077433E043F0C801BB941860D8F023E4336
:1055F400664329277F1BFE400C3D7746AF40BF1909
:1056040030BCA2B2ABB272437343801A9941220CEC
:105614007243130C1204801A994102000B000137E3
:10562400001BA941F9D2781E0021F0BD0C277F1B75
:10563400FE4077467F0BAF40FF19E0E700245D1C76
:1056440007D0144F7D663966FFE7FFE7FFE7FFE702
:105654003C6F95B29EB265436643401BB141150C45
:105664001E0C6543664336042F0C3E432D04401B39
:10567400B141994204D202000B0020000021F0BD88
:1056840001D19042F7D3801A994101349942F2D35F
:10569400F6E70000000000D0FFFFFFFF4840414054
:1056A400484018B41B4B5B68FC46019308BD04DFFB
:1056B4003757002018B4174B1B68FC46019308BDEC
:1056C40000DF415700209446134A926F920809D292
:1056D400624618B40F4BDB68FC46019308BD0CDF2F
:1056E400F95900200C4AF0B5146E556E576F166FB9
:1056F4006246FFF7EEFF084A146655665767166759
:10570400F0BD18B4034B9B68FC46019308BD08DF49
:105714009D580020A4910220000000D0FFB5504005
:105724004240504059404B40594000E0FFB5154FAE
:105734004C00640D03D0BC4204D10C0314D80020E7
:10574400090D09055C00640D03D0BC4204D11C039F
:105754000AD800221B0D1B0501264B4009D44B40DF
:1057640003D58B4200D18242FFBD9942FCD19042C5
:10577400FFBD0B43DB1803431343F5D0C94349185A
:10578400FFBD0000FF07000000B5FFF7CFFF804119
:1057940000BDC04600B5FFF7C9FF01D9002000BD18
:1057A400012000BD00B5FFF7B9FF01D9002000BDFD
:1057B400012000BD00B5FFF7B1FF804100BD01200D
:1057C40040054A00121804D85A00121801D80020C3
:1057D4007047012070470020704700000021002816
:1057E40005D17047C1174840401AFAD0C90713B50C
:1057F400064B1B6898470CBC441CA2401005120BB6
:105804000349091B09051943114310BDA492022041
:105814001F04000010B54C00620D8023D218DB0079
:10582400D21A5B057E2A10DD9E3A13DACC170903DF
:10583400490819435242D140640001341532202AE8
:1058440005DAD0400843604310BD002010BD08466F
:10585400604310BDC80FC018013810BD18B4044B04
:105864005B6AFC46019308BD24DFA95B00200000AD
:10587400A491022070B513231C78012C14D0012CA0
:1058840014DC022C02DC1F4A1F4B9A641F48FFF7EA
:1058940079FC1F4B186070BD99001A481A4A885049
:1058A40001331F2BF8D9EAE70023FAE71948FFF779
:1058B40071FC05001848FFF76DFC023803789B0063
:1058C4007F2B19DD802229000F4800F029FC022CCF
:1058D400D7D1124B1A88B5231B029A4209D1104B17
:1058E4001A88104B9A4204D10F4B1A880F4B9A42D4
:1058F400C7D00020FEF76EFB0D4B0E4A32210E4836
:10590400FEF7CEFAFD560020A49102204C3300008D
:10591400A49202205344000053460000543800006F
:10592400D8380000494600009C3800005946000061
:10593400A88D0020608E0020FC8D002007B56046F5
:10594400002800D100BE01880A0A0230DF2AFAD1F9
:10595400C9B2820804D3028840880004104300E0DE
:105964000068024A5050039007BD0000A491022031
:105974000FB403BC0CBCF0B50124E407634000E0A1
:10598400F0B50C0DCF0F661E3605891B640503D3D5
:10599400C943404200D30131640D03D0661CF60AAA
:1059A40007D0E41B00207F00791C89078912803C02
:1059B40024031D0DDF0F6E1E36059B1B6D0503D3DF
:1059C400DB43524200D301336D0D03D06E1CF60A43
:1059D40007D0ED1B00227F007B1C9B079B12803DA0
:1059E4002D032F1B661B58D4A446202E46DA2037DD
:1059F4001400BC401D00BD40F24033412A438018CE
:105A04005941CB0F05D0C943C043002264425041E1
:105A1400514162464D0D28D10D0D07D100281FD0EC
:105A2400241940414941013A0D0DF9D0640006D3CF
:105A3400013000D30131002C01D140084000013A6B
:105A44000BD4941CE40A04D112051144DB07194455
:105A5400F0BDD907204B194300E0D9070020F0BD61
:105A64000029DDD1002CDBD1F0BD0132C60740088E
:105A7400CD0728434908002EE1D0D9E73C2E29DA86
:105A8400203E40371400BC4000D00124F2401443AF
:105A94001A00BB401C43D317ACE7AC46202F08DAEE
:105AA40020360400B4400D00B540F8403941284385
:105AB400A5E73C2F0CDA203F40360400B44000D068
:105AC4000124F84004430800B1400C43C117EAE73D
