:020000041000EA
:1000000000B5324B212058609868022188439860DF
:10001000D860186158612E4B002199600221596106
:100020000121F02299502B49196001219960352056
:1000300000F044F80222904214D00621196600F024
:1000400034F8196E01211966002018661A6600F04E
:100050002CF8196E196E196E052000F02FF8012189
:100060000842F9D1002199601B49196000215960AB
:100070001A491B48016001219960EB211966A021F2
:10008000196600F012F800219960164914480160C1
:100090000121996001BC002800D000471248134993
:1000A000086003C880F30888084703B5996A0420EC
:1000B0000142FBD001200142F8D103BD02B5186610
:1000C0001866FFF7F2FF186E186E02BD00000240BE
:1000D000000000180000070000035F00212200005C
:1000E000F4000018222000A00001001008ED00E03C
:1000F00000000000000000000000000074B24E7A12
:1001000000200420F7010010CB010010CD010010E9
:10011000C9010010C9010010C9010010C901001077
:10012000C9010010C9010010C9010010CF01001061
:10013000C9010010C9010010D1010010D301001045
:10014000C1010010C1010010C1010010C101001067
:10015000C1010010C1010010C1010010C101001057
:10016000C1010010C1010010C1010010C101001047
:10017000C1010010C1010010C1010010C101001037
:10018000C1010010C1010010C1010010C101001027
:10019000C1010010C1010010C1010010C101001017
:1001A000C1010010C1010010C1010010C101001007
:1001B000C1010010C1010010C1010010C1010010F7
:1001C000EFF30580103800BE00BE00BE00BE00BECA
:1001D00000BE00BEF2EB88718C020010AC02001071
:1001E0003802001090A31AE700202149086006C8D1
:1001F00081F3088810471F480068002801D00020BC
:10020000F3E70DA40ECC002902D000F012F8F9E7B4
:1002100019491A4A002000E001C19142FCD1184955
:100220008847184988471849884700BEFDE701C933
:1002300001C29A42FBD37047AC020010C0000020FC
:1002400010650020FC66001010650020607F002013
:100250004C81001000000420000004204C8100109C
:10026000001004200010042000000000704700006F
:1002700008ED00E0000000D0607F0020F4A6002020
:0C028000554000205907002017400020C6
:10028C00E87C0020F47C0020007D00200C7D002008
:10029C00187D0020247D0020307D00203C7D002036
:1002AC0010B5002A1BD0202300291AD01024234378
:1002BC003034A446644623438363002905D0416B44
:1002CC0038230B40084941180B60002A06D0426BBA
:1002DC0007231340044A94466044036010BD002376
:1002EC00E2E70024A446E5E73410000082B00022C7
:1002FC006B46D91D06E08369DB06FCD403680B70E2
:10030C0001320131002AF6D06B46D87902B0704721
:10031C0082B0EFF3108172B6144B1A6880239B01E4
:10032C005340C02292011340114A136000230193E1
:10033C0002E0019B01330193019AFA239B009A423C
:10034C00F7DBD0231B069B68022018408007C00FE8
:10035C0001235840C0B2054B1B68C02292011340C8
:10036C00034A136081F3108802B070470C8001407F
:10037C000C900140F8B504001A4B0201D558AB693A
:10038C00DB0600D5F8BD184B4343184A944663442A
:10039C00174A9B1804331F00180006F0A9F9AB6923
:1003AC00DB061BD4124B104A62439B180F4A94462F
:1003BC0063441E68A0231B019E420FD22800FFF746
:1003CC0095FF0B4B084A62439B189E193076074ADF
:1003DC00944663441A6801321A60E0E7380006F06C
:1003EC0047FACFE7846F002030140000180A000091
:1003FC00E080002010B50020FFF7BCFF10BD70B5E9
:10040C000024002500E00134632C05DCFFF780FF9D
:10041C000028F8D00135F6E75A2D00DC70BD00211C
:10042C00080001F087FD0000F8B50400394F474380
:10043C003D001035384EAD19280006F059F9B95960
:10044C00F619F279B3681B021343994217D1324B58
:10045C00304A62439B181E79DB7A9E4220D02F4B88
:10046C002201D0582C4B2B4A62439B189B79062BAC
:10047C0027D0072B27D0052B34D1052124E0274B7F
:10048C002201D05801F07AFB234BFA58DB19D91D05
:10049C00DA71130A4B70130C8B70120ECA70D6E7FC
:1004AC001D4B1C4A62439B185A791B7B9A42D6D12E
:1004BC00194B184A62439B189A795B7B9A42CED1AE
:1004CC0021E0062100E00721022E0DD00122124B63
:1004DC00104E66439B195B79012B07D0022B16D16A
:1004EC00013B04E00821EFE70222F0E7022301F0D0
:1004FC0073FB094B074A62439A18937953735379E8
:10050C0013731379D372280006F0B2F9F8BD0023E7
:10051C00EDE7C04630140000E0800020846F00201E
:10052C0070B5040005F07AF9051E00D170BD1D4BA5
:10053C0063431D4A944663441C4A9B181E000021C9
:10054C00180006F0FAF80028F0D0184B154A624350
:10055C009B18174A944663441B68A0221201D21AB6
:10056C00AA4200D92A00002A03D1300006F080F9F3
:10057C00DCE70C4920004C43E118A2231B019C46EC
:10058C0061440A4DAC466144043105F055F9230031
:10059C00AC466344064A944663441A6812181A60BF
:1005AC00E3E7C0463014000028140000E08000206F
:1005BC0024140000F0B5C64600B50500264B274AAA
:1005CC0042439B18264A944663441B68002B02D175
:1005DC0080BCB846F0BD214B434363441E4A9B1874
:1005EC0004331E000021180006F0A7F80028EFD0F5
:1005FC001A4A28006A4311001831174BC91888464B
:10060C009B181C00164A94466444226805F08CF929
:10061C0007002268824212D80F4B104A6A439B187B
:10062C000F4A944663441A68D21B1A60300006F0D5
:10063C001FF9002FCCD0280005F01CF9C8E707499A
:10064C006943844661441831034BC918121A404659
:10065C0005F09CFFE0E7C046E0800020301400006D
:10066C00180A0000F8B504000B4D45432E00103657
:10067C000A4FF619300006F03BF8E919200005F096
:10068C00BBF8300006F0F4F82000FFF749FF20001B
:10069C00FFF790FFF8BDC04630140000E08000204A
:1006AC0010B50021002005F0FDFB09E0E0B2FFF7DA
:1006BC00D9FF01340AE0D0231B068022D2049A61B0
:1006CC0001200021404204F05DFE0024002CEDDDF1
:1006DC0004F02AFB0028EED0D0231B068022D20483
:1006EC005A61EDE770B5C64600B583B004003A4BCD
:1006FC003A4A42439B183A4A944663441B68002B7F
:10070C0003D103B040BCB04670BD344B4343354AB3
:10071C0094466344304A9B181E000021180006F0D2
:10072C000CF80028EDD0002509E093699B06FCD459
:10073C000B781360013001310028F6D001352A4BBB
:10074C002201D2589369202108001840194216D171
:10075C00214B224961435B1821498C4663441B6839
:10076C00AB420CD91C4B1D4961435B185B191F49EB
:10077C008C4663441B78694607310B70DCE7164BDB
:10078C00164A62439B18164A944663441A68AA4256
:10079C000DD8114B114A62439B18114A944663447D
:1007AC001A68521B1A60300006F062F8A9E70B4B6E
:1007BC006343A2210901581807498C466044043050
:1007CC005919A2231B019846414461440431521B20
:1007DC0005F0DCFEDDE7C046E080002030140000B0
:1007EC002414000028140000846F0020240A000048
:1007FC00F0B5CE46474680B583B00500474B0201A5
:10080C00904601931C004444207B022100F072F9B5
:10081C00607B022100F06EF9414E424F6F43E123A1
:10082C005B02BB51F4190820A071002363710122F3
:10083C0022710021E1713E3921723F316172002138
:10084C00A17260732373E272374AA218136037499E
:10085C006218136038001030801900F085FC324AA1
:10086C00B8188019043000F07FFC314AB818801990
:10087C0000F07AFC019B4246D3589846B9591800AF
:10088C0001F0DCF943461B6BC02212021340294ACB
:10089C0042441360A379062B05D0072B05D0052BFA
:1008AC0017D1052102E0062100E007211C4B1D4A4F
:1008BC006A439B181B79022B0DD00122184B194847
:1008CC0068431B185B79012B07D0022B23D1013B0A
:1008DC0004E00821EAE70222F0E70223404601F097
:1008EC007BF90021404601F08DF90C4B2D015B1971
:1008FC005C689968200000F07BFA0121200000F070
:10090C0065FA002201214046FFF7CAFC03B0C0BCC7
:10091C00B946B046F0BD0023E0E7C046846F002026
:10092C00E080002030140000180A0000241400009D
:10093C002814000030100000F8B5FFF760FD00F03F
:10094C00B7F80024002C35DD1A2000F0EDF8D02487
:10095C0024068023DB046362194803F037FE1C2055
:10096C0000F0E2F880256D0565620F2000F0DCF8E0
:10097C0080273F0267620E2000F0D6F88026F60131
:10098C006662A561642000F08BFF6761642000F053
:10099C0087FFA661642000F083FF65610024002CB2
:1009AC00FCDCE5B22800FFF73FFD2800FFF79AFEBC
:1009BC000134F4E7E0B2FFF71BFF0134C2E7C04695
:1009CC00C1040020002A0CD1D0231B068022520522
:1009DC005A6100290BD1D0231B068022D2015A6107
:1009EC007047D0231B06802252059A61F1E7D02371
:1009FC001B068022D2019A61F2E70000F0B5C646D0
:100A0C0000B504000E00002802D080BCB846F0BD32
:100A1C000C4B43431D0010330B4FBC4663449846AC
:100A2C00180005F065FEBC4665442800072231001D
:100A3C0002F0CCFA404605F01BFF2000FFF7F4FC57
:100A4C00E3E7C04630140000E08000200048704707
:100A5C00B87B0020004870476C7B002010B5002844
:100A6C000CD1104B104A5A80012301335B009BB20E
:100A7C000C48C02292001343038010BD04280ED8EA
:100A8C000A4B8000C4580023122BEED8E15C0029DD
:100A9C00EBD00133034A58008152DBB2F4E700205B
:100AAC00EBE7C04698A0002009040000587B00200A
:100ABC00F0B58BB008AC200003F09AFD2378617878
:100ACC00A2789446E57826796779A279E479074883
:100ADC000694059204970396029562460192009142
:100AEC00034A112103F05CFB0BB0F0BD507E0020DB
:100AFC00946F002010B58300084A9A18126840249D
:100B0C005440C0222240064CA44663441A60C000E4
:100B1C00044B9C466044416010BDC04604C001407B
:100B2C0004D001400040014010B501238340D02285
:100B3C001206936293610521FFF7DCFF10BD0000E4
:100B4C0010B58023DB05186803051B0D0B4A934277
:100B5C0007D10B4B034080229201934207D1000F27
:100B6C0010BD084B084A0948132103F047FB084BFA
:100B7C00054A0648142103F041FBC0462709000032
:100B8C0000F0FF0FDC6F0020CC7B002000700020F9
:100B9C00487000200FB400B583B0084803F04EFC39
:100BAC00049B002B07D005A90191180003F056FCFB
:100BBC00034803F043FC012003F01AFB5C70002097
:100BCC00E4760020EFF3108072B6034B1B68002B09
:100BDC00FBD0BFF35F8F70472C0100D0BFF35F8F4A
:100BEC00024B00221A6080F3108870472C0100D051
:100BFC0070B505000C001600FFF7E4FFE308EA18D7
:100C0C009446E95C07222240012393400B4206D113
:100C1C00DBB20B4362461370FFF7E0FF70BD21009F
:100C2C003000FFF7B7FFF0B583B005000191140059
:100C3C001E00FFF7C7FF00E00134B4420CD8E308F4
:100C4C00EF18EB5C0721214001228A401A42F3D1B4
:100C5C00D2B21A433A7001E001246442FFF7BEFF9E
:100C6C00002C02DB200003B0F0BD019B002BF9D05F
:100C7C000898FFF78FFF0000054A1078431CDBB281
:100C8C001370172B02D9130010221A707047C0462C
:100C9C00617E002000B583B001000448044B009332
:100CAC001F231822FFF7BFFF03B000BD64A0002074
:100CBC006C700020002307E0054A9A189200BFF3DD
:100CCC005F8F0021116001331F2BF5D97047C0468F
:100CDC0040000034074B9B68103080001950BFF364
:100CEC005F8FBFF35F8F044B0021196082F3108874
:100CFC007047C04600ED00E0240100D0004870476A
:100D0C0000E400E010B5FFF7F9FF002302E0034A0E
:100D1C0004C00133072BFAD910BDC04680808080F7
:100D2C0010B50388DA0A1C2A05D15B055B15023362
:100D3C005B00C01810BD034B034A34210348FF313C
:100D4C0003F05CFA88700020087C0020A070002062
:100D5C0010B5091A0B1F0A4A88180A4A904208D87B
:100D6C00C90706D45B105B055B0D0748184380B2BE
:100D7C0010BD064B064A26210648FF3103F03EFA09
:100D8C00FC070000FE0F000000E0FFFFE8700020F1
:100D9C00FC7B0020A070002001238340034A1068D4
:100DAC001840431E9841C0B27047C04600E100E0B5
:100DBC00002A05D0044BC02252009950196070478C
:100DCC00014A8023D150FAE700E100E010B50A0097
:100DDC001F230340012199404009FFF7E9FF10BD93
:100DEC00024B9B6810308000C058704700ED00E04B
:100DFC0070B505000E00EFF3108472B60D4B1B6836
:100E0C00002BFBD0BFF35F8F2800FFF7E9FF0A4BE5
:100E1C00984201D0B04205D1220031002800FFF7E2
:100E2C0059FF70BD054B064A82210648490003F064
:100E3C00E5F9C046240100D0C10100101871002052
:100E4C00307C0020A0700020F0B5DE4657464E46A0
:100E5C004546E0B589B0814601911500EFF310834A
:100E6C0072B69A466E4B1B68002BFBD0BFF35F8F9C
:100E7C006C4B00269E57002E40DB7400A419A40076
:100E8C00694823189B4606229A56664B1A70674B84
:100E9C009A684B4610339B00D7583B1A2F2B3BD9E3
:100EAC00634B9F4231D105AF624B3B80624973006B
:100EBC000293981980005C4C00190230FFF748FF30
:100ECC0078805E4BBB80FF23BB71FD71019A07924A
:100EDC00029B9B199B00E31807CF07C301275B46B6
:100EEC003B431F00524639004846FFF7F3FE09B05A
:100EFC00F0BCBB46B246A946A046F0BD504B514A89
:100F0C0094215148FF3103F079F9504B4D4ACD21D2
:100F1C004D48490003F072F901233A009A43904678
:100F2C00101A0C2101F056F900290FD14346002468
:100F3C00DA79AA4212D90621595600290DDB4A004A
:100F4C005218920038491C008B18F1E7404B3D4A6F
:100F5C00AC213D48FF3103F051F91C00002C2DD081
:100F6C0005AB3C4A1A80813A5A800623E3569846D0
:100F7C00002B16DA384804AB188142469A72DD729F
:100F8C00019B0793201D5946FFF7E2FEA080A67136
:100F9C00254B7200921992009B1805AA13CA13C311
:100FAC00A0E7201DFFF7BCFE010070008019800037
:100FBC001D4BC0180430FFF7CBFEDCE705AF1D4B13
:100FCC003B801D49730002939B199B00164C180023
:100FDC00A446604403900230FFF7BAFE7880039A6F
:100FEC00101D4146FFF7B4FEB8801C4B4246121B45
:100FFC00524153431B0DBB71FD7101990791029B2B
:10100C009B199B00A446634407CF07C3114B424670
:10101C001380813B538001275B463B431F0061E7F4
:10102C00240100D0F0A60020647E002000ED00E03A
:10103C00C101001000A1FFFF947E002001BDFFFF45
:10104C0050710020187C0020A070002078710020C6
:10105C00A07100200148000001BD0000AAAA0000F8
:10106C0070B5012202432D4BD31A2F2B29D8EFF345
:10107C000583002B2BD0EFF3108172B68C462849D8
:10108C0009680029FBD0BFF35F8F244C254905006C
:10109C002D1B6D416943090D4CB2234989689B0096
:1010AC00C958914219D00021032930D81B4B4A0052
:1010BC00521892009B189B795BB2A3421DD0013150
:1010CC00F2E71A4B1A4A1B481B4903F097F81B4BC3
:1010DC00174A18481A4903F091F8134A92681949AB
:1010EC00D150194B1A7882711C70BFF35F8F0C4B67
:1010FC0000221A608CF3108870BD084B4A005518FA
:10110C00AD005D19FF26AE71104AAA80E9E7104BBD
:10111C00074A08480F4903F071F8C046647E002066
:10112C00240100D0AAAA000000ED00E024720020E7
:10113C00E07B0020A0700020960200004C72002082
:10114C0099020000C1010010F0A6002001BDFFFFB4
:10115C0058720020AA020000024B9C466144890090
:10116C00016070474000003410B50400FFF784FDA7
:10117C0001002000FFF7F0FFFF232371BFF35F8F07
:10118C0010BD10B50400FFF777FD01002000FFF73C
:10119C00E3FFFF23237100236371BFF35F8F10BD47
:1011AC0010B50D4C09E00D4B0D4A0E481A2103F0F9
:1011BC0025F82000FFF7D8FF08340B4B9C4209D2CE
:1011CC002368002BF5D0012BEDD12000FFF7D9FFC0
:1011DC000834F2E710BDC046107F0020607200207A
:1011EC00707C002080720020207F0020034B9C46E6
:1011FC00614489000160BFF35F8F70474000003489
:10120C0010B504000120FFF745FD01002000FFF799
:10121C00EDFF10BD30B5836A9C46D41A0B1D9B00A4
:10122C001B5865465B1B9C4204D3046A01238B400C
:10123C00234202D1043189000A5030BD0004084316
:10124C00704700000A4B1968EFF3108372B60A68F6
:10125C00002AFCD0BFF35F8F054A1268BFF35F8F83
:10126C000021116083F3108840BF002000217047DB
:10127C00E4A60020F0B5DE4657464E464546E0B59E
:10128C0083B0EFF3058303221A4011000192AF4B98
:10129C009200D35898461B788B4207D10123019AB0
:1012AC0093400093AA4B009A1A601FE1A94BAA4ADB
:1012BC00AA489C2102F0A2FF43465A694B465B00A8
:1012CC004B44DB0093469B445B469E68DF68A44816
:1012DC0000F0BAFB801BB941002900DA10E1002FA5
:1012EC0061DB5B461C699F4B9C4247D04346082000
:1012FC00185E5B46598889B2FFF7A0FF5B465969B7
:10130C00A04704000D0023002B434CD0002D3EDAE7
:10131C0030003900001BA9415B469860D96000245D
:10132C001C5F002C00DAEBE043465A6992466300DE
:10133C001B19DB0053449A68DB6805000E00AD1ADC
:10134C009E41002E00DADBE043461C8147460837FD
:10135C00BC46002C21DB634600229B5E5D00ED1831
:10136C00ED005544AA68EB6806000F00B61A9F41C1
:10137C00002F12DBAC460023EC5EEAE75B465C69AF
:10138C0023692000984700280DD030CCBBE7744867
:10139C0000F05AFB00196941BEE75B461C804B46C6
:1013AC0062461380ACE05B4600229B5E4246138192
:1013BC001269EFF3108372B611680029FCD0BFF3E9
:1013CC005F8F42460221525E59460A804246494688
:1013DC0051801269BFF35F8F0021116083F3108875
:1013EC008EE043461969EFF3108372B60A68002A3F
:1013FC00FCD0BFF35F8F4246928812B29146012215
:10140C00524241468A800A69BFF35F8F0021116006
:10141C0083F310881CE09B4600229A5E002A0EDBA8
:10142C005B460021595E4B005B18DB005344986807
:10143C00D96826002F00361A8F41002FEBDA4B4665
:10144C0059460B80634600215B5E994663461A80C1
:10145C004B46002B5ADB43465A6992464B465B007F
:10146C004B44DB009C46D44463469C68DD6846468E
:10147C000836B346434608229A5ECFE7002342461D
:10148C0093714146083143460820185E11E0012251
:10149C005242D317A260E360434608229B5E83420C
:1014AC0006D00D80434608229B5E2380434618815C
:1014BC002800431C2ED043465A6943001B18DB00FE
:1014CC00D418D55E63881BB2002BE0DB2100EFE75C
:1014DC0022002B0001992248FFF79CFE204800F0C7
:1014EC00B3FA241A8D41002D28DC25D01C4B009A10
:1014FC005A63434608229B5E9946002B00DBDBE6D1
:10150C0043469B881BB2002B00DB6AE743469B7962
:10151C00002BB3D1434608229A5E002A0EDB4346C9
:10152C00596953009B18DB00CB189C68DD68631C61
:10153C00CED16B1CD2D0CBE7002CD7D040BF03B0A0
:10154C00F0BCBB46B246A946A046F0BDD0A40020D4
:10155C003C700540147300209C7C002040730020DC
:10156C00004005409510002070B504000D001100DE
:10157C000126AE4006622800FFF73AFC0121280044
:10158C00FFF724FC024B9C466444266070BDC046A9
:10159C0038200000F8B504000F0016001D00C160D3
:1015AC00FFF76AFB124B9C4660448000206126705A
:1015BC00ABB26381D02212061278627001225242C1
:1015CC002281A2809B186380002306E0581E61696B
:1015DC005A00D218D20088520133AB42F6D3054BD5
:1015EC00B200D450044A31003800FFF7BDFFF8BDFB
:1015FC0040000034D0A400209510002010B5064BFC
:10160C001B69002B01D0044810BD044B044A05484B
:10161C00652102F0F3FDC046B87E002080730020E7
:10162C00847C002040730020F8B504000569EFF3BA
:10163C00108072B629680029FCD0BFF35F8F02219D
:10164C00665E656971008919C9006D18002E02DB90
:10165C000027E95F61802169BFF35F8F00270F606E
:10166C0080F31088002E2CDB06992961079969619B
:10167C00AA60EB606B8801335B04590C002B00D122
:10168C00012169803000FFF7D9FD2169EFF3108348
:10169C0072B60A68002AFCD0BFF35F8FA2882A803A
:1016AC00A6802269BFF35F8F0021116083F310883D
:1016BC00E368217801228A4003498C4663441A600E
:1016CC00F8BD01204042FBE73C20000070B582B021
:1016DC00060014001D0008AB1B78002B07D100F08E
:1016EC00E3F922002B00121A8B41002B0ADB079B1B
:1016FC000193069B009322002B003000FFF794FF10
:10170C0002B070BD0020FBE7F0B5C64600B584B052
:10171C0080460F0016001D000AAB1C78FFF76EFF09
:10172C0002940195009642463B00FFF7CFFF04B0B0
:10173C0080BCB846F0BD000030B504000A144389E3
:10174C009A4230DA406953009B18DB00C3182269B7
:10175C009446EFF3108272B6604600680028FBD006
:10176C00BFF35F8F588885B20904090C884212D0E8
:10177C0000202369BFF35F8F0021196082F310886A
:10178C00002811D0E368217801228A4007498C4651
:10179C0063441A6008E00649294389B25980012341
:1017AC00A3710120E5E7002030BDC0463C200000BD
:1017BC000080FFFF10B50400FFF720FF2100FFF7AA
:1017CC00BBFF10BDF0B583B006000F00EFF305832F
:1017DC00002B1AD106246442E517A4197D418D42D1
:1017EC0002D803D1844201D90024002500F05CF911
:1017FC0022002B00121A8B41002B0BDC08D030007E
:10180C00390000F063F903B0F0BD1648FFF7C2F9D8
:10181C00002AF4D0144A0023009320002900FFF77B
:10182C0073FF002813DAEAE7104B1968EFF3108303
:10183C0072B60A68002AFCD0BFF35F8F0B4A12689D
:10184C00BFF35F8F0021116083F3108820BF084B1A
:10185C005B6A9D42E8D80649896AA142CFD29D4273
:10186C00CDD1E1E7A473002065100020E4A6002090
:10187C000040054070B504000D0000F015F9220081
:10188C002B0012184B411000191E02DBFFF79AFFB8
:10189C0070BD012040420149F8E7C046FFFFFF7FC1
:1018AC0010B5FA2292000023002101F0CFFAFFF7C5
:1018BC00E1FF10BDF0B5C64600B584B0804603917B
:1018CC00EFF30583002B2BD1474B1A685B688242E0
:1018DC0039D0FFF793FEC3681F0006784246140008
:1018EC00039A1500180000F0AFF802000B00A41AC0
:1018FC009D412200311D8900C959091A0020A842B6
:10190C0027DC24D020BF039A384B5B6A9A424BD811
:10191C003649896A41454CD29A4243D0012044E071
:10192C000B00324A526A8A4209D33049896A88428A
:10193C0007D99A4201D0012037E0002035E0002081
:10194C0033E0012031E0039A9342C2D1DAE79142AD
:10195C00D8D9274A0023009345462800039C210030
:10196C00FFF7D2FE002826DD1F4B1D60039959603E
:10197C000D001E4B5B6A994205D81C4A926A42457F
:10198C0002D2994200D120BFFFF714FF174B5B6ABC
:10199C009D4224D8154A926A424522D29D421CD0BF
:1019AC00012002E0002000E0002004B080BCB8461A
:1019BC00F0BD0120F9E70D4B5B6A9C4209D80B493D
:1019CC00896A414507D29C4201D00120EDE70020F5
:1019DC00EBE70020E9E70120E7E70020E5E700203E
:1019EC00E3E70120E1E7C046B07E0020004005405F
:1019FC0065100020004870470040054010B50B4BA7
:101A0C001B69002B04D00A480A21FFF7A5FB10BD67
:101A1C00FFF7F0FF0400032100F00CF8034810233B
:101A2C0003222100FFF7B6FDEDE7C046B87E00208B
:101A3C00E4A6002010B5024A0248FFF7D9F810BD01
:101A4C00F473002068A000200200436A906A190019
:101A5C00536A9942FAD17047416A00E0416A99424F
:101A6C00FCD300E0416A994202D1816A9142F9D3D8
:101A7C00704770B5060014001D00FFF7E5FF02006B
:101A8C000B001000190022002B0012184B41994238
:101A9C0002D804D1904202D901225242D31730000D
:101AAC00FFF7DAFF70BD000010B50248FFF7CCFF5E
:101ABC0010BDC0460040054010B502000B000248A6
:101ACC00FFF7D7FF10BDC0460040054010B502001F
:101ADC000B000248FFF7C0FF10BDC0460040054098
:101AEC00074B98420AD0162301229A40054B1A60E4
:101AFC00054B1B6811009943FAD170471723F3E784
:101B0C000080034000F0004008C0004070B5046B3A
:101B1C00E30701D4200070BD0B4BC3180B4A1A60AD
:101B2C00436A826A9B019B189D02062000F036F9DD
:101B3C00074900F04FFB0100280000F04BFB00218F
:101B4C00FFF7BAFFE6E7C0463030000001030000A3
:101B5C004E0E000070B504000E001500FFF7D6FF06
:101B6C00E16A33004B4019002B000B401900024B6B
:101B7C00E3181960206370BD2C10000070B50500CF
:101B8C000C00062000F00AF9C000210000F022FB36
:101B9C000130C60907D00E4B9E4215D840083400C0
:101BAC003F26064000E001246C62AE620022002158
:101BBC002800FFF7CFFF062000F0F0F88000A1010D
:101BCC00891900F007FB70BD0026024CECE7C046FB
:101BDC00FEFF0000FFFF000010B505394901013A76
:101BEC00D2000A43002B07D002210A43012B01D05B
:101BFC00002102E0023100E0002111436E22FFF7C8
:101C0C00A9FF10BD10B5002900D010211022FFF73C
:101C1C00A1FF10BD002909D00A22064B9C46604446
:101C2C0043425841044B4000C2527047802252003C
:101C3C00F3E7C0460080FCBFE8A6002070B50400A6
:101C4C000D00062000F0AAF800281ED0104B9C4274
:101C5C001CD01622012393400E4A13602000FFF77C
:101C6C003FFF00212000FFF7D5FF29002000FFF7E0
:101C7C0085FFE26A70235A400E331340064AA218BD
:101C8C001360064B23630323A36470BD1722E1E7A3
:101C9C000080034000E000402C1000000103000015
:101CAC00F8B5CE46474680B505000E0090469946DD
:101CBC0044002418A400284B9C4664446368089A8A
:101CCC00934200D262602F1FFFB2012F2ED98022C7
:101CDC001201C0239B01E3181A60204BAA00D158B3
:101CEC00002907D0586900F075FA013043001B1821
:101CFC00033BFDD243465B0122685340E022134074
:101D0C0080225201A2181360012F1AD980239B0143
:101D1C00E318802212011A60089B63600F4BAD0020
:101D2C004A46EA50C0BCB946B046F8BD012ECED1E9
:101D3C000322C0239B01E3181A60A368DB07FCD5C0
:101D4C00D8E72168714003230B401360A36801227C
:101D5C00B2401A42FAD0D9E7008000406CA00020B3
:101D6C0070B582B006000D0014001800069900F042
:101D7C0031FA0300069A110200912200290030006A
:101D8C00FFF78EFF02B070BD10B582B080246400E6
:101D9C000094FFF785FF02B010BD0000014B8000DE
:101DAC00C05870476CA00020F0B5C64600B50400C2
:101DBC000E0017001D00374800F00CFA8046364B19
:101DCC00FA18364B9A4239D80100380000F002FA62
:101DDC000200103A98235B009A4235D86B1E062BF2
:101DEC0038D8069B013B062B34D83F09474537D3DF
:101DFC002D04069B1B031D432368002B36DB284B4D
:101E0C009C4244D00C2201239340264A1360264A5C
:101E1C001360264A1268190091430A1EF9D12660F4
:101E2C00A060234BE31821321A602268002AFCDAE6
:101E3C00E56008221A6080BCB846F0BD1D4B1E4AF6
:101E4C001E48112102F0DAF91D4B1B4A1B481921BF
:101E5C0002F0D4F91B4B184A18481C2102F0CEF999
:101E6C00194B154A1548232102F0C8F922683F2363
:101E7C001340B342C3D1A3681B051B0D8342BED1D3
:101E8C00E368EE22D2021340AB42B8D1D3E70D2265
:101E9C00B9E7C046001BB70080E84BD380F8A932E5
:101EAC0000C0024000E0004000F0004008C00040CC
:101EBC000430000018740020B47C002068740020EA
:101ECC00B0740020CC7400201875002080239B0077
:101EDC000B43014AD36270470080054010B50100E6
:101EEC0018231B8814221088984710BD10B50100C8
:101EFC0018231B8816221088984710BDF0B5C646CB
:101F0C0000B507000E0000250123984600E00135BE
:101F1C00B5420AD2AC003C192068FFF7DFFF206005
:101F2C000028F4D100239846F1E7404680BCB8461F
:101F3C00F0BD000070B505000C000348FFF7CEFFA4
:101F4C00030021002800984755420000074BAA22A5
:101F5C0012011A608D225200DA60054B054A1A6094
:101F6C00024B5B68002BFBDA7047C0460040024016
:101F7C000060024000B0FA0010B5040001E008CC8B
:101F8C009847024B9C42FAD310BDC046607F00209C
:101F9C007047000010B50248FFF7EEFF10BDC046B9
:101FAC00207F002010B50248FFF7E6FF10BDC046A9
:101FBC00547F0020054B064A1A60064B064A1A60ED
:101FCC00064B1A68044B9343FAD1704700E000406B
:101FDC00BFCDFBFE00F00040FE7F3C0008C000407F
:101FEC00044BDB6C002B03D1034B8022D2021A6012
:101FFC007047C046000011504C201150044B054A4C
:10200C001A60054B1B68DB43DB01FAD17047C046F5
:10201C0000F00040FFFFFF0108C00040034B4022CE
:10202C009A675A671A67DA667047C04600F0014033
:10203C0010B5FEF73FFE10BD10B50C4C0C4BE41A5E
:10204C00A4082200302C00D93022920009480849FB
:10205C0000F0BCFF04E0084A064BA100CA50013452
:10206C002F2CF8D9034B054A936010BDC00100100A
:10207C000001001000000020C101001000ED00E084
:10208C0070B50420FFF78AFE064900F0A3F805009E
:10209C000024002C00DD70BDE0B22900FFF716FF14
:1020AC000134F6E740420F0030B583B0274B0022D5
:1020BC009A67FFF74BFF264B01221A60234B5B6C90
:1020CC00012BFBD1234B03221A60204B9B6B012B62
:1020DC00FBD10133009304331F4A01211F48FFF742
:1020EC0063FE052300931E4A01211E48FFF75CFE88
:1020FC001D4B002202210420FFF746FE1B4D2B0036
:10210C00002201210520FFF73FFE194C230000227D
:10211C0000210720FFF738FE2300002200210820B1
:10212C00FFF732FE8023DB00009323000022002106
:10213C000920FFF715FE2B00002200210620FFF7D7
:10214C0023FEFFF79DFF03B030BDC046008000406A
:10215C003CB0004030B00040002F68590080024075
:10216C00008C864700C00240001BB7004059730723
:10217C00006CDC0201480421014B1847D07E002082
:10218C001D1D0020124A936F9B0815D29066D166D4
:10219C00002905D0FFE7FFE7FFE7516F106F70478D
:1021AC0004B580210906C2175140002800D0C8434D
:1021BC0004F0EAF9002104BDF0B5146E556E576FAA
:1021CC00166FFFF7E3FF1466556657671667F0BD89
:1021DC00000000D0114A936F9B0813D21066516611
:1021EC00002905D0FFE7FFE7FFE7516F106F70473D
:1021FC0004B5002801D00020C04304F0C5F900212B
:10220C0004BDC046F0B5146E556E576F166FFFF7D0
:10221C00E5FF1466556657671667F0BD000000D0E1
:10222C0094464A4A926F9208624601D228E0C04610
:10223C00F0B5464E346E756E776F366F00F020F841
:10224C009446424A14665566576716676246F0BD57
:10225C0094463E4A926F9208624601D254E0C046C0
:10226C00F0B53A4E346E756E776F366F00F04CF8F1
:10227C009446364A14665566576716676246F0BD33
:10228C00002B24DB11D000293EDA00B5C9434042B3
:10229C0000D1013100F038F8C943404200D101317E
:1022AC00DB43524200D1013300BD002AEBD10028A0
:1022BC0001D1002905D00020C90FC90701D1C043A5
:1022CC00410800B504F060F90022002300BD00B500
:1022DC0000290ADBDB43524200D1013300F014F831
:1022EC00C943404200D1013100BDC943404200D135
:1022FC000131DB43524200D1013300F005F8DB43DE
:10230C00524200D1013300BD002923D1002B18D13A
:10231C00002A0CD0BC460D4F38667A66002100238B
:10232C00FFE7FFE7FFE77A6F386F674670470028D3
:10233C0001D00748010000B504F026F90022002363
:10234C0000BD02000B00002000217047000000D0EF
:10235C00FFFFFFFF002B00D0BFE0130C28D1002A99
:10236C00E7D080B4114F39667A66FFE7FFE730B4E7
:10237C00040C7B6F396F1B0423433B667A66FFE7C3
:10238C00FFE7FFE7C04684B27B6F3D6F1B0423431E
:10239C003B667A66FFE7FFE7C04600232C042D0C52
:1023AC007A6F386F00196941B0BC7047000000D0DB
:1023BC00F0B594460025140E01D112020835140F05
:1023CC0001D112010435940F01D192000235D40FC2
:1023DC0001D152000135D40B0134254F7C66254CBC
:1023EC003C660E0C93B2FFE7FFE7FFE73C6F6643DA
:1023FC00360C7703BE467343DF0B5B04C01AB9413E
:10240C00130C7343DB18C91ACE086643360CB6445A
:10241C0093B273431F0F1B01C01AB941130C7343C2
:10242C001F0B1B05C01AB941860D8F023E43664334
:10243C00360C092D24DB520A7243801A7703460AA4
:10244C006643360C16235B1BDE40DF40BF19644627
:10245C006643821B7046043506330100D940A84000
:10246C00C01900D30131A24206D20023F0BD0000F6
:10247C00000000D0FFFFFFFF121B0130F3D3F1E788
:10248C0009277F1BFE406446A2B27243801A00D219
:10249C000139220C7243130C1204821A99410B005D
:1024AC007046043513370100F940A840801900D359
:1024BC000131002B02D1A2420AD2F0BD013000D36F
:1024CC000131121BFAD2013BF8D1A24200D2F0BD6D
:1024DC00013000D30131121BF7E7F0B51C0C00D012
:1024EC0080E00CB400251C0A04D11B02160E3343E9
:1024FC00120208351C0B04D11B01160F33431201B9
:10250C0004359C0B04D19B00960F3343920002358B
:10251C00DC0B02D192185B4101351C009718644109
:10252C000134464F7C66464C3C660E0CFFE7FFE7D9
:10253C00FFE7C0463C6F6643360C7703BE4697B246
:10254C007743C01B00D20139C01B00D201399FB2A6
:10255C007743C91BC91B170C77437E04FF0B801BE9
:10256C00B941CE086643360C0C2D33DBB644120B46
:10257C001F053A431B0B97B27743C01B00D201399E
:10258C009FB27743C91B170C77433E043F0C801B4B
:10259C00B941860D8F023E43664329277F1BFE40BF
:1025AC000C3D7746AF40BF1930BCA2B2ABB2724300
:1025BC007343801A9941220C7243130C1204801A33
:1025CC00994102000B000137001BA941F9D2781E7A
:1025DC000021F0BD0C277F1BFE4077467F0BAF40E0
:1025EC00FF19E0E700245D1C07D0144F7D663966A7
:1025FC00FFE7FFE7FFE7FFE73C6F95B29EB265434D
:10260C006643401BB141150C1E0C654366433604F2
:10261C002F0C3E432D04401BB141994204D20200C1
:10262C000B0020000021F0BD01D19042F7D3801A9D
:10263C00994101349942F2D3F6E70000000000D032
:10264C00FFFFFFFF48404140484018B41B4B5B68FC
:10265C00FC46019308BD04DF3F27002018B4174B3C
:10266C001B68FC46019308BD00DF492700209446F7
:10267C00134A926F920809D2624618B40F4BDB686A
:10268C00FC46019308BD0CDF012A00200C4AF0B572
:10269C00146E556E576F166F6246FFF7EEFF084AC1
:1026AC001466556657671667F0BD18B4034B9B68E4
:1026BC00FC46019308BD08DFA5280020E0A40020FB
:1026CC00000000D0FFB550404240504059404B40B4
:1026DC00594000E0FFB5154F4C00640D03D0BC42CF
:1026EC0004D10C0314D80020090D09055C00640DFD
:1026FC0003D0BC4204D11C030AD800221B0D1B05BD
:10270C0001264B4009D44B4003D58B4200D1824269
:10271C00FFBD9942FCD19042FFBD0B43DB18034334
:10272C001343F5D0C9434918FFBD0000FF07000053
:10273C0000B5FFF7CFFF804100BDC04600B5FFF7E5
:10274C00C9FF01D9002000BD012000BD00B5FFF775
:10275C00B9FF01D9002000BD012000BD00B5FFF775
:10276C00B1FF804100BD012040054A00121804D879
:10277C005A00121801D80020704701207047000041
:10278C000021002805D17047C1174840401AFAD0E3
:10279C00C90713B5064B1B6898470CBC441CA240D8
:1027AC001005120B0349091B09051943114310BDF0
:1027BC00E0A500201F04000010B54C00620D802322
:1027CC00D218DB00D21A5B057E2A10DD9E3A13DA92
:1027DC00CC170903490819435242D1406400013413
:1027EC001532202A05DAD0400843604310BD002082
:1027FC0010BD0846604310BDC80FC018013810BD8D
:10280C0018B4044B5B6AFC46019308BD24DFB12B62
:10281C0000200000E0A4002070B513231C78012CCC
:10282C0012D0012C12DC214B214A93642148FFF772
:10283C0055FB214B186070BD1C491D4A98008150F6
:10284C0001331F2BF8D9ECE70023FAE71B48FFF7FD
:10285C004DFB05001A48FFF749FB023803789B0033
:10286C007F2B09DD12488022290000F0AFFB022CDF
:10287C0008D0022CDADCD6E7124B134A1348342169
:10288C0001F0BCFC124B1A88B5231B029A4209D1E9
:10289C00104B1A88104B9A4204D1104B1A88104BCB
:1028AC009A42E6D00020FEF775F9C04605270020B5
:1028BC00E0A400204C330000E0A5002053440000AD
:1028CC005346000034750020C07C00207875002031
:1028DC0054380000D8380000494600009C380000ED
:1028EC005946000007B56046002800D100BE01889B
:1028FC000A0A0230DF2AFAD1C9B2820804D302884C
:10290C0040880004104300E00068024A50500390D5
:10291C0007BD0000E0A400200FB403BC0CBCF0B554
:10292C000124E407634000E0F0B50C0DCF0F661EE8
:10293C003605891B640503D3C943404200D30131DA
:10294C00640D03D0661CF60A07D0E41B00207F0040
:10295C00791C89078912803C24031D0DDF0F6E1E24
:10296C0036059B1B6D0503D3DB43524200D3013369
:10297C006D0D03D06E1CF60A07D0ED1B00227F00F4
:10298C007B1C9B079B12803D2D032F1B661B58D471
:10299C00A446202E46DA20371400BC401D00BD4052
:1029AC00F24033412A4380185941CB0F05D0C9431B
:1029BC00C043002264425041514162464D0D28D122
:1029CC000D0D07D100281FD0241940414941013A6F
:1029DC000D0DF9D0640006D3013000D30131002C69
:1029EC0001D140084000013A0BD4941CE40A04D1F4
:1029FC0012051144DB071944F0BDD907204B1943CC
:102A0C0000E0D9070020F0BD0029DDD1002CDBD17E
:102A1C00F0BD0132C6074008CD0728434908002EF7
:102A2C00E1D0D9E73C2E29DA203E40371400BC40D7
:102A3C0000D00124F24014431A00BB401C43D317AE
:102A4C00ACE7AC46202F08DA20360400B4400D0069
:102A5C00B540F84039412843A5E73C2F0CDA203F1C
:102A6C0040360400B44000D00124F8400443080070
:102A7C00B1400C43C117EAE710001900002494E799
:102A8C000000F07FF0B50C0D661E3605891BE60ABA
:102A9C006405640D02D0651CED0A04D000200121F0
:102AAC000905803C2403A4461C0D671E3F05DB1B57
:102ABC00E70A6405640D02D0651CED0A04D00022FF
:102ACC0001231B05803C24037740644497B484B2F3
:102ADC0096B27443070C7E43150C6F4380B2684367
:102AEC00361802D3012000043F183004350C0019AD
:102AFC007D41844688B29AB250430C0C62431F0C41
:102B0C007C438EB27E43921902D301263604A4195B
:102B1C001604170C3618674101BC81B29AB25143A6
:102B2C00040C62431B0C5C4380B25843121802D352
:102B3C000120000424181004130C401863412D18B4
:102B4C005E410020474106BC88B293B258430C0C3E
:102B5C006343120C544389B251435B1802D30121D5
:102B6C000904641819041A0C091862416D185641AD
:102B7C000020474118BCF902720D1143F0026A0D96
:102B8C001043ED020A0D03D16D1940414941013B3F
:102B9C00124E9B1B7600B3420ED26D0007D3013050
:102BAC00002671416646354301D1400840001B05A3
:102BBC00C918E4072144F0BD0BDA013306D101300A
:102BCC0004D101314F0D01D04908F2E7E107002093
:102BDC00F0BD013631050020EBE70000FF030000DB
:102BEC00F0B51C0D671E3F05DB1BE70A6405640D81
:102BFC0002D0661CF60A04D0002201231B05803C7F
:102C0C002403D0252D060026F6432E661E096E667B
:102C1C00CE0FF619B44649004F0D02D07E1CF60AB1
:102C2C0003D000200021403F3F033E1BB600B444BC
:102C3C00013F7F05C91B49082E6F013676089C029F
:102C4C00950D25437543ED137543AD1301356D108B
:102C5C00F603761B0CB4CC02450D2C43A2B2B3B2D6
:102C6C005A43270C7B43350C6F43A4B26C431B199E
:102C7C0002D3012424043F191C041D0CA4187D410B
:102C8C0024196D41009A91B2ACB26143170C7C438C
:102C9C002B0C5F4392B25A43A41802D301221204A4
:102CAC00BF182204230C52187B41019C6C431B1946
:102CBC00520ED9010A434401A01A81B2B2B2514357
:102CCC0003145A43360C734387B27743D617D21981
:102CDC0000277E4136049B191704160C7F185E41A1
:102CEC007316ED18F301002680337541A90F06D138
:102CFC006400690AE8055B0A184309D22FE0042234
:102D0C00944480337541A90AA8059B0A184326D31D
:102D1C00404149412404009A019B0D005543641B1A
:102D2C004343E41A95B286B27543170C7E43030CE9
:102D3C005F4392B25A43B61802D301221204BF1851
:102D4C003204330C52197B4152429C41002C02D468
:102D5C000022013051414008CA071043490802B013
:102D6C006246D7079210084BD218084B9A4203D2EE
:102D7C0012058918C919F0BD0020002A01DC3900A0
:102D8C00F0BD01331905F5E7FD030000FE07000057
:102D9C00002200B5203200F004F8080000BD00004D
:102DAC0000220B150AD410B5944600F031F8141417
:102DBC00013400DA0021CB17144C204700200021ED
:102DCC0070476244343A0CD40C2A07DA0400914060
:102DDC00904052422032D440214310BDD843D943B5
:102DEC0010BD203207D40C4694405242203211417F
:102DFC00D040204310BD0800C917203203D45242E2
:102E0C002032104110BD1800190010BDE32B00201A
:102E1C000A0DCC0F531E1B05C91A520503D3C94307
:102E2C00404200D30131520D03D0531CDB0A07D0B2
:102E3C00121B00206400611C89078912803A12035E
:102E4C00014BD21A70470000FF030000514343436B
:102E5C00C9188C46110C83B24B4310B4040C61435B
:102E6C0092B280B2504362431C041B0C001910BC7C
:102E7C0059411304120CC0185141614470470000B1
:102E8C0070B513231C782A48FFF730F80500012C85
:102E9C0012D0012C0ADD2B00023B1B789B007F2BF0
:102EAC0040DD24488022290000F090F82248FFF7EA
:102EBC0015F8224B186070BD1E485422290000F0F2
:102ECC0085F81F4B1A881F4B9A421CD1A7239B01D4
:102EDC001A881D4B9A4216D11C4B1A881C4B9A42CD
:102EEC0011D11C4B1A8894239B019A420BD11A4B7B
:102EFC001A881A4B9A4206D1194B1A68194B9A42E6
:102F0C0001D1152307E01848FDF744FE1749094A7B
:102F1C009800815001331F2BF8D9144B054A1362CA
:102F2C00D361B6E7124B134A1348432101F066F9FB
:102F3C0053460000E4A500204C330000E0A500201F
:102F4C00EE290000C40F0000C20D0000962B0000FB
:102F5C00C0B50000182B0000CC2A000010B50000F2
:102F6C00FC2C000051ED8764E47600209D2D0020A0
:102F7C00D0750020D47C00200476002007B5604674
:102F8C00002800D100BE01880A0A0230DF2AFAD1DB
:102F9C00C9B2820804D3028840880004104300E0C0
:102FAC000068024A5050039007BD0000E4A50020C1
:102FBC0001480421014B1847E07E00201D1D002014
:102FCC00014B1B6818470000E07E0020014B5B683A
:102FDC0018470000E07E00209A4200D288547047C7
:102FEC00704710B5002802D00B684968984710BD8F
:102FFC000100002007E083001B185B00501C0860D8
:10300C001078C01830380A681378303BDBB2092BC3
:10301C00F1D97047F0B5D6464F464646C0B50500C7
:10302C000E00100091461F00099C0B9B0222110000
:10303C0019408A461A4234D1DB0716D50200B8462D
:10304C0037002E001FE0551C330041462020B847A6
:10305C0001342A000A9B9C42F5D33D0037004646BA
:10306C00099CB84637002E000DE00200B0463E0029
:10307C002F000994EEE7013C551C089B185D434654
:10308C003900B0472A00002CF5D135003E004746E8
:10309C005346002B16D11000E0BCBA46B146A846E8
:1030AC00F0BD0200B84637002E00ECE7541C33008C
:1030BC0029002020B84722004B46D31A0A998B428C
:1030CC00F4D3E8E73B002F0035001E00F4E7F0B521
:1030DC00CE46474680B585B006000F00904699460F
:1030EC000C9A0D9B0EA909788C46109D119C129977
:1030FC0088071CD4002C0CD0C8070AD560460028C1
:10310C0002D10C30084204D0013C02E03020D054F3
:10311C000133AB4201D21F2BF8D9C80707D5A34204
:10312C0005D21F2B03D83020D0540133F5E7C80645
:10313C0012D5480505D4002B03D0AB4223D0A342B3
:10314C0021D00F98102831D00F98022838D01F2B7F
:10315C000AD83020D05401331F2B05D860460028E4
:10316C0034D02D20D054013303910294019300925A
:10317C004B46424639003000FFF74CFF05B0C0BC4F
:10318C00B946B046F0BD581E012B17D00F9D102D1F
:10319C000BD003000F981028D6D18806D4D51F2B3E
:1031AC00D2D85820D0540133D1E7023B8806F1D451
:1031BC001F2BEFD87820D0540133C8E70300C0E7A9
:1031CC001F2BD1D86030D0540133C0E7480703D54A
:1031DC002B20D0540133C7E70807C5D52020D05485
:1031EC000133C1E7F0B5DE4657464E464546E0B5DD
:1031FC0093B08046894692469B461CAB10CB1B78FD
:10320C0009931E9D002C03D11023219A9A432192DD
:10321C008023DB00219E1E40219A1A4218D0002CDC
:10322C0022D0002614E0219A92061BD54121C91800
:10323C00C9B20A39C9B2771C0AAB995529002000CA
:10324C00FEF7C8FFAC4210D31F2F0ED83E0004006F
:10325C0029002000FEF7BEFFCBB2092BE3D8303398
:10326C00D9B2E8E76121E2E72700219B0693209B76
:10327C0005931F9B04930395099B029301970AAB3B
:10328C0000935B46524649464046FFF720FF13B079
:10329C00F0BCBB46B246A946A046F0BDF0B5DE4632
:1032AC0057464E464546E0B595B08346089109927F
:1032BC000A931E9B99461F9F20AB1B780B93229B56
:1032CC009846239C4B463B4303D11033269A9A4392
:1032DC0026928023DB00269D1D40269A1A4208D098
:1032EC004B463B4339D000254E4623002C001D0095
:1032FC001FE04E4623002C001D001AE0269A920671
:10330C0023D54122D218D2B20A3AD2B2631C9A46C1
:10331C000CAB1A5542462B0030003900FEF798FFD3
:10332C00BD421CD813D053461F2B14D8544606004C
:10333C000F0042462B0030003900FEF789FFD3B254
:10334C00092BDBD83033DAB2E0E76122DAE7B0459B
:10335C00E9D9564604E0564602E0002600E05646FF
:10336C00269B0693259B0593249B0493434603932A
:10337C000B9B029301960CAB00930A9B099A08993C
:10338C005846FFF7A4FE15B0F0BCBB46B246A946A2
:10339C00A046F0BDF0B5DE4657464E464546E0B574
:1033AC0095B004008A46934699461E9E1F9F320094
:1033BC003B0030003900FFF7D6F9002800D0FBE0C5
:1033CC0001225242D64B30003900FFF7C7F90028D2
:1033DC0000D0F1E001225242D24B30003900FFF70D
:1033EC00A7F9002800D0E7E00022002330003900C4
:1033FC00FFF79EF9002800D0F3E00696079780238C
:10340C00DB00229A1A401192229A1A4201D1062309
:10341C0020930698079902000B000A920B93030065
:10342C000A00024300D1E8E0080D4005400DBE4DF6
:10343C00AC466044050007980203120B00200021E3
:10344C00089009910893B94B134309932800FFF78F
:10345C009BF9B74AB74BFFF728F9B74AB74BFFF7B9
:10346C00FDF80A900B910022B54B08980999FFF7CB
:10347C00ECF8B44AB44BFFF718F902000B000A98A9
:10348C000B99FFF7EBF8FFF797F980460890FFF7D9
:10349C007BF9AE4AAE4B0A900B91FFF706F900226E
:1034AC00AC4BFFF7DBF8FFF787F90500AA4AAB4BEB
:1034BC000A980B99FFF7F9F80A900B912800FFF77F
:1034CC0063F9A74AA74BFFF7F0F802000B000A9824
:1034DC000B99FFF7BAF802000B000A900B91FFF75B
:1034EC00E4F80E900F912B009F4DAC4663440021E5
:1034FC0000220C910D921B050D9300230C930A983E
:10350C000B9902000B00FFF7A9F8129013910A9A7D
:10351C000B9B00208021C905FFF797F80A900B91AF
:10352C000022924B0E980F99FFF7A1F80022904BB6
:10353C00FFF794F802000B000E980F99FFF797F81D
:10354C0000228C4BFFF78AF802000B000E980F99A3
:10355C00FFF78DF802000B000A980B99FFF77EF825
:10356C0002000B0012981399FFF781F800226F4BA1
:10357C00FFF774F80C9A0D9BFFF797F802000B00FD
:10358C000A920B93069A079B0C900D91FFF7E6F8A5
:10359C0000280AD04346013B08930022744B0C9838
:1035AC000D99FFF764F80A900B91089B6333C62BB7
:1035BC0049D804231D0024E0229B0493219B0393F0
:1035CC00209B0293009601974B465A465146200089
:1035DC0000F004F915B0F0BCBB46B246A946A046B3
:1035EC00F0BD0021002206910792069680231B064F
:1035FC009C46BC446346079301E7002308930433BD
:10360C001D00229B1B052BD50A9A0B9B19001143FD
:10361C0011D0594A594B06980799FFF797F800288B
:10362C0000D1B1E00022564B06980799FFF780F8BD
:10363C00002800D1A8E0209A089B9A4206DDD31AF4
:10364C00013B209304E005231D00DAE700232093BF
:10365C008023DB00229A1A43229200231D00089338
:10366C00219A954200D39BE0531B98460223229A41
:10367C001A400C92229A134203D0002D01D0002341
:10368C009846089B002B07D00A9A0B9B0698079923
:10369C00FEF7EDFF06900791002200233000390061
:1036AC00FFF746F8002800D07DE0364B229A1340F5
:1036BC00049343460393209B0293069A079B009224
:1036CC0001934B465A465146200000F087F8002DD6
:1036DC0000D17FE7229B9B0671D54527461C4B46A4
:1036EC00020051463800A0470898C317C2185A4028
:1036FC0005230593013D0495002303930A3302939C
:10370C00C30F019300924B46320051462000FFF745
:10371C0069FD0C9B002B00D15CE70200219F56E059
:10372C00FFFFEF7FFFFFEFFF01FCFFFF0000F03F0B
:10373C00FB799F501344D33FB3C8608B288AC63F94
:10374C000000F83F61436F63A787D23F71A37909EB
:10375C004F930A400000E03F1655B5BBB16B0240D9
:10376C00EF39FAFE422EE63FFF03000000002C402A
:10377C0000002440000018402D431CEBE2361A3F99
:10378C0080842E41FFF7FFFF209B002B00D167E7C1
:10379C00119B002B00D163E7209B013B20935FE73B
:1037AC000023984662E7069E079F3200390080206E
:1037BC000006844661440B000692079375E7652763
:1037CC008CE7561C4B4651462020A04732005B46E6
:1037DC00D31ABB42F5D31000FCE6C046F0B5DE466A
:1037EC0057464E464546E0B595B081468A469346C7
:1037FC000A93209F1E9A1F9B10001900FEF7B3FF1F
:10380C00002831D101225242BA4B1E981F99FEF763
:10381C008FFF002837D101225242B74B1E981F99B7
:10382C00FEF79CFF00283DD10022B44B1E981F9937
:10383C00FEF794FF00284AD10022B14B1E981F9925
:10384C00FEF776FF002842D1002200231E981F9914
:10385C00FEF76EFF00284AD100230B93229B5B05D9
:10386C0000D4AFE0002452E0229B0393219B0293EF
:10387C0003230193A34B00930A9B5A465146484697
:10388C00FFF7C8FB1FE1229B0393219B02930423A8
:10389C0001939D4B00930A9B5A4651464846FFF7AD
:1038AC00B9FB10E1229B5B070ED5984B04222299A1
:1038BC00039121990291019200930A9B5A46514619
:1038CC004846FFF7A7FBFEE0914B0322EFE7229B54
:1038DC000493219B039302971E9B1F9C00930194BE
:1038EC000A9B5A4651464846FFF754FDEBE01E9A98
:1038FC001F9B00200021FEF7A8FE1E901F910123A4
:10390C000B93ABE70CAB30221A55013F01341F2C43
:10391C0001D8092FF6D81E981F99FEF74DFF050008
:10392C00FEF732FF02000B001E981F99FEF78DFE6A
:10393C00784BFA009B180CCB08920993FEF7B5FE56
:10394C0006900791FEF75CFF0600FEF719FF0200D8
:10395C000B0006980799FEF778FE06900791002257
:10396C006D4BFEF7FBFE00282ED001363000FEF723
:10397C0007FF02000B0008980999FEF7DFFE0028EC
:10398C0001D001350026002F2CD12800FEF7FCFEBB
:10399C0002000B001E981F99FEF757FE06000F0041
:1039AC0000225D4BFEF7C4FE002846D100225A4B84
:1039BC0030003900FEF7D2FE00283ED1EB073CD593
:1039CC0001353AE006274DE70022534B069807993C
:1039DC00FEF7AEFE0028D6D1002E01D0F307D2D5CB
:1039EC000136D0E7A8461F2C11D8013F0A21300020
:1039FC00FEF7F0FB651C30310CAB19550A21300079
:103A0C00FEF7E8FB092E0ED906002C00EBE7454625
:103A1C001F2C0CD87B1E002F09D00CAA302111555D
:103A2C001F000134F4E72B0045461C00F0E71F2C67
:103A3C0003D80CAB2E221A5501341F2C10D80A2196
:103A4C002800FEF79FFB661C30310CAB19550A2180
:103A5C002800FEF797FB051E01D03400EDE734007B
:103A6C00229B9B0719D4229BDB0716D5219B002B8D
:103A7C000ED00B9B002B03D10C33229A134207D090
:103A8C00219B013B219303E00CAB30221A550134EE
:103A9C00219B9C4201D21F2CF6D91F2C06D80B9BC4
:103AAC00002B17D00CAB2D221A550134229B0393FB
:103ABC00219B029301940CAB00930A9B5A465146EE
:103ACC004846FFF7A7FA15B0F0BCBB46B246A9466C
:103ADC00A046F0BD229B5B0704D50CAB2B221A55DC
:103AEC000134E3E7229B1B07E0D50CAB20221A55CF
:103AFC000134DBE7FFFFEFFFFFFFEF7F65CDCD412B
:103B0C0065CDCDC1CC760020D0760020C0760020CB
:103B1C00C8760020487D00200000E03FF0B5DE466E
:103B2C0057464E464546E0B593B083468A46904686
:103B3C001193002900D11AE300255E46119B1878D9
:103B4C00002800D116E3252809D06C1C43462A0016
:103B5C005146B047119B013311932500EEE7013319
:103B6C001193002712E0202A25D0232A05D11022F8
:103B7C00174301331193012406E0002404E00222D0
:103B8C001743013311930124002C1CD0119B1A787C
:103B9C002B2A0AD0E7D92D2AF1D0302A11D12F3A6D
:103BAC001743013311930124EEE704221743013329
:103BBC0011930124E8E708221743013311930124E0
:103BCC00E2E70024E0E7119B1A781300303BDBB2EC
:103BDC00092B15D92A2A18D00B94119B1A782E2A46
:103BEC0023D0119B1A786C2A47D03CD9742A62D006
:103BFC007A2A65D1802252001743013311935FE07A
:103C0C0011A8FFF7F5F90B90E7E71C9B1A1D1C9206
:103C1C001B68002B04DB0B93119B01331193DCE726
:103C2C00022217435B420B93F6E78022D200174324
:103C3C005A1C11925A781300303BDBB2092B0BD96A
:103C4C002A2ACED11C9B1A1D1C921C68002C08DB46
:103C5C00119B01331193C4E711A8FFF7C9F90400B4
:103C6C00BFE70024F4E7682A17D06A2A28D18022FB
:103C7C00920017430133119322E0802252003A4301
:103C8C00591C119159786C2901D0170018E0C022E9
:103C9C00920017430233119312E080223A43591CCD
:103CAC0011915978682901D0170009E0C0221743F7
:103CBC000233119304E08022520017430133119315
:103CCC00119B1878652840D077D8462800D18BE016
:103CDC001BD9632831D102231A003A4091463B424A
:103CEC0000D1B0E101241C9B1A1D1C926F1C18788A
:103CFC0043462A005146B0474B46002B00D0A6E164
:103D0C00119B013311933D0018E7252809D16C1C38
:103D1C0043462A005146B047119B013311932500AD
:103D2C000CE7452811D06C1C43462A005146B0477D
:103D3C00119B01331193250000E763282BD85828D9
:103D4C002BD0622829D04728EDD1672801D04728ED
:103D5C0002D180231B011F43452801D0472801D1E4
:103D6C0020231F431C9B0733072293431A0008325E
:103D7C001C9204970B9A039202940CCB0092019321
:103D8C0043462A0051463000FFF704FB0500119B07
:103D9C0001331193D2E66428C5D178284DD0582828
:103DAC0000D17CE06F2800D17CE0622800D17CE05F
:103DBC0010239F43063B9C4641E0702800D1BCE198
:103DCC000DD9732831D11C9B1A1D1C921B689B4664
:103DDC00002C00D06EE1012252425B464AE167287A
:103DEC00B3D01DD866289ED1462800D11CE11C9B5F
:103DFC000733072293431A0008321C9204970B9A3C
:103E0C00039202940CCB0092019343462A00514634
:103E1C003000FFF7E3FC0500119B013311938DE695
:103E2C006928BAD06F28B8D07DE7732800D27AE71A
:103E3C007528B2D07828B0D075E710239C46582846
:103E4C0036D0692803D0642801D00C2297437A0518
:103E5C0001D50122974369282DD064282BD0BA05AF
:103E6C0000D5A3E0FA0500D5BBE07A0600D4CDE07E
:103E7C001C9A111D1C911168FF220A4005970B9B7F
:103E8C0004930394634602930023019300924346E8
:103E9C002A0051463000FFF7A5F905002AE010234F
:103EAC009C46CCE708239C46C9E702239C46C6E700
:103EBC0020221743C5E7BA0520D4FA0551D47A0657
:103ECC0067D51C9A111D1C911168FF220A40D0174E
:103EDC001118414005970B9B04930394634602937E
:103EEC00D20F0192009143462A0051463000FFF751
:103EFC0079F90500119B013311931FE61C9A0732C7
:103F0C0007218A43110008311C91116853689946A6
:103F1C00DB170C930D930C9A0D9B100048400E90E0
:103F2C000D9B49464B400F930E980F990C9A0D9B85
:103F3C00801A99410E900F9108970B9B079306944A
:103F4C0063460493002305934B46DA0F02920090CC
:103F5C00019143462A0051463000FFF79FF90500B6
:103F6C00C8E71C9A111D1C911268D01711184140FA
:103F7C0005970B9B0493039463460293D20F019213
:103F8C00009143462A0051463000FFF72BF90500FB
:103F9C00B0E73A0605D51C9A111D1C910023D25E80
:103FAC0095E71C9A111D1C91126890E71C9A073218
:103FBC0007218A43110008311C9108970B9B07932A
:103FCC000694634604930023059302930CCA009253
:103FDC00019343462A0051463000FFF75FF9050074
:103FEC0088E71C9A111D1C9105970B9B0493039455
:103FFC0063460293002301931368009343462A00FF
:10400C0051463000FFF7EEF8050073E73A0606D587
:10401C001C9A111D1C9112681204120C2EE71C9A8A
:10402C00111D1C91126829E720231F43DFE6571C42
:10403C00434651462020B04723003A005C1C9D4269
:10404C00F5D815004FE601232A000B9DF6E73A0040
:10405C00B1460B9E06E0571C434651462020C847EC
:10406C002C003A00651CA642F5D817004E4647E6D0
:10407C0001330A001978002902D0511E002AF7D109
:10408C005A469B1A8022D2003900114089461742A9
:10409C0002D0A34200D92300022211003940109112
:1040AC003A4209D02A0025005F469B4633004E4613
:1040BC00994621E0220090E62A005546A24606E0E9
:1040CC00541C434629002020B0473B0022005F1CB3
:1040DC000B999942F4D85446AA463B0025005F46FA
:1040EC009B4633004E46994606E01D000137541C92
:1040FC0043465146C84722003878002804D0002E89
:10410C00F4D06B1E002DF0D115005B464E46109A74
:10411C00002A03D1119B013311930FE52A000B9F49
:10412C0006E0551C434651462020B04723002A0088
:10413C005C1C9F42F5D81500ECE721233B431C9AED
:10414C00111D1C91126805930823049303940833E2
:10415C00029300230193009243462A0051463000FB
:10416C00FFF740F80500119B01331193E6E40B4B6C
:10417C009B46E1E4B34645450DD343465A1E4346A0
:10418C0051460020D847280013B0F0BCBB46B246BD
:10419C00A946A046F0BD2A00F1E7C046012E00203A
:1041AC000CB400B585B084460A0006A908C9039171
:1041BC00044800916146FFF7B1FC05B008BC02B0A1
:1041CC001847C046F92D002000B585B08C4602A9D1
:1041DC000290604648600120844604480093130016
:1041EC0062465242FFF79AFC05B000BD032E002038
:1041FC0000BEFDE7704710B5FFF7FAFF10B582B0AF
:10420C0084460C001900002A0AD0074B074801927B
:10421C0000932300624600F041F90120FFF7E8FF0C
:10422C00034B1A00F2E7C046D8760020E87600204F
:10423C00E476002010B5EFF30583002B00D000BE10
:10424C00FDF7A8FE034C01E008CC9847024B9C42BA
:10425C00FAD310BD607F0020607F002010B50300F2
:10426C00080011001B68984710BD0000F8B5070046
:10427C000D001600437D002B02D0002400200CE022
:10428C0003681100280098472BE03B7D0FE03B684A
:10429C00144802219847601C0134B44213DA002CF4
:1042AC00F3DD631EEB5C0D3B5A425341DBB22A5DDE
:1042BC000A2AF1D1002BEFD1A042E8DA3B68211A8F
:1042CC0028189847E3E7B04203DA3B68311A2818FC
:1042DC009847002E05DD013EAB5D0D3B5A42534124
:1042EC003B75F8BD987D002070B505000368002B68
:1042FC0016D00C4B1C6805E0290004C92000FFF700
:10430C00B5FF2469002C09D02368002BF9D0064B8B
:10431C001B68002BF0D0A342F3D1EDE700232B60F8
:10432C0070BDC046C0A00020C8A0002010B50B680E
:10433C005A1C0A60CB181871802A00D010BD0800D6
:10434C00FFF7D2FFFAE7000010B5FDF7ADFB074A07
:10435C00002312184B41002B03DB054802F050FAE6
:10436C0010BD01225242034BF7E7C04640420F00FA
:10437C00187F0020FFFFFF7F10B5024802F078FA8B
:10438C0010BDC046187F0020F0B5CE46474680B51C
:10439C0083B080460D0016001C00FFF7D5FF814648
:1043AC006B1C05D0002C08D0184F194B1C6807E06B
:1043BC00404602F06DF90500F4E7164FF5E7246965
:1043CC00002C16D02368002BF9D0134B1B68002B44
:1043DC0001D0A342F3D12A0041462000B847002E59
:1043EC00EDD06B46D91D0A230B7001222000B84773
:1043FC00E5E74B46002B05D1280003B0C0BCB946FD
:10440C00B046F0BDFFF7B8FFF6E7C0468D40002080
:10441C00C0A000207D400020C8A0002010B5064B95
:10442C001C6800E02469002C04D06368002BF9D0D0
:10443C009847F7E710BDC046C0A0002070B5050036
:10444C0002F026F904000123012201002800FFF7E5
:10445C009BFFFFF7E3FF200070BD0000F0B5A3B099
:10446C0007000E00FFF770FF050001AC002301935D
:10447C00094833003A002100FFF7A6FE0600200091
:10448C00FFF732FFFFF7CAFF002D02D1300023B037
:10449C00F0BDFFF771FFF9E74D4100200FB400B5F7
:1044AC0083B004A901C90191FFF7D8FF03B008BC80
:1044BC0004B01847014B00225A6070471095002039
:1044CC0003BD10B50400FDF76DFDA04710BDD02352
:1044DC001B061B6D9B07FAD5D0231B06586540BFE6
:1044EC00704700E020BFD0231B061B6DDB07F9D5FE
:1044FC00D0231B06986D7047F0B587B004000D00F3
:10450C0016000F20FCF748FC070000210F20FCF7D9
:10451C005DFC0022009201920132029203960495F6
:10452C000594124B5A7000250CE0D0231B069B6D92
:10453C00D0231B061B6DDB07F7D440BF07E001350A
:10454C00052D0DD8AB006A469C58002CF0D02000ED
:10455C00FFF7BDFFFFF7C5FF8442F0D00025EFE762
:10456C0039000F20FCF732FC07B0F0BD94A00020FE
:10457C0010B584460800930715D103239A438B1872
:10458C0019000C390B4A926864460C60082464428A
:10459C00A4469C44644620600748043B18600748C6
:1045AC00FFF7AAFF10BD064B064A07489A21FFF7F2
:1045BC0025FEC04600ED00E0E3420020E142002071
:1045CC00907700209C7D00204077002010B5064B92
:1045DC00064A934205D3190080221201FFF7C8FF47
:1045EC0010BD01214942F7E7000804200000042017
:1045FC0070B588B0040004AD0D2200212800FEF730
:10460C00DFFC0D2200216846FEF7DAFC4B232B70F1
:10461C0000230D226946280002F094F9002304E0DF
:10462C005A1D69468A5CE2540133072BF8DD08B049
:10463C0070BD000030B583B004000D0094467F239C
:10464C000340C2092948590089184901401884704F
:10465C005142514141700021C17005836146C176C0
:10466C00012A1ED0DC0022498C4664441F495800A4
:10467C008018400109188C601C49580080184001B2
:10468C000918896800200860002B15D117495B00B8
:10469C009B185B01CB1800225A60164ADA6003B0F3
:1046AC0030BDDC0014498C46644410495800801815
:1046BC00400109188C60DFE7012A0BD0581EC0009E
:1046CC000E498C46604409495B009B185B01C91874
:1046DC004860E4E7581EC00009498C466044034911
:1046EC005B009B185B01C9184860D8E7CCA0002080
:1046FC008400105000011050800010500C0010501D
:10470C000800105010B5038B3F339B099901C27EF2
:10471C00022A08D0084A1368C3605B181360074A62
:10472C00934202D810BDD901F4E7054B054A06485F
:10473C005221FFF763FDC046CCA40020FF0F1050A0
:10474C00B4790020007E0020F8790020F8B57F2491
:10475C000440C50963005B195B010F4EB44663440A
:10476C001E00FFF767FF002C00D1F8BD0A4B640058
:10477C00641964011C19218B3000FFF7C3FFE37E21
:10478C009B06E168054A4A401343802212061343F4
:10479C0062681360E9E7C046CCA00020000010500E
:1047AC0010B503007F201840DB099C464000604494
:1047BC004001024BC01800F02FF910BDCCA0002016
:1047CC0010B5002804D101210520FCF7FFFA10BD1B
:1047DC00034B044A98210448FF31FFF70FFDC046F4
:1047EC00687A0020F07D0020F879002010B50028B0
:1047FC0005D1002200218020FFF7D2FF10BD034B12
:10480C00034AA2210348FF31FFF7F8FC687A002025
:10481C00E07D0020F8790020024B80225202DA64FD
:10482C007047C0460020115070B5041E27D100F00F
:10483C00D1F8164D0C23AB671549FF220520FCF768
:10484C0003FB144840220021FEF7BAFB0022402152
:10485C000020FFF77BFF002240218020FFF776FF2E
:10486C0002F0F2F801232B6480239B05EB64902368
:10487C00094AEA502000FFF7CFFF012070BD074B1B
:10488C00074A64210748FF31FFF7B8FC00001150BC
:10489C0045690020CCA0002010D00100687A0020CF
:1048AC00147E0020F8790020044B1970002904D0E4
:1048BC00034A902380218902D1507047EDA6002035
:1048CC00002011500B78DA0605D160221A4202D171
:1048DC004B78052B00D070478A78CB781B0213439A
:1048EC00FF221340014A1360F5E7C0460000115047
:1048FC0010B5CA789207920F012A0AD088780B79E2
:10490C004979090219434905490DFFF71FFF012099
:10491C0010BD0020FCE710B502F096F810BD0000A9
:10492C0010B58446080011001A006346002B03D111
:10493C00FFF736FF012010BD034B044A81210448C8
:10494C008900FFF75BFCC046687A0020D07D002010
:10495C00F879002010B57F23180008400B4205D1D0
:10496C00CB09012B0ED00222074B9A66C9094000D5
:10497C0040184001054BC01880221201002102F0A2
:10498C0089FA10BD0122EFE700201150CCA00020C5
:10499C0010B57F22100008400A4200D110BDC90991
:1049AC00400040184001044BC0180023C370002283
:1049BC00024902F06FFAF1E7CCA00020FFF7FFFFED
:1049CC0004E00A780270013101301A00531E002AEB
:1049DC00F7D1704710B580235B040A4A13600A4A6A
:1049EC0013600A4B1A6880235B049343F9D180222D
:1049FC00520100210648FEF7E3FA064B09225A67DA
:104A0C0010BDC04600E0004000F0004008C000406F
:104A1C00000010500000115070B504000D0016007D
:104A2C00837E002B17D1A6820023E3820133A37669
:104A3C002561200002F0AAF9002804D0094A90232D
:104A4C0080218902D150200002F0B6F9002805D04F
:104A5C000123237770BD02F017FAE4E7200002F07F
:104A6C003FFAF7E7002011500020704770B50500A1
:104A7C00002408E0E31A5B01124A9B18DB6828004B
:104A8C0098470134E4B2104B1B78A34207D3F1D9F9
:104A9C000E4B1B6862019B18002BEFD110E00C4CE5
:104AAC00542200212000FEF78BFA201D1022FF213A
:104ABC00FEF786FA200014302022FF21FEF780FA40
:104ACC0070BDC046307E0020ECA60020189500205A
:104ADC00489E002010B5FFF7C9FF00F0B7FD10BDD0
:104AEC0070B506000C001500486900F0B9FD63694B
:104AFC002A0001213000984770BD0000F0B5DE4659
:104B0C0057464E464546E0B583B081460139C8B29A
:104B1C00FBF7A0FF00287AD043789B46022B75D177
:104B2C00C5796C110122404B1440240119781026D0
:104B3C00B14321431970AD112A405201C9B220244E
:104B4C00A1430A431A70060009368278C3781B0207
:104B5C001343C3189A4648E0F37898463378F6180E
:104B6C004AE02C1B6401314BE41823693A003100F4
:104B7C00484698470190082801D987420ED2013542
:104B8C00EDB22B4B1C78AC422BD3EAD9294B1C68C9
:104B9C006B01E418002CE8D1002038E04346012BCF
:104BAC0010D00022904513D9B3789B18DBB21E4964
:104BBC00C9180979FF2933D11B49CB181D71013252
:104BCC00D2B2EFE722691C4B9A42EAD1D846E8E709
:104BDC001A482B00019C2200310001F013FAA44664
:104BEC006644134B1B78AB421CD356450CD27378DE
:104BFC000B2BB1D0012398467378042B0ED153465E
:104C0C009F1BBFB20025BCE7012000E0002003B0D1
:104C1C00F0BCBB46B246A946A046F0BD0020F6E764
:104C2C000020F4E70020F2E7489E0020307E0020B0
:104C3C00ECA60020189500205D5900205C9E0020F9
:104C4C007047704700207047002070470020704765
:104C5C0070B505000C008878CB781B021A0A13007B
:104C6C00062A48D011D8022A22D0032A35D0012A8C
:104C7C0009D1FBF7EBFE021E47D0122321002800BE
:104C8C0000F0B2FC22E0002020E0072A10D00F2A0E
:104C9C000CD1FFF7D7FF021E39D08178C3781B02E5
:104CAC000B432100280000F09FFC0FE000200DE0DA
:104CBC00022B0CD0FFF7CAFF021E2AD09178D378B2
:104CCC001B020B432100280000F08EFC70BDFBF78B
:104CDC00C1FE021EF2D10020F8E70B7949790902D6
:104CEC001943FBF7BBFE021E15D0037821002800E8
:104CFC0000F07AFCEAE7FFF7A7FF021E0DD003785D
:104D0C002100280000F070FCE0E70020DEE7002026
:104D1C00DCE70020DAE70020D8E70020D6E7704770
:104D2C007047704770470000024B5878431E9841FB
:104D3C00C0B27047489E0020024B18784007C00F45
:104D4C007047C046489E0020034B1878FF38431E1E
:104D5C009841C0B27047C0460C7F0020F8B50600E1
:104D6C000C000F00FFF7F0FF051E41D1002C3FD0C7
:104D7C00224854220021FEF723F9214B00221A70FD
:104D8C00204C2000FCF7F0F91F4B1C601F4C20003E
:104D9C00FCF736FA143C200001F0B4FB1C4B1C60F1
:104DAC001C4B002B04D01C4800E000BF1B4B1860B0
:104DBC00002409E0E31A5B01194A9B185B68002B7D
:104DCC0016D098470134E4B2134B1B78A34207D397
:104DDC00F0D9124B1B6862019B18002BEED107E037
:104DEC00104B1E7039003000FFF71EFD051E01D15F
:104DFC002800F8BD3000FFF7E3FCF9E7489E0020DF
:104E0C00EEA60020409E00209C9E0020047F0020E7
:104E1C00A09E002000000000ECA6002018950020A9
:104E2C00307E00200C7F002070B50800094B1C78E8
:104E3C000D008B7870221A4201D0002070BD064BF9
:104E4C00997801F0A3F80028F8D029002000FFF78A
:104E5C004FFDF3E70C7F0020489E0020F0B5C646BE
:104E6C0000B580460C0016001F00002504E0079AD0
:104E7C0013702378E4180135AE4214DD6378052BEA
:104E8C0015D1E1788907890FB94212D1210040462A
:104E9C00FFF7CAFF002807D0A378DA09012AE6D069
:104EAC00069A1370E5E7012080BCB846F0BD0020DF
:104EBC00FAE70020F8E7000010B57F200840C90988
:104ECC00400040183030044BC0180430034B1968B4
:104EDC0001F010F810BDC046489E00209C9E00209A
:104EEC0010B57F200840C909400040183030044BF1
:104EFC00C0180430034B196801F027F810BDC046E8
:104F0C00489E00209C9E0020F8B5CE46474680B5B2
:104F1C001F001A4B18787F240C40CD09184B6600E3
:104F2C009B195B1930331B79DB0704D50020C0BCFF
:104F3C00B946B046F8BD124B9B195B193026B146E9
:104F4C0099444B461B790126B446664633431E00F2
:104F5C004B461E713B00FFF7E3FC0028E7D1084BE2
:104F6C0064001B195B1930331A7901218A431A71B9
:104F7C001A7903318A431A71D9E7C0460C7F002095
:104F8C00489E002070B50A4B18787F240C40CD0940
:104F9C00FFF7E0FC074A640013195B1930331A79E8
:104FAC0002210A431A711A7901210A431A7170BD40
:104FBC000C7F0020489E002070B50A4B18787F2487
:104FCC000C40CD09FFF7E4FC074A640013195B1988
:104FDC0030331A7902218A431A711A7901398A43BA
:104FEC001A7170BD0C7F0020489E00207F220A4061
:104FFC00C909044B52009B185B1830331879800791
:10500C00C00F7047489E0020F0B5C64600B582B070
:10501C0005000C00002000F023FB227860231340D5
:10502C00602B00D188E1402B2FD02278D206D20EF3
:10503C00012A00D1D6E0022A00D119E1002A00D0C1
:10504C007FE1202B2AD0002B00D080E16378052B48
:10505C0057D049D8012B00D1B1E0032B00D19BE0F4
:10506C00002B3FD1C24B1A785109920802231340EE
:10507C0001220A4013436A460632138002232100A0
:10508C00280000F0B1FA012057E1BA4800F0E8FA24
:10509C00220001212800FFF7E7FC4EE12279637919
:1050AC001B0213430F2A00D94DE1B14AFF210B40DB
:1050BC00D2181379B04A1278934207D2AF4A1168CA
:1050CC005B01C918002908D1002036E1934200D9B0
:1050DC003BE19B1A5B01AA49591822002800FFF7F3
:1050EC00FFFC2AE1002028E1082B18D0092B22D044
:1050FC00062B04D121002800FFF7AAFD1DE100209A
:10510C001BE1200000F0B2FAA1782800FFF76EFB3B
:10511C00974A137802210B43137001200DE1944B35
:10512C005B786A460632137001232100280000F0D8
:10513C005BFA012001E1A27890468D4B5B7893429B
:10514C0024D08B4B5B78002B0DD1894B4146597089
:10515C00002919D02800FFF7D1FC002811D1844B6D
:10516C0000225A70E9E000212800FFF79DFB28007F
:10517C00FFF7D1FB7E4EB7782800FFF777FCB770AE
:10518C00E3E7FFF7CCFD01E0FFF7CAFD21002800A3
:10519C0000F016FA0120D0E0A278E3781B0213434A
:1051AC00012B01D00020C8E0714A137808210B4371
:1051BC0013702100280000F003FA0120BDE0A27852
:1051CC00E3781B021343012B01D00020B5E0684AA1
:1051DC00137808218B4313702100280000F0F0F99C
:1051EC000120AAE0227963791B0213430F2A00D90C
:1051FC00AFE05F4AFF210B40D21813795E4A127858
:10520C00934222D25D4A11685B01C918002900D172
:10521C00A1E022002800FFF763FC002800D08CE0FE
:10522C00237860221A4200D087E063780A3B012B76
:10523C0000D982E000F014FA63780A2B0DD021001B
:10524C00280000F0BDF9012077E0934200D984E0FA
:10525C009B1A5B014A495918DBE76B469A1D0023E0
:10526C00137001332100280000F0BEF9012064E026
:10527C0021797F200840CA09944670220A4200D046
:10528C006DE03B4A400012186244127D3A480078A7
:10529C0082420DD239480068520182181600002B48
:1052AC0011D0311E5DD022002800FFF719FC44E01C
:1052BC00824205D8121A5201314812181600EEE734
:1052CC0000221600EBE76378012B10D0032B0ED0D5
:1052DC00002B48D12800FFF789FE6B469A1D1080E1
:1052EC0002232100280000F07FF9012025E0A0789E
:1052FC00E2781202024304D1012B19D02800FFF7E7
:10530C0041FE002E31D0220031002800FFF7E8FBCF
:10531C00002000F0A5F9164B35229B5CDB07D80F5B
:10532C00002B0AD12100280000F04AF9012004E0EA
:10533C002800FFF741FEE4E7002002B080BCB8462D
:10534C00F0BD0020F9E70020F7E70020F5E700208A
:10535C00F3E70020F1E70020EFE70020EDE7002065
:10536C00EBE70020E9E70020E7E70120E5E7C0468E
:10537C00489E002089480020ECA6002018950020AB
:10538C00307E002030B585B0FFF7DEFC00284ED112
:10539C0005B030BD042B4AD1644B1B78DB0746D5D6
:1053AC00624B18780007C00FFFF7BBFC3FE0072BE0
:1053BC006BD0082B00D1A9E0062B38D15C4B1B78A5
:1053CC00002BE5D05A4A1378013BDBB213701378EB
:1053DC00002B2CD1554B1A78012401210A431A7049
:1053EC003422995CA1439954995C042081439954CB
:1053FC000132995CA1439954995C8143995401AB56
:10540C00187802A9FFF700FE002810D101AC207813
:10541C000021FFF79FFA20788021FFF79BFA06E026
:10542C0001AC2078FFF756FB2279404B9A70414B28
:10543C001C686269EFF3108172B61368002BFCD004
:10544C00BFF35F8FA16101A9200000F0FDFF62692D
:10545C00A369BFF35F8F0021116083F310880028CC
:10546C0000D195E701AB5B78052B48D09FD8032B77
:10547C0052D08FD8012BD3D0022BD8D101AB1878B6
:10548C00FFF728FBFFF74CFCD1E701AB19797F2222
:10549C000A40CC09254B50001B181B1930331879C6
:1054AC000125A843187118790335A8431871002AEF
:1054BC0016D01E4B52009B181B191B7D1E4A1278CE
:1054CC00934214D21D4A12685B01D318002B00D1F1
:1054DC005EE79C6901A84279039B0078A047A6E788
:1054EC0001A84279039B007800F0CEF89FE7934225
:1054FC0000D94DE79B1A5B01114A9B18E9E70B4B4E
:10550C001B78DB0793D5FFF70DFC90E7029B002B74
:10551C008DD0039898478AE7044BDB78DB0700D4DF
:10552C0085E70298FFF78DFB81E7C046489E002077
:10553C00EEA60020A09E0020ECA6002018950020CE
:10554C00307E002010B50023CB56002B05DB8021CC
:10555C0000230022FFF7D8FC10BD0021F8E7000063
:10556C00F8B50700144B9E89DD89731B9BB21C1C7C
:10557C00402B00D94024A4B20F4B1B785BB2002BFC
:10558C0008DB0021AE4213D00C4A23003800FFF791
:10559C00BBFCF8BDAE4209D0074B9968402C09D82A
:1055AC0006482200FDF712FD8021EBE78021E9E798
:1055BC000022EAE70020ECE7289E0020E89D00206E
:1055CC0070B506000D00074C08222000FDF7FEFC0C
:1055DC000023A360E381A38129003000FFF7B2FF11
:1055EC0070BDC046289E0020F0B5C64600B580466A
:1055FC000C0017001E00144D08222800FDF7E6FCD5
:10560C00AF600023EB81A379E179090219430B1CEC
:10561C00B14200D9331C99B20B4A9381A279E37938
:10562C001B02134309D0002901D0002F0AD0404699
:10563C00FFF796FF80BCB846F0BD21004046FFF74F
:10564C0081FFF7E70020F5E7289E002010B50348FE
:10565C0014220021FDF7B4FC10BDC046289E00208A
:10566C00014B18617047C046289E002010B5010000
:10567C00044C08222000FDF7A9FC0023A360E38161
:10568C00A38110BD289E002070B505001A001C00D7
:10569C00C909274B1B78DB098B4211D0002A01D09A
:1056AC00002070BD224B1C001900FFF70BF9236979
:1056BC00002B03D01E4A0321280098470120F0E755
:1056CC001B4B1B785BB2002B06DB194B9868002830
:1056DC00E7D01849FDF77AFC154AD389A1B25B18BB
:1056EC009BB2D3819168A44661449160D288934265
:1056FC0001D03F2C18D80E4B1B69002B05D00C4A3F
:10570C00022128009847002804D009492800FFF7F7
:10571C0019FFC6E700212800FFF71CF9802128009B
:10572C00FFF718F90120BCE72800FFF719FFB8E7CD
:10573C00289E0020E89D002070B50400FFF7F4FAC5
:10574C00002803D100231E00300070BDFFF7F4FACF
:10575C00061EF7D1264A6301A4466344DB0063446A
:10576C00DB00D218D378002BECD063016344DB0050
:10577C006344DB0010331E4A9B181D00180000F018
:10578C004CFE3F28E0D91A4A6301A4466344DB006F
:10579C006344DB00D218D1780020FFF78DFB002882
:1057AC0001D10600D0E7280000F037FE3F2811D9C0
:1057BC00E201104BD2180E496301A4466344DB008E
:1057CC006344DB00C918C97840230020FFF79CFB19
:1057DC000600B9E7064A6301A4466344DB00634450
:1057EC00DB00D218D1780020FFF77AFBACE7C0467B
:1057FC00A09500201C95002010B58C46064A43014C
:10580C001B18DB001B18DB00D1180831072260467F
:10581C00FDF7DCFB10BDC046A095002010B5430180
:10582C001B18DB001818C0001030024BC01800F019
:10583C00C0FD10BDA095002070B5040043011B18DD
:10584C00DB001B18DB00103307481818074B9A4273
:10585C0008D892B200F019FE05002000FFF76CFF8B
:10586C00280070BD024AF5E7A0950020FEFF00005D
:10587C00FFFF000070B50400FFF756FA002801D1B5
:10588C00002070BDFFF758FA0028F9D16301A44637
:10589C006344DB006344DB002033214A9B18043350
:1058AC001D00180000F085FD0028EAD01C4A630199
:1058BC00A4466344DB006344DB00D21891780020DB
:1058CC00FFF7FAFA0028DCD0E3014033154A9B18A5
:1058DC001E0040221900280000F0D7FD051E11D033
:1058EC000F4A6301A4466344DB006344DB00D21817
:1058FC009178030032000020FFF706FB0028C0D08F
:10590C002800BEE7064A6301A4466344DB006344F7
:10591C00DB00D21891780020FFF7E2FA0020B0E704
:10592C00A09500201C95002070B50500440124189A
:10593C00E4002418E40020340B4BE41804340B4B23
:10594C009A420BD892B2200000F0D7FD060020003E
:10595C0000F02FFD3F2803D8300070BD044AF2E759
:10596C002800FFF787FFF7E7A0950020FEFF000057
:10597C00FFFF0000F0B5CE46474680B583B03048F7
:10598C00304A0021FDF71CFB2F4B00221A7000241B
:10599C00002C04D003B0C0BCB946B046F0BD284EB4
:1059AC0065012D19ED002F19FF00F719FF237B71ED
:1059BC00E1235B02BB6000223A737A730823BB734A
:1059CC002919C900383189192819C00010308019DB
:1059DC000092073B8022D20000F0AAFC2919C900D2
:1059EC008723DB009C46614489192819C0002030AC
:1059FC0080190430012300938022D20000F098FC1F
:105A0C002B19DB0011498C4663449B1999461800ED
:105A1C00FBF7AAFB2B19DB00842109018C4663449C
:105A2C00991988460800FBF79FFB0022FA614B4648
:105A3C003B62414639637A630134E4B2A8E7C0465D
:105A4C00A0950020480800009C9500203808000014
:105A5C0030B50023002B01D0012030BD19001448B3
:105A6C005A01D218D200D218D2008218106A126BC6
:105A7C009446002809D00E485A01D218D200D218E8
:105A8C00D20082180020D06110626246002A0BD02E
:105A9C0007484A015218D2005418E400A446844422
:105AAC00654600242C636C630133DBB2D2E7C0463D
:105ABC00A095002070B50024002C00D070BD2500EE
:105ACC0060010019C0000019C0001A4BC018052253
