:020000041000EA
:1000000000B5324B212058609868022188439860DF
:10001000D860186158612E4B002199600221596106
:100020000121F02299502B49196001219960352056
:1000300000F044F80222904214D00621196600F024
:1000400034F8196E01211966002018661A6600F04E
:100050002CF8196E196E196E052000F02FF8012189
:100060000842F9D1002199601B49196000215960AB
:100070001A491B48016001219960EB211966A021F2
:10008000196600F012F800219960164914480160C1
:100090000121996001BC002800D000471248134993
:1000A000086003C880F30888084703B5996A0420EC
:1000B0000142FBD001200142F8D103BD02B5186610
:1000C0001866FFF7F2FF186E186E02BD00000240BE
:1000D000000000180000070000035F00212200005C
:1000E000F4000018222000A00001001008ED00E03C
:1000F00000000000000000000000000074B24E7A12
:1001000000200420F7010010C3010010C5010010F9
:10011000C1010010C1010010C1010010C101001097
:10012000C1010010C1010010C1010010C701001081
:10013000C1010010C1010010C9010010CB01001065
:10014000CD010010CD010010CD010010CD01001037
:10015000CD010010CD010010CD010010CD01001027
:10016000CD010010CD010010CD010010CD01001017
:10017000CD010010CD010010CD010010CD01001007
:10018000CD010010CD010010CD010010CD010010F7
:10019000CD010010CD010010CD010010CD010010E7
:1001A000CD010010CD010010CD010010CD010010D7
:1001B000CD010010CD010010CD010010CD010010C7
:1001C00000BE00BE00BE00BE00BE00BEEFF3058054
:1001D000103800BEF2EB8871D80200100403001042
:1001E0003402001090A31AE700202249086006C8D4
:1001F00081F30888104720480068002835D10DA4F5
:100200000ECC002902D000F012F8F9E71B491C4A75
:10021000002000E001C19142FCD11A4988471A49E7
:1002200088471A49884700BEFDE701C901C29A42C2
:10023000FBD3704704030010C0000020FC6B0020BB
:10024000406E0010006C0020FC8D00203C900010DF
:1002500000000420000004203C9000100010042046
:1002600000100420000000007047094800F014F856
:100270000047000008ED00E0000000D0008E0020E4
:1002800068F6002071340020850900202D340020FC
:10029000575600000000000001B40248844601BC2B
:1002A000604700BF1947002006005250ABB36053AF
:1002B0008C82002006005250861C03029C82002083
:1002C000060052505422A29DD86F002005005250C3
:0802D000DE65F4683C900010AB
:1002D800CC020010C0020010B4020010A48200205A
:1002E800A8020010B0820020BC820020C882002032
:0C02F800D48200202883002034830020E2
:10030400F8B5C04610B5064C2378002B07D1054B31
:10031400002B02D0044800E000BF0123237010BD6D
:10032400008F002000000000FC6B0020044B10B57F
:10033400002B03D00349044800E000BF10BDC046B1
:1003440000000000048F0020FC6B002070B5060044
:100354000D1C081C05F038FA84B2002C12D02000C1
:1003640005F00AFA011C281C05F0DDF98721C905EE
:1003740005F0F9F905F028FAC3B21B0224041C4362
:10038400346070BD0023F8E710B50400102200218A
:1003940005F0E4FA80235B022360F8235B026360C8
:1003A4008023DB02A360C0231B03A360200010BDD5
:1003B40070B504000D00FFF7E7FF2B000E3305496D
:1003C40062681140ED0129431B0319436160200059
:1003D40070BDC0467F00FEFF034B1878034B9C465C
:1003E4006044FF23984370473C900010FF000010C6
:1003F40088204005704710B5FFF7FAFF0400FFF7A7
:10040400EBFF201A10BD0000064B1B68064A126859
:100414001F2111405A00D218D300044A9446634461
:1004240019607047F88F002020900020D8002050D9
:10043400064B1B68064A12681F2111405A00D21845
:10044400D300044A9446634419607047F48F002033
:1004540024900020D800305010B5D0231B068022F1
:10046400D2035A61D0231B065B685B02FAD5FFF7FF
:10047400CBFF10BD10B5D0231B068022D2039A6196
:10048400FFF7C2FF10BD000010B50B4B1B6BDB0761
:1004940004D4094B1B6B9B0706D410BD064B0122E9
:1004A4001A63FFF7D9FFF8E7034B02221A63FFF739
:1004B400E1FFFFF7BDFFF0E70000205010B50A4B45
:1004C4001B6BDB0707D4084B1B6B9B0702D5064B42
:1004D40002221A6310BD044B01221A63FFF7CAFFFC
:1004E400FFF7A6FFF6E7C0460000305082B0EFF3F6
:1004F400108172B6134B1A6880239B015340C022AB
:1005040092011340104A13600023019302E0019BFF
:1005140001330193019AFA239B009A42F7DBD0231B
:100524001B069B680220184043425841C0B2054B49
:100534001B68C02292011340034A136081F31088A0
:1005440002B070470C8001400C90014010B51C288B
:1005540000D010BD01F030F8D024240680235B05C0
:10056400A3620E2001F028F88023DB01A3620F2090
:1005740001F022F880231B02A362064B064A1A608C
:10058400064805F083FB00220021002003F018F840
:10059400DFE7C046FC8D002096966969906D0020C7
:1005A40070B50A00C046C046C046C046C046C046F4
:1005B400D02424068025AD01A561C046C046C046AE
:1005C400C046C046C046C046C046C046C046C046F7
:1005D400C046C046C046C046C046C046C046C046E7
:1005E400C046C046C046C046C046C046C046C046D7
:1005F400C046C046C046C046C046C046C046C046C7
:10060400C046C046C046C046C046C046C046C046B6
:10061400C046C046C046C046C046C046C046C046A6
:10062400C046C046C046C046C046C046C046C04696
:10063400C046C046C046C046C046C046C046C04686
:10064400C046C046C046C046C046C046C046C04676
:10065400C046C046C046C046C046C046C046C04666
:10066400C046C046C046C046C046C046C04601005B
:10067400324806F08FFCC046C046C046C046C0465D
:10068400C046C046C046C046C046C046C046C04636
:10069400C046C046C046C046C046C046C046C04626
:1006A400C046C046C046C046C046C046C046C04616
:1006B400C046C046C046C046C046C046C046C04606
:1006C400C046C046C046C046C046C046C046C046F6
:1006D400C046C046C046C046C046C046C046C046E6
:1006E400C046C046C046C046C046C046C046C046D6
:1006F400C046C046C046C046C046C046C046C046C6
:10070400C046C046C046C046C046C046C046C046B5
:10071400C046C046C046C046C046C046C046C046A5
:10072400C046C046C046C046C0466561C046C046D5
:10073400C046C046C046C04670BDC0460000044026
:10074400F8B5CE46474680B5FA24E400200002F00E
:1007540085F81C2000F030FFD0252D0680235B0592
:10076400AB62002201211C2000F056FE200002F0A2
:1007740075F8684B012204211C2000F0C1FE664C70
:100784006649200002F0F4FC0221102000F02CFE47
:100794000221112000F028FE226BC0231B021A4004
:1007A4005F4980235B010B431A6000230122082167
:1007B400200002F0ABFC0021200002F0BDFC00236D
:1007C400A3630F2000F0F8FE80231B02AB6200221B
:1007D40001210F2000F020FE002404E021005148F4
:1007E40005F084FA0134504B9C4204DCD0231B06F0
:1007F4005B681B04F2D40E2000F0DEFED0231B063F
:100804008022D2015A629A6100239946474F984642
:100814000024002629E0751C4549300004F0F0F856
:1008240001314A01434952184349444804F068F8E5
:10083400D0231B068022D2015A61D0231B065B6899
:100844001B04FAD5D0231B068022D2019A613B4EA9
:10085400300006F007FA01003000FFF7A1FE310076
:10086400374805F043FA01342E00364B1B68B34277
:10087400D1D14C4505D043465A1C334B984506D834
:1008840090467A1C314B9F4223D81700EDE7304B3A
:100894001A682A4D23002F49280004F031F8280053
:1008A40006F0E0F9013000212A0008E01A4B9B69A8
:1008B4009B06FBD41578184B1D6001310132884228
:1008C400F4D81E4805F0E2F9A14600270023984613
:1008D400CBE71F4B1A68194D23001E49280004F06A
:1008E4000FF8280006F0BEF9013000212A0008E0C4
:1008F400094B9B699B06FBD41578074B1D6001319E
:1009040001328842F4D80D4805F0C0F900270023CD
:100914009846AAE70D03002000400340802401000C
:1009240030400340CC6D0020B70B0000814A5D05C8
:100934001F03000040900020EC6D0020FC8F00207D
:10094400F46D002060F60020002D3101804A5D0521
:10095400E0840020F86D002070B50024002500E03C
:100964000134632C05DCFFF7C1FD0028F8D0013504
:10097400F6E75A2D00DC70BD034803F0EDFF0300D9
:10098400002108009847C04655420000F0B5C6460D
:1009940000B5040000F010FE00220121200000F048
:1009A4003BFD052001F05AFFD0252D066868E04084
:1009B400012637000740B84601220021200000F03C
:1009C4002BFD052001F04AFF6B68E3401E40200028
:1009D40000F0FDFD002F01D0002E03D0404680BC66
:1009E400B846F0BD0220FAE770B50420FFF7CEFF49
:1009F400040005000520FFF7C9FF03000200022CD4
:100A040019D0002D01D1022A29D0012D17D0022D91
:100A140019D0022D1BD01C43E0B200280AD0002DAF
:100A240001D1012A1DD0012D15D0012D1BD1012A80
:100A34001BD0092070BD0228E3D10420FAE7022A62
:100A4400E5D10620F6E7002AE3D10720F2E7012AE0
:100A5400E1D10820EEE7002AE7D10220EAE70520E9
:100A6400E8E71800E6E70920E4E70320E2E70000EE
:100A740010B5FFF7B9FF284B18701B78DBB2082BB1
:100A840043D89B00254AD3589F46254B254A1A60D4
:100A9400254805F0FBF8002010BD214B234A1A60BD
:100AA400234805F0F3F8F6E71D4B224A1A60224862
:100AB40005F0ECF8EFE71A4B204A1A60204805F0DD
:100AC400E5F8E8E7164B1F4A1A601F4805F0DEF800
:100AD400E1E7134B1D4A1A601D4805F0D7F8DAE721
:100AE4000F4B1C4A1A601C4805F0D0F8D3E70C4B96
:100AF4001A4A1A601A4805F0C9F8CCE7084B194A93
:100B04001A60194805F0C2F8C5E7054B174A1A6080
:100B1400174805F0BBF8BEE7DC840020906F002086
:100B2400E0840020146E0020186E0020306E002037
:100B3400346E00204C6E0020506E0020686E002041
:100B44006C6E0020846E0020886E0020B06E002041
:100B5400B46E0020E06E0020E46E0020106F0020D0
:100B6400146F0020406F0020446F0020706F00203D
:100B7400746F002070B50500002400E00134032CDC
:100B84000ADC2100280005F035FB0028F6D02100FE
:100B9400280005F001FBF1E770BD000070B5074DBA
:100BA4002800FFF7E7FF064C2000FFF7E3FF2800CB
:100BB40005F04CFB200005F049FB70BD00002050FF
:100BC40000003050F0B5DE4657464E464546E0B587
:100BD40099B0FFF7C1FEFA4B1A68FA4B9A4200D15A
:100BE40056E31C2000F0E8FCD0252D0680235B058D
:100BF4006B62AB610E2000F0DFFC8023DB01AB6293
:100C04000F2000F0D9FC80231B02AB62082000F007
:100C1400D3FC802464006C62AC61092000F0CCFC3D
:100C24008027BF006F626F61FFF722FF05F06AF84B
:100C34006C61642001F012FEE34B1968E34BE44A53
:100C4400E44805F053F8E44B1B68986805F058FD38
:100C5400E24CE349200005F041FC804601210A20D2
:100C640000F0C2FB01210B2000F0BEFB01210C208F
:100C740000F0BAFB0D2000F09FFC8026B6016E62E6
:100C84006E61626802200240D64BC021890119437B
:100C94000860216805304840CF2101408020400190
:100CA4000443216033431A60CF49D04805F01EF84D
:100CB400404604F061FD04F08FFD0022CC4B04F0AB
:100CC400ECF802000B0041460091CA4805F00EF80A
:100CD400AF61FFF781FB0400FFF78AFB0700FFF712
:100CE4008AFB03003A002100C34804F0FFFF1420EC
:100CF40000F062FC80235B03AB620022012114201C
:100D040000F08AFB152000F057FC80239B03AB62A4
:100D140000220121152000F07FFB162000F04CFC7E
:100D24008023DB036B62AB61132000F045FC80235E
:100D34001B036B626B61C046C046C046C046C046DA
:100D4400C0466968490D012401273940AB4804F0C5
:100D5400CDFF6968090D3940A94804F0C7FF6968E7
:100D6400890D3940A74804F0C1FF6968C90C3940AE
:100D7400A54804F0BBFFFFF711FFA44D0121280093
:100D840005F01AFAA24B99461860A249280005F00A
:100D940041FAA14B9B461860A04B98461968002362
:100DA400009302331422280005F06EFA5A461168A3
:100DB40014AA1000FFF7FCFA179A02921100984A3D
:100DC40011400B00A02109030B431793169F0297B0
:100DD400944B1F403B008027FF023B431693159F13
:100DE40002973A00904F3A40A8277F053A4315925C
:100DF4009B009B0880273F063B431693052002F087
:100E0400FBFA04F0B9FC894904F097FC011C14A80E
:100E1400FFF79CFA484601685846026814A8030084
:100E2400280005F083FA484602682B6820009040A9
:100E340083432B604846026853009B18DB007C48C0
:100E4400844663448020400103431F601F604A4678
:100E54001368043322009A40130032002A43924656
:100E640013604A461368083322009A40130052461E
:100E740013604A4613682A6820009840030082439E
:100E840013432B604A4611685A4612681F20834652
:100E940002404B005B18DB006648844663441A60DA
:100EA4000121280005F088F981466349280005F0EE
:100EB400B1F902900023009302331422494628001A
:100EC40005F0E2F904AA1000FFF75EFA02998A1D00
:100ED40005980290594B184003000291C9010B4335
:100EE400120313430593102204A8010010A804F070
:100EF4003BFD139A03921000494A10400300A021BD
:100F040009030B431393129A039293009B083B43E8
:100F14001293119A03921000434A10400300A8212F
:100F240049050B431193052002F066FA04F040F8DA
:100F340000222F4B03F0B1FF04F086F8011C10A827
:100F4400FFF704FA3E4B3343F020000118603D499B
:100F5400092000F06FFC0121092000F05BFC10ABBC
:100F6400029A4946280005F0E1F92B682200484618
:100F74008240110093432B6043001A18D2002C487E
:100F840084466244802040010243176017604A4649
:100F94000432200090400200504602604A46083263
:100FA400200090400200504602602A688A431143A0
:100FB4002960029D5A46154028004B44DB0043E05B
:100FC400FC8D002096966969E0840020CC6F002097
:100FD400D86F0020E46F00209885002000000440B2
:100FE400404B4C0004000440187000201C7000208A
:100FF40080842E413470002050700020B070002096
:10100400C0700020D0700020E47000200000305038
:10101400F48F00204071002024900020F88F0020DD
:10102400FF7FF0FFFFFF0AFEFFFFFFE000780248AA
:10103400D0003050D8003050687100207F00FEFF8F
:101044002C0130507D020020CB4DAC466344186027
:10105400CA4D0121280005F0AFF88146C84928008F
:1010640005F0D8F88246002300930233142249463F
:10107400280005F009F904AA1000FFF785F9524683
:101084000A32059902910B00BE4803405146C9013A
:101094000B43120313430593102204A90CA804F074
:1010A40063FC0F9A02921300B74A1340A02109036C
:1010B4000B430F930E9B02939B009B083B430E93A1
:1010C4000D9B0293B14A1340A82149050B430D938C
:1010D400052002F091F903F06BFF0022AC4B03F002
:1010E400DCFE03F0B1FF011C0CA8FFF72FF9A94B9C
:1010F4003343F02000011860A749072000F09AFB51
:101104000121072000F086FB0CA803005246494643
:10111400280005F00BF92B682100484681408B43D9
:101124002B6043001A18D2009C48844662448020F5
:1011340040010243176017604846021D200090409A
:101144002E43306048460830020020009040306052
:101154002A688A43114329605046594608404B4443
:10116400DB008F498C46634418600121280005F098
:1011740023F8414608608B49280005F04BF88A495A
:101184008946086040460168002300930333142213
:10119400280005F079F84B46196808AB1800FFF7EA
:1011A40007F90B9B0293784A1340A02109030B43D0
:1011B4000B930A9902917D4B19400B008021C902BF
:1011C4000B430A9309990291704A1140B0225205C7
:1011D4000A4309929B009B083B430A93052002F0B3
:1011E4000BF904F0C9FA724904F0A7FA011C08AB20
:1011F4001800FFF7ABF8434619684B461A6808AB6A
:10120400280005F093F843461A682B6821009140A2
:101214008B432B6043461A6853009B18DB005F4ADC
:10122400944663448020400103431F601F6043468B
:101234001B68043322009A40326043461B6808331B
:1012440022009A40326043461A682B689440A343B4
:101254001C432C60434619684B461A685B461A4087
:101264004B005B18DB004E498C4663441A60FFF761
:1012740001F9FFF7DDF84F4C200004F0E3FE0120F4
:1012840001F0ECFA04F06AFE200004F0DBFE23E037
:1012940004F038FD484804F0F9FC484B00221A6079
:1012A400474801F0DBFA9CE4FA21890003F0A8FB2B
:1012B40000902B0048224349200003F021FB424ABE
:1012C400136801331360414B1A682C4B5968083278
:1012D400012393400B4223D03D4B1A683D4B596880
:1012E4000832012393400B42EDD1394B1B689B001C
:1012F400394A94466344DD78EDB2334B1868374974
:1013040003F07EFB01314C013549641801F05AFBAE
:101314000029C9D0FA229200002303F0AFFBC7E7EB
:101324002A4B1B689B002F4A94466344DD78EDB238
:10133400254B1868294903F063FB01314C01284906
:10134400641801F03FFB002910D0FA229200002318
:1013540003F094FB00902B0044221A49200003F070
:10136400CFFA194A136801331360B5E7FA218900EB
:1013740003F046FBEEE7C046D80030500000205092
:10138400807100207F00FEFFFF7FF0FFFFFFFFE082
:1013940080842E412C01205049020020D00020508E
:1013A400D80020501871002020900020FFFF0AFE72
:1013B4000078024801050020B46F0020FC8D002055
:1013C400204E0000F870002060F60020F88F002006
:1013D400F48F002000003050200030501F03000024
:1013E400409000202000205010B58300084A944605
:1013F40063441C6840226240C0241440802252018D
:1014040013431C60C000034B9C466044416010BD04
:1014140004C001400040014080000B4B9C466044E6
:1014240000290DD00823002A0CD00422134302689B
:1014340053400C2213408022520110430360704732
:101444000023F0E70022F1E704C0014070B5040076
:10145400D0231B061D68AA000C4BD358002B0AD0BE
:10146400002803D0AD00094BEC5070BD08490D2095
:1014740000F024FBF6E70028F7D0AD00034BE8505A
:10148400002203490D2000F0FFF9EEE76C8F0020E5
:10149400E1120020072303409B00C00899403C3020
:1014A4008000014BC150704700400140F8B507006F
:1014B4000C0016001D00FFF7EDFFFB089B00ED1864
:1014C4000720384080008440002E04D080239B01F4
:1014D4001D432C60F8BDC0239B011D432C60F9E71C
:1014E40010B5D0231B061B68002B03D0024BFFF75B
:1014F400DDFF10BD014BFAE73041014000410140DE
:1015040070B514001D00FFF7EBFF2800FFF79EFFE6
:10151400002C00D170BD01210D2000F07BF9F9E70A
:10152400F0B5D6464F464646C0B5D0231B061F68C5
:10153400BA001D4BD3589846002F03D01B4B994635
:10154400002623E01A4B9946FAE724090135002CBA
:101554001BD033000833AB4217D90F231A002240A3
:1015640092462342F1D0BB00124A9A580123AB4061
:101574001342EAD151462800FFF78CFF4346002B63
:10158400E3D051462800C047DFE708361D2E06D8B1
:10159400F30808339B004A469C583500D7E7E0BC63
:1015A400BA46B146A846F0BD6C8F002030410140D8
:1015B400004101403890002010B501238340D0221F
:1015C4001206936293610521FFF70EFF10BD10B55B
:1015D4001F21FFF709FF10BD034B1B6802201840B1
:1015E400431E9841C0B2704700C00640EFF310801C
:1015F40072B6034B1B68002BFBD0BFF35F8F7047A1
:101604002C0100D0BFF35F8F024B00221A6080F3DD
:10161400108870472C0100D0CB08C25C0723194006
:10162400012088401040431E9841C0B27047F8B56D
:1016340006000C001500FFF7D9FFE308F718F15C6A
:1016440007222240012393400B4205D1DBB20B4316
:101654003B70FFF7D7FFF8BD2100280002F0A4F883
:10166400F0B583B00600019114001F00FFF7BEFF20
:1016740000E00134BC420CD8E308F518F35C072100
:10168400214001228A401A42F3D1D2B21A432A706D
:1016940001E001246442FFF7B5FF002C02DB2000C7
:1016A40003B0F0BD019B002BF9D0089802F07CF840
:1016B40070B505000C00FFF799FFE308EE18EA5C2B
:1016C40007210C400123A340134204D09A433270F3
:1016D400FFF798FF70BD034B034A2C31034801F018
:1016E400C9FFC046A071002020720020C0710020F4
:1016F400002307E0054A9A189200BFF35F8F002188
:10170400116001331F2BF5D97047C04640000034E7
:10171400054A1078431CDBB21370172B02D913004F
:1017240010221A707047C046E4840020074B9B685F
:10173400103080001950BFF35F8FBFF35F8F044BED
:101744000021196082F310887047C04600ED00E064
:10175400240100D010B5091A081F0A4B9C466144A5
:10176400094A914208D8C30706D440104005400DE9
:10177400064B184380B210BD054B064AA321064808
:1017840001F078FFFC070000FE0F000000E0FFFFFF
:1017940030720020A07400206072002010B5091A75
:1017A40004394C08090B08D14905490D064A11436F
:1017B4000180064B2343438010BD054B054AAB21F2
:1017C400054801F057FFC04600F0FFFF00F8FFFF97
:1017D400BC720020747400206072002001238340D6
:1017E400034A10681840431E9841C0B27047C0466F
:1017F40000E100E0002904D0034B1860034B18609B
:101804007047034B1860FBE780E200E000E100E072
:1018140080E100E010B5012383401800FFF7EAFFE0
:1018240010BD0000024B9B6810308000C058704708
:1018340000ED00E070B504000D00EFF3108672B601
:101844000C4B1B68002BFBD0BFF35F8F2000FFF70E
:10185400E9FF094B984201D0A84205D13200290082
:101864002000FFF763FF70BD044B054A862105483D
:1018740001F000FF240100D0CD010010CC72002043
:10188400D474002060720020F0B5DE4657464E4600
:101894004546E0B589B0814601911500EFF3108A01
:1018A40072B6744B1B68002BFBD0BFF35F8F724B77
:1018B4000027DF57002F40DB7C00E419A4006F48A9
:1018C40024180622A2566C4B1A706D4B9A684B462C
:1018D40010339B00D35898461E001B1A2F2B38D95F
:1018E400684B98452FD105AE674B33807B009B46F0
:1018F400D8198000614B9846404402306349FFF791
:1019040029FF7080624BB380FF23B371F571019B93
:1019140007935F44BF0047440ECE0EC701231C4308
:10192400A046524641464846FFF700FF09B0F0BCC6
:10193400BB46B246A946A046F0BD564B564AD721EF
:10194400564801F097FE564B534ADE21534801F0A6
:1019540091FEC04340440C2103F052F8002912D1F7
:1019640001239E43B34633000026DA79AA4211D9F3
:101974000621595600290CDB4A00521892001E0019
:101984003E4B9B18F1E7474B434AEA21434801F099
:1019940071FE1E00002E3AD005AB434A1A80813AEC
:1019A4005A800623F3560293002B17DA3F4805ABFF
:1019B4009B469880029A9A71DD71019A0792301DB4
:1019C4002100FFF7C7FEB080B7717B00DB199B00D5
:1019D4002A4FFF185B4607CB07C7A2E77800C01958
:1019E4008000264BC0180430321DB388D90A1C2944
:1019F40007D15B055915023149005118FFF7AAFEBA
:101A0400D5E72B4B2B4AB121244801F033FE05AE18
:101A14001D4B33807B000293D8198000174A9046EF
:101A2400020042440392901C1849FFF793FE708011
:101A3400039A101D5946FFF78DFEB0801E4B5A467F
:101A44004146521A524153431B0DB371F571019A29
:101A54000792029B9C466744BF0047440ECE0EC7C4
:101A6400114B5A461380813B538001231C43A046EB
:101A740057E7C046240100D066F60020E884002021
:101A840000ED00E0CD01001000A1FFFF188500204B
:101A940001BDFFFF04730020BC74002060720020AD
:101AA4002C730020547300200148000001BD000085
:101AB400C8730020AC740020AAAA0000F0B5CE467A
:101AC400474680B583B006000D00EFF3108872B668
:101AD400564B1B68002BFBD0BFF35F8F544B9A68A7
:101AE40034001034A300D758524B9F4207D0AF4262
:101AF40000D198E00197504BFB1A2F2B09D942468D
:101B040039003000FFF712FE03B0C0BCB946B0463E
:101B1400F0BD3000FFF762FE814600213000FFF780
:101B240079FEBFF35F8FEFF30581002901D08C426A
:101B340011D10123019C9C430022A368AB4212D023
:101B44000622A256002A0DDB53009B189B0022009C
:101B5400394CE418F1E73621384B394AFF3139481A
:101B640001F088FD2200AB4256D106256557002DB1
:101B740038DB6B005B199A002F4B9B189A68A260A4
:101B8400DA79E27106229A56A2719B795BB2002B34
:101B94000FDA2D48A0806B005B199B00264AD318EE
:101BA4002A4A11789971157049463000FFF732FEC0
:101BB400A5E7201D6B005B199B001F4A9B181A1D8B
:101BC4009B88D90A1C2907D15B055B150233590090
:101BD4005118FFF7BFFDDDE71D4B1E4AB12119481F
:101BE40001F048FD002912D1002A0ED0FF23937181
:101BF400194B9380154A1378A371184B0E49641A34
:101C0400644163431B0D1370CEE70A4FF2E7201DB6
:101C14001349FFF7C3FDC7E76A21124B084AFF3196
:101C2400084801F027FD034F69E7C046240100D0AE
:101C340000ED00E0CD010010E8840020E0730020F6
:101C44008C7400206072002001BD000066F6002044
:101C5400C8730020AC74002001BDFFFFAAAA0000D5
:101C6400228500201474002070B5012101432E4BFD
:101C7400CB1A2F2B28D8EFF30583002B2BD0EFF3AF
:101C8400108C72B6294A1268002AFBD0BFF35F8F0A
:101C9400274A0400244D641B64416243120D54B26C
:101CA400244A92689B00D2588A421BD00022032AFD
:101CB40032D853009B189B001B49CB189B795BB20D
:101CC400A3421FD00132F2E7C7211B4B1B4A490034
:101CD4001B4801F0CFFC92211A4B184AFF311848D7
:101CE40001F0C8FC134A92681749D150174B1A786F
:101CF40082711C70BFF35F8F0C4B00221A608CF34F
:101D0400108870BD0D005300991889006918FF26CA
:101D14008E710F4A8A80E9E7D1210E4B074A4900A8
:101D2400074801F0A7FCC046E8840020240100D045
:101D3400AAAA000000ED00E01C74002058740020E2
:101D44006072002044740020CD01001066F600206B
:101D540001BDFFFF507400200022044B02E004493F
:101D640002C30132072AFAD97047C04600E400E0F2
:101D740080808080024B9C466144890001607047EA
:101D84004000003410B50400FFF7C2FC010020003D
:101D9400FFF7F0FFFF232371BFF35F8F10BD10B572
:101DA4000400FFF7B5FC01002000FFF7E3FFFF2369
:101DB400237100236371BFF35F8F10BD70B50500FD
:101DC4000C00080000F0FEFE0949200000F03EFE71
:101DD400FFF79EFC074B9C466044800068602C75AE
:101DE400D0231B061B786B75A400034BE55070BD14
:101DF400C11E002040000034289000200A4B1A68BD
:101E0400EFF3108172B61368002BFCD0BFF35F8F21
:101E1400054B1B68BFF35F8F00221A6081F31088A3
:101E240040BF00200021704744F6002010B500296F
:101E340022D003681B7B99421ED8174B9C466144F1
:101E4400090183689C4661440C684968002A19D0DA
:101E540003681B7B9A4215D883680F488446624402
:101E640012019A1810685368020001208B4201D8AD
:101E74000ED00020C0B210BD084B094A3C210948CD
:101E840001F0F8FB054B064A3C21064801F0F2FB41
:101E9400A242EFD8EDE7C046FFFFFF0FA476002073
:101EA400247900205076002010B500291ED0037B31
:101EB40099421BD84B005B18033B0468A446634457
:101EC400002919D0002A1DD0914221D0002A25D002
:101ED400047BA24222D804685000801803382018DA
:101EE4008170197800291FD11A7010BD104B114A46
:101EF4006821114801F0BEFB104B114A6F310E48A6
:101F040001F0B8FB0F4B0E4A70210B4801F0B2FBF5
:101F14000D4B0B4A7121084801F0ACFB044B054AF8
:101F24006821054801F0A6FB41701A70DDE7C04640
:101F3400C876002090790020E47600204C770020B9
:101F44006C790020587700206477002070B5060073
:101F54000D001400002914D0002A14D0806873687E
:101F64009847002806D0220029003000FFF79CFF84
:101F7400280007E02A0021003000FFF795FF200029
:101F840000E0100070BD0800FCE70000F0B583B06D
:101F94000500009201930AAB1C780BAB1F78002C50
:101FA40026D003685A7B944207D10123002B19D110
:101FB400002C3BD1200003B0F0BD002C0CD01A7BC8
:101FC400944209D81A6863001B19033BD3189B7801
:101FD400002BEBD00123E9E73E4B3F4A68213F4801
:101FE40001F048FB3E4B3F4A67213F4801F042FB6A
:101FF40003689C7B002CDBD012D01A7B94420FD850
:1020040062001219033A19688C4662445178997334
:10201400002900D1D9730023937053701370C7E75C
:102024002C4B2D4A68212D4801F024FB002C3AD07A
:102034002B681B7B9C4236D82C4BE3181B01AA68E7
:1020440094466344009A1A60019A5A60089A9A6006
:10205400099ADA602E68002C2BD030D0337B9C4256
:102064002DD863001B19033B326894466344002255
:102074009A705A701A70717B22003000FFF766FF65
:102084007073844200D095E7287D009A019B00F08C
:1020940025FD061E01D0002F17D00C9B002B00D16C
:1020A40088E71E7086E7124B124A3C210E4801F065
:1020B400E1FA114B114AA521084801F0DBFA054B5E
:1020C400054A6821054801F0D5FA2868210000F086
:1020D4003DFFE2E7C876002090790020E4760020F6
:1020E4007C7700209C79002050760020FFFFFF0FB2
:1020F400A4760020247900204C76002080790020EA
:10210400F0B5DE4657464E464546E0B58BB00990DD
:10211400002308938200B54BD658370052E0B44BE5
:10212400B44A3F21B44801F0A5FAB44BB44A3C2167
:10213400B44801F09FFA002901D1002869D1002197
:10214400404600F0F9FEA04219D12A686B68069255
:102154000793AB689846EB689A464346002B14D025
:10216400002C18D03B681B7B9C4214D8631EFA6871
:10217400D35C08931B0218433861002015E0A24B7E
:10218400A24A8E219F4801F075FAA14B9F4A9221E1
:102194009C4801F06FFA994B9E4A4121994801F0FD
:1021A40069FA00239A46984600207B68BFF35F8F44
:1021B40000221A6086F310884346002B32D100288F
:1021C40000D10CE100F0FEFB02000B1EA7DB002097
:1021D4000021069007917868EFF3108672B60168C3
:1021E4000029FCD0BFF35F8F396888464C7B002CF4
:1021F400D7D09AD0097B8C4297D8874965182D018E
:10220400B9688C46654428686968801A9941002930
:1022140091DD2A686B68099800F060FC00239A46F7
:102224009846C2E7089B1B0223439946514618006F
:10223400C04705000E007A68EFF3108B72B613687E
:1022440059424B41D9B2002BF9D1BFF35F8F002E15
:102254001EDB002E46DD3B69002B47D04B456DD17C
:1022640000F0B0FB02000B1E6EDB52197341002B11
:1022740070DB002B72DB0021049101310391029485
:1022840051460191414600913800FFF77FFE4CE032
:102294003B69002BDDD04B4514D1069A079B521B9A
:1022A400B341002B14DB002B16DB00210491013118
:1022B4000391029451460191414600913800FFF781
:1022C40065FE32E0554B514AA1214E4801F0D2F946
:1022D40001225242524BE6E7454B464A3F214648CB
:1022E40001F0C8F9002E01D1002DB4D13B68002CB7
:1022F40050D05A7B944237D1012100294AD1DA7B4C
:10230400002A4DD19A7B002A03D1DA7B002A5AD1C4
:102314009C73DC73002C5CD03B681B7B9C4258D8BC
:10232400FA68013C135D0133135500233B617A685D
:10233400BFF35F8F13608BF3108843E7374B334A47
:10234400A421304801F096F9294B2A4A3F212A4812
:1023540001F090F901225242314B8AE7244B254A7D
:102364003F21254801F086F9002C0DD01A7B9442B8
:102374000AD862001219033A1868844662449278B3
:10238400002ABAD00121B8E7264B274A68212748FA
:1023940001F070F9264B274AF621244801F06AF926
:1023A400002A0AD0197B8A4207D851008A18033AB6
:1023B40019688C4662445470A4E71A4B1A4A68217F
:1023C4001A4801F057F91C4B1A4AFB21174801F02F
:1023D40051F90A4B0F4A41210A4801F04BF90BB05D
:1023E400F0BCBB46B246A946A046F0BD28900020EA
:1023F40060750020F07800207C750020A476002011
:102404002479002050760020A47700200879002049
:10241400BC77002048790020FFFFFF0FC877002019
:10242400FFFFFF7FC876002090790020E47600202B
:10243400047800205C7900202878002010B50C4B2B
:102444005B68002B04D00A210A48FFF793FC10BDF7
:10245400074C2300084A1021206800F07DFC03206B
:1024640000F0A4FA03212000FFF7A8FCEBE7C04624
:102474003085002044F60020ED1B002010B5064BEB
:102484005B68002B01D0044810BD044B044A5E2154
:10249400044801F0EFF8C046308500203C78002065
:1024A4003079002050760020F0B5DE4657464E467F
:1024B4004546E0B58BB0804616001F00149B9A4633
:1024C400159B994616AB1B789B461F2302AA94467C
:1024D400634400221A702BE0002809D04246126897
:1024E400127B904204D8421E4146C9688A5C41E08E
:1024F400404B414A4121414801F0BCF807984CE067
:10250400361BAF41002F07DB002F11DA3C4B3D4A4D
:102514003F213D4801F0AEF8012676423B4FF3E7F8
:10252400374B384A3F21384801F0A4F8002F4FDBDD
:1025340043465A68EFF3108472B6136859424B410C
:10254400D9B20791002BF8D1BFF35F8F1F3302AAD2
:102554009446634404930023039302934B460193EC
:102564005346009332003B004046FFF70FFD031E25
:10257400B2D1020041464968BFF35F8F00250D6068
:1025840084F31088002B29D01F2302A98C466344AE
:102594001B78002BB2D112021043002B20D05B46D3
:1025A400002B1DD04946D04704000D0003000B4307
:1025B4001DD00029A4DB00F005FA06000F1EAFDBD6
:1025C40036196F41002FB1DA012676420F4FADE77D
:1025D4000B4B0C4A3F210C4801F04CF801204042BF
:1025E4000BB0F0BCBB46B246A946A046F0BD079866
:1025F400F6E7C046A47600204879002050760020F3
:1026040060750020F07800207C750020FFFFFF7FBC
:10261400F8B50400002900D162E04268EFF31085A8
:1026240072B6136858424341D8B2002BF9D1BFF3B4
:102634005F8FCBB22268567BB3421BD101200028A6
:1026440048D0206988422BD0090AC9B2002B2ED069
:102654002068007B83422AD8581EE668305C884292
:102664002BD000206368BFF35F8F00221A6085F3CC
:102674001088F8BD002B0DD0167BB3420AD85E003B
:10268400F618033E1768BC466644B678002ED6D0CA
:102694000120D4E7134B144A6821144800F0EAFFE0
:1026A4002C21134B134AFF31134800F0E3FF134B63
:1026B400134A4121104800F0DDFF1900100000F01A
:1026C40045FC0028CED199210E4B0A4A49000A48FC
:1026D40000F0D0FF23698B42C4D100232361C1E7FA
:1026E4000020C6E7C876002090790020E476002018
:1026F40060780020D878002050760020A47600204E
:102704004879002084780020F0B587B006000F00D7
:10271400EFF30583002B1FD106246442E517A419A7
:102724007D418D4202D803D1844201D90024002581
:10273400002D14DB0494059500F044F902000B1EEF
:1027440013DBA41A9D41002D17DC14D0300039008E
:1027540000F044F907B0F0BD234801F025F8234BFD
:10276400234A3F21234800F085FF204B204A3F2184
:10277400204800F07FFF002CE8D0FFF77FFE002305
:10278400029301931C4B0093049A059BFFF78CFE64
:10279400002818DADAE7002300E00023002BD5D163
:1027A400164B1A68EFF3108172B61368002BFCD035
:1027B400BFF35F8F114B1B68BFF35F8F00221A605A
:1027C40081F3108820BF0499059A0D4B5B6A9A42E5
:1027D400E3D80B48806A884203D29A42DBD00123B3
:1027E400DCE70123DAE7C046887800206075002022
:1027F400F07800207C750020BD1B002044F60020EA
:102804000040054070B504000D0000F0DBF8020044
:102814000B1E0ADB200029008018594100290ADB1D
:1028240000290CDBFFF770FF70BD084B084A3F21FD
:10283400084800F01FFF012040420749F0E7034B1E
:10284400034A3F21034800F015FFC046607500208D
:10285400F07800207C750020FFFFFF7F10B5FA227E
:1028640092000023002102F041FFFFF7CBFF10BDCF
:1028740070B584B005000C00EFF30583002B1ED166
:10288400FFF7FCFD002302930193224B00932A00DF
:102894002300FFF709FE061E23DD20BFFFF7EEFD30
:1028A4003100FFF7B5FE1C4B5B6A9C422DD81A4AD7
:1028B400926AAA422CD29C4225D0012026E0164BD3
:1028C4005B6A994209D8144A926A824207D29942B1
:1028D40001D001201AE0002018E0002016E00120B9
:1028E40014E00D4B5B6A9C4209D80B4A926AAA42D7
:1028F40007D29C4201D0012008E0002006E000201D
:1029040004E0012002E0002000E0002004B070BDDB
:102914000120FBE7BD1B00200040054070B5EFF32C
:1029240005801038EFF3108C72B61A4B1B68002B1D
:10293400FBD0BFF35F8F01221300834016494B6322
:1029440016490B60164909780C00C440224214D081
:10295400114A546A8200134D5259944206D382009C
:10296400114C125999430E4B197007E00A4A031D82
:102974009B0099589950002200E00022BFF35F8F1A
:10298400044B002119608CF31088002A00D0904772
:1029940070BDC046280100D0004005403C70054091
:1029A40067F6002048F600205C8F002010B5010077
:1029B400024A0348FEF73BFE10BDC046C079002022
:1029C40064F60020044B5B6A034A906A1900536A58
:1029D4009942F9D17047C04600400540084B5B6AF4
:1029E40001E0074B5B6A8B42FBD301E0044B5B6A5B
:1029F4008B4203D1024B9B6A8342F7D37047C04694
:102A04000040054070B504000D00FFF7DBFF020035
:102A14000B0020002900801859418B4202D804D1B0
:102A2400824202D901204042C117002902DBFFF78C
:102A3400D5FF70BD024B034A3F21034800F01AFE44
:102A440060750020847A00207C75002070B5040035
:102A54000D00EFF3108672B61B4B1B68002BFBD0E6
:102A6400BFF35F8F002D1CD02000FEF7DBFE174B59
:102A740083420BD019002000FEF7DCFE0121200068
:102A8400FEF7C8FE0123A340114A1360A400114BB2
:102A9400E550BFF35F8F0C4B00221A6086F3108859
:102AA40070BDA2000B4B0021D1500122A2400A4963
:102AB4000B7893430B7005492000FEF7FFFF0021BC
:102AC4002000FEF7A7FEE4E7280100D0DD26002061
:102AD400386005405C8F002067F60020F0B5DE46C4
:102AE40000B584B00400150001921E000293FFF7A4
:102AF40069FF03958E4202D84ED185424CD9EFF33B
:102B0400108B72B6274B1B68002BFBD0BFF35F8F73
:102B1400254A17780125A540EBB23B431370234B9C
:102B24005D63221D92000199D150A20020490298B0
:102B340050501B6A2B4212D11C4B1B6C2B4208D0E9
:102B44000020BFF35F8F174B00221A608BF31088AD
:102B540023E0184B184AC521184800F08BFDFFF7F5
:102B640031FF8E4214D802D1039B834210D80E4BFE
:102B74001B78BB420ED00D4B1D625D631F200440C9
:102B84000123A3400E4A1360074B1F701E38D8E779
:102B94000020D6E70120D4E7012004B080BCBB4666
:102BA400F0BDC046280100D067F600200040054073
:102BB40048F60020E4790020687A0020087A002092
:102BC40080E200E0EFF3108C72B60B4B1B68002B15
:102BD400FBD0BFF35F8F01238340084A1362084987
:102BE4000A789A430A70BFF35F8F034B00221A607E
:102BF4008CF310887047C046280100D0004005407F
:102C040067F6002010B500291ED0037B99421BD81B
:102C14004B005B18033B0468A4466344002919D0A5
:102C2400002A1DD0914221D0002A25D0047BA24243
:102C340022D804685000801803382018817019784D
:102C440000291FD11A7010BD104B114A6821114878
:102C540000F010FD104B114A6F310E4800F00AFDD0
:102C64000F4B0E4A70210B4800F004FD0D4B0B4A2C
:102C74007121084800F0FEFC044B054A6821054810
:102C840000F0F8FC41701A70DDE7C046C8760020F9
:102C9400A47B0020E47600204C770020907B002069
:102CA400587700206477002070B506000D001400EA
:102CB400002914D0002A14D080687368984700282B
:102CC40006D0220029003000FFF79CFF280007E00F
:102CD4002A0021003000FFF795FF200000E01000DB
:102CE40070BD0800FCE7000010B5002343730133F6
:102CF4008373037BC3730123027B9A4214D9002B91
:102D04000CD0027B934209D85A00D218033A0168C6
:102D14008C4662440133DBB25370EDE70B4B0C4A33
:102D240068210C4800F0A6FC002A09D0924207D87A
:102D3400016853009A18033A8A180023537010BD8F
:102D4400024B034A6821034800F094FCC876002033
:102D5400A47B0020E476002010B5017342608360F8
:102D6400FFF7C2FF10BD000070B50400081E00D1BB
:102D740070BD002934D0237B994231D84B005B18B5
:102D8400033B2268944663445A78002AF0D02DD03D
:102D9400237B9A422AD853009B18033B21688C4614
:102DA40063445D7800215970002825D0237B984224
:102DB40022D843001B18033B21688C46634400213E
:102DC400597001002000FFF76FFF06002900200062
:102DD400FFF7CAFF020031002000FFF765FFC7E7D5
:102DE400084B094A6821094800F044FC054B064A8F
:102DF4006821064800F03EFC024B034A6821034860
:102E040000F038FCC8760020A47B0020E476002083
:102E140070B505000C00160000292FD034D0037BB8
:102E2400994231D84B005B18033B026894466344D3
:102E34005A78002A2ED19A78002A31D11978FFF7CE
:102E440093FF0300002E0AD0EA7B002A2ED1AA7B2E
:102E5400002A03D1EA7B002A3BD1AC73EC73002B2C
:102E64003DD1002C4FD02B7B9C424CD82B68610069
:102E74000C19033C1C190023637070BD254B264AB2
:102E84003821264800F0F6FB254B264A68212648BF
:102E940000F0F0FB254B204A3A21204800F0EAFBE1
:102EA400234B1D4A3B211D4800F0E4FB002A0AD0B5
:102EB400297B8A4207D851008A18033A29688C462C
:102EC40062445470C3E7164B164A6821164800F052
:102ED400D1FB184B104A4221104800F0CBFB002BC9
:102EE4000BD02A7B934208D843001B18033B2A6863
:102EF4009446634400229A70B3E7094B094A682157
:102F0400094800F0B7FB064B064A6821064800F062
:102F1400B1FBC0469C7A00207C7B0020A47A002070
:102F2400C8760020A47B0020E4760020F87A0020F4
:102F3400207B00202878002070B504000A00457B1F
:102F44002900FFF765FF6073280070BD70B50400A9
:102F5400002967D0437B8B420ED0002911D0037B1C
:102F640099420ED84B005B18033B0268D018837853
:102F7400002B0CD1002056E00121FFF7DDFF0120DA
:102F840051E0294B294A6821294800F073FB002BA2
:102F940020D0227B93421DD85A00D318033B2268C9
:102FA400D2182568EB5C8B421AD0002B1BD0227BF5
:102FB400934218D85A00D318033B2268D218537886
:102FC4008B4216D0002BF0D11A4B1B4A6B211B48A5
:102FD40000F050FB144B154A6821154800F04AFBD9
:102FE4004378137007E0104B104A6821104800F032
:102FF40041FB437853700023837043700122200007
:10300400FFF706FF0200617B814205D02000FFF735
:103014004BFE6073012006E0094B074A7121074803
:1030240000F028FB002070BDC8760020A47B00209F
:10303400E476002050740020647B0020A47A0020F1
:10304400447B002070B5046BE30701D4200070BDFD
:1030540002003032C0239B0113430A4A1A60456AB6
:10306400826AAD01AD18AD02062000F0C5F906492B
:1030740001F0C6FC0100280001F0C2FC0021FFF7AA
:10308400C1FCE3E7010300004E0E000070B504002C
:103094000E001500FFF7D6FF22002C32E16A4E40E5
:1030A400354080235B0113431D60206370BD000025
:1030B40070B505000C00062000F09EF9C000210048
:1030C40001F09EFCC60908D00E4B9E4216D87F2301
:1030D400184001303400460800E001246C62AE62FE
:1030E400002200212800FFF7D1FF062000F084F918
:1030F4008000A101891901F083FC70BD0026024CF7
:10310400ECE7C046FEFF0000FFFF000010B50539E4
:103114004901013AD2001143002B09D002220A438B
:10312400012B07D0002111436E22FFF7AFFF10BD22
:103134000022F4E70421F6E710B5002900D010219D
:103144001022FFF7A3FF10BD002909D00A22064B65
:103154009C466044434258414000044BC25270476D
:1031640080225200F3E7C0460080FCBF58F60020DE
:1031740070B505000C00062000F03EF9061E27D0AD
:10318400164B9D4226D08022D203154B1A60154B54
:103194001A60154B9B6811009943FAD1002128004D
:1031A400FFF7D2FF21002800FFF782FF060000236B
:1031B400012208212800FFF7A9FF2A002C328023CE
:1031C4009B01134310221A60084B2B630323AB6447
:1031D400300070BD80221204D7E7C046008003404F
:1031E40000E0004000F0004000C000400103000087
:1031F400F8B5DE4657464E464546E0B505000F0095
:1032040092460A9A934250D31A0E91461E020A9A83
:1032140000233000494601F031FC80466C006419FB
:10322400A400304B9C4664446368834200D26060CF
:103234002B1FDBB29B46012B3DD9C0239B012343AB
:10324400802212011A60AB00274A9958002907D03E
:10325400506901F0D5FB431C5800C0180338FDD257
:1032640053465A0123685A40E0231A4080235B01E5
:1032740023431A605A46012A28D980239B012343F9
:10328400802212011A6043466360424600233000E4
:10329400494601F0F3FBAD00134B58510120F0BC3B
:1032A400BB46B246A946A046F8BD104B104A33218E
:1032B400104800F0DFF9012FBFD1C0239B01234345
:1032C40003221A60A368DB07FCD5C9E721687940AB
:1032D40003220A401A60A2680123BB401342FAD0B9
:1032E400CBE7C046008000407C8F0020B07B0020EC
:1032F400247C0020C47B002030B583B00C2000F077
:1033040011F9FEF769F900280DD0002304E09900B3
:103314002D4A2E4888500133092BF8D92A4B2C4AC0
:103324005A6203B030BD2B4B00229A6700F06CF94F
:10333400294B01221A60274B5B6C012BFBD1274BD5
:1033440003221A60234B9B6B012BFBD101330093A7
:103354000433234A0121234800F054F80523009341
:10336400214A0121214800F04DF8214B009300220D
:1033740002210420FFF73CFF1E4D00952B00002284
:1033840001210520FFF734FF104C00942300002294
:1033940000210720FFF72CFF0094230000220021C6
:1033A4000820FFF725FF0A4B009323000022002189
:1033B4000920FFF71DFF00952B00002200210620A5
:1033C400FFF716FFADE7C0467C8F0020006CDC02DF
:1033D4001BB70000008000403CB0004030B000400B
:1033E400002F685900800240008C864700C00240CC
:1033F400001BB700405973078000014BC058704749
:103404007C8F0020F0B5C64600B504000E001700FE
:103414001D00374801F0F4FA8046364BFA18364B53
:103424009A4239D80100380001F0EAFA0200103A51
:1034340098235B009A4235D86B1E062B38D8069B1E
:10344400013B062B34D83F09474537D32D04069B4F
:103454001A0315432368002B36DB284B9C4244D0C7
:1034640080225201264B1A60264B1A60264B9B6819
:1034740011009943FAD12660A060231DC022920155
:103484001A43212313602368002BFCDAE560082328
:10349400136080BCB846F0BD1C4B1D4A11211D4869
:1034A40000F0E8F81C4B1A4A19211A4800F0E2F817
:1034B4001A4B174A1C21174800F0DCF8184B144A21
:1034C4002321144800F0D6F822683F231340B34266
:1034D400C3D1A3681B051B0D8342BED1E368EE2252
:1034E400D2021340AB42B8D1D3E780229201B9E7AC
:1034F400001BB70080E84BD380F8A93200C002401B
:1035040000E0004000F0004000C00040347C002097
:10351400747D0020947C0020F07C00200C7D002031
:10352400587D002080239B000343014AD3627047E7
:1035340000800540024B1A68024B5A607047C0462F
:103544001C9000200080054010B50200164B80201E
:10355400C0051860154B1648186000290AD0154B91
:10356400E021C9041960002A09D1124B80221206F5
:103574001A6010BD0C4BE021C9041960F3E7530134
:103584009B1A9800801800010B4B186080235B0481
:10359400984202D3084B094A1A60FFF7CBFF054B48
:1035A4008022D2051A60E4E700B0054008200140FB
:1035B400FCFF010000A005401C900020FFFFFF005D
:1035C40010B5030010000C4A8024E4051460002B9D
:1035D4000DD001221343094A094CD461094C5C40C3
:1035E4001462516293620021FFF7AEFF10BD034BDA
:1035F4000022DA61F7E7C04600B0054000800540CC
:10360400D3C007B02D3FF84F064BAA2212011A600F
:103614002F22DA60044B054A1A60024B5B68002BC8
:10362400FBDA7047004002400060024000B0FA003C
:1036340000BEFDE703000A4A1268002A08D0084ABF
:103644001068C318074A9A4206D3054A13607047A4
:10365400034A05491160F2E701204042F7E7C046FA
:10366400F08F00200000042068F6002010B5FFF75A
:10367400DFFF000010B582B00C001900002A0CD046
:10368400084B002A0BD00192009323000200064845
:1036940002F02CFB0120FFF7CBFF044BF1E7034AB8
:1036A400F1E7C046807D0020907D0020147000204A
:1036B40070B52B4B2B4A1A602B4B2C4A1A602C4B9F
:1036C4009A682A4B9343FAD12A4C01E008CC9847D4
:1036D400294B9C42FAD3FFF70FFE234B274A1A606B
:1036E400234B9B68DB43DB01FAD1254B40229A67CD
:1036F4005A671A67DA66234C09E0234B234A872169
:103704002348FFF7B7FF2000FEF73CFB0834214BAA
:103714009C4209D22368002BF5D0012BEDD1200067
:10372400FEF73DFB0834F2E71B4CA1681B4DC02299
:10373400280002F019F9A560EFF30583002B00D0EF
:1037440000BEFDF7D5FFFEF707FBFEF777FE144C2E
:1037540001E008CC9847134B9C42FAD370BDC04695
:1037640000E00040BFCDFBFE00F00040FE7F3C00C7
:1037740000C00040E88D0020F88D0020FFFFFF010D
:1037840000F00140D88D0020C07D0020507E002034
:10379400E07D0020E88D002000ED00E00000002026
:1037A400F88D0020FC8D00200FB400B583B00848CC
:1037B40002F06CFA049B002B07D005A901911800B4
:1037C40002F074FA034802F061FA0120FFF730FFB7
:1037D400407E0020C86D00209A4200D28854704771
:1037E400704710B5002802D00B684968984710BD8F
:1037F4000100002007E083001B185B00501C0860D8
:103804001078C01830380A681378303BDBB2092BC3
:10381400F1D97047F0B5DE4657464E464546E0B509
:1038240083B093461F000C9B9A460D9C0E9B9946B1
:103834000F9B9B0703D0B8460F00060022E00192BD
:10384400A34688464E46B9460700B44207D2551CE3
:103854004B4641462020B84701342A00F5E73D0095
:103864004F465C46019B9B46B1464646B8463700E8
:103874002E0007E0013C551C5346185D43463900B1
:10388400B0472A00002CF5D135003E0047460F9B77
:103894009B0707D4100003B0F0BCBB46B246A94650
:1038A400A046F0BDB0464E46B9462F005D46531BB8
:1038B400B342EFD2541C4B4641462020B847220065
:1038C400F5E7F0B5CE46474680B585B094469846B0
:1038D4000C9D0D9C0EAB1B789946109A119B129E61
:1038E400B7071CD4002B0CD0F7070AD54F46002F7E
:1038F40002D10C37374204D0013B02E030272F5568
:103904000134944201D21F2CF8D9F70707D59C4201
:1039140005D21F2C03D830272F550134F5E7F706BD
:1039240015D5770505D4002C03D0944224D09C42AD
:1039340022D00F9A102A2BD00F9A102A30D00F9A27
:10394400022A35D01F2C02D830222A5501341F2CCC
:1039540005D84A46002A31D02D222A55013403962F
:1039640002930194009543466246FFF753FF05B066
:10397400C0BCB946B046F0BD621E012C06D00F9FF4
:10398400102F01D01400D4E7023CD2E71400D0E792
:10399400B206D1D41F2CCFD878222A550134D1E7CE
:1039A400B206CCD51F2CCAD858222A550134C9E7EF
:1039B4001F2CC7D860322A550134C3E7720703D5D8
:1039C4002B222A550134CAE73207C8D520222A55AA
:1039D4000134C4E7F0B5DE4657464E464546E0B5E9
:1039E40093B081468A46089209931CAB10CB1B788E
:1039F4009B461E9D219B9846002C03D110234246D2
:103A04009A4390468023DB0046461E4042461A42B3
:103A140012D0002C22D000260EE03033D9B2771C0D
:103A24000AAB99552900200000F0EAFFAC4216D3F6
:103A34001F2F14D83E0004002900200000F0E0FFEE
:103A4400CBB2092BE9D94246920605D54121C918C2
:103A5400C9B20A39C9B2E2E76121F8E7270043464F
:103A64000693209B05931F9B049303955B46029347
:103A740001970AAB0093099B089A51464846FFF701
:103A840020FF13B0F0BCBB46B246A946A046F0BD29
:103A9400F0B5DE4657464E464546E0B595B008902B
:103AA40009910A920B931E9E1F9C20AB1B789B4688
:103AB400229B9946239D269B9A463300234303D198
:103AC400103352469A4392468023DB0057461F40E8
:103AD40052461A4219D0330023432DD0002714E054
:103AE4003033DAB27B1C98460CABDA554A462B00CD
:103AF4003000210000F0C2FFA5421FD819D0434670
:103B04001F2B1BD8474606000C004A462B003000EA
:103B1400210000F0B3FFD3B2092BE1D9524692063B
:103B240005D54122D218D2B20A3AD2B2DAE76122DA
:103B3400F8E7B145E3D901E00023984653460693DC
:103B4400259B0593249B04934B4603935B46029366
:103B5400434601930CAB00930B9B0A9A099908986E
:103B6400FFF7AFFE15B0F0BCBB46B246A946A0466F
:103B7400F0BD0000F0B5DE4657464E464546E0B57A
:103B840091B083468A460C9298461A9C08941B9DD1
:103B9400099522002B002000290001F0FAF90028E1
:103BA40000D0E5E001225242D74B2000290001F069
:103BB400EBF9002800D0DBE001225242D34B200075
:103BC400290001F0CBF9002800D0D1E00022002325
:103BD400089E3000099D290001F0C0F9002800D09A
:103BE400DDE008980999069007918023DB001E9A6E
:103BF4001A400D921E9A1A4201D106231C9306986C
:103C0400079904000D000A000600024300D1D1E028
:103C1400080D4005400DBE4CA44660440A03120B37
:103C2400BC4B13431F0001F0C7F9BB4ABB4B01F067
:103C340052F9BB4ABB4B01F027F904000D000022E6
:103C4400B94B3000390001F016F9B84AB84B01F00D
:103C540042F902000B002000290001F015F901F0DF
:103C6400C3F9814601F0A8F904000D00B14AB24B32
:103C740001F031F90022B14B01F006F901F0B4F979
:103C84000600AF4AAF4B2000290001F024F90400DC
:103C94000D00300001F090F9AB4AAC4B01F01BF978
:103CA40002000B002000290001F0E5F804000D00DB
:103CB40002000B0001F00FF90A900B91A44BF318CA
:103CC40000261F0522002B002000290001F0DCF84B
:103CD4000E900F9122002B0000208021C90501F0D5
:103CE400CAF804000D0000229A4B0A980B9901F0BF
:103CF400D4F80022984B01F0C7F802000B000A9890
:103D04000B9901F0CAF80022944B01F0BDF80200AF
:103D14000B000A980B9901F0C0F802000B00200078
:103D2400290001F0B1F802000B000E980F9901F080
:103D3400B4F80022774B01F0A7F832003B0001F001
:103D4400CAF806000F0004000D00069A079B01F054
:103D54001BF9002830D001235B429C46E144002239
:103D64007D4B3000390001F098F804000D0023E089
:103D74001E9B04931D9B03931C9B0293089A099B0F
:103D84000092019343460C9A5146584600F0FCF8C1
:103D940011B0F0BCBB46B246A946A046F0BD002314
:103DA400002406930794069680231B069C466544CC
:103DB40007951AE7002399464B466333C62B1ED852
:103DC40004261E9B1B0526D52B0023430FD0644AD3
:103DD400644B0698079901F0CFF8002879D00022A7
:103DE400614B0698079901F0B9F8002871D01C9B23
:103DF4004B4506DD4A46981A431E1C9303E00526EC
:103E0400DFE700231C938023DB001E9A1A431E92D3
:103E14000026002399461D9B9E4264D29F1B0223C9
:103E24001E9A1A400A921E9A134202D0002E00D003
:103E340000274B46002B07D022002B000698079939
:103E440001F02BF8069007910022002308980999A5
:103E540001F084F8002848D1444B1E9A134004937F
:103E640003971C9B0293069B079C00930194434673
:103E74000C9A5146584600F087F8002E00D187E787
:103E84001E9B9B063DD54525441C434602005146D6
:103E94002800D8474B46DA179B1853400522059251
:103EA400013E0496002203920A3202924A46D00F3F
:103EB400019000934346220051465846FFF78AFD7D
:103EC4000A9B002B00D163E702005F460C9E1D9DF8
:103ED40054E01C9B002B9ED00D9B002B9BD01C9B65
:103EE400013B1C9397E7002799E7069C079D220056
:103EF400290080200006844661440B000692079343
:103F0400AAE76525C0E7C046FFFFEF7FFFFFEFFF8D
:103F140001FCFFFF0000F03FFB799F501344D33FA7
:103F2400B3C8608B288AC63F0000F83F61436F63C3
:103F3400A787D23F71A379094F930A400000E03F5D
:103F44001655B5BBB16B0240EF39FAFE422EE63F7F
:103F5400FF03000000002C40000024400000184033
:103F64002D431CEBE2361A3F80842E41FFF7FFFFFE
:103F7400541C434651462020B8472200931BAB42B1
:103F8400F6D3100004E7C046F0B5DE4657464E4669
:103F94004546E0B595B00690079193469946209F13
:103FA4001E9A1F9B1000190000F0F3FF002831D166
:103FB40001225242BF4B1E981F9900F0CFFF0028E8
:103FC40037D101225242BC4B1E981F9900F0DCFFEE
:103FD40000283DD10022B94B1E981F9900F0D4FF50
:103FE400002850D10022B64B1E981F9900F0B6FF4E
:103FF400002848D1002200231E981F9900F0AEFF2C
:10400400002850D100239846229B5B0500D4B6E0DB
:10401400002458E0229B0393219B029303230193E2
:10402400A84B00934B465A4607990698FFF7F2FBB4
:104034000EE1229B0393219B029304230193A24B41
:1040440000934B465A4607990698FFF7E3FBFFE0B7
:104054000423229A1A4022990B4210D09B4B002A27
:104064000FD0042222990391219902910192009385
:104074004B465A4607990698FFF7CCFBE8E0944B69
:10408400EDE70322EEE7229B0493219B039302971F
:104094001E9B1F9C009301944B465A460799069811
:1040A400FFF768FDD4E01E9A1F9B0020002100F05A
:1040B400E2FE1E901F9101239846A5E70CAB302227
:1040C4001A55013F01341F2C01D8092FF6D81E9828
:1040D4001F9900F089FF050000F06EFF02000B003D
:1040E4001E981F9900F0C7FEFA007A4B9B181A68B5
:1040F4005B680A920B9300F0EEFE0890099100F0C1
:1041040097FF060000F054FF02000B00089809997D
:1041140000F0B1FE0890099100226F4B00F034FFCB
:1041240000282ED00136300000F042FF02000B00C0
:104134000A980B9900F018FF002801D001350026D9
:10414400002F2CD1280000F037FF02000B001E982E
:104154001F9900F090FE06000F0000225E4B00F055
:10416400FDFE002846D100225B4B3000390000F0F0
:104174000BFF00283ED1EB073CD501353AE006277A
:1041840046E70022544B0898099900F0E7FE0028FE
:10419400D6D1002E01D0F307D2D50136D0E7AA46F6
:1041A4001F2C11D8013F0A21300000F029FC651CA6
:1041B40030310CAB19550A21300000F021FC092ED6
:1041C4000ED906002C00EBE755461F2C0CD87B1E9D
:1041D400002F09D00CAA302111551F000134F4E737
:1041E4002B0055461C00F0E71F2C03D80CAB2E22E5
:1041F4001A5501341F2C10D80A21280000F0D8FBCE
:10420400661C30310CAB19550A21280000F0D0FB94
:10421400051E01D03400EDE734000323229A134035
:10422400012B1CD01F2C06D84346002B32D00CABDC
:104234002D221A550134229B0393219B029301944E
:104244000CAB00934B465A4607990698FFF7E2FADF
:1042540015B0F0BCBB46B246A946A046F0BD219BB2
:10426400002B13D04346002B02D10C3313420FD042
:10427400219B013B2193190003E00CAB30221A551A
:1042840001348C42CED21F2CF7D9CBE72199F8E721
:104294002199F6E7229B5B0704D50CAB2B221A5518
:1042A4000134C8E7229B1B07C5D50CAB20221A5545
:1042B4000134C0E7FFFFEFFFFFFFEF7F65CDCD4186
:1042C40065CDCDC16C7E0020707E0020647E002010
:1042D400607E0020588000200000E03FF0B5DE46FC
:1042E40057464E464546E0B593B082468B469046C7
:1042F4001193002900D1EBE200275546119B187851
:10430400002800D1E7E2252809D07C1C43463A0066
:104314005946A847119B013311932700EEE7013357
:1043240011930024119A11780B00203BD8B2102865
:1043340003D88300D048C3589F460B00303BDBB200
:10434400092B2CD92A292FD000230A93119B1A78E0
:104354002E2A39D000239A46119A1378683BD9B291
:10436400122976D88B00C549CB589F4601231C439C
:1043740001321192D6E702231C4301321192D1E794
:1043840004231C4301321192CCE708231C4301325D
:104394001192C7E710231C4301321192C2E711A8FE
:1043A400FFF726FA0A90D1E71C9B1A1D1C92186885
:1043B400002804DB0A90119B01331193C6E7022302
:1043C4001C4343420A93F6E78022D20014435A1C4A
:1043D40011925A781300303BDBB2092B04D92A2AF4
:1043E40007D000239A46B7E711A8FFF701FA8246DF
:1043F400B2E71C9B1A1D1C921868002804DB824635
:10440400119B01331193A7E70020F8E780235B0099
:104414002343511C119152786C2A01D01C0018E0DE
:10442400C0239B001C430131119112E080232343DC
:10443400511C11915278682A01D01C0009E0C02354
:104444001C430131119104E080235B001C430132C1
:104454001192119B18780300253BDAB2532A00D934
:104464002CE29300864AD3589F4680239B001C432A
:1044740001321192EDE780235B001C43013211925B
:10448400E7E7782809D0582838D06F2838D0622830
:1044940038D010239C430A2600E01026582833D035
:1044A400692803D0642801D00C229443630501D504
:1044B4000122944369282AD0642828D0A30500D572
:1044C4009FE0E30500D5B8E0630600D4CAE01C9A77
:1044D400111D1C911168FF220A4005940A9B049344
:1044E40053460393029600230193009243463A00F5
:1044F40059462800FFF76EFA070027E01026CDE79B
:104504000826CBE70226C9E720221443C8E7A305FF
:1045140020D4E30550D4630666D51C9A111D1C9162
:104524001168FF220A40D317D118594005940A9BF9
:104534000493534603930296D20F0192009143468B
:104544003A0059462800FFF745FA0700119B01334A
:104554001193D3E61C9BDA1D07218A43110008310D
:104564001C91116853689C46DB170C930D930C9AAD
:104574000D9B100048400E90624653400F930E98D6
:104584000F990C9A0D9B801A99410E900F910894E3
:104594000A9B0793534606930496002305936346A8
:1045A400DA0F02920090019143463A0059462800DE
:1045B400FFF76EFA0700C9E71C9A111D1C911268D7
:1045C400D317D118594005940A9B04935346039377
:1045D4000296D20F0192009143463A0059462800B0
:1045E400FFF7F8F90700B1E7230605D51C9A111D5A
:1045F4001C910023D25E96E71C9A111D1C9112682F
:1046040091E71C9BDA1D07218A43110008311C9194
:1046140008940A9B07935346069304960023059334
:104624000293136854680093019443463A00594630
:104634002800FFF72DFA070088E71C9A111D1C912A
:1046440005940A9B04935346039302960023019313
:104654001368009343463A0059462800FFF7BAF915
:10466400070073E723060DD51C9A111D1C911268CF
:104674001204120C31E7C046787E0020BC7E002074
:10468400087F00201C9A111D1C91126825E74628FA
:104694001AD01C9B0733072293431A0008321C923A
:1046A40004940A9A0392524602925C681B6800932F
:1046B400019443463A0059462800FFF765FC070079
:1046C400119B0133119319E620231C43E1E767286A
:1046D40001D0472802D180231B011C43452801D067
:1046E400472801D120231C431C9B073307229343F3
:1046F4001A0008321C9204940A9A039252460292B7
:104704005C681B680093019443463A0059462800AC
:10471400FFF730FA0700119B01331193EEE50223F2
:104724001A002240924623421FD001241C9B1A1DCA
:104734001C927A1C9146187843463A005946A84779
:104744005346002B16D1119B013311934F46D5E5E7
:10475400561C434659462020B847230032005C1CAF
:104764009D42F5D83D001700E0E701233A002F00F1
:104774000A9DF4E74A46A9460A9D06E0571C4346AB
:1047840059462020C84734003A00661CA542F5D893
:104794004D469146D7E71C9B1A1D1C921B689946EF
:1047A4005346002B00D1013B4E4601E00136130075
:1047B4003278002A02D05A1E002BF7D14B46F21A47
:1047C40010928023DB0026001E401C4203D0524579
:1047D40001D95346109302231A0022400B9223421C
:1047E40005D03A0037004C46A946554620E03A0029
:1047F400109B5F46B3462E0006E0551C4346390025
:104804002020B04723002A005C1C0A999942F4D85E
:1048140035005E46BB46109437004C46A9465546C3
:1048240006E01D000134561C43465946C847320071
:104834002078002804D0002FF4D06B1E002DF0D176
:1048440017004D460B9B002B03D1119B0133119391
:1048540054E50A9F109B06E0561C43465946202007
:10486400A847230032005C1C9F42F5D81700ECE7F0
:1048740021231C431C9B1A1D1C921B680093059446
:1048840008230493534603931023029300230193B4
:1048940043463A0059462800FFF79CF80700119B4D
:1048A400013311932AE57C1C43463A0059462520DE
:1048B400A847119B0133119327001FE57C1C434635
:1048C4003A005946A847119B01331193270015E577
:1048D4000A4B9A4610E5AA46474502D343465A1E58
:1048E40000E03A00434659460020D047380013B050
:1048F400F0BCBB46B246A946A046F0BDA135002097
:104904000EB410B585B0010007AC08CC03940122A5
:10491400009452420348FFF7E1FC05B010BC08BC08
:1049240003B018479935002000B585B00290039173
:104934000121009313004A4202A90248FFF7CEFC6A
:1049440005B000BDA335002001480421014B1847E0
:10495400608500203947002010B5010018231B880A
:1049640014221088984710BD10B5010018231B8825
:1049740016221088984710BDF0B5C64600B507004A
:104984000E0000250123984600E00135B5420AD205
:10499400AC003C192068FFF7DFFF20600028F4D149
:1049A40000239846F1E7404680BCB846F0BD0000BD
:1049B400124A936F9B0815D29066D166002905D0E0
:1049C400FFE7FFE7FFE7516F106F704704B58021E1
:1049D4000906C2175140002800D0C84301F0B8FDB1
:1049E400002104BDF0B5146E556E576F166FFFF7B6
:1049F400E3FF1466556657671667F0BD000000D0E4
:104A0400114A936F9B0813D210665166002905D092
:104A1400FFE7FFE7FFE7516F106F704704B5002809
:104A240001D00020C04301F093FD002104BDC04625
:104A3400F0B5146E556E576F166FFFF7E5FF1466E9
:104A4400556657671667F0BD000000D094464A4A81
:104A5400926F9208624601D228E0C046F0B5464EF5
:104A6400346E756E776F366F00F020F89446424AC4
:104A740014665566576716676246F0BD94463E4A0B
:104A8400926F9208624601D254E0C046F0B53A4EA5
:104A9400346E756E776F366F00F04CF89446364A74
:104AA40014665566576716676246F0BD002B24DB13
:104AB40011D000293EDA00B5C943404200D101318A
:104AC40000F038F8C943404200D10131DB4352427F
:104AD40000D1013300BD002AEBD1002801D1002907
:104AE40005D00020C90FC90701D1C043410800B552
:104AF40001F02EFD0022002300BD00B500290ADBD1
:104B0400DB43524200D1013300F014F8C943404260
:104B140000D1013100BDC943404200D10131DB4322
:104B2400524200D1013300F005F8DB43524200D178
:104B3400013300BD002923D1002B18D1002A0CD049
:104B4400BC460D4F38667A6600210023FFE7FFE775
:104B5400FFE77A6F386F67467047002801D007482F
:104B6400010000B501F0F4FC0022002300BD0200A6
:104B74000B00002000217047000000D0FFFFFFFF62
:104B8400002B00D0BFE0130C28D1002AE7D080B45A
:104B9400114F39667A66FFE7FFE730B4040C7B6F88
:104BA400396F1B0423433B667A66FFE7FFE7FFE7A1
:104BB400C04684B27B6F3D6F1B0423433B667A6619
:104BC400FFE7FFE7C04600232C042D0C7A6F386FF3
:104BD40000196941B0BC7047000000D0F0B594469C
:104BE4000025140E01D112020835140F01D112014F
:104BF4000435940F01D192000235D40F01D1520033
:104C04000135D40B0134254F7C66254C3C660E0CD3
:104C140093B2FFE7FFE7FFE73C6F6643360C770389
:104C2400BE467343DF0B5B04C01AB941130C7343D4
:104C3400DB18C91ACE086643360CB64493B27343E4
:104C44001F0F1B01C01AB941130C73431F0B1B0523
:104C5400C01AB941860D8F023E436643360C092DB6
:104C640024DB520A7243801A7703460A6643360CE1
:104C740016235B1BDE40DF40BF1964466643821B7C
:104C84007046043506330100D940A840C01900D34A
:104C94000131A24206D20023F0BD0000000000D082
:104CA400FFFFFFFF121B0130F3D3F1E709277F1B3E
:104CB400FE406446A2B27243801A00D20139220C2B
:104CC4007243130C1204821A99410B007046043586
:104CD40013370100F940A840801900D30131002B9B
:104CE40002D1A2420AD2F0BD013000D30131121B1D
:104CF400FAD2013BF8D1A24200D2F0BD013000D378
:104D04000131121BF7E7F0B51C0C00D080E00CB4A5
:104D140000251C0A04D11B02160E33431202083567
:104D24001C0B04D11B01160F3343120104359C0BD9
:104D340004D19B00960F334392000235DC0B02D161
:104D440092185B4101351C00971864410134464FA9
:104D54007C66464C3C660E0CFFE7FFE7FFE7C04667
:104D64003C6F6643360C7703BE4697B27743C01B4D
:104D740000D20139C01B00D201399FB27743C91B4D
:104D8400C91B170C77437E04FF0B801BB941CE0867
:104D94006643360C0C2D33DBB644120B1F053A4325
:104DA4001B0B97B27743C01B00D201399FB27743E4
:104DB400C91B170C77433E043F0C801BB941860D79
:104DC4008F023E43664329277F1BFE400C3D7746F6
:104DD400AF40BF1930BCA2B2ABB272437343801A66
:104DE4009941220C7243130C1204801A9941020057
:104DF4000B000137001BA941F9D2781E0021F0BD38
:104E04000C277F1BFE4077467F0BAF40FF19E0E77E
:104E140000245D1C07D0144F7D663966FFE7FFE769
:104E2400FFE7FFE73C6F95B29EB265436643401BC4
:104E3400B141150C1E0C6543664336042F0C3E43EA
:104E44002D04401BB141994204D202000B00200002
:104E54000021F0BD01D19042F7D3801A9941013469
:104E64009942F2D3F6E70000000000D0FFFFFFFFF5
:104E740048404140484018B41B4B5B68FC460193D2
:104E840008BD04DF234F002018B4174B1B68FC46F1
:104E9400019308BD00DF2D4F00209446134A926F02
:104EA400920809D2624618B40F4BDB68FC460193A2
:104EB40008BD0CDFE55100200C4AF0B5146E556EA8
:104EC400576F166F6246FFF7EEFF084A1466556681
:104ED40057671667F0BD18B4034B9B68FC460193F3
:104EE40008BD08DF8950002040F40020000000D0F5
:104EF400FFB550404240504059404B40594000E0BB
:104F0400FFB5154F4C00640D03D0BC4204D10C0313
:104F140014D80020090D09055C00640D03D0BC42BF
:104F240004D11C030AD800221B0D1B0501264B408B
:104F340009D44B4003D58B4200D18242FFBD994234
:104F4400FCD19042FFBD0B43DB1803431343F5D060
:104F5400C9434918FFBD0000FF07000000B5FFF773
:104F6400CFFF804100BDC04600B5FFF7C9FF01D99E
:104F7400002000BD012000BD00B5FFF7B9FF01D935
:104F8400002000BD012000BD00B5FFF7B1FF804146
:104F940000BD012040054A00121804D85A00121816
:104FA40001D800207047012070470020704700009E
:104FB4000021002805D17047C1174840401AFAD093
:104FC400C90713B5064B1B6898470CBC441CA24088
:104FD4001005120B0349091B09051943114310BDA0
:104FE40040F500201F04000010B54C00620D802322
:104FF400D218DB00D21A5B057E2A10DD9E3A13DA42
:10500400CC170903490819435242D14064000134C2
:105014001532202A05DAD0400843604310BD002031
:1050240010BD0846604310BDC80FC018013810BD3C
:1050340018B4044B5B6AFC46019308BD24DF955306
:105044000020000040F4002018B4044BDB6FFC4641
:10505400019308BD7CDF15540020000040F40020BB
:1050640070B513231C78012C14D0012C14DC022CF1
:1050740002DC1F4A1F4B9A641F48FFF76DFC1F4B4D
:10508400186070BD99001A481A4A885001331F2BC2
:10509400F8D9EAE70023FAE71948FFF765FC0500A9
:1050A4001848FFF761FC023803789B007F2B19DD59
:1050B400802229000F4800F057FC022CD7D1124B54
:1050C4001A88B5231B029A4209D1104B1A88104B37
:1050D4009A4204D10F4B1A880F4B9A42C7D0002032
:1050E400FEF762FB0D4B0E4A32210E48FEF7C2FA60
:1050F400E94E002040F400204C33000040F500202D
:10510400534400005346000054380000D8380000CF
:10511400494600009C38000059460000A880002041
:1051240060810020FC80002007B56046002800D183
:1051340000BE01880A0A0230DF2AFAD1C9B2820805
:1051440004D3028840880004104300E00068024A47
:105154005050039007BD000040F400200FB403BC7E
:105164000CBCF0B50124E407634000E0F0B50C0D7D
:10517400CF0F661E3605891B640503D3C94340421D
:1051840000D30131640D03D0661CF60A07D0E41B7A
:1051940000207F00791C89078912803C24031D0D9F
:1051A400DF0F6E1E36059B1B6D0503D3DB43524296
:1051B40000D301336D0D03D06E1CF60A07D0ED1B2E
:1051C40000227F007B1C9B079B12803D2D032F1B1D
:1051D400661B58D4A446202E46DA20371400BC405F
:1051E4001D00BD40F24033412A4380185941CB0F82
:1051F40005D0C943C0430022644250415141624634
:105204004D0D28D10D0D07D100281FD02419404180
:105214004941013A0D0DF9D0640006D3013000D3A1
:105224000131002C01D140084000013A0BD4941CF8
:10523400E40A04D112051144DB071944F0BDD9076F
:10524400204B194300E0D9070020F0BD0029DDD12F
:10525400002CDBD1F0BD0132C6074008CD0728433E
:105264004908002EE1D0D9E73C2E29DA203E403708
:105274001400BC4000D00124F24014431A00BB4087
:105284001C43D317ACE7AC46202F08DA20360400C1
:10529400B4400D00B540F84039412843A5E73C2F00
:1052A4000CDA203F40360400B44000D00124F8401A
:1052B40004430800B1400C43C117EAE71000190089
:1052C400002494E70000F07FF0B50C0D661E36054F
:1052D400891BE60A6405640D02D0651CED0A04D03E
:1052E400002001210905803C2403A4461C0D671EEF
:1052F4003F05DB1BE70A6405640D02D0651CED0A5B
:1053040004D0002201231B05803C2403774064441D
:1053140097B484B296B27443070C7E43150C6F4362
:1053240080B26843361802D3012000043F183004C9
:10533400350C00197D41844688B29AB250430C0C56
:1053440062431F0C7C438EB27E43921902D3012622
:105354003604A4191604170C3618674101BC81B22F
:105364009AB25143040C62431B0C5C4380B2584311
:10537400121802D30120000424181004130C40183E
:1053840063412D185E410020474106BC88B293B2A8
:1053940058430C0C6343120C544389B251435B18B9
:1053A40002D301210904641819041A0C0918624172
:1053B4006D1856410020474118BCF902720D114383
:1053C400F0026A0D1043ED020A0D03D16D1940413C
:1053D4004941013B124E9B1B7600B3420ED26D0035
:1053E40007D30130002671416646354301D1400898
:1053F40040001B05C918E4072144F0BD0BDA013352
:1054040006D1013004D101314F0D01D04908F2E732
:10541400E1070020F0BD013631050020EBE7000074
:10542400FF030000F0B51C0D671E3F05DB1BE70AF8
:105434006405640D02D0661CF60A04D00022012320
:105444001B05803C2403D0252D060026F6432E663A
:105454001E096E66CE0FF619B44649004F0D02D0F0
:105464007E1CF60A03D000200021403F3F033E1B70
:10547400B600B444013F7F05C91B49082E6F0136AD
:1054840076089C02950D25437543ED137543AD13C2
:1054940001356D10F603761B0CB4CC02450D2C437C
:1054A400A2B2B3B25A43270C7B43350C6F43A4B268
:1054B4006C431B1902D3012424043F191C041D0C42
:1054C400A4187D4124196D41009A91B2ACB2614394
:1054D400170C7C432B0C5F4392B25A43A41802D39B
:1054E40001221204BF182204230C52187B41019C90
:1054F4006C431B19520ED9010A434401A01A81B20C
:10550400B2B2514303145A43360C734387B2774300
:10551400D617D21900277E4136049B191704160C9E
:105524007F185E417316ED18F30100268033754130
:10553400A90F06D16400690AE8055B0A184309D279
:105544002FE00422944480337541A90AA8059B0ADC
:10555400184326D3404149412404009A019B0D007D
:105564005543641B4343E41A95B286B27543170C42
:105574007E43030C5F4392B25A43B61802D301220E
:105584001204BF183204330C52197B4152429C411D
:10559400002C02D40022013051414008CA071043B4
:1055A400490802B06246D7079210084BD218084B3C
:1055B4009A4203D212058918C919F0BD0020002AA5
:1055C40001DC3900F0BD01331905F5E7FD030000E6
:1055D400FE070000002200B5203200F004F80800A5
:1055E40000BD000000220B150AD410B5944600F04B
:1055F4005FF81414013400DA0021CB17144C20474F
:105604000020002170476244343A0CD40C2A07DA93
:1056140004009140904052422032D440214310BDB6
:10562400D843D94310BD203207D40C46944052428B
:1056340020321141D040204310BD0800C917203248
:1056440003D452422032104110BD1800190010BD7D
:10565400C75300204A00520D144BD21A13DDFF2AFF
:105664001EDAD205CB0FDB071A43C300400F090330
:10567400490A084310435B0001D301D0013070474D
:105684004308FBD2704702D0C80FC00770470A0313
:1056940012130132F8D1420F072AF5D1012200E09A
:1056A400FF22C80F00028018C00570478003000065
:1056B4000A0DCC0F531E1B05C91A520503D3C94347
:1056C400404200D30131520D03D0531CDB0A07D0F2
:1056D400121B00206400611C89078912803A12039E
:1056E400014BD21A70470000FF03000051434343AB
:1056F400C9188C46110C83B24B4310B4040C61439B
:1057040092B280B2504362431C041B0C001910BCBB
:1057140059411304120CC0185141614470470000F0
:1057240048404140484000239C46114B5B68184761
:1057340000239C460E4B1B6818470E4A936F9B0828
:1057440004D200239C460A4BDB681847F0B5146E5C
:10575400556E576F166FFFF7F4FF064A14665566C9
:1057640057671667F0BD00239C46014B9B6818479A
:1057740044F50020000000D0491A002808D108464A
:1057840070470000C10FC90700D54042002817D058
:10579400F44603B40B4B1B68984706BC81409E3803
:1057A4004042803107D20B0607D04900490AC005A0
:1057B4001043084360470130F8E7490A8902F5E7D6
:1057C4007047000040F5002000239C46014B5B6AB3
:1057D4001847000044F50020034BDB6FFC461847D4
:1057E4007CDFDD560020000044F5002070B5132353
:1057F4001D782A48FFF7B8F80400012D11D0012DB7
:1058040009DDA31E1B789B007F2B40DD8022210035
:10581400234800F0A9F82348FFF79EF8224B1860AC
:1058240070BD542201001E4800F09EF81F4B1A88D8
:105834001F4B9A421CD1A7239B011A881D4B9A42E5
:1058440016D11D4B1A881D4B9A4211D11C4B1A8834
:1058540094239B019A420BD11A4B1A881A4B9A42F1
:1058640006D11A4B1A681A4B9A4201D1152307E044
:105874001848FDF799FF99001748094A88500133E1
:105884001F2BF8D9144A064B1A62DA61B7E7134B97
:10589400134A42211348FDF7EDFEC046534600006B
:1058A40044F500204C33000040F50020EE290000B0
:1058B400C40F0000C20D0000962B0000C0B500000C
:1058C400182B0000CC2A000010B50000FC2C0000AE
:1058D40051ED876414700020A956002074810020C3
:1058E4000C820020A881002007B56046002800D162
:1058F40000BE01880A0A0230DF2AFAD1C9B282083E
:1059040004D3028840880004104300E00068024A7F
:105914005050039007BD000044F50020C30FDB077F
:1059240041000A0E07D0FF2A08D00909054A891840
:105934001943400770471900002070470249C918ED
:10594400FAE70000000000380000F07F014804215D
:10595400014B18477085002039470020014B1B6814
:105964001847000070850020014B5B681847000051
:105974007085002010B50300080011001B689847CB
:1059840010BD0000F8B507000D001600437D002B84
:1059940002D0002400200CE003681100280098477E
:1059A4002DE03B7D10E0022115483B689847601CC0
:1059B4000134B44214DA002CF3DD2B19013B1B78BB
:1059C4000D3B5A425341DBB22A5D0A2AF0D1002B27
:1059D400EED1A042E7DA211A28183B689847E2E79B
:1059E400B04203DA311A28183B689847002E06DDC6
:1059F400AD19013D2B780D3B5A4253413B75F8BD1F
:105A0400F882002070B505000368002B16D00C4BFB
:105A14001C6805E0290004C92000FFF7B3FF2469CE
:105A2400002C09D02368002BF9D0064B1B68002BEF
:105A3400F0D0A342F3D1EDE700232B6070BDC04644
:105A4400E48F0020EC8F002070B505000C000B687B
:105A5400802B05D021684B1C23606418257170BD10
:105A64000800FFF7CFFFF5E7F0B583B007000E009D
:105A74000092019328E0A368002B04D03100380081
:105A84009847002827DC2469002C06D0134B1D6896
:105A9400002DF0D0A542F6D1EDE70099019A104B04
:105AA4005B6A9A4209D80E48806A88420FD29A42A9
:105AB40001D0012302E0002300E00023002B08D1E1
:105AC40001200021FCF79EFF064B1C68DCE7012344
