:020000041000EA
:1000000000B5324B212058609868022188439860DF
:10001000D860186158612E4B002199600221596106
:100020000121F02299502B49196001219960352056
:1000300000F044F80222904214D00621196600F024
:1000400034F8196E01211966002018661A6600F04E
:100050002CF8196E196E196E052000F02FF8012189
:100060000842F9D1002199601B49196000215960AB
:100070001A491B48016001219960EB211966A021F2
:10008000196600F012F800219960164914480160C1
:100090000121996001BC002800D000471248134993
:1000A000086003C880F30888084703B5996A0420EC
:1000B0000142FBD001200142F8D103BD02B5186610
:1000C0001866FFF7F2FF186E186E02BD00000240BE
:1000D000000000180000070000035F00212200005C
:1000E000F4000018222000A00001001008ED00E03C
:1000F00000000000000000000000000074B24E7A12
:1001000000200420F7010010CB010010154800204A
:10011000C9010010C9010010C9010010C901001077
:10012000C9010010C9010010C9010010CF01001061
:10013000C9010010C9010010D1010010D301001045
:10014000C1010010C1010010C1010010C101001067
:10015000C1010010C1010010C1010010C101001057
:10016000C1010010C1010010C1010010C101001047
:10017000C1010010C1010010C1010010C101001037
:10018000C1010010C1010010C1010010C101001027
:10019000C1010010C1010010C1010010C101001017
:1001A000C1010010C1010010C1010010C101001007
:1001B000C1010010C1010010C1010010C1010010F7
:1001C000EFF30580103800BE00BE00BE00BE00BECA
:1001D00000BE00BEF2EB88718C020010BC02001061
:1001E0003802001090A31AE700202149086006C8D1
:1001F00081F3088810471F480068002801D00020BC
:10020000F3E70DA40ECC002902D000F012F8F9E7B4
:1002100019491A4A002000E001C19142FCD1184955
:100220008847184988471849884700BEFDE701C933
:1002300001C29A42FBD37047BC020010F4000020B8
:10024000B0A4002078A60010B0A4002008D600209A
:10025000D0D700100000042000000420D0D70010E8
:10026000001004200010042000000000704700006F
:1002700008ED00E0000000D008D60020606D0120ED
:0C028000698E0020314800202B8E0020E9
:10028C0064CD002070CD00207CCD002088CD0020D6
:10029C0094CD0020A0CD0020ACCD0020B8CD002006
:1002AC00C4CD002038CE002030CE002024CE00203B
:1002BC0070B50500081CEC21890507F009FC061C2B
:1002CC0007F052FC84B2002C12D0200007F024FC62
:1002DC00011C301C07F0F7FB8721C90507F013FC44
:1002EC0007F042FCC3B21B0224041C432C6070BDFB
:1002FC002300F8E710B504001022002107F0FEFCE3
:10030C0080235B022360F8235B0263608023DB02A3
:10031C00A360C0231B03A360200010BD10B5002AEE
:10032C001BD0202300291AD0102423433034A44698
:10033C00644623438363002905D0436B38210B406B
:10034C00084941180B60002A06D0436B0722134062
:10035C00044A94466044036010BD1300E2E78C46E7
:10036C00E6E7C0463410000082B000226B46D91D6F
:10037C0006E08369DB06FCD403680B7001320131A3
:10038C00002AF6D06B46D87902B0704770B50400DD
:10039C000D00FFF7AFFF2A000A32636804490B40D7
:1003AC00ED012B43120313436360200070BDC04664
:1003BC007F00FEFF70B504000D00FFF79BFF2A00C5
:1003CC000E32636804490B40ED012B4312031343B7
:1003DC006360200070BDC0467F00FEFF70B5040056
:1003EC000D00FFF787FFAA1D636804490B40ED0160
:1003FC002B43120313436360200070BD7F00FEFF8C
:10040C0010B5140093009B185B019B1A5A019B18A2
:10041C009B001B1B5A01D31A1A02D21A1201121971
:10042C000A4B9C466244002A0DD0002408E053037A
:10043C005A40530C53405A015A40130E0355013481
:10044C008C42F4D310BD014AEFE7C046B979379E10
:10045C00054B1B6BDB0705D5034B9B699B06FBD43C
:10046C00014B18607047C0460080034010B5040073
:10047C0002E00134FFF7ECFF20780028F9D110BD21
:10048C0070B505000848FFF7F1FF1C2408E02A00AE
:10049C00E2400F231340054AD05CFFF7D9FF043C20
:1004AC00002CF4DA70BDC04694A90020BCCA002010
:1004BC0010B50C00FFF7DAFF2000FFF7E1FF024850
:1004CC00FFF7D4FF10BDC046F4BB00200148FF234A
:1004DC0098437047CFD8001088204005704710B55E
:1004EC00FFF7FAFF0400FFF7F1FF201A10BD000020
:1004FC0082B0EFF3108172B6144B1A6880239B0103
:10050C005340C02292011340114A136000230193FF
:10051C0002E0019B01330193019AFA239B009A425A
:10052C00F7DBD0231B069B68022018408007C00F06
:10053C0001235840C0B2054B1B68C02292011340E6
:10054C00034A136081F3108802B070470C8001409D
:10055C000C90014070B503000D00160000240EE055
:10056C00285D584001090F231840074A8000805825
:10057C00414008090B409B009B5843400134B44256
:10058C00EED3180070BDC04670CA002010B50A002A
:10059C00012301005842FFF7DDFFC04310BD10B529
:1005AC0080235B059C466044FFF7F0FF10BD000004
:1005BC000348FF239843F0231B069C466044704776
:1005CC00CFD8001010B504000268074B9A4208D12E
:1005DC002421FFF7DBFF636AC01A43425841C0B2C3
:1005EC0010BD0020FCE7C0464F4B4B490300007880
:1005FC005A78120210439A7812041043DB781B06C7
:10060C001843704701700B0A43700B0C8370090E72
:10061C00C17070470022FF2A06D8835C013BDBB215
:10062C00FD2B03D90132F6E7012000E000207047D2
:10063C00044B9B691B07FBD4034B9B691B07FBD427
:10064C007047C0460040034000800340024B9B6C47
:10065C005B09072018407047008000400B490A686E
:10066C003F2313400A4A13608B681B051B0D094A74
:10067C001360CB681B0C0722134007480360CB6840
:10068C001B0B1A40054B1A607047C04600C0024055
:10069C0034DB002028DB00202CDB002030DB0020AA
:1006AC004379032B01D000207047427B034B1B780E
:1006BC009A4201D00020F7E70120F5E74B6D0120AD
:1006CC00F8B504000F0015000C49042207F01CFBC0
:1006DC00261D29003000FFF795FF20000830EA198D
:1006EC003021FFF78DFE34213000FFF74FFF010062
:1006FC0020003830FFF786FFF8BDC04698A90020CF
:10070C00F0B5C64600B58468002C30D0456B002D82
:10071C0031D00369002B30D1036B1E1E2FD1C36A5D
:10072C009C4222D9E31A9846C3689D4201D9EB1A20
:10073C001E00FA218900200006F032FB0700FA2186
:10074C008900280006F02CFB0F4B9C4201D8032398
:10075C001F000D4B9D4200D803204346BB4210D8CE
:10076C000023B0425B41D8B202E0B046DCE7002087
:10077C0080BCB846F0BD0020FAE70020F8E7002066
:10078C00F6E70020F4E7C046B70B000010B53C2399
:10079C00C35C012B18D08368002B18D00269002A87
:1007AC0017D14269002A16D1428D1F2A15D8C2686A
:1007BC009C1AFA218900180006F0F2FA03000020B6
:1007CC00A3424041C0B203E0FFF79AFF00E00020D3
:1007DC0010BD0020FCE70020FAE70020F8E730B558
:1007EC003C23CA5CC254C36ACA6A9B18C362036BBB
:1007FC000A6B9B180363436B4A6B9B1843630B6830
:10080C0003604B6843604B6A43623823CA5CC25432
:10081C000133CA5CC2540133CA5CC2540133CA5C92
:10082C00C25483688A689B188360C368CA689B1823
:10083C00C36003690A699B18036143694A699B1881
:10084C004361036A0A6A9B1803628269C3698C69F3
:10085C00CD6912196B418261C3610B8D028D93427C
:10086C0000D203854B8D428D934200D9438530BD18
:10087C00044B1B78043BDBB2002001229A4240411E
:10088C00C0B27047476D0120064B1968064B1B68B8
:10089C001F221A404B005B18DB0004498C46634452
:1008AC001A60704790F20020DCF20020D800205033
:1008BC00064B1968064B1B681F221A404B005B182D
:1008CC00DB0004498C4663441A6070478CF20020AC
:1008DC00E0F20020D800305010B5D0231B06802247
:1008EC00D2035A61D0231B065B685B02FAD5FFF773
:1008FC00CBFF10BD10B5D0231B068022D2039A610A
:10090C00FFF7C2FF10BD000010B50B4B1B6BDB07D4
:10091C0004D4094B1B6B9B0706D410BD064B01225C
:10092C001A63FFF7D9FFF8E7034B02221A63FFF7AC
:10093C00E1FFFFF7BDFFF0E70000205010B50A4BB8
:10094C001B6BDB0707D4084B1B6B9B0702D5064BB5
:10095C0002221A6310BD044B01221A63FFF7CAFF6F
:10096C00FFF7A6FFF6E7C0460000305010B50E208A
:10097C0004F0B7FCD0231B068022D2015A629A6184
:10098C0010BD000010B51C2800D010BD04F0A9FC4F
:10099C0080235B05D0242406A3620E2004F0A1FC66
:1009AC008023DB01A3620F2004F09BFC80231B023D
:1009BC00A362064B064A1A60064808F08CFC00221B
:1009CC000021002006F044F8DFE7C046F0000020CC
:1009DC0096966969A0A90020F8B507001A2004F0C2
:1009EC0080FCD0231B068022D2045A62C82005F05A
:1009FC000BFC00240CE0D0252D068026F6046E613D
:100A0C00C82005F001FCAE61C82005F0FDFB0134E7
:100A1C00BC42F0DBD0231B068022D2049A62F8BDC4
:100A2C00F0B5C64600B588B00600140098460EAB6B
:100A3C001D781368526A1A4800920A00310008F0B7
:100A4C0079FC3823E15C00291ED1A168E268236996
:100A5C00206A84466669278D648D404601281BD028
:100A6C001048002D1AD0104D0695059020250495A0
:100A7C00039402970196604600900C4808F05AFCCB
:100A8C0008B080BCB846F0BD0133E25C0133E35CD6
:100A9C00074808F04FFCD8E70648E2E7064DE3E7C5
:100AAC0000AA0020E4A90020F0A9002040AA002000
:100ABC0024AA0020DCA90020F8A9002030B583B0BE
:100ACC00134B1A68134B9A4201D003B030BD104C33
:100ADC00A16AE26A012319400F4808F02BFC6168F7
:100AEC00A268E368206984460C486546009508F0C6
:100AFC0021FC6169A269E369206A8446606A0190FD
:100B0C0060460090064808F015FC00232360DCE7E3
:100B1C00C0000020DC7E01FA9CAA0020E8AA00207C
:100B2C0014AB002070B5FFF7D1FC0500FFF7D4FC27
:100B3C000400FFF7D4FC030002482200290008F04F
:100B4C00F9FB70BD48AB002010B503002D4A1268AC
:100B5C00824206D02C490A68501C08602B498A42F4
:100B6C0007D82B490A68501C08602A498A4225D8A4
:100B7C0010BD274A00211160234A1160214A1360DD
:100B8C00254A126825492648040008F0A7F92000D8
:100B9C0009F090FB431C9C460021220008E0214BED
:100BAC009B699B06FBD410781E4B186001310132F7
:100BBC008C45F4D81A4808F08EFBD9E7144A00216A
:100BCC001160114A1160144A126814491448040047
:100BDC0008F084F9200009F06DFB431C9C460021B1
:100BEC00220008E00F4B9B699B06FBD410780D4B41
:100BFC001860013101328C45F4D8094808F06BFBC0
:100C0C00B6E7C04694F2002084F20020002D31019A
:100C1C00CCCE0020804A5D05ECCE0020A8AB002095
:100C2C0098F200200040034010B5040004F059FB7A
:100C3C000123A340D022120693620022002120003F
:100C4C0004F0CEFA10BD000010B51B4B012204219C
:100C5C001C2004F02BFB194C1949200005F0A2FCB8
:100C6C000221102004F0A2FA0221112004F09EFAB5
:100C7C00236BC02212021340124A1360002301227C
:100C8C000821200005F05CFC0021200005F06EFC22
:100C9C00002200212000FFF741FB0F2004F021FB74
:100CAC00D0231B06802212029A62002201210F20FF
:100CBC0004F096FA10BDC046C9070020004003405E
:100CCC00802401003050034070B5050005F0A0FBF6
:100CDC002A0000238018594104000D00D0231B0664
:100CEC005B681B0408D405F093FBA94202D8F5D12C
:100CFC00A042F3D9002000E0012070BD70B50A00BD
:100D0C00C046C046C046C046C046C046D024240695
:100D1C008025AD01A561C046C046C046C046C04650
:100D2C00C046C046C046C046C046C046C046C04687
:100D3C00C046C046C046C046C046C046C046C04677
:100D4C00C046C046C046C046C046C046C046C04667
:100D5C00C046C046C046C046C046C046C046C04657
:100D6C00C046C046C046C046C046C046C046C04647
:100D7C00C046C046C046C046C046C046C046C04637
:100D8C00C046C046C046C046C046C046C046C04627
:100D9C00C046C046C046C046C046C046C046C04617
:100DAC00C046C046C046C046C046C046C046C04607
:100DBC00C046C046C046C046C046C046C046C046F7
:100DCC00C046C046C046C046C0460100324809F085
:100DDC0013FDC046C046C046C046C046C046C046CD
:100DEC00C046C046C046C046C046C046C046C046C7
:100DFC00C046C046C046C046C046C046C046C046B7
:100E0C00C046C046C046C046C046C046C046C046A6
:100E1C00C046C046C046C046C046C046C046C04696
:100E2C00C046C046C046C046C046C046C046C04686
:100E3C00C046C046C046C046C046C046C046C04676
:100E4C00C046C046C046C046C046C046C046C04666
:100E5C00C046C046C046C046C046C046C046C04656
:100E6C00C046C046C046C046C046C046C046C04646
:100E7C00C046C046C046C046C046C046C046C04636
:100E8C00C046C046C0466561C046C046C046C04666
:100E9C00C046C04670BDC0460000044070B504009A
:100EAC0008000D000C22002106F028FF0C23002B5B
:100EBC0009DB064A99008A58A24201D9013BF6E7A0
:100ECC002A60012000E0002070BDC04644CB002009
:100EDC0070B506000D00154C802252000021200038
:100EEC0006F00CFF124B236003232371667107235A
:100EFC00A37125722B0A63722B0CA3722D0EE57253
:100F0C000C4B1B6823731A0A62731A0CA2731B0E08
:100F1C00E3731034084B220023CB23C213CB13C230
:100F2C00198811809B78937070BDC046146B01209A
:100F3C004F4B484308680120C4AB002010B5040097
:100F4C0000210320FFF7C4FF034BDC71034A117827
:100F5C004F22995410BDC046146B01204B6D0120DB
:100F6C0010B52822014906F0CFFE10BD000030104C
:100F7C0010B58EB004A8FFF7F3FF80238022184829
:100F8C001849029118490191C021890300919B03D2
:100F9C005203002108F0CEF9FFF70AFB0100134BB6
:100FAC00180008F0C7F9124B1B68092B00D9002355
:100FBC00104A9B009958104808F0BCF904A8FFF798
:100FCC0001FB002801D10EB010BD0599069A099BB2
:100FDC000B98844609486446009408F0ABF9F2E794
:100FEC00E0AB0020001060000010300038AC002096
:100FFC00E4F2002048CA002054AC00206CAC002065
:10100C0070B500210320FFF763FF174B174A1178C7
:10101C004F229954002424E0B0256543144BED185D
:10102C00124B1A78120323011B1B59015B181B016D
:10103C001B1BD2180132B0212800FFF7E1F90D4B30
:10104C00B02229001D00180006F05EFE2900403970
:10105C000120D0224042FFF77DFA074BA2009850A6
:10106C000134072CD8D970BD146B01204B6D0120B5
:10107C003CDB0020646B0120BCE0002070B5114B00
:10108C001E680725354001361E60B02169430E4BA2
:10109C00C9180E4CB022200006F036FE200048384D
:1010AC003100FFF7AFFA21004C39094BAD00E8587D
:1010BC000822FFF74FFAC14320004438FFF7A2FA89
:1010CC0070BDC04638DB00203CDB0020646B012087
:1010DC00BCE0002070B51300C046C046C046C046F8
:1010EC00C046C046D02424068025AD01A561C0466B
:1010FC00C046C046C046C046C046C046C046C046B4
:10110C00C046C046C046C046C046C046C046C046A3
:10111C00C046C046C046C046C046C046C046C04693
:10112C00C046C046C046C046C046C046C046C04683
:10113C00C046C046C046C046C046C046C046C04673
:10114C00C046C046C046C046C046C046C046C04663
:10115C00C046C046C046C046C046C046C046C04653
:10116C00C046C046C046C046C046C046C046C04643
:10117C00C046C046C046C046C046C046C046C04633
:10118C00C046C046C046C046C046C046C046C04623
:10119C00C046C046C046C046C046C046C046C04613
:1011AC00C0460A000100324809F004FBC046C046A4
:1011BC00C046C046C046C046C046C046C046C046F3
:1011CC00C046C046C046C046C046C046C046C046E3
:1011DC00C046C046C046C046C046C046C046C046D3
:1011EC00C046C046C046C046C046C046C046C046C3
:1011FC00C046C046C046C046C046C046C046C046B3
:10120C00C046C046C046C046C046C046C046C046A2
:10121C00C046C046C046C046C046C046C046C04692
:10122C00C046C046C046C046C046C046C046C04682
:10123C00C046C046C046C046C046C046C046C04672
:10124C00C046C046C046C046C046C046C046C04662
:10125C00C046C046C046C046C046C046C046C04652
:10126C006561C046C046C046C046C046C04670BD5B
:10127C000000044070B504000D001600D0231B06BE
:10128C008020C0015861FA20C000FFF71DFD002826
:10129C000AD0D0231B068022D2019A613200290089
:1012AC002000FFF717FF70BDD0231B068022D20150
:1012BC009A610138F7E7000070B50600002400E0E1
:1012CC000134202C0CD8351907490422280008F0C9
:1012DC0053FF0028F4D1231DF35C032BF0D100E065
:1012EC000025280070BDC04678CB002070B50021C9
:1012FC000120FFF7EDFD7B4C80256D002A000021BD
:10130C00200006F0FBFC78482A002100FFF7B2FF12
:10131C00002800DAA3E07348FFF7CEFF041E00D1CB
:10132C00A9E0704BC31A714A1360714A1268934258
:10133C0001D26F4A13606F4A1268934201D96D4A09
:10134C0013606379013BDBB2012B00D9AFE0A279CA
:10135C00694B1A70E579AB07DB0F684A13706B07A2
:10136C00DB0F674A1370EB06DB0F664A1370200025
:10137C000C30FFF73BF9644B186020001030FFF77E
:10138C0035F9624B186001232B40614A1370200021
:10139C000830FFF72BF95F4B1860A27E5E4B1A707A
:1013AC00E27E5E4B1A70237F627F120213435C4A0B
:1013BC001380A37FE27F120213435A4A1380202327
:1013CC00E25C594B1A7020002430FFF70FF9574B91
:1013DC0018602823E25C564B1A702923E25C554BAB
:1013EC001A702A23E25C544B1A703C23E35C3D22B6
:1013FC00A25C12021343514A13802D07ED0F504B80
:10140C001D702B23E25C4F4B1A702C23E25C4E4B6D
:10141C001A702D23E25C4D4B1A702E23E25C4C4B60
:10142C001A702F23E25C4B4B1A7020003030FFF700
:10143C00DDF8494B186020003430FFF7D7F8474BE4
:10144C00186020003830FFF7D1F8454B1860454B39
:10145C0001221A70444A13680133136070BD414B6A
:10146C0000221A70414A136801331360404A136812
:10147C0001331360F2E73B4B00221A703B4A1368AE
:10148C00013313603B4A1368013313603A4B154820
:10149C00010034C934C31A000B681360FF23C25C0B
:1014AC00364B1A70FFF7B6F8354B1870D6E72D4B44
:1014BC00002119702D4A1368013313602D4A1368EB
:1014CC00013313602C4B074A140061CC61C3180024
:1014DC0023680360FF23D25C284B1A70284B1970C9
:1014EC00BCE7C046146A0120146B01203CF20020BA
:1014FC00D0CE002040F200204D6D0120526D012015
:10150C00516D0120536D012070F200206CF200200F
:10151C00466D012034F200204B6D0120496D0120F5
:10152C003E6D01203C6D0120476D012038F20020FA
:10153C004C6D01204A6D0120486D0120406D012049
:10154C00546D0120586D0120576D0120556D0120FF
:10155C00566D0120596D01207CF2002078F200209C
:10156C0074F20020506D012060F200205CF200202B
:10157C0068F2002054F2002044F200204F6D01204C
:10158C004E6D012070B500210120FFF7A1FC0E4B20
:10159C0080246400220000211D00180006F0AEFB20
:1015AC000A4822002900FFF765FE002808DB0648E0
:1015BC00FFF782FE002802D04379042B02D170BDC4
:1015CC000020FCE70020FAE7146A0120146B0120CC
:1015DC00F0B583B0060000910192002500E00135C2
:1015EC00172D32DC31000220FFF772FC184C8027DB
:1015FC007F003A000021200006F080FB15483A00DD
:10160C002100FFF737FE0028E9DB1148FFF754FEF5
:10161C00041EE4D04379022BE1D11430FEF7E6FF2F
:10162C00B042DCD1277E637E1B021F437B1E9BB224
:10163C007F2BD4D8210060313A00009806F064FB6F
:10164C00019B1F80012003B0F0BD0020FBE7C046CA
:10165C00146A0120146B0120F0B5CE46474680B5C4
:10166C0083B017001E000B78032B19D8354AD25CB7
:10167C00824210D00A9B1B6A01330A9A13620B78C0
:10168C00002B35D000230B704F2831D101330B7058
:10169C002D4B18702CE05A1C0A702B4AD05427E0A2
:1016AC005A1C0A70284AD0540B783B2B20D90023A3
:1016BC000B70264B1C001800FEF798FF019034218C
:1016CC002000FEF763FF0500230034331800FEF7FB
:1016DC008DFF80462B1A5A425341DBB29946854204
:1016EC000BD0454527D00A9B1B6901330A9A13611D
:1016FC0003B0C0BCB946B046F0BD3A00019B9C4655
:10170C006244134B30211C001800FEF779FE11497E
:10171C003022200008F030FD0028E2D0002399464A
:10172C004B46002BDFD0019A32600A9BDB680133F9
:10173C000A9AD360DCE73368019A9342F0D3002B0A
:10174C00D1D1EDE740CB0020C06C0120C46C01204E
:10175C008C6C0120C86C012010B51A2003F0C1FD5F
:10176C00D0231B068022D2045A62002408E0D02326
:10177C001B068022D2049A61FA2004F045FD013444
:10178C000B2C09DC05F00AF9E307F0D5D0231B0676
:10179C008022D2045A61EFE7D0231B068022D204A8
:1017AC009A619A6210BD000070B5002600E0013607
:1017BC00072E22DC05F0F2F800210120FFF788FB50
:1017CC000F4C80256D002A000021200006F096FAAF
:1017DC000C482A002100FFF74DFD0028E7DB0848E4
:1017EC00FFF76AFD0028E2D04379012BDFD12D33BE
:1017FC00C25C054B1A70012070BD0020FCE7C0468E
:10180C00146A0120146B0120566D0120F0B5DE46E0
:10181C0057464E464546E0B585B00190029103927D
:10182C009B460EAB10CB1B789A46414A137801337A
:10183C00DBB21370002B02D1130001221A703C4B47
:10184C001B7899460027B8463EE0002005E001339E
:10185C00232B0DD8002CF8D0E05C1A00A4323549AB
:10186C008854002CF3D0E25C002AF0D10024EEE77F
:10187C00314DC4212800FEF789FE01002800C43038
:10188C00FEF7C0FE2D4E80277F003A00002130006D
:10189C0006F034FA281F3A003100FFF7EBFC002861
:1018AC000FDB2648FFF708FD00280AD04379012BEF
:1018BC0007D12D33C25C224B1A702323C35C4B45DA
:1018CC0033D001239C46E0444346172B21DC05F022
:1018DC0065F800210620FFF7FBFA164D194B1A7814
:1018EC004F23EA544B46AB729823019AEA540133C6
:1018FC00029AEA5401335246EA5428009C30039968
:10190C00FEF780FE2800A0305946FEF77BFE002330
:10191C009EE70D4B01221A700120404205B0F0BC2D
:10192C00BB46B246A946A046F0BD0020F6E7C0462D
:10193C005D6D0120146B0120186B0120146A0120CD
:10194C00566D0120586D01205C6D0120F0B5D64616
:10195C004F464646C0B58246894690462F4A137874
:10196C0001331370002602E0002B50D10136952E66
:10197C004CDC05F013F800210520FFF7A9FA284CE0
:10198C00284B1A784F23E254200050305146FEF772
:10199C0039FE200054304946FEF734FE1F4B1A78AE
:1019AC005823E25401334246E254201DC421FEF771
:1019BC00EDFD01002000C830FEF724FE1A4D8027F3
:1019CC007F003A000021280006F098F93A0029001F
:1019DC002000FFF74FFC0028C8DB1348FFF76CFC16
:1019EC000028C3D04379042BC0D1427A1300591E6E
:1019FC008B41DBB2007A094909788842B6D151464D
:101A0C000029B1D153425A41D3B2ADE7002318009B
:101A1C00E0BCBA46B146A846F0BDC0465E6D01209A
:101A2C00146B01204B6D0120146A012070B5FF204E
:101A3C00FFF784FA002500E001353F2D1CDC04F093
:101A4C00ADFFFFF71BFB0D4C80267600320000210A
:101A5C00200006F053F90A4832002100FFF70AFC77
:101A6C000028E9DB0548FFF727FC0028E4D0FEF747
:101A7C0017FE0028E0D070BD0020FCE7146A01209E
:101A8C00146B012010B5064B00221A6004F086FF7F
:101A9C00044B9A6A044B1A60044B01221A7010BD55
:101AAC00E4F1002000400540E8F10020456D0120E4
:101ABC0010B5144A1368013313608022520193420B
:101ACC0000D210BD0F4B00221A6004F067FF0E4BC2
:101ADC001B78002BF5D00D4B9B6A0D4A12689B1A94
:101AEC000C4A9342EDD9084B00221A7096210A48F1
:101AFC00490007F01FFC00220021002004F0A8FF81
:101B0C00FEE7C046E4F10020456D01200040054091
:101B1C00E8F1002000A3E111B0AC0020F0B58FB0CB
:101B2C000E2003F0DEFBD0231B068022D2015A626A
:101B3C005A61022004F068FBFFF736FE002805D03E
:101B4C00264B1B78002B17D11D0001E000231D0034
:101B5C002C00D0231B068022D2019A61022004F0B3
:101B6C0053FBFFF721FE002809D01C4B1B78002BE0
:101B7C0013D000231E0004E001231D00E8E700231E
:101B8C001E003700D0231B068022D2019A61002C44
:101B9C0006D0002E10D1124B03E001231E00F0E7FB
:101BAC000F4B104A2C2103A807F0AEF9002C05D0DE
:101BBC00002F10D1012102E00B4BF2E70121C9B239
:101BCC000023019303AB009333002A004020FFF75E
:101BDC001DFE0FB0F0BD0021F1E7C046566D01208F
:101BEC00F4AC0020FCAC0020ECAC002070B590B044
:101BFC0000240026002503E00136FFF7D5FD013453
:101C0C003F2C08DC04F0CAFED0231B065B681B04C7
:101C1C00F2D50135F1E70A4A05AC00962B002C21D0
:101C2C00200007F071F969426941C9B200230193A0
:101C3C00009433002A004120FFF7E8FD10B070BD7E
:101C4C0010AD0020F0B5DE4657464E464546E0B591
:101C5C0085B083460F0000230B60002807D10020BD
:101C6C0005B0F0BCBB46B246A946A046F0BD052067
:101C7C0004F048FD05005B4618180138594605F07C
:101C8C008FF80400012803D9C30702D5013400E002
:101C9C00022480239B009C4211D82100280005F0CF
:101CAC007FF8AC4213D8834514D338607D60002391
:101CBC003B727B72BB72FB720133039301E0002316
:101CCC00039300239A460133B9461F004BE00023CF
:101CDC000393F6E700230393F3E785242B48604333
:101CEC00390005F05DF843089B450FD34A4612684E
:101CFC009A420BD24A4613605060022313724B4631
:101D0C00547242469A72DE72012303930136B04537
:101D1C0027D3474677433A0000235846514605F0EF
:101D2C00B5FE04000D0024196D4102940195174A6B
:101D3C0000232000290005F071F80400002DCCD1FF
:101D4C0003D1134B029A9A42C7D8104A00232000A1
:101D5C0005F09CFE0029C1D1D8D10E4B9842BDD8BC
:101D6C00D4E747460137072F02D80126B846CEE7FD
:101D7C004F46039B002B04D03B68002B03D1002063
:101D8C006EE700206CE701206AE7C046001BB70035
:101D9C00FF21D85F7F17B42CF0B5DE4657464E4670
:101DAC004546E0B583B00090019192469B460C9D50
:101DBC00714A13780133DBB21370002B02D113007C
:101DCC0001221A706C4B1B789946002703E0012AFC
:101DDC0000D1B9E00137172F00DDC3E004F0DEFDC0
:101DEC0000210420FFF774F8644C009BE371644BF2
:101DFC001A784F23E25453462372019B63724B466D
:101E0C00A3725B46E372296820005030FEF7FAFBA0
:101E1C00696820005430FEF7F5FBA96820005830A3
:101E2C00FEF7F0FBE96820005C30FEF7EBFB29695C
:101E3C0020006030FEF7E6FB696920006430FEF795
:101E4C00E1FBA869E969FA229200002304F0E6FF9D
:101E5C00010020006830FEF7D5FB296A20007430A1
:101E6C00FEF7D0FB696A20007030FEF7CBFB454BC8
:101E7C00196820007830FEF7C5FB052004F042FC01
:101E8C00010020008030FEF7BDFBE96A200088309D
:101E9C00FEF7B8FB296B20008C30FEF7B3FB696BA7
:101EAC0020009030FEF7AEFB3C23EA5C5833E25442
:101EBC005C3BEA5C4433E254433BEA5C4433E2541B
:101ECC00433BEA5C4433E254433BEA5C4433E25424
:101EDC002A8D133BE2542B8D1B0A6D22A3546A8D61
:101EEC006E23E2546B8D1B0A6F22A354201DC42158
:101EFC00FEF74CFB01002000C830FEF783FB224E9E
:101F0C0080235B0098461A000021300005F0F6FE95
:101F1C00424631002000FFF7ADF9002800DA59E7FE
:101F2C001948FFF7C9F9002800D153E74279D31EAD
:101F3C00DBB2012B00D94AE7C37B4B4500D046E707
:101F4C00807B431E98410FE02323C35C4B4500D09C
:101F5C0040E72023C25C0D4B1A702223C05C431E49
:101F6C00984101E00120404203B0F0BCBB46B246B0
:101F7C00A946A046F0BDC046426D0120146B01205D
:101F8C004B6D012020DB0020146A0120476D0120DD
:101F9C00F0B5C64600B582B080460F0016009F23F0
:101FAC0001936C4600230093EFF3108572B6042264
:101FBC00694601A808F04AFD85F31088637840460D
:101FCC000370A3783B70E378337002B080BCB846E2
:101FDC00F0BD10B582B06B46D81D002303706A4665
:101FEC00911D0B70541D53712200FFF7D1FF227805
:101FFC001300103BDBB2092B03D80120904002B038
:10200C0010BD0020FBE7000010B5FFF7E2FF024B0C
:10201C0083428041404210BDFF0F6000F0B583B099
:10202C006B46DD1D00232B706A46961D9371571D60
:10203C0053713A0031002800FFF7AAFFFFF7C9FFE0
:10204C0004003B78327829780E4807F073F9002C9D
:10205C0011D0220D0C48210007F06CF980256D047D
:10206C000A481022290007F065F9AC4207D008484D
:10207C0007F031F903E03978064807F05BF903B053
:10208C00F0BDC04630AD00209CAD0020C4AD00209A
:10209C00F0AD002054AD0020F8B506000F008023F1
:1020AC005B019A4210D3EFF3108572B68024640161
:1020BC002100300008F002FC22003900300008F04A
:1020CC0061FC85F31088F8BD881880235B019A1A8F
:1020DC00FF2105F013FEE6E7F0B58FB00B276F4438
:1020EC0000253D700A246C44257009266E44357019
:1020FC00320021003800FFF74BFF3B7818042178A1
:10210C000A021043040030780443424A03AE0190A3
:10211C0000912C21300006F0F7FE3B78013BDBB23E
:10212C00FD219942894149420195009600232200E4
:10213C000320FFF76BFBFFF74CFF0400030D364A3F
:10214C00102100911C31300006F0DEFE8023FF22AE
:10215C001206A1184A1E9141C9B2019500965B0462
:10216C0022000420FFF752FB2C4B1B78DB0712D507
:10217C00002280235B019A4218D2294B19784B011B
:10218C005B1ADBB2D100891A5B18DBB25A332549D2
:10219C008B540132EDE700230193234B0093002372
:1021AC00002203210520FFF731FB30E004F0F6FBA1
:1021BC0080221C49E0205201C003FFF76DFF04F0A0
:1021CC00EDFB0023002400E00133802252019342F6
:1021DC0007D2164A995C134AD25C9142F4D001346E
:1021EC00F2E7E023124A03AD0094DB032C21280014
:1021FC0006F08AFE802321004A1E9141C9B20022BA
:10220C00019200955B0122000520FFF7FFFA0FB049
:10221C00F0BDC0463CAE002054AE0020576D0120EE
:10222C00586D0120F0F2002070AE002000007010FC
:10223C0080AE0020F8B50400124B03602421FEF799
:10224C00A5F96062802676000F4D3200FF21280030
:10225C0005F054FD28222100280005F055FDEFF370
:10226C00108772B68021C024A4034901200008F015
:10227C0025FB32002900200008F084FB87F310882E
:10228C00F8BDC0464F4B4B49F002012010B58AB047
:10229C006846FEF765FE6846FEF794F9002802D002
:1022AC00019B022B01D00AB010BD6846002301939C
:1022BC000293FFF7BFFF024807F00DF8F3E7C046A3
:1022CC0098AE0020F0B5DE4657464E464546E0B582
:1022DC0093B06D4B1E686D4B1F68721E80235B03A1
:1022EC009A4206D313B0F0BCBB46B246A946A046F0
:1022FC00F0BDFFF789FE0028F4D008AC2000FEF7F3
:10230C002FFE2000FEF75EF9002802D00F9BB3428F
:10231C001ED0002802D00B9BB3421DD05C4B1B6817
:10232C00BB4203D15B4B1B68052BDBD85A483A00E8
:10233C00310006F0FFFF04F06BF8029003910024CB
:10234C00002399460025013B9B46B04605971FE0AC
:10235C00109BBB42DDD1C5E70C9BBB42DED1C1E774
:10236C00059F04F01BFB4A4B1F604A4B1A68013255
:10237C001A604A48494606F0DDFFB3E7281B802364
:10238C009B039C46604446492200FFF785FE0024CF
:10239C00454535D20E2304AA9446634400221A8084
:1023AC0004F0FCFA43465B1B9A46802B01D9802330
:1023BC009A463B4EA6190E2204AB9C466244310051
:1023CC004846FFF705F90028CAD00E2304AA944604
:1023DC0063441F885745C3D13A0031005846FEF775
:1023EC00B9F88346E419ED194B460133994622009E
:1023FC00803280235B019A42C0D8A845C8D8BDE77B
:10240C004646059F04F0CAFA5B46DD4304F000F82B
:10241C00029B039CC01AA141FA229200002304F0F3
:10242C00FDFC0400AF420BD0194B1F60194A136816
:10243C00013313601B483A00290006F07BFF51E77B
:10244C00144B00221A6008AF3800FEF789FD3800E3
:10245C00FEF7B8F8002810D008A801234360002329
:10246C008360C6610562FFF7E5FE0F4800942B0000
:10247C004A46310006F05EFF34E72822002138007E
:10248C0005F03CFCE8E7C04670F200206CF200203E
:10249C00ECF20020E8F20020C8AE002004AF0020CF
:1024AC00F0F200204CAF0020A8AF0020F8B5DE46BB
:1024BC0057464E464546E0B582468B46904600242C
:1024CC0022E05B46E11880235B059C4661441A4878
:1024DC002A0005F019FC80235B019E421FD304F0F7
:1024EC005DFAEFF3108972B65346E61880277F0128
:1024FC003900300008F0E2F90F493A00300008F0DA
:10250C0041FA89F31088641944450FD243461E1BC7
:10251C00350080235B019E42D3D91D00D1E75A1BA5
:10252C0005482818FF2105F0E9FBD8E7F0BCBB46AD
:10253C00B246A946A046F8BDDCE1002070B58AB0D1
:10254C006846FEF70DFD6846FEF73CF8002808D0FB
:10255C00019B012B05D1079B013B80225203934227
:10256C0001D30AB070BD04F019FA079980208003DA
:10257C00FEF715F8089B984205D004F00FFA38487E
:10258C0006F0A9FEEDE704F009FAFEF711F80500D4
:10259C00421E80235B039A4220D23248290006F067
:1025AC00C9FE802464032A0000212000FFF77EFF6F
:1025BC0004F0F4F929002000FDF7F1FF04000600F7
:1025CC0004F0ECF929000020FDF7E9FFA0420AD045
:1025DC0004F0E4F9244806F07EFEC2E72348290003
:1025EC0006F0A8FEBDE704F0D9F90595069603237D
:1025FC000193002302936846FFF71CFE07991C48C1
:10260C0006F098FE079A802189030020FFF74EFF01
:10261C0004F0C4F907990020FDF7C1FF089B98420C
:10262C000AD004F0BBF9134806F055FE0022002135
:10263C00002004F00DFAFEE704F0B0F9684602231E
:10264C000193079B0393089B0493FFF7F3FD0A4840
:10265C0006F041FE00220021002004F0F9F9FEE70B
:10266C00F4AF002068B00020A8B0002030B00020EB
:10267C00F0B0002030B1002070B1002010B58AB04D
:10268C00524B00221A60FFF7BFFC002804D14F4BBD
:10269C0001221A600AB010BD6846FEF761FC68465C
:1026AC00FDF790FF00280BD00499494A1160019B5B
:1026BC00032B09D0022B44D0444B03221A60E9E7C8
:1026CC00424B02221A60E5E707990C004A1E802350
:1026DC005B039A4206D280208003FDF760FF089BC3
:1026EC0098420AD068460223019301330293FFF704
:1026FC00A1FD364B08221A60CCE780212200890309
:10270C000020FFF7D3FE079B1C0019000020FDF7EB
:10271C0046FF089B9842E5D10222019200220292C8
:10272C00039404936846FFF785FD049A284B1A60BE
:10273C00264B07221A6000221100100004F088F9C1
:10274C00FEE7029B01330293032B38D905990C0049
:10275C004A1E80235B039A4206D280204003FDF779
:10276C001EFF069B984203D0184B05221A6091E776
:10277C008021220049030020FFF798FE059B1C00D6
:10278C0019000020FDF70BFF069B984203D00F4B5E
:10279C0009221A607EE76846002201920292039495
:1027AC000493FFF747FD0B4B01221A70074B0332C2
:1027BC001A6000221100100004F04AF9FEE7684686
:1027CC00FFF738FD014B06221A6063E7E4F20020A4
:1027DC00086801205B6D0120F0B58FB007000E007A
:1027EC0010001C0003F094FF0500134A0090330006
:1027FC002C2103A806F088FB002C1AD0149B9C42B9
:10280C0002D9E31A9D4210D3149BE318AB420ED2AB
:10281C000121C9B20023019303AB009323002A00CA
:10282C003800FEF7F3FF0FB0F0BD0121F1E70021F6
:10283C00EFE70421EEE7C046A0B10020F0B58FB061
:10284C0007F006FA354C02232360354B1A688023B7
:10285C00DB015340E022D2011340324A13600220C4
:10286C0003F0D2FC042323602D4B1B68DB05FBD546
:10287C002B4B5C682404240C2B4A002320000021E1
:10288C0005F004F90905030BCB18284A9446634458
:10289C005A01D21A9001801AC000C0188001244934
:1028AC0004F056FA0500234BC618FA2189003000B3
:1028BC0004F04EFA0700F317F0185840FA2189007B
:1028CC0004F046FA0800642104F06AFA00903B0018
:1028DC00194A2C2103A806F017FB184B9C4665449B
:1028EC00174B9D4217D800210025019503AB00938F
:1028FC00330022000D20FEF789FF124B02221A60D2
:10290C000195114B00930023002203210C20FEF7AC
:10291C007DFF0FB0F0BD0221E6E7C04600E00440A9
:10292C0000C0044000D00440E40C00003EFDFFFF5A
:10293C0047F9FFFF78690000ACB1002087900000D8
:10294C009E86010000F00440BCB10020F0B5DE46CC
:10295C0057464E464546E0B59BB004AB00221A7074
:10296C000026A54B9846039300239A469B4616E0F7
:10297C000123AB4052461A43924643461B78002B28
:10298C0004D19E4BF2009B185B689846D0231B0623
:10299C009C6200220121280002F022FC0136984B97
:1029AC001B68B34254D9954BF200D55C03F0F6FF8B
:1029BC00280002F096FC0124AC40D0231B0699465B
:1029CC009C6200220121280002F00AFCC820002190
:1029DC0003F004FC4B465F682740012200212800CD
:1029EC0002F0FEFBC820002103F0F8FB4B465B68AD
:1029FC002340002F01D0002B0DD00123AB405A46B1
:102A0C001A439346039B1B78002B04D17B4BF2009B
:102A1C009B185B68039300220021280002F0E0FB66
:102A2C00D0273F067C627C61C820002103F0D6FBD6
:102A3C007B6823409946BC61C820002103F0CEFB83
:102A4C007B6823404A46002A92D0002B9ED08FE709
:102A5C00FA204000002103F0C1FB002500231F00D9
:102A6C0037E00134664B1B68A34223D9A542F8D04A
:102A7C00624BE200D25CD0231B06596801239340C1
:102A8C000B42EED101231900B14093400B431F437D
:102A9C0004AB1B78002BE4D15849EB00CB185B68D6
:102AAC00584AE0000918496800912C2104A806F046
:102ABC002BFAD6E7D0231B064A469A620022012144
:102ACC00300002F08DFB96204000002103F086FBC5
:102ADC0001354B4B1B68AB4218D9484BEA00D65C0E
:102AEC0003F05CFF00220021300002F079FB01238F
:102AFC00B3409946D0231B064A465A629A619620E7
:102B0C004000002103F06AFB0024ABE7B946002427
:102B1C0005E03A4BE200D05CFEF786F80134384B06
:102B2C001B68A342F5D80D2002F0DBFBD024240651
:102B3C0080239B01636263610E2002F0D2FB802331
:102B4C00DB016362A3612E4B1B685A46002A01D13C
:102B5C002D4A03922D4A0FAC039900912C21200091
:102B6C0006F0D2F9264D2B68584601004A1E9141B9
:102B7C00C9B200220192009402000F20FEF746FE1B
:102B8C002B685246002A01D1214A90461F4A0FACAD
:102B9C00414600912C21200006F0B6F9184B1B6819
:102BAC0051464A1E9141C9B20022019200945246EC
:102BBC000E20FEF72BFE4B46002B1AD004AB154A09
:102BCC000FAC2C21200006F09FF90D4B1B684946D9
:102BDC004A1E9141C9B20022019200944A4610202B
:102BEC00FEF714FE1BB0F0BCBB46B246A946A0468D
:102BFC00F0BD094BE3E7C046E4AA0020186C0120A5
:102C0C00146C012004B20020D8B1002010B20020B6
:102C1C00E4B100200CAD0020F0B10020F0B5C646A8
:102C2C0000B58EB01C2002F05CFBD024240680235F
:102C3C005B05A362002200211C2002F0D1FAFA26C7
:102C4C00760000273000390003F0C8FA656880234D
:102C5C005B051D40EB00DA0F9046012200211C2081
:102C6C0002F0BEFA3000390003F0B8FA6468802331
:102C7C005B051C40E600F60F002200211C2002F030
:102C8C00AFFA002201211C2002F0AAFA002C0BD072
:102C9C000F4B104A2C2103A806F036F9002D05D055
:102CAC00002C12D1012102E00B4BF2E70121C9B239
:102CBC000023019303AB0093330042464420FEF7FC
:102CCC00A5FD0EB080BCB846F0BD0021EFE7C046B4
:102CDC0020B2002024B200201CB20020F0B5DE4649
:102CEC0057464E464546E0B58FB007000E005D4B8B
:102CFC001B785B071BD5082002F0F3FAD0242406BE
:102D0C0080235B006362092002F0EBFA80239B00B6
:102D1C0063626361022003F077FA02AB524A1A80B5
:102D2C00002300229146BA46B3461E001DE0002542
:102D3C0001954E4C00940023002203211120FEF734
:102D4C0065FD019500940023002203211220FEF75B
:102D5C005DFD6FE00123AB404A461A4391460022C9
:102D6C000021280002F03CFA0136012E29DC02ABCE
:102D7C009D5D280002F0B5FA0124AC40D0231B065F
:102D8C0098469C6200220121280002F029FAFA20C0
:102D9C004000002103F022FA43465F6827400122DD
:102DAC000021280002F01CFAFA204000002103F058
:102DBC0015FA43465B681C40002FCBD0002CCED0BC
:102DCC00C8E757465E46002E3BD0D0231B06802218
:102DDC0092005A61002F3AD0D0231B068022520059
:102DEC005A610123002E39D00121214A03AC0091F4
:102DFC002C21200006F088F8002301930094330066
:102E0C003A0000211120FEF701FD4B46002B27D084
:102E1C00184B194A03AC2C21200006F075F84A46D1
:102E2C0011004B1E9941C9B200230193009412204A
:102E3C00FEF7ECFC0FB0F0BCBB46B246A946A04670
:102E4C00F0BDD0231B06802292009A61C2E7D023EA
:102E5C001B06802252009A610023C3E70021C4E7BD
:102E6C00064BD6E7576D01201415000070AE0020FC
:102E7C0064B2002034B200200CAD002050B200200F
:102E8C00F0B5CE46474680B59BB0AD4B00221A70CC
:102E9C00AC4B1A60D0231B061D690132FF32154062
:102EAC00EA05D20F91461C6980239B001C40A305A8
:102EBC00DB0F98460EABA44A1A80002214E00EAB2E
:102ECC00995C8900A14B9C466144486808230340E7
:102EDC001B07DB0F0DA88354496804230B405B07C9
:102EEC00DB0F0CA98B540132012AE8D900200CE02D
:102EFC00944B1A68511C1960954BD100954AC60029
:102F0C005B18921942CA42C301300928F0D9924B7E
:102F1C001A78530700D5A3E0904B1978904806F027
:102F2C0009FA904B904A0FAE904900912C21300039
:102F3C0005F0EAFF002301930096072204210120EB
:102F4C00FEF764FC8A4B1B688A4A2C21300005F082
:102F5C00DBFF894B1B78092B00D183E00021864BCA
:102F6C001A78D2B2002701970FAB009300230220EE
:102F7C00FEF74CFCFFF7B0F880493C230093804BE4
:102F8C0005220A20FFF728FC052003F0BBFBFA21E1
:102F9C00890003F005FF03007A49FA2676000096B3
:102FAC0009220620FFF718FC062003F0ABFBFA21E0
:102FBC00890003F0F5FE0300734900960A220720EE
:102FCC00FFF70AFC71490096714B0B220820FFF7A2
:102FDC0003FC704900966E4B0C220920FFF7FCFB9A
:102FEC006D490097002303220B20FFF7F5FBFFF739
:102FFC0025FC02AE3000FDF7B3FF3000FDF7E2FA1E
:10300C00002831D0654B664A0FAE2C21300005F0FC
:10301C007BFF049B039A002101910096043113203D
:10302C00FEF7F4FBFFF792FCFFF7F8FDFEF776FDD9
:10303C00FEF7DCFD41464846FFF750FE00261EE039
:10304C00404B19684E1C1E60414BCE005549C700C1
:10305C009B19C919C0C9C0C301300328F0D95BE75B
:10306C000020FAE702217AE74F4BCCE70EAB985DD4
:10307C000CAB9A5D0DAB995D02F0B2F80136012EE6
:10308C00F4D9082002F02DF9D0231B06802252001F
:10309C005A62002D46D05A61092002F022F9D02341
:1030AC001B06802292005A62002C41D05A610D20DE
:1030BC0002F017F9D024240680239B01636263611C
:1030CC000E2002F00EF98023DB016362A3610F2056
:1030DC0002F007F980231B02A362002201210F20BA
:1030EC0002F07EF800230193304B00930023002262
:1030FC0005211420FEF78AFB114B1B78002B1DD0E9
:10310C00032301932A4B0093002300220421002067
:10311C00FEF77CFB274806F0DEF81BB0C0BCB946B6
:10312C00B046F0BDD0231B06802252009A61B3E753
:10313C00D0231B06802292009A61B8E70123E0E7B6
:10314C005C6D0120146C01201415000000C00140BE
:10315C00186C0120F0CA0020576D0120586D012019
:10316C0098B20020D8BE0020CCB20020D4B20020EF
:10317C00ECCE0020D8B20020E8CE0020E8B200202F
:10318C00E02E0000F0B20020F8B2002004B30020C2
:10319C0080BB00000CB3002014B3002080B20020D0
:1031AC000CAD0020D0CA002088B200201CB3002037
:1031BC00E4AA00202CB30020F0B5CE46474680B5DB
:1031CC008DB007000E00140040220021200004F0F6
:1031DC0095FD3C230122E25467603D3B2385804BE7
:1031EC001A7893009B185B019B1A59015B189B0082
:1031FC009B1A5901CB1A1D02ED1A2D01AD18ED19B0
:10320C00012229003800FEF7A1FB0690002805D109
:10321C0020850DB0C0BCB946B046F0BD714B984688
:10322C000121180003F0A2F93900404603F05AF9C5
:10323C00206002E06B48FDF797F86A4B9B69DB0650
:10324C00F8D500230F2208A98C46624413700A9308
:10325C0003F0DEF808900991FA2292000023300066
:10326C00002104F013FC089A099B12184B4104929C
:10327C0005935D4E0027012398462FE05A4E424697
:10328C0029003000FDF71CFA3C37404600E01E00D8
:10329C00002F2FD0534B9B699B060BD4731C31789A
:1032AC00504A1160013F002FF1D10130A268013268
:1032BC00A260ECE78046B1460BE04A4B1868C0B2FE
:1032CC0000940AAB2A000F2108AEB4466144FEF705
:1032DC00C3F9444B9B69DB06EFD54E4603F098F8D7
:1032EC000790059B8B4208D903F058FB002FC5D0E3
:1032FC004046CDE78046B146EBE7049A059B8B42EE
:10330C0003D11300079A9342EED803F081F8089A80
:10331C00099B801A9941A061E1610023238503F088
:10332C0077F8324E002736184F41029603970FE07C
:10333C002C4B1868C0B200940AAB2A000F2108AEBF
:10334C00B4466144FEF788F9264B9B69DB06EFD542
:10335C0003F05EF8039B8B4202D903F01FFBF3E7EB
:10336C008B4202D1029B8342F7D800270023984658
:10337C0023004446A8461D0011E0E86230002430CA
:10338C00FDF734F9286330002C30FDF72FF9686312
:10339C0030002830FDF72AF96861069C0137172F99
:1033AC000EDC03F0FBFAFEF7EDF8061EF6D020302B
:1033BC00FDF71CF9002CE0D0EB6A8342EED8DCE779
:1033CC004546002229000020FEF7C0FA054C0849AA
:1033DC00200003F087F80021200003F0C7F818E75D
:1033EC004B6D012000400340FC6C0120204E00007E
:1033FC008024010010B50549054803F073F8E1215C
:10340C000903044803F06EF810BDC0468024010087
:10341C00004003400080034010B5052003F072F912
:10342C000400FDF705F9230000220021062003F01B
:10343C005FF9FFF7DFFF10BD10B5FFF7EDFF024995
:10344C00024806F06FFB10BD404B4C0000000440DE
:10345C0010B582B00400437A002B0BD1FDF7E8F8CD
:10346C00227A63680021062003F042F9FFF7C2FFBD
:10347C0002B010BDFFF7D0FF637A054A5A43A37A16
:10348C00E17A00910121034803F0E8F9E6E7C04630
:10349C00001BB70000C00240F0B5D6464F4646466A
:1034AC00C0B582B082460C0091461E00804B1B7842
:1034BC00012B25D040220021300004F01FFC236892
:1034CC00736063687362627A3823F254A27A0133B0
:1034DC00F254E27A0133F254227A0133F2543C3B37
:1034EC0033852000FFF7B4FF2168724806F01AFB01
:1034FC003060FF20FDF722FD0025002398460EE0EA
:10350C00086832004946FFF757FEC8E0002398468A
:10351C0004E00023984601E00023984601353F2D36
:10352C0022DC4346072B1FDC03F038FAFDF7A6FD1F
:10353C00614C80277F003A000021200004F0DEFB64
:10354C005E483A002100FDF795FE0028DEDB5A4864
:10355C00FDF7B2FE0028DCD0FDF7A2F80028DBD086
:10356C0001239C46E044D9E75046FDF7E7FC02F006
:10357C004FFF00900191FA2292000023484600214F
:10358C0004F084FA009C019D24184D4102E07369FB
:10359C000133736102F03CFF8D426ED903F0FEF9EA
:1035AC00FDF76CFD444F80235B0098461A00002108
:1035BC00380004F0A3FB414842463900FDF75AFE9F
:1035CC000028E4DBB3680133B3603B48FDF774FEBD
:1035DC00071E39D0384BC31A9BB2328D9A4200D990
:1035EC003385728D9A4200D273853800FDF758F8F6
:1035FC0000282DD038000830FCF7F8FF8146390040
:10360C0014310120CC224042FCF7A4FF10223900D7
:10361C00FCF7A0FFC343984638001030FCF7E6FFD8
:10362C004346C31A5A425341DBB240451BD0244A8D
:10363C00126849464A4501D2214A1160002B18D024
:10364C00F3680133F360A5E7336901333361A1E714
:10365C00336A013333627B79012B9BD11F33FA5CC4
:10366C00184B1A7096E7164A12684A45DFD30023A6
:10367C00DDE73369013333618CE78D4201D184423C
:10368C008CD802F0C5FE009B019CC01AA141B06110
:10369C00F161328D0C4B9A4207D0FFF7CDFE02B090
:1036AC00E0BCBA46B146A846F0BD00233385F4E72A
:1036BC00486D012000000440146A0120146B0120A5
:1036CC0018DB0020476D0120FFFF0000F0B5CE464F
:1036DC00474680B583B08C4690469946244B1C785F
:1036EC00272C42D81D00631C2B70224963001B1928
:1036FC009B00C9180300C4CBC4C11F4B00221A5530
:10370C000A9B624601002000FFF7C6FE29780A9842
:10371C000090434600222000FEF73EFB051E13DB03
:10372C00012819D0002601233340134A1355009366
:10373C002B000A9A21004846FDF772F9300003B0BD
:10374C00C0BCB946B046F0BD0C482200494605F055
:10375C00F1FD01267642F1E70A98FDF717F80028EB
:10376C0001D02E00DFE70026DDE701267642E5E7F3
:10377C00436D012010D90020F0DA002050B3002056
:10378C00F0B5DE4657464E464546E0B597B0834603
:10379C008A4616001D0040220021180004F0AEFAE3
:1037AC0001235B422B8553461B682B606B60534691
:1037BC005B686B6253465A7A3823EA5453469A7ABA
:1037CC003923EA545346DA7A3A23EA5453461A7A9E
:1037DC003B23EA54474B1978009502230C22584698
:1037EC00FEF7DAFA00280ADB534619684248320021
:1037FC0005F0A0FD002305939846002426E03F48E1
:10380C0005F069FD002017B0F0BCBB46B246A946D6
:10381C00A046F0BD042235E0AB6899462A69296AB6
:10382C0068696B8D03930290019100924B463200B4
:10383C002100334805F07EFDA64232D9002F48DB2B
:10384C0000230593FDF714F800284CD1B4424FD255
:10385C00371BFA23DB009F4200D91F0006AB9946A9
:10386C003A0051465846FFF717FE49462800FCF728
:10387C00B6FFE41901239C46E0441E4B1978A6427E
:10388C00C8D80022009502235846FEF785FA070097
:10389C000A21404603F084FA0029BDD0A642CBD8B9
:1038AC00BAE7B946002F07DB012F0AD0002399464F
:1038BC0001204B461840A6E7124805F00CFD0020ED
:1038CC00A1E72800FCF762FF0028F1D100239946FC
:1038DC00EEE7059B01330593022BB3DD0A4805F097
:1038EC00FAFC00208FE7094805F0F5FC00208AE778
:1038FC00002088E7436D0120C8B300208CB3002062
:10390C0010B4002070B40020B0B40020F8B4002033
:10391C00F0B583B00F4B1C68002C0BD00E4B1D6800
:10392C000F2D07D90D4B1E68002E03D00C4B1F68B2
:10393C00002F01D103B0F0BD21000A4803F030FA8A
:10394C002A004243009733002100074802F086FF0B
:10395C00F0E7C04634DB002028DB00202CDB002005
:10396C0030DB0020001BB70000C0024070B584B0F3
:10397C0006000C0001AB02AA03A902F01DFF051EF4
:10398C0004D1002C09D1200004B070BD019A029919
:10399C00039802F0DDFE2C00F5E70248310001F03F
:1039AC00B1FCC04638B50020F0B5DE4657464E4651
:1039BC004546E0B5A5B0C34B1A689246C24B1B787E
:1039CC009846C24B1B689946C14B1B789B46312AC3
:1039DC0007D9FA23DB009A4205D9FA23DB009A4671
:1039EC0001E032239A464346013B272B01D9282379
:1039FC00984649464B1EB74A934205D9B64B994255
:103A0C0004D9B54B994601E0002399465B46082B37
:103A1C0001D908239B46B14B1B885C01E41AA40016
:103A2C00E418E400AE4B1B885D01ED1AAD00ED18F7
:103A3C00ED00AC4B1E78FCF709FEAB4B1860062072
:103A4C0002F060FEA94B1860052002F05BFEA84B4B
:103A5C001860A84B00271F70FCF700FEFDF7D0FA8A
:103A6C00A54B1F60A54B1F60A54B1888002801D1E2
:103A7C009B4B1888A34B1B78002B0FD0FA22D2003B
:103A8C000023002104F002F8984B1A680023002947
:103A9C000FD1994201D190420BD800230A93012EE9
:103AAC0036D0002B36D0924B1B68002B03D10A93D7
:103ABC0030E00123F2E7FCF7BBFD0F2002F060FFC2
:103ACC00032002F0A1FB8A4B1868FA21890003F04D
:103ADC0067F940000021FFF749FF07000A90FFF744
:103AEC0089FC002F0DD0884F052002F00BFE020040
:103AFC000A9B002B0AD0854B8548390005F01AFC2F
:103B0C0008E00B2002F03CFF824FEDE7824BF3E71D
:103B1C0000230A93FFF790FC0C2200210EA804F05E
:103B2C00EDF8012E3AD07D4B09937D4B1B780B930E
:103B3C006A4B1F886A4B19880C91052002F0E2FD34
:103B4C0003007848694A1268069205935B46049311
:103B5C004B4603930C9902910197514600914346B1
:103B6C000B9A099905F0E6FB012E00D07EE06E4B16
:103B7C001C68002C01D19624A4016C4B1D68002DEF
:103B8C0000D16B4D96239B019C4200D21C00684BCC
:103B9C009D4200D91D000023002703E0654B0993CB
:103BAC00C3E701330C2B08D8634A99008A58A24208
:103BBC00F7D3AA42F5D80137F3E7002F00D101372C
:103BCC004346BB4200D81F00002200210020FDF715
:103BDC00BDFE0B90002C04D0AC4202D80B9B002BEA
:103BEC004BD14022002114A804F088F8AC4242D9F1
:103BFC00524A5348099905F09DFB14AB00930023DE
:103C0C0003220021FF20FEF7C7F8FFF705FCFFF7A2
:103C1C007FFE0A9B002B00D045E2FCF709FD334BDD
:103C2C001B68314A12680021062002F061FDFFF783
:103C3C00E1FB4449444805F075FF0600434B002264
:103C4C001A70052002F05EFD0500062002F05AFDF8
:103C5C0002003F4C33002900200005F06BFB25B01F
:103C6C00F0BCBB46B246A946A046F0BDFDF7DEFE51
:103C7C000B904746AEE7374ABBE7012E03D0204BEB
:103C8C001B88002B06D1002300220D92B0462E007B
:103C9C001D0084E05801C01A8000C018C00011A992
:103CAC00FDF7D0FF80460028EDD01199A142EAD350
:103CBC000EAA11ABA1CBA1C2274805F03BFB0023F8
:103CCC000B93ADE034F20020496D012038F2002056
:103CDC004C6D0120CE07000080CBA4003E6D01206E
:103CEC003C6D0120486D01201CDB002020DB0020F6
:103CFC0024DB0020436D012038DB002018DB002082
:103D0C00406D01204A6D01206CB500209CB500204F
:103D1C0028B6002084B50020A4B50020B4B500203E
:103D2C004B6D01205CB6002078F2002074F200206C
:103D3C00C0C62D00ACB5002044CB0020B8B5002087
:103D4C00F0B60020404B4C0000000440466D0120B2
:103D5C0008B80020D8B5002008B7002001330C2B80
:103D6C0011D89E4A99008858A842F7D3B042F5D88A
:103D7C00A74247D00134F1E700230022BC462F00B4
:103D8C0025001400EBE72C003D00674600200028BE
:103D9C0004D011A9FDF782F800281BD10135AF42E0
:103DAC0047D98F4B1B78272B32D84346012BE3D0B6
:103DBC00321B012F2AD000232800002103F066FEBD
:103DCC007A1E002303F02AF8201811A9FDF73AFFF8
:103DDC000028E3D0119BA342E0D30C930D9A93429D
:103DEC00DCD9804B14AA00920022514611A8FFF78F
:103DFC006DFC002811DBFCF73BFD002814D10C9B5B
:103E0C000D93CBE72C003D006746C0E73000DCE7A4
:103E1C00464600230B93984602E0464600239846FC
:103E2C000023A446404614E046460B9000239846D7
:103E3C00F6E7464600230B939846F1E70EAD6A4A27
:103E4C007800C0198000121891CA91C5080001337E
:103E5C00DBB2634A12789A420FD91F00634AD15CD5
:103E6C000029F4D00028E9D05F4D5A00D2189200F6
:103E7C0055590E9A9542EAD9E0E7644680460023EC
:103E8C00002502E00D000133DBB29A4213D95749E9
:103E9C00C95C0029F7D10028F5D0534F5900C91837
:103EAC008900C9590E9FB942EDD9002DEAD0A9421B
:103EBC00E9D20D00E7E74346002B42D00E9A002DC5
:103ECC0008D04B4B4B48099905F034FA2B002500D0
:103EDC001C0009E0484BF5E70EAA11AB83CB83C25B
:103EEC00FCF7C6FC002835D1012E3CD00B9B002BD7
:103EFC0058D14346002B57D00E9B404A9A18A242E9
:103F0C0054D2374A1278272A1FD8E01A4008C01812
:103F1C0011A9FDF797FE071E1FD0119B0E9A934215
:103F2C001DD9A3421DD2364B14AA00920122514630
:103F3C0011A8FFF7CBFB002809DB0128CCD0119C82
:103F4C00CEE72B0025001C00CEE72C000CE02C004B
:103F5C000B9709E02C000B9006E02C0004E02C00E1
:103F6C0002E02C0000E02C000B9B002B06D14346FA
:103F7C00002B03D04B46002B00D08BE00B9B002B6F
:103F8C0000D08EE0012514AC40220021200003F06B
:103F9C00B5FE134B1978009402232A00FF20FDF77D
:103FAC00FBFE32E62C00DFE72C00DDE72C00DBE724
:103FBC000E9914AC169B13484A4605F0BBF94022E7
:103FCC000021200003F09AFE054B1978009402237F
:103FDC000122FF20FDF7E0FE17E6C04644CB00208F
:103FEC00436D012044B7002010D90020F0DA0020E6
:103FFC00F0B500204CB700200CB6002040420F005A
:10400C0074B700207CB70020013811A9FCF746FFDB
:10401C000028B3D0119B0E9A9342AFD25345ADD327
:10402C000EAA11AB13CB13C20135A845A6D3264B50
:10403C0018782728A2D8254B4200121892000EA9F6
:10404C009B180A00D0CAD0C31F4B421C1A7014AB69
:10405C004A46FFF795FB0028AAD1FCF709FC00287B
:10406C001DD10E991A4805F065F9A84586D00E9811
:10407C00504583D9099B012BC6D0164B984200D8CA
:10408C007CE7154B9C46604411A9FDF7DBFD00282D
:10409C00C0D173E700250996D846A246C5E70B9018
:1040AC006CE703256FE7FCF7C3FA0C4B1868FA2191
:1040BC00890002F075FE0021FFF758FCFFF79AF912
:1040CC000B2002F05DFCA8E5436D012010D9002007
:1040DC00C0B7002040420F00C0BDF0FF24DB002021
:1040EC00F0B5DE4657464E464546E0B597B002F071
:1040FC008FF906000F00C24A136801331360C14BDD
:10410C001A685B688B4206D917B0F0BCBB46B24646
:10411C00A946A046F0BD8B4201D18242F4D8FDF7EE
:10412C00E5F8B94B1978002900D110E1B74A002302
:10413C0034003D0012196B41B24802604360002903
:10414C0020D0B34B1A68B34B1B689A4200D101E1E3
:10415C00B04B1A60B04B1978B04B1960022900D9DA
:10416C000021130A100C8446140EFF200340024059
:10417C008900AB4D49590194644620400090A948F0
:10418C0005F0D8F8A04B1B78A74A1268934211D0BF
:10419C00A54A1360002B00D1E4E0A44B9C46A44B31
:1041AC001B68A44A1278A448A44909680091614686
:1041BC0005F0C0F89E4B1A681400A04B1B681D003C
:1041CC009C4662449E4B1B68D31A312B73D99C4B73
:1041DC001A609C4B1B6899469B4B1B689A469B4BE1
:1041EC001B689B469A4B1B689846013300D1BCE078
:1041FC00FA22920000233000390002F00FFE030077
:10420C009448059320230493934B1B6803934346D4
:10421C0002935B460193534600934B462A002100C0
:10422C0005F088F8884B1B688C4A1268934242D080
:10423C008A4A13608A48017842788378C4782500CA
:10424C0004792600447927008479A046C479A146D4
:10425C00047AA246447AA446847AA346C47A11947A
:10426C00047B1294447B1394847BC07B14907D4814
:10427C00007815907C480078002879D07B480E9007
:10428C0015980D9014980C900B9413980A90129802
:10429C000990119808905846079060460690504631
:1042AC00059048460490404603900297019600956D
:1042BC006F4805F03FF8544B1B78002B03D06D4A28
:1042CC001278002A56D1002B03D06B4B1B78002B95
:1042DC005ED14D4B1B78002B09D0684B1B78002B03
:1042EC0005D0674B1B78674A126893425CD1464BEA
:1042FC001B78002B09D0644B1B78002B05D0634B2B
:10430C001B78634A126893425CD13F4B1B78002B9D
:10431C0066D13D4B1B78002B03D05E4B1B78002BDA
:10432C0061D1394B1B78002B00D1EDE65A4B1B7831
:10433C00002B00D1E8E6FEF701F902F069F8334AE8
:10434C000023801859412F4B18605960DCE6534A02
:10435C000023EDE6304B1978304B1B68994200D0A6
:10436C00F6E60FE74E4B9C4619E7002398463FE7CD
:10437C004C4884E74C4804F0AEFF4C4B1B689868E3
:10438C0005F06AFD00220021002002F061FBFEE72F
:10439C00FDF7E2F902F03CF81C4A00238018594161
:1043AC00184B1860596094E7364A1360FEF768FDA5
:1043BC0002F02EF8154A002380185941114B186051
:1043CC00596094E7324A1360FFF7EEFA02F020F8D6
:1043DC000E4A0023801859410A4B1860596094E723
:1043EC00FDF754FF95E7FDF76DFF02F011F8074A52
:1043FC00002380185941034B1860596091E7C0465F
:10440C0058F2002088D70020506D012050C30000C6
:10441C007CF20020E0CE0020596D0120DCCE002083
:10442C00B0CA002084B80020E4CE002054B800208C
:10443C0060F200204D6D0120A8B800205CF2002035
:10444C0064F2002068F2002054F200203CF20020BC
:10445C00D0CE0020DCB8002040F2002030F200204A
:10446C0044F200204F6D01204E6D012060B80020F9
:10447C0048B90020536D0120556D0120546D012069
:10448C00586D0120D8CE0020466D01204B6D0120C7
:10449C00D4CE0020526D0120516D012020A10700C7
:1044AC0058B80020E4AA0020BCB90020B4D30020E6
:1044BC0070B5FA24E400200001F0A6FE1C2000F0E8
:1044CC0010FFD0231B06802252059A620022012184
:1044DC001C2000F085FE200001F096FEFCF7B4FBDA
:1044EC000024264B9C420ADCD0231B065B681B0471
:1044FC0005D52348210004F01DFF0134F1E7FCF73A
:10450C0035FA0025002418E0D0231B068022D201A6
:10451C009A611C4E300005F0CDFE01003000FCF716
:10452C00EDFB01341848310004F004FF013504E0C0
:10453C00FFF7D6FD2800FCF707FB144B1B68A342C2
:10454C00F6D01349200002F02BFC01314A01114B2B
:10455C00D21811490B4804F0C1FCD0231B06802251
:10456C00D2015A61FA20C000FCF7AEFB0028CBD177
:10457C00D0231B068022D2019A61D9E7B70B000029
:10458C0000BA0020B8F200200CAD0020386D0120DC
:10459C001F0300000804012020BA002070B500247D
:1045AC00002500E00134FA235B009C4205DAFBF79E
:1045BC009FFF0028F6D00135F4E75A2D00DC70BDC2
:1045CC000021080002F09CFA10B5094B1A68094B3F
:1045DC009A4200D010BD04F079FE074804F07BFE2F
:1045EC00034B00221A60054801F00EFEF2E7C046AC
:1045FC00F00000209696696928BA002050C300008C
:10460C00F0B5C64600B5040000F06BFE0022012197
:10461C00200000F0E5FD052001F0F6FDD0273F0657
:10462C007E680125A5402E403000431E9841C3B240
:10463C00984601220021200000F0D2FD052001F057
:10464C00E3FD7B681D40200000F056FE002E01D0DB
:10465C00002D03D0404680BCB846F0BD0220FAE7DE
:10466C0070B50420FFF7CCFF050004000520FFF710
:10467C00C7FF02000100022D18D0002C01D1022925
:10468C0022D0012C16D0022C18D028001043C0B216
:10469C00002820D0002C01D1012919D0012C19D1CE
:1046AC00002919D0A14219D0092014E0A842E4D164
:1046BC00042010E00229E6D106200CE0002905D0E8
:1046CC000129E2D1082006E0052004E0072002E0E1
:1046DC00100000E0092070BD0220FCE70320FAE77F
:1046EC0010B5FFF7BDFF304B18701A78D3B2042AFF
:1046FC003ED0042B0DD9072B48D021D8052B3ED00A
:10470C00062B4AD1294B2A4A1A602A4804F0E3FDA9
:10471C0025E0022B25D00AD8002B1AD0012B3CD136
:10472C00224B254A1A60254804F0D5FD17E0032BCF
:10473C0033D11E4B224A1A60224804F0CCFD0EE005
:10474C00082B2AD1194B204A1A60204804F0C3FDCB
:10475C0005E0164B1E4A1A601E4804F0BCFD0020F2
:10476C0010BD124B1C4A1A601C4804F0B4FDF6E74D
:10477C000E4B1B4A1A601B4804F0ADFDEFE70B4BC8
:10478C00194A1A60194804F0A6FDE8E7074B184AC5
:10479C001A60184804F09FFDE1E7044B164A1A60B2
:1047AC00164804F098FDDAE7E8CE0020ECCE0020A5
:1047BC000CBB002010BB00205CBA002060BA0020AB
:1047CC0094BA002098BA00206CBB002070BB00206B
:1047DC0040BA002044BA002078BA00207CBA0020ED
:1047EC00B0BA0020B4BA0020DCBA0020E0BA002035
:1047FC003CBB002040BB00209CBB0020A0BB002089
:10480C0070B51C2000F06DFDD024240680235B05C0
:10481C006362A3610E2000F064FD8023DB01A362C0
:10482C000F2000F05EFD80231B02A362082000F025
:10483C0058FD80256D006562A561092000F051FDD1
:10484C0080239B0063626361FFF74AFF04F03EFD27
:10485C006561642001F0D8FC70BD000070B5174C88
:10486C001749200005F0BAF9050001210A2000F0D3
:10487C009DFC01210B2000F099FC01210C2000F083
:10488C0095FC0D2000F02DFDD0231B0680229201FB
:10489C005A625A616368022213400A490A6021680D
:1048AC0005325140C8320A4007490A60074A136072
:1048BC000749084804F03EFD280070BD0000044084
:1048CC00404B4C00043004400010044004200440D1
:1048DC00D8BE0020BCBB002070B50500002400E051
:1048EC000134032C0ADC2100280005F007F800280D
:1048FC00F6D02100280004F0D5FFF1E770BD0000D0
:10490C0070B5074D2800FFF7E7FF064C2000FFF7B6
:10491C00E3FF280005F01AF8200005F017F870BD29
:10492C00000020500000305010B5204C204B23606C
:10493C00036863614368A3618368E361C3682362AE
:10494C00036963624369A36083696360C369E3605D
:10495C002061D0231B061B68A362E36A0133E36268
:10496C001448FBF783FDA36A012018403030FBF795
:10497C006FFD1148FBF77AFD61681048FBF798FD55
:10498C00A1680F48FBF794FDE1680E48FBF790FD1A
:10499C0021690D48FBF78CFD0C48FBF767FD0022E5
:1049AC000021002002F054F8FEE7C046C0000020B1
:1049BC00DC7E01FAD4BB0020F0BB0020F8BB002049
:1049CC0000BC002008BC002010BC002018BC00203B
:1049DC0071460420084202D1EFF3088001E0EFF3A6
:1049EC000980014A104700006D470020F0B5DE46F3
:1049FC0057464E464546E0B595B002F021F8FFF714
:104A0C00CDFDFDF73BFE0220FBF7E6FFFFF7DCFDDB
:104A1C00FFF7F6FEFCF752F8FA4BFB4AFB49096824
:104A2C00FB4804F087FCFB4B1B68986805F014FAF4
:104A3C00FFF714FF040003F06FF803F09DF8002259
:104A4C00F54B02F0FAFB02000B00F448009404F062
:104A5C0071FCD024240680239B00A361FCF762F830
:104A6C00FDF7DCFAFCF784FA142000F03AFC802302
:104A7C005B03A36200220121142000F0B1FB15207E
:104A8C0000F02FFC80239B03A36200220121152040
:104A9C0000F0A6FB162000F024FC8023DB036362ED
:104AAC00A361132000F01DFC80231B036362636170
:104ABC00C046C046C046C046C046C0466168890272
:104ACC00C90FD74804F036FC6168C902C90FD54834
:104ADC0004F030FC61684902C90FD34804F02AFC89
:104AEC0061680903C90FD14804F024FCFFF708FFE3
:104AFC00CF4D0121280004F0E5FECE4B98461860FE
:104B0C00CD49280004F00AFFCC4B99461860CC4FD5
:104B1C00396800239B46009302331422280004F0CA
:104B2C0033FF4B46196810AC2000FBF743FC139B7A
:104B3C00C44A1340A02109030B431393129BC24E8A
:104B4C001E4032008020C00202431292119ABF4EC6
:104B5C003240A826760532431192BD490B400343DF
:104B6C008026360633431293052001F0CBFD02F06C
:104B7C00D3FFB84902F0B1FF011C2000FBF798FBF2
:104B8C00434619684B461A682300280004F05AFF64
:104B9C0043461A682B680124210091408B432B60FB
:104BAC0043461A6853009B18DB00AB4A9446634497
:104BBC001E601E6043461B68043322009A4013009B
:104BCC00A64A9246136043461B68083322009A405B
:104BDC0013005246136043461A682B68210091401B
:104BEC000B432B60434619684B461A681F231A4027
:104BFC004B005B18DB009A498C4663441A60012118
:104C0C00280004F05FFE80469649280004F086FEDA
:104C1C0003905B460093023314224146280004F0B3
:104C2C00B3FE0CAB994603991800FBF7D7FB4B4628
:104C3C00DB68844A1340A020000303434A46D36038
:104C4C0093689B009B083343936053687F490B40E8
:104C5C00A822520513434A465360052001F052FD29
:104C6C0002F074FB00226C4B02F0E7FA02F0BAFB84
:104C7C00011C4846FBF71CFB7B4BF02212011A600F
:104C8C007A49092000F0B6FC0121092000F092FCC1
:104C9C004B46039A91464146280004F0D3FE2B68FC
:104CAC002100404681408B432B6043001A18D200F0
:104CBC00694884466244166016604046021D200016
:104CCC00904002005046026040460830020020002E
:104CDC0090400200504602602A680A432A60494606
:104CEC001F2529404344DB005D4DAC4663441960ED
:104CFC005F4D0121280004F0E5FD80465D49280048
:104D0C0004F00CFE82465B460093023314224146AB
:104D1C00280004F039FE08AB994651461800FBF701
:104D2C0035FB4B46DB68474A1340A0200003034386
:104D3C004946CB608B689B009B0833438B604B6868
:104D4C0042490B40A8225205134349464B600520AB
:104D5C0001F0D8FC02F0FAFA00222F4B02F06DFAA7
:104D6C0002F040FB011C4846FBF7A2FA424BF02232
:104D7C0012011A604149072000F03CFC0121072078
:104D8C0000F018FC4B4652464146280004F05AFEEF
:104D9C002B68220041468A40110093432B60434606
:104DAC005B0042469A18D20035488446624416602D
:104DBC001660424604322000904002003148814681
:104DCC0002604246083220009040020048460260D1
:104DDC002A680A432A6052461F210A404344DB00DA
:104DEC0029498C4663441A600121280004F06AFDAD
:104DFC0038602649280004F091FD254B9846186030
:104E0C0048E0C04624BC002030BC0020ECCE002082
:104E1C003CBC0020B4D3002080842E4174BC002004
:104E2C0090BC0020A0BC0020B0BC0020C4BC002062
:104E3C00000030508CF2002094CB0020E0F20020D7
:104E4C0090F20020FF7FF0FFFFFF0AFEFFFFFFE064
:104E5C00FFFF0A3E00780248D0103050002030503E
:104E6C00D80030507CCB00202C2130508107002002
:104E7C0000002050E4CB00202C2120504D070020B6
:104E8C00D010205000202050D8002050BCCB002047
:104E9C00DCF2002039685B460093033314222800AF
:104EAC0004F072FD4346196804AB9A461800FBF7F0
:104EBC0081FA5346DB68724A1340A0200003034377
:104ECC005246D36092686F4B13408020C00203435C
:104EDC005046836041686C4B1940B0235B050B4313
:104EEC0043606A4802408023DB021343334352463B
:104EFC009360052001F006FC02F00EFE644902F0FE
:104F0C00ECFD011C5046FBF7D3F939684246126898
:104F1C005346280004F096FD3A682B682000904018
:104F2C0083432B603A6853009B18DB00594A944624
:104F3C0063441E601E603B68043322009A401300D9
:104F4C004A4613603B68083322009A4013004A46D5
:104F5C0013603A682B6894401C432C6039684246B5
:104F6C0012681F231A404B005B18DB004A498C4621
:104F7C0063441A60FBF7BEFCFBF79AFC474C20001D
:104F8C0004F0C6FB012001F03FF904F021FB2000E6
:104F9C0004F0BEFBFA200021000101F045FD52E0B7
:104FAC003F4B1B689B003F4A944663441D78EDB20F
:104FBC003D4B18683D4901F0F3FE01314C013C4B6F
:104FCC00E41801F025FA002911D0FA2292000023EE
:104FDC0001F024FF374900902B004822200003F0F9
:104FEC007DFF314A136801331360012035E0FA214B
:104FFC00890001F0D5FEEDE72F4B1B689B002F4A73
:10500C00944663441D78EDB2274B1868274901F08C
:10501C00C7FE01314C01264BE41801F0F9F90029C7
:10502C0029D0FA229200002301F0F8FE21490090C9
:10503C002B004422200003F051FF1B4A136801335C
:10504C001360FCF71FFD164B1A681D4B596808328C
:10505C00012393400B42A3D00020174B1A68194B25
:10506C0059680832012393400B42C5D00028E8D17F
:10507C00FCF71EFDE7E7FA21890001F091FED5E768
:10508C00FF7FF0FFFFFF0AFEFFFFFFE0FFFF0A3E7E
:10509C0000780248D0102050D8002050F542002053
:1050AC008CF2002023003050386D01201F030000CB
:1050BC0008040120D8BC002090F2002023002050CE
:1050CC000000305000002050F8B5CE46474680B561
:1050DC00D0231B061F68214BBA00D35898467B007F
:1050EC00DB191B011E4A944663449946002627E0AF
:1050FC00EB4012E024090135002C20D0330008339A
:10510C00AB421CD90F23190021402342F2D0154B7E
:10511C00BA00D358202DEBD40023DB07EAD40722A6
:10512C002A409200EB08080090403C339B000E4A4A
:10513C0098504346002BDDD02800C047DAE70836EC
:10514C001D2E06D8F30808339B004A469C583500A0
:10515C00D2E7C0BCB946B046F8BDC046DCF1002071
:10516C0000410140000401200040014010B594466C
:10517C00072202409200C008914002003C3292008B
:10518C00094C115180001B186246002A05D0802260
:10519C00920194466344196010BDC022920194465A
:1051AC0063441960F8E7C0460040014010B5830025
:1051BC00084A9A18126840245440C0222240064CD7
:1051CC00A44663441A60C000044B9C466044416092
:1051DC0010BDC04604C0014004D001400040014055
:1051EC0080000B4B9C46604400290ED00823002AFB
:1051FC0000D004221343026853400C221340802237
:10520C00520194466044036070470023EFE7C046A8
:10521C0004C0014070B505000E00141E04D00D2012
:10522C0000F0DAF900280ED0D0231B061A685300C0
:10523C009B181B01074A9446634422003100280046
:10524C00FFF794FF70BD044B044A0548BD2103F0E1
:10525C00CDFEC0460041014004BF002004CC00201C
:10526C0030BF002070B50400D0231B061D680D4B09
:10527C00AA00D358002B0AD0002803D0094BAD004C
:10528C00EC5070BD08490D2000F0ECFAF6E7002850
:10529C00F7D0044BAD00E850034900220D2000F07C
:1052AC00D5F9EEE7DCF100200D4F0020F8B5050034
:1052BC000E0014001F00002A0BD122003100280020
:1052CC00FFF7A8FF002C08D001210D2000F072F987
:1052DC00F8BD1800FFF7C6FFEFE73800FFF7C2FF75
:1052EC00F6E710B501238340D02212069362936136
:1052FC000521FFF75BFF10BD10B51F21FFF756FF0F
:10530C0010BD00000FB400B583B0084803F0E3FFF4
:10531C00049B002B07D005A90191180003F0EAFFAC
:10532C00034803F0D8FF012003F016FE78BF0020DD
:10533C00E4AA0020EFF3108072B6034B1B68002B1D
:10534C00FBD0BFF35F8F70472C0100D0BFF35F8F92
:10535C00024B00221A6080F3108870472C0100D099
:10536C00CB08C25C07230B40012098401040431E21
:10537C009841C0B2704770B505000C001600FFF7DD
:10538C00D9FFE308EA189446E95C0722224001237E
:10539C0093400B4206D1DBB20B4362461370FFF70E
:1053AC00D5FF70BD21003000FFF7ACFFF0B583B026
:1053BC000500019114001E00FFF7BCFF00E0013452
:1053CC00B4420CD8E308EF18EB5C07212140012212
:1053DC008A401A42F3D1D2B21A433A7001E0012446
:1053EC006442FFF7B3FF002C02DB200003B0F0BDDA
:1053FC00019B002BF9D00898FFF784FF70B50500CE
:10540C000C00FFF797FFE308EA189446EA5C0721C3
:10541C00214001238B40134205D09A4363461A70F6
:10542C00FFF794FF70BD034B034A0448332103F08C
:10543C00DDFDC04688BF00201CCC0020A8BF00208A
:10544C00054A1078431CDBB21370172B02D91300DA
:10545C0010221A707047C046F0CE0020002307E0DF
:10546C00054A9A189200BFF35F8F00211160013337
:10547C001F2BF5D97047C04640000034074B9B6882
:10548C00103080001950BFF35F8FBFF35F8F044B58
:10549C000021196082F310887047C04600ED00E0CF
:1054AC00240100D00048704700E400E010B5FFF77D
:1054BC00F9FF002302E0034A04C00133072BFAD999
:1054CC0010BDC0468080808010B50388DA0A1C2A83
:1054DC0005D15B055B1502335B00C01810BD034B97
:1054EC00034A34210348FF3103F080FDF0BF002054
:1054FC0078CC002008C0002010B5091A0B1F0A4AEE
:10550C0088180A4A904208D8C90706D45B105B0574
:10551C005B0D0748184380B210BD064B064A262186
:10552C000648FF3103F062FDFC070000FE0F00008F
:10553C0000E0FFFF50C000206CCC002008C0002011
:10554C0010B5091A04394A08090B08D14905490D47
:10555C00064B0B430380064B1343438010BD054B96
:10556C00054A2E210548FF3103F040FD00F0FFFFF6
:10557C0000F8FFFF80C0002048CC002008C00020AD
:10558C0001238340034A10681840431E9841C0B25F
:10559C007047C04600E100E0002A05D0044BC02251
:1055AC005200995019607047014A8023D150FAE794
:1055BC0000E100E010B50A001F23034001219940CF
:1055CC004009FFF7E9FF10BD024B9B6810308000CB
:1055DC00C058704700ED00E010B5FFF7F5FF00284C
:1055EC0003D0034B984201D0012010BD0020FCE7F2
:1055FC00C101001070B505000E00EFF3108472B6F7
:10560C000D4B1B68002BFBD0BFF35F8F2800FFF7FF
:10561C00DBFF0A4B984201D0B04205D12200310089
:10562C002800FFF72BFF70BD054B064A8221064868
:10563C00490003F0DBFCC046240100D0C10100107E
:10564C0090C00020A0CC002008C00020F0B5DE46A1
:10565C0057464E464546E0B589B081460191150046
:10566C00EFF3108372B69A466E4B1B68002BFBD07F
:10567C00BFF35F8F6C4B00269E57002E40DB7400EF
:10568C00A419A400694823189B4606229A56664B17
:10569C001A70674B9A684B4610339B00D7583B1ACD
:1056AC002F2B3BD9634B9F4231D105AF624B3B80D3
:1056BC00624973000293981980005C4C0019023007
:1056CC00FFF71AFF78805E4BBB80FF23BB71FD7127
:1056DC00019A0792029B9B199B00E31807CF07C303
:1056EC0001275B463B431F00524639004846FFF7F3
:1056FC00C5FE09B0F0BCBB46B246A946A046F0BDFB
:10570C00504B514A94215148FF3103F06FFC504BE0
:10571C004D4ACD214D48490003F068FC01233A0065
:10572C009A439046101A0C2101F03AFB00290FD134
:10573C0043460024DA79AA4212D906215956002987
:10574C000DDB4A005218920038491C008B18F1E707
:10575C00404B3D4AAC213D48FF3103F047FC1C0057
:10576C00002C2DD005AB3C4A1A80813A5A80062376
:10577C00E3569846002B16DA384804AB188142469B
:10578C009A72DD72019B0793201D5946FFF7B4FEF8
:10579C00A080A671254B7200921992009B1805AA45
:1057AC0013CA13C3A0E7201DFFF78EFE0100700083
:1057BC00801980001D4BC0180430FFF79DFEDCE7FC
:1057CC0005AF1D4B3B801D49730002939B199B0039
:1057DC00164C1800A446604403900230FFF78CFE70
:1057EC007880039A101D4146FFF786FEB8801C4B4B
:1057FC004246121B524153431B0DBB71FD71019963
:10580C000791029B9B199B00A446634407CF07C3D7
:10581C00114B42461380813B538001275B463B432F
:10582C001F0061E7240100D05A6D0120F4CE002046
:10583C0000ED00E0C101001000A1FFFF24CF00200B
:10584C0001BDFFFFC8C0002088CC002008C000208C
:10585C00F0C0002018C100200148000001BD00006C
:10586C00AAAA0000F0B5CE46474680B583B0804664
:10587C000C00EFF3108772B64E4B1B68002BFBD05D
:10588C00BFF35F8F4C4B9A6845461035AB00D6582A
:10589C004A4B9E4207D0A64200D189E00196484B64
:1058AC00F31A2F2B09D93A0031004046FFF7E6FDD9
:1058BC0003B0C0BCB946B046F0BD4046FFF760FE31
:1058CC00814600214046FFF775FEBFF35F8FEFF373
:1058DC000581002901D08D4211D10123019D9D43E9
:1058EC000020AB689C4211D00622AA56002A0CDB81
:1058FC0053009B189B00324A2800D518F1E7314B16
:10590C00314A3248324903F071FB28009C4249D19C
:10591C0006242C57002C2BDB294B62001219920009
:10592C009B189A68AA60DA79EA719B795BB2AB71C1
:10593C00002B0FDA2748A880214B62001219920025
:10594C009B18254A11789971147049464046FFF707
:10595C0031FEA8E7600000198000194BC018043014
:10596C00FFF7B2FD01002B1D1800FFF7C5FDE2E7A4
:10597C00002912D100280ED0FF238371174B83808E
:10598C0015490B78AB710E4A154BAD1A6D416B4333
:10599C001B0D0B70D9E7094EF2E71249281DFFF7D2
:1059AC00CFFDD2E7104B084A0848104903F01EFB04
:1059BC00024E78E7240100D000ED00E0C101001098
:1059CC00F4CE00209CC1002058CC002008C0002040
:1059DC001902000001BD00005A6D012001BDFFFF3E
:1059EC00AAAA00002ECF0020D0C100205B0200002C
:1059FC0070B5012202432D4BD31A2F2B29D8EFF36C
:105A0C000583002B2BD0EFF3108172B68C462849FE
:105A1C0009680029FBD0BFF35F8F244C2549050092
:105A2C002D1B6D416943090D4CB2234989689B00BC
:105A3C00C958914219D00021032930D81B4B4A0078
:105A4C00521892009B189B795BB2A3421DD0013176
:105A5C00F2E71A4B1A4A1B481B4903F0C7FA1B4BB7
:105A6C00174A18481A4903F0C1FA134A926819499F
:105A7C00D150194B1A7882711C70BFF35F8F0C4B8D
:105A8C0000221A608CF3108870BD084B4A00551820
:105A9C00AD005D19FF26AE71104AAA80E9E7104BE4
:105AAC00074A08480F4903F0A1FAC046F4CE00207B
:105ABC00240100D0AAAA000000ED00E0D8C100200B
:105ACC002CCC002008C000209602000000C2002050
