:020000041000EA
:1000000000B5324B212058609868022188439860DF
:10001000D860186158612E4B002199600221596106
:100020000121F02299502B49196001219960352056
:1000300000F044F80222904214D00621196600F024
:1000400034F8196E01211966002018661A6600F04E
:100050002CF8196E196E196E052000F02FF8012189
:100060000842F9D1002199601B49196000215960AB
:100070001A491B48016001219960EB211966A021F2
:10008000196600F012F800219960164914480160C1
:100090000121996001BC002800D000471248134993
:1000A000086003C880F30888084703B5996A0420EC
:1000B0000142FBD001200142F8D103BD02B5186610
:1000C0001866FFF7F2FF186E186E02BD00000240BE
:1000D000000000180000070000035F00212200005C
:1000E000F4000018222000A00001001008ED00E03C
:1000F00000000000000000000000000074B24E7A12
:1001000000200420F7010010CB010010CD010010E9
:10011000C9010010C9010010C9010010C901001077
:10012000C9010010C9010010C9010010CF01001061
:10013000C9010010C9010010D1010010D301001045
:10014000C1010010C1010010C1010010C101001067
:10015000C1010010C1010010C1010010C101001057
:10016000C1010010C1010010C1010010C101001047
:10017000C1010010C1010010C1010010C101001037
:10018000C1010010C1010010C1010010C101001027
:10019000C1010010C1010010C1010010C101001017
:1001A000C1010010C1010010C1010010C101001007
:1001B000C1010010C1010010C1010010C1010010F7
:1001C000EFF30580103800BE00BE00BE00BE00BECA
:1001D00000BE00BEF2EB88718C020010BC02001061
:1001E0003802001090A31AE700202149086006C8D1
:1001F00081F3088810471F480068002801D00020BC
:10020000F3E70DA40ECC002902D000F012F8F9E7B4
:1002100019491A4A002000E001C19142FCD1184955
:100220008847184988471849884700BEFDE701C933
:1002300001C29A42FBD37047BC020010C4000020E8
:100240005C6500205467001060650020B87D0020C8
:10025000AC7F00100000042000000420AC7F0010E0
:10026000001004200010042000000000704700006F
:1002700008ED00E0000000D0B87D002070E700200D
:0C0280008D4F0020390A00204F4F002055
:10028C0064750020707500207C7500208875002036
:10029C0094750020A0750020AC750020B875002066
:1002AC00C47500203876002030760020247600209B
:1002BC0070B50500081CEC21890503F0C7FC061C71
:1002CC0003F010FD84B2002C12D0200003F0E2FCED
:1002DC00011C301C03F0B5FC8721C90503F0D1FCCF
:1002EC0003F000FDC3B21B0224041C432C6070BD40
:1002FC002300F8E710B504001022002103F0BCFD28
:10030C0080235B022360F8235B0263608023DB02A3
:10031C00A360C0231B03A360200010BD10B5002AEE
:10032C001BD0202300291AD0102423433034A44698
:10033C00644623438363002905D0436B38210B406B
:10034C00084941180B60002A06D0436B0722134062
:10035C00044A94466044036010BD1300E2E78C46E7
:10036C00E6E7C0463410000070B504000D00FFF73E
:10037C00C1FF2A000A32636804490B40ED012B438C
:10038C00120313436360200070BDC0467F00FEFF64
:10039C0070B504000D00FFF7ADFF2A000E32636844
:1003AC0004490B40ED012B431203134363602000FF
:1003BC0070BDC0467F00FEFF70B504000D00FFF756
:1003CC0099FFAA1D636804490B40ED012B431203EE
:1003DC0013436360200070BD7F00FEFF034B187851
:1003EC00034B9C466044FF2398437047AC7F00103E
:1003FC00FF00001088204005704710B5FFF7FAFF8A
:10040C000400FFF7EBFF201A10BD0000064B196823
:10041C00064B1B681F221A404B005B18DB0004497B
:10042C008C4663441A60704710810020388100208C
:10043C00D8002050064B1968064B1B681F221A4027
:10044C004B005B18DB0004498C4663441A60704710
:10045C000C8100203C810020D800305010B5D023F6
:10046C001B068022D2035A61D0231B065B685B02F9
:10047C00FAD5FFF7CBFF10BD10B5D0231B06802299
:10048C00D2039A61FFF7C2FF10BD000010B50B4BF1
:10049C001B6BDB0704D4094B1B6B9B0706D410BDED
:1004AC00064B01221A63FFF7D9FFF8E7034B022230
:1004BC001A63FFF7E1FFFFF7BDFFF0E700002050E4
:1004CC0010B50A4B1B6BDB0707D4084B1B6B9B0748
:1004DC0002D5064B02221A6310BD044B01221A638B
:1004EC00FFF7CAFFFFF7A6FFF6E7C0460000305043
:1004FC0082B0EFF3108172B6144B1A6880239B0103
:10050C005340C02292011340114A136000230193FF
:10051C0002E0019B01330193019AFA239B009A425A
:10052C00F7DBD0231B069B68022018408007C00F06
:10053C0001235840C0B2054B1B68C02292011340E6
:10054C00034A136081F3108802B070470C8001409D
:10055C000C90014010B51C2800D010BD01F047F8DC
:10056C0080235B05D0242406A3620E2001F03FF803
:10057C008023DB01A3620F2001F039F880231B02DA
:10058C00A362064B064A1A60064804F04EFF00228E
:10059C000021002002F01AFBDFE7C046C00000205B
:1005AC0096966969E4660020F8B507001A2001F0F8
:1005BC001EF8D0231B068022D2045A62C82001F0F8
:1005CC00A9FF00240CE0D0252D068026F6046E61D0
:1005DC00C82001F09FFFAE61C82001F09BFF0134E1
:1005EC00BC42F0DBD0231B068022D2049A62F8BDF9
:1005FC0070B50A00C046C046C046C046C046C0469C
:10060C00D02424068025AD01A561C046C046C04655
:10061C00C046C046C046C046C046C046C046C0469E
:10062C00C046C046C046C046C046C046C046C0468E
:10063C00C046C046C046C046C046C046C046C0467E
:10064C00C046C046C046C046C046C046C046C0466E
:10065C00C046C046C046C046C046C046C046C0465E
:10066C00C046C046C046C046C046C046C046C0464E
:10067C00C046C046C046C046C046C046C046C0463E
:10068C00C046C046C046C046C046C046C046C0462E
:10069C00C046C046C046C046C046C046C046C0461E
:1006AC00C046C046C046C046C046C046C046C0460E
:1006BC00C046C046C046C046C046C046C046010003
:1006CC00324806F0E7F8C046C046C046C046C046B1
:1006DC00C046C046C046C046C046C046C046C046DE
:1006EC00C046C046C046C046C046C046C046C046CE
:1006FC00C046C046C046C046C046C046C046C046BE
:10070C00C046C046C046C046C046C046C046C046AD
:10071C00C046C046C046C046C046C046C046C0469D
:10072C00C046C046C046C046C046C046C046C0468D
:10073C00C046C046C046C046C046C046C046C0467D
:10074C00C046C046C046C046C046C046C046C0466D
:10075C00C046C046C046C046C046C046C046C0465D
:10076C00C046C046C046C046C046C046C046C0464D
:10077C00C046C046C046C046C0466561C046C0467D
:10078C00C046C046C046C04670BDC04600000440CE
:10079C00F8B5CE46474680B5FA24E400200001F0B7
:1007AC00B9FE1C2000F023FFD0252D0680235B050D
:1007BC00AB62002201211C2000F098FE200001F009
:1007CC00A9FE684B012204211C2000F0F5FE664CAA
:1007DC006649200002F06CF80221102000F06CFE3B
:1007EC000221112000F068FE236BC022120213407C
:1007FC005F4A1360002301220821200002F026F832
:10080C000021200002F038F8002200212000FFF720
:10081C0085FD0F2000F0EBFE80231B02AB62002253
:10082C0001210F2000F062FE002404E05148210059
:10083C0004F02AFE0134504B9C4204DCD0231B06EE
:10084C005B681B04F2D40E2000F0D1FED0231B06F3
:10085C008022D2015A629A6100239946474F9846EA
:10086C000024002629E0751C4549300002F056FB97
:10087C0001314A01434BD2184349444804F0ECFB84
:10088C00D0231B068022D2015A61D0231B065B6841
:10089C001B04FAD5D0231B068022D2019A613B4E51
:1008AC00300005F075FD01003000FFF7A1FE38485F
:1008BC00310004F0E9FD01342E00364B1B68B342C5
:1008CC00D1D14C4505D043465A1C334B984506D8DC
:1008DC0090467A1C314B9F4223D81700EDE7304BE2
:1008EC001A683049294D2300280004F0B5FB280074
:1008FC0005F04EFD013000212A0008E01A4B9B69DF
:10090C009B06FBD41578184B1D60013101328842CF
:10091C00F4D81E4804F089FDA14600270023984610
:10092C00CBE71F4B1A681F49184D2300280004F011
:10093C0093FB280005F02CFD013000212A0008E073
:10094C00094B9B699B06FBD41578074B1D60013145
:10095C0001328842F4D80D4804F067FD00270023CB
:10096C009846AAE769030020004003408024010058
:10097C003050034020670020B70B0000814A5D0512
:10098C001F030000588100204067002014810020C4
:10099C004867002068E70020002D3101804A5D0582
:1009AC00987600204C67002070B50024002500E0EC
:1009BC000134FA235B009C4205DAFFF799FD00280D
:1009CC00F6D00135F4E75A2D00DC70BD002108008B
:1009DC0002F054F9F0B5C64600B5040000F007FE6D
:1009EC0000220121200000F081FD052001F092FD84
:1009FC00D0273F067E680125A5402E403000431EBF
:100A0C009841C3B2984601220021200000F06EFDEF
:100A1C00052001F07FFD7B681D40200000F0F2FDF9
:100A2C00002E01D0002D03D0404680BCB846F0BD4E
:100A3C000220FAE770B50420FFF7CCFF0500040094
:100A4C000520FFF7C7FF02000100022D18D0002C73
:100A5C0001D1022922D0012C16D0022C18D028004A
:100A6C001043C0B2002820D0002C01D1012919D08C
:100A7C00012C19D1002919D0A14219D0092014E058
:100A8C00A842E4D1042010E00229E6D106200CE0B3
:100A9C00002905D00129E2D1082006E0052004E058
:100AAC00072002E0100000E0092070BD0220FCE7E6
:100ABC000320FAE710B5FFF7BDFF304B18701A781A
:100ACC00D3B2042A3ED0042B0DD9072B48D021D801
:100ADC00052B3ED0062B4AD1294B2A4A1A602A48AC
:100AEC0004F0A3FC25E0022B25D00AD8002B1AD049
:100AFC00012B3CD1224B254A1A60254804F095FC69
:100B0C0017E0032B33D11E4B224A1A60224804F003
:100B1C008CFC0EE0082B2AD1194B204A1A60204875
:100B2C0004F083FC05E0164B1E4A1A601E4804F0C4
:100B3C007CFC002010BD124B1C4A1A601C4804F0AF
:100B4C0074FCF6E70E4B1B4A1A601B4804F06DFC54
:100B5C00EFE70B4B194A1A60194804F066FCE8E7FA
:100B6C00074B184A1A60184804F05FFCE1E7044B85
:100B7C00164A1A60164804F058FCDAE794760020FE
:100B8C0098760020346800203868002084670020A4
:100B9C0088670020BC670020C06700209468002094
:100BAC0098680020686700206C670020A067002010
:100BBC00A4670020D8670020DC67002004680020B0
:100BCC00086800206468002068680020C468002061
:100BDC00C868002070B50500002400E00134032C27
:100BEC000ADC2100280004F033FF0028F6D0210095
:100BFC00280004F001FFF1E770BD000070B5074D4F
:100C0C002800FFF7E7FF064C2000FFF7E3FF280062
:100C1C0004F046FF200004F043FF70BD000020509C
:100C2C0000003050F0B5DE4657464E464546E0B51E
:100C3C0093B0FFF7B9FE0220FFF7B6FCFA4B1A6827
:100C4C00FA4B9A4200D11BE31C2000F0D0FCD024BC
:100C5C00240680235B056362A3610E2000F0C7FCB1
:100C6C008023DB01A3620F2000F0C1FC80231B0258
:100C7C00A362082000F0BBFC80256D006562A561B5
:100C8C00092000F0B4FC8026B60066626661FFF7AE
:100C9C0011FF04F0C5FB6561642001F03BFCE44BE3
:100CAC00E44AE5490968E54804F0EEFBE44B1B68AF
:100CBC00986805F061F9E34FE349380005F038F81E
:100CCC00050001210A2000F0F7FB01210B2000F0A8
:100CDC00F3FB01210C2000F0EFFB0D2000F087FC52
:100CEC0080239B01636263617B6802221340D749B6
:100CFC000A60396805325140C8320A40D4490A604A
:100D0C00D44A1360D449D54804F0BEFB280002F045
:100D1C00C1FF02F0EFFF0022D14B02F04CFB0200AE
:100D2C000B00D048009504F0AFFBA661FFF756FB13
:100D3C000600FFF75FFB0700FFF75FFB0300CA4DE0
:100D4C003A003100280004F09FFB142000F04FFC07
:100D5C0080235B03A36200220121142000F0C6FB58
:100D6C00152000F044FC80239B03A3620022012188
:100D7C00152000F0BBFB162000F039FC8023DB03B0
:100D8C006362A361132000F032FC80231B036362B7
:100D9C006361C046C046C046C046C046C046616896
:100DAC008902C90FB14804F06FFB6168C902C90F11
:100DBC00AF4804F069FB61684902C90FAD4804F003
:100DCC0063FB61680903C90FAB4804F05DFBFFF7D7
:100DDC0015FFAA4D0121280004F01EFEA84B9846D1
:100DEC001860A849280004F043FEA74B99461860E8
:100DFC00A64F39680023009302331422280004F014
:100E0C006DFE4A4611680EAC2000FFF7C1FA119B2B
:100E1C009F4A1340A02109030B431193109B9D483B
:100E2C00184002008026F602324310920F9A9A481C
:100E3C000240A82149050A430F92984803403343C6
:100E4C008026360633431093052001F0E1FD02F0B5
:100E5C0021FF934902F0FFFE011C2000FFF728FA46
:100E6C00434619684B461A682300280004F094FE88
:100E7C00444622682B680124210091408B432B604F
:100E8C0043461A6853009B18DB00864A9446634419
:100E9C001E601E6043461B68043322009A401300F8
:100EAC00814A9246136043461B68083322009A40DD
:100EBC0013005246136043461A682B682100914078
:100ECC000B432B60434619684B461A681F231A4084
:100EDC004B005B18DB0075498C4663441A6001219A
:100EEC00280004F099FD80467149280004F0C0FDEB
:100EFC00834600230093023314224146280004F059
:100F0C00EDFD0AAA914659461000FFF755FA4A46DC
:100F1C00D3685F4A1340A02109030B434A46D360B0
:100F2C0093689B009B083343936053685A48034073
:100F3C00A822520513434A465360052001F068FD70
:100F4C0002F0C2FA0022464B02F035FA02F008FB1E
:100F5C00011C4846FFF7ACF9564BF02212011A60FF
:100F6C005549092000F0CCFC0121092000F0A8FC17
:100F7C004B465A464146280004F00EFE2B682100D1
:100F8C00404681408B432B6043001A18D2004548E1
:100F9C0084466244166016604046021D2000904054
:100FAC00020050460260404608300200200090408B
:100FBC000200504602602A680A432A6059461F25DF
:100FCC0029404344DB00394DAC46634419603B4D2A
:100FDC000121280004F020FD80463949280004F046
:100FEC0047FD824600230093023314224146280019
:100FFC0004F074FD06AB994651461800FFF7B4F99E
:10100C004B46DB68224A1340A02109030B43484698
:10101C00C36083689B009B083343836043681E480E
:10102C000340A82252054DE0C00000209696696945
:10103C00FC680020086900209876002014690020C4
:10104C00647B002000000440404B4C000430044002
:10105C000010044004200440486900204C69002022
:10106C0080842E416469002080690020E0690020A2
:10107C00F0690020006A0020146A00200000305043
:10108C000C810020987300203C81002010810020EE
:10109C00FF7FF0FFFFFF0AFEFFFFFFE0FFFF0A3EAE
:1010AC0000780248D010305000203050D80030501A
:1010BC00807300202C213050D502002000002050DD
:1010CC00E8730020134349464B60052001F0A0FC57
:1010DC0002F0FAF90022A44B02F06DF902F040FA8A
:1010EC00011C4846FFF7E4F8A04BF02212011A60ED
:1010FC009F49072000F004FC0121072000F0E0FBD1
:10110C004B4652464146280004F046FD2B6822000F
:10111C0041468A40110093432B60424653009A1873
:10112C00D2009448844662441660166042460432EB
:10113C0020009040020090488146026042460832EE
:10114C00200090400200484602602A680A432A6048
:10115C0052461F210A404344DB0088498C466344B5
:10116C001A600121280004F057FC386084492800DB
:10117C0004F07EFC834A904610603968002300938B
:10118C0003331422280004F0A9FC4346196802AB6F
:10119C009A461800FFF7FCF85346DB687A4A13406E
:1011AC00A02109030B435246D3609268774B13403E
:1011BC008021C9020B4351468B6049687448014039
:1011CC00B0235B050B4351464B60724802408021B3
:1011DC00C90211430B00334352469360052001F0C2
:1011EC0017FC02F057FD6C4902F035FD011C50460E
:1011FC00FFF75EF83968424612685346280004F03F
:10120C00CBFC3A682B68210091408B432B603A68E9
:10121C0053009B18DB00574A944663441E601E60C3
:10122C003B68043322009A4013004A4613603B6823
:10123C00083322009A4013004A4613603A682B6820
:10124C0094401C432C603968424612681F231A4094
:10125C004B005B18DB0049498C4663441A60FFF76E
:10126C000BF9FFF7E7F84D4C200004F0FBFA0120D6
:10127C0001F050F904F056FA200004F0F3FA23E0E0
:10128C0004F0CEF8464804F0D0F8464B00221A6021
:10129C00454801F03FF9D7E4FA21890001F03EFE00
:1012AC00424900902B004822200003F0D5FE404A12
:1012BC001368013313603F4B1A683F4B596808326F
:1012CC00012393400B4223D03C4B1A683C4B59688A
:1012DC000832012393400B42EDD1384B1B689B0025
:1012EC00384A944663441D78EDB2314B1868364940
:1012FC0001F014FE01314C01344BE41801F00EFAEC
:10130C000029C9D0FA229200002301F045FEC7E75C
:10131C00284B1B689B002E4A944663441D78EDB203
:10132C00234B1868284901F0F9FD01314C01274B7A
:10133C00E41801F0F3F9002910D0FA2292000023EE
:10134C0001F02AFE194900902B004422200003F0E2
:10135C0083FE174A136801331360B5E7FA2189003D
:10136C0001F0DCFDEEE7C04680842E412C2120509C
:10137C00A1020020D010205000202050D800205076
:10138C00C073002038810020FF7FF0FFFFFF0AFEB2
:10139C00FFFFFFE0FFFF0A3E00780248A505002092
:1013AC00E4680020C000002050C30000286A002020
:1013BC0068E7002010810020000020500C810020E4
:1013CC0000003050230030501F03000058810020D3
:1013DC0023002050F8B5CE46474680B5D0231B06D7
:1013EC001F68214BBA00D35898467B00DB191B01B0
:1013FC001E4A944663449946002627E0EB4012E0CF
:10140C0024090135002C20D033000833AB421CD901
:10141C000F23190021402342F2D0154BBA00D358A8
:10142C00202DEBD40023DB07EAD407222A409200BC
:10143C00EB08080090403C339B000E4A9850434602
:10144C00002BDDD02800C047DAE708361D2E06D861
:10145C00F30808339B004A469C583500D2E7C0BCC1
:10146C00B946B046F8BDC046B880002000410140E6
:10147C00508100200040014010B5944607220240E4
:10148C009200C008914002003C329200094C11516C
:10149C0080001B186246002A05D0802292019446D7
:1014AC006344196010BDC0229201944663441960D4
:1014BC00F8E7C0460040014010B58300084A9A186E
:1014CC00126840245440C0222240064CA446634477
:1014DC001A60C000044B9C466044416010BDC0467D
:1014EC0004C0014004D001400040014080000B4B7F
:1014FC009C46604400290ED00823002A00D0042208
:10150C001343026853400C2213408022520194462C
:10151C006044036070470023EFE7C04604C00140FD
:10152C0070B505000E00141E04D00D2000F0DAF981
:10153C0000280ED0D0231B061A6853009B181B01E1
:10154C00074A94466344220031002800FFF794FFB9
:10155C0070BD044B044A0548BD2103F0F1FDC046A3
:10156C0000410140486A002008740020746A002081
:10157C0070B50400D0231B061D680D4BAA00D35870
:10158C00002B0AD0002803D0094BAD00EC5070BDE5
:10159C0008490D2000F0ECFAF6E70028F7D0044BD0
:1015AC00AD00E850034900220D2000F0D5F9EEE71C
:1015BC00B8800020E9110020F8B505000E001400D9
:1015CC001F00002A0BD1220031002800FFF7A8FFD2
:1015DC00002C08D001210D2000F072F9F8BD180084
:1015EC00FFF7C6FFEFE73800FFF7C2FFF6E710B5CD
:1015FC0001238340D0221206936293610521FFF7E9
:10160C005BFF10BD10B51F21FFF756FF10BD00008A
:10161C000FB400B583B0084803F007FF049B002B00
:10162C0007D005A90191180003F00EFF034803F041
:10163C00FCFE012003F03AFDBC6A00204469002046
:10164C00EFF3108072B6034B1B68002BFBD0BFF37B
:10165C005F8F70472C0100D0BFF35F8F024B0022CD
:10166C001A6080F3108870472C0100D0CB08C25C44
:10167C0007230B40012098401040431E9841C0B2F4
:10168C00704770B505000C001600FFF7D9FFE30892
:10169C00EA189446E95C07222240012393400B424E
:1016AC0006D1DBB20B4362461370FFF7D5FF70BD5A
:1016BC0021003000FFF7ACFFF0B583B005000191BD
:1016CC0014001E00FFF7BCFF00E00134B4420CD83C
:1016DC00E308EF18EB5C0721214001228A401A42F3
:1016EC00F3D1D2B21A433A7001E001246442FFF7FD
:1016FC00B3FF002C02DB200003B0F0BD019B002BDC
:10170C00F9D00898FFF784FF70B505000C00FFF7BF
:10171C0097FFE308EA189446EA5C0721214001236D
:10172C008B40134205D09A4363461A70FFF794FF1F
:10173C0070BD034B034A0448332103F001FDC0463E
:10174C00CC6A002020740020EC6A0020054A107836
:10175C00431CDBB21370172B02D9130010221A7022
:10176C007047C0469C760020002307E0054A9A1873
:10177C009200BFF35F8F0021116001331F2BF5D94D
:10178C007047C04640000034074B9B681030800007
:10179C001950BFF35F8FBFF35F8F044B00211960AB
:1017AC0082F310887047C04600ED00E0240100D0A1
:1017BC000048704700E400E010B5FFF7F9FF002384
:1017CC0002E0034A04C00133072BFAD910BDC0460E
:1017DC008080808010B50388DA0A1C2A05D15B054D
:1017EC005B1502335B00C01810BD034B034A342158
:1017FC000348FF3103F0A4FC346B00207C74002000
:10180C004C6B002010B5091A0B1F0A4A88180A4A9B
:10181C00904208D8C90706D45B105B055B0D0748DE
:10182C00184380B210BD064B064A26210648FF31EC
:10183C0003F086FCFC070000FE0F000000E0FFFF39
:10184C00946B0020707400204C6B002010B5091AAA
:10185C0004394A08090B08D14905490D064B0B43BD
:10186C000380064B1343438010BD054B054A2E21C4
:10187C000548FF3103F064FC00F0FFFF00F8FFFFA8
:10188C00C46B00204C7400204C6B0020012383405F
:10189C00034A10681840431E9841C0B27047C046B6
:1018AC0000E100E0002A05D0044BC0225200995000
:1018BC0019607047014A8023D150FAE700E100E03B
:1018CC0010B50A001F230340012199404009FFF77E
:1018DC00E9FF10BD024B9B6810308000C058704768
:1018EC0000ED00E010B5FFF7F5FF002803D0034B27
:1018FC00984201D0012010BD0020FCE7C10100106E
:10190C0070B505000E00EFF3108472B60D4B1B681A
:10191C00002BFBD0BFF35F8F2800FFF7DBFF0A4BD8
:10192C00984201D0B04205D1220031002800FFF7C7
:10193C002BFF70BD054B064A82210648490003F077
:10194C00FFFBC046240100D0C1010010D46B002065
:10195C00A47400204C6B0020F0B5DE4657464E4672
:10196C004546E0B589B0814601911500EFF310832F
:10197C0072B69A466E4B1B68002BFBD0BFF35F8F81
:10198C006C4B00269E57002E40DB7400A419A4005B
:10199C00694823189B4606229A56664B1A70674B69
:1019AC009A684B4610339B00D7583B1A2F2B3BD9C8
:1019BC00634B9F4231D105AF624B3B806249730050
:1019CC000293981980005C4C00190230FFF71AFF43
:1019DC0078805E4BBB80FF23BB71FD71019A07922F
:1019EC00029B9B199B00E31807CF07C301275B469B
:1019FC003B431F00524639004846FFF7C5FE09B06D
:101A0C00F0BCBB46B246A946A046F0BD504B514A6D
:101A1C0094215148FF3103F093FB504B4D4ACD219B
:101A2C004D48490003F08CFB01233A009A43904641
:101A3C00101A0C2101F072FA00290FD14346002430
:101A4C00DA79AA4212D90621595600290DDB4A002F
:101A5C005218920038491C008B18F1E7404B3D4A54
:101A6C00AC213D48FF3103F06BFB1C00002C2DD04A
:101A7C0005AB3C4A1A80813A5A800623E3569846B5
:101A8C00002B16DA384804AB188142469A72DD7284
:101A9C00019B0793201D5946FFF7B4FEA080A67149
:101AAC00254B7200921992009B1805AA13CA13C3F6
:101ABC00A0E7201DFFF78EFE01007000801980004A
:101ACC001D4BC0180430FFF79DFEDCE705AF1D4B26
:101ADC003B801D49730002939B199B00164C180008
:101AEC00A446604403900230FFF78CFE7880039A82
:101AFC00101D4146FFF786FEB8801C4B4246121B58
:101B0C00524153431B0DBB71FD7101990791029B0F
:101B1C009B199B00A446634407CF07C3114B424655
:101B2C001380813B538001275B463B431F0061E7D9
:101B3C00240100D06CE70020A076002000ED00E02E
:101B4C00C101001000A1FFFFD076002001BDFFFFF6
:101B5C000C6C00208C7400204C6B0020346C00202A
:101B6C005C6C00200148000001BD0000AAAA000026
:101B7C00F0B5CE46474680B583B080460C00EFF3F7
:101B8C00108772B64E4B1B68002BFBD0BFF35F8FD8
:101B9C004C4B9A6845461035AB00D6584A4B9E4282
:101BAC0007D0A64200D189E00196484BF31A2F2B9F
:101BBC0009D93A0031004046FFF7E6FD03B0C0BC3E
:101BCC00B946B046F0BD4046FFF760FE81460021A5
:101BDC004046FFF775FEBFF35F8FEFF305810029D9
:101BEC0001D08D4211D10123019D9D430020AB6892
:101BFC009C4211D00622AA56002A0CDB53009B18DB
:101C0C009B00324A2800D518F1E7314B314A324853
:101C1C00324903F095FA28009C4249D106242C57EE
:101C2C00002C2BDB294B6200121992009B189A682E
:101C3C00AA60DA79EA719B795BB2AB71002B0FDA8F
:101C4C002748A880214B6200121992009B18254A44
:101C5C0011789971147049464046FFF731FEA8E798
:101C6C00600000198000194BC0180430FFF7B2FD5A
:101C7C0001002B1D1800FFF7C5FDE2E7002912D16A
:101C8C0000280ED0FF238371174B838015490B78E6
:101C9C00AB710E4A154BAD1A6D416B431B0D0B709E
:101CAC00D9E7094EF2E71249281DFFF7CFFDD2E71D
:101CBC00104B084A0848104903F042FA024E78E7E4
:101CCC00240100D000ED00E0C1010010A07600203E
:101CDC00E06C00205C7400204C6B002019020000AA
:101CEC0001BD00006CE7002001BDFFFFAAAA0000A7
:101CFC00DA760020146D00205B02000070B5012222
:101D0C0002432D4BD31A2F2B29D8EFF30583002B2D
:101D1C002BD0EFF3108172B68C4628490968002944
:101D2C00FBD0BFF35F8F244C254905002D1B6D4163
:101D3C006943090D4CB2234989689B00C9589142EB
:101D4C0019D00021032930D81B4B4A00521892009D
:101D5C009B189B795BB2A3421DD00131F2E71A4B61
:101D6C001A4A1B481B4903F0EBF91B4B174A18483E
:101D7C001A4903F0E5F9134A92681949D150194BE5
:101D8C001A7882711C70BFF35F8F0C4B00221A60A3
:101D9C008CF3108870BD084B4A005518AD005D19C6
:101DAC00FF26AE71104AAA80E9E7104B074A084893
:101DBC000F4903F0C5F9C046A0760020240100D0DD
:101DCC00AAAA000000ED00E01C6D00203074002079
:101DDC004C6B002096020000446D0020990200001C
:101DEC00C10100106CE7002001BDFFFF506D002009
:101DFC00AA020000024B9C466144890001607047B6
:101E0C004000003410B50400FFF7A0FC01002000D6
:101E1C00FFF7F0FFFF232371BFF35F8F10BD10B5E9
:101E2C000400FFF793FC01002000FFF7E3FFFF2302
:101E3C00237100236371BFF35F8F10BD10B50D4C80
:101E4C0009E00D4B0D4A0E481A2103F079F92000D8
:101E5C00FFF7D8FF08340B4B9C4209D22368002BA8
:101E6C00F5D0012BEDD12000FFF7D9FF0834F2E7B4
:101E7C0010BDC046687D0020586D0020E474002021
:101E8C00786D0020787D002030B5836A9C46D41A8A
:101E9C000B1D9B001B5865465B1B9C4204D3046ABC
:101EAC0001238B40234202D1043189000A5030BDFA
:101EBC0000040843704700000A4B1968EFF31083C5
:101ECC0072B60A68002AFCD0BFF35F8F054A12680D
:101EDC00BFF35F8F0021116083F3108840BF002097
:101EEC00002170475CE70020F0B5DE4657464E46B1
:101EFC004546E0B583B0EFF3058303221A40110089
:101F0C000192AF4B9200D35898461B788B4207D165
:101F1C000123019A93400093AA4B009A1A601FE187
:101F2C00A94BAA4AAA489C2103F00AF943465A69CC
:101F3C004B465B004B44DB0093469B445B469E68E0
:101F4C00DF68A44800F0BAFB801BB941002900DA15
:101F5C0010E1002F61DB5B461C699F4B9C4247D014
:101F6C0043460820185E5B46598889B2FFF7A0FFEC
:101F7C005B465969A04704000D0023002B434CD04D
:101F8C00002D3EDA30003900001BA9415B469860F9
:101F9C00D96000241C5F002C00DAEBE043465A6940
:101FAC00924663001B19DB0053449A68DB680500FA
:101FBC000E00AD1A9E41002E00DADBE043461C8178
:101FCC0047460837BC46002C21DB634600229B5E4B
:101FDC005D00ED18ED005544AA68EB6806000F0093
:101FEC00B61A9F41002F12DBAC460023EC5EEAE7E9
:101FFC005B465C6923692000984700280DD030CCE3
:10200C00BBE7744800F05AFB00196941BEE75B4618
:10201C001C804B4662461380ACE05B4600229B5E04
:10202C00424613811269EFF3108372B611680029CE
:10203C00FCD0BFF35F8F42460221525E59460A80A4
:10204C004246494651801269BFF35F8F00211160EF
:10205C0083F310888EE043461969EFF3108372B650
:10206C000A68002AFCD0BFF35F8F4246928812B2F6
:10207C0091460122524241468A800A69BFF35F8F22
:10208C000021116083F310881CE09B4600229A5EAD
:10209C00002A0EDB5B460021595E4B005B18DB000F
:1020AC0053449868D96826002F00361A8F41002FA8
:1020BC00EBDA4B4659460B80634600215B5E994632
:1020CC0063461A804B46002B5ADB43465A699246AC
:1020DC004B465B004B44DB009C46D44463469C68F7
:1020EC00DD6846460836B346434608229A5ECFE77B
:1020FC000023424693714146083143460820185E3E
:10210C0011E001225242D317A260E3604346082239
:10211C009B5E834206D00D80434608229B5E238043
:10212C00434618812800431C2ED043465A6943006D
:10213C001B18DB00D418D55E63881BB2002BE0DBC8
:10214C002100EFE722002B0001992248FFF79CFEAB
:10215C00204800F0B3FA241A8D41002D28DC25D03C
:10216C001C4B009A5A63434608229B5E9946002BEF
:10217C0000DBDBE643469B881BB2002B00DB6AE7E7
:10218C0043469B79002BB3D1434608229A5E002A22
:10219C000EDB4346596953009B18DB00CB189C6837
:1021AC00DD68631CCED16B1CD2D0CBE7002CD7D012
:1021BC0040BF03B0F0BCBB46B246A946A046F0BD3A
:1021CC00408100203C7005400C6E002010750020F2
:1021DC00386E002000400540FD1C002070B5040046
:1021EC000D0011000126AE4006622800FFF788FBA7
:1021FC0001212800FFF764FB024B9C4664442660D7
:10220C0070BDC04638200000F8B504000F00160061
:10221C001D00C160FFF79AFA124B9C466044800087
:10222C0020612670ABB26381D022120612786270E4
:10223C00012252422281A2809B186380002306E077
:10224C00581E61695A00D218D20088520133AB4231
:10225C00F6D3054BB200D450044A31003800FFF7D6
:10226C00BDFFF8BD4000003440810020FD1C002063
:10227C0010B5064B1B69002B01D0044810BD044B54
:10228C00044A0548652102F05BFFC046F076002049
:10229C00786E0020F8740020386E0020F8B5040029
:1022AC000569EFF3108072B629680029FCD0BFF3E2
:1022BC005F8F0221665E656971008919C9006D180E
:1022CC00002E02DB0027E95F61802169BFF35F8F7D
:1022DC0000270F6080F31088002E2CDB06992961F3
:1022EC0007996961AA60EB606B8801335B04590C38
:1022FC00002B00D1012169803000FFF7D9FD216945
:10230C00EFF3108372B60A68002AFCD0BFF35F8F1C
:10231C00A2882A80A6802269BFF35F8F00211160FA
:10232C0083F31088E368217801228A4003498C46A4
:10233C0063441A60F8BD01204042FBE73C200000DA
:10234C0070B582B0060014001D0008AB1B78002B82
:10235C0007D100F0E3F922002B00121A8B41002B5D
:10236C000ADB079B0193069B009322002B00300095
:10237C00FFF794FF02B070BD0020FBE7F0B5C64636
:10238C0000B584B080460F0016001D000AAB1C7807
:10239C00FFF76EFF02940195009642463B00FFF753
:1023AC00CFFF04B080BCB846F0BD000030B50400CF
:1023BC000A1443899A4230DA406953009B18DB00B7
:1023CC00C31822699446EFF3108272B66046006817
:1023DC000028FBD0BFF35F8F588885B20904090C25
:1023EC00884212D000202369BFF35F8F002119604F
:1023FC0082F31088002811D0E368217801228A40EA
:10240C0007498C4663441A6008E00649294389B29F
:10241C0059800123A3710120E5E7002030BDC0469F
:10242C003C2000000080FFFF10B50400FFF720FFE8
:10243C002100FFF7BBFF10BDF0B583B006000F0005
:10244C00EFF30583002B1AD106246442E517A41977
:10245C007D418D4202D803D1844201D9002400254C
:10246C0000F05CF922002B00121A8B41002B0BDCC4
:10247C0008D03000390000F063F903B0F0BD164805
:10248C00FFF7C6F8002AF4D0144A0023009320006A
:10249C002900FFF773FF002813DAEAE7104B1968DD
:1024AC00EFF3108372B60A68002AFCD0BFF35F8F7B
:1024BC000B4A1268BFF35F8F0021116083F3108801
:1024CC0020BF084B5B6A9D42E8D80649896AA14245
:1024DC00CFD29D42CDD1E1E79C6E0020CD1C0020D7
:1024EC005CE700200040054070B504000D0000F0D2
:1024FC0015F922002B0012184B411000191E02DB9B
:10250C00FFF79AFF70BD012040420149F8E7C04631
:10251C00FFFFFF7F10B5FA2292000023002101F08B
:10252C0073FBFFF7E1FF10BDF0B5C64600B584B0F4
:10253C0080460391EFF30583002B2BD1474B1A6890
:10254C005B68824239D0FFF793FEC3681F000678A0
:10255C0042461400039A1500180000F0AFF8020070
:10256C000B00A41A9D412200311D8900C959091A7A
:10257C000020A84227DC24D020BF039A384B5B6A8A
:10258C009A424BD83649896A41454CD29A4243D03B
:10259C00012044E00B00324A526A8A4209D3304986
:1025AC00896A884207D99A4201D0012037E000207D
:1025BC0035E0002033E0012031E0039A9342C2D190
:1025CC00DAE79142D8D9274A0023009345462800E0
:1025DC00039C2100FFF7D2FE002826DD1F4B1D6057
:1025EC00039959600D001E4B5B6A994205D81C4A31
:1025FC00926A424502D2994200D120BFFFF714FFE4
:10260C00174B5B6A9D4224D8154A926A424522D2E6
:10261C009D421CD0012002E0002000E0002004B00C
:10262C0080BCB846F0BD0120F9E70D4B5B6A9C42BB
:10263C0009D80B49896A414507D29C4201D0012037
:10264C00EDE70020EBE70020E9E70120E7E70020B9
:10265C00E5E70020E3E70120E1E7C046E87600204B
:10266C0000400540CD1C002000487047004005404C
:10267C0010B50B4B1B69002B04D00A480A21FFF73D
:10268C00B9FB10BDFFF7F0FF0400032100F00CF8BC
:10269C000348102303222100FFF7B6FDEDE7C046E7
:1026AC00F07600205CE7002010B5024A0248FEF7E5
:1026BC00E8FF10BDEC6E0020C88000200200436AC9
:1026CC00906A1900536A9942FAD17047416A00E046
:1026DC00416A9942FCD300E0416A994202D1816A75
:1026EC009142F9D3704770B5060014001D00FFF736
:1026FC00E5FF02000B001000190022002B0012183D
:10270C004B41994202D804D1904202D90122524243
:10271C00D3173000FFF7DAFF70BD000010B5024888
:10272C00FFF7CCFF10BDC0460040054010B50200BD
:10273C000B000248FFF7D7FF10BDC0460040054014
:10274C0010B502000B000248FFF7C0FF10BDC046D9
:10275C0000400540074B98420AD0162301229A40AC
:10276C00054B1A60054B1B6811009943FAD1704751
:10277C001723F3E70080034000F0004008C000403E
:10278C0070B5046BE30701D4200070BD0B4BC3186C
:10279C000B4A1A60436A826A9B019B189D020620B1
:1027AC0000F036F9074900F0B9FB0100280000F0F1
:1027BC00B5FB0021FFF7BAFFE6E7C046303000005A
:1027CC00010300004E0E000070B504000E00150051
:1027DC00FFF7D6FFE16A33004B4019002B000B408A
:1027EC001900024BE3181960206370BD2C10000017
:1027FC0070B505000C00062000F00AF9C00021009D
:10280C0000F08CFB0130C60907D00E4B9E4215D848
:10281C00400834003F26064000E001246C62AE62A2
:10282C00002200212800FFF7CFFF062000F0F0F86F
:10283C008000A101891900F071FB70BD0026024CCB
:10284C00ECE7C046FEFF0000FFFF000010B50539A5
:10285C004901013AD2000A43002B07D002210A4356
:10286C00012B01D0002102E0023100E000211143D4
:10287C006E22FFF7A9FF10BD10B5002900D0102162
:10288C001022FFF7A1FF10BD002909D00A22064B28
:10289C009C46604443425841044B4000C25270472E
:1028AC0080225200F3E7C0460080FCBF60E70020A6
:1028BC0070B504000D00062000F0AAF800281ED008
:1028CC00104B9C421CD01622012393400E4A1360DD
:1028DC002000FFF73FFF00212000FFF7D5FF290064
:1028EC002000FFF785FFE26A70235A400E33134035
:1028FC00064AA2181360064B23630323A36470BD1E
:10290C001722E1E70080034000E000402C1000009B
:10291C0001030000F8B5CE46474680B505000E0011
:10292C009046994644002418A400284B9C466444C5
:10293C006368089A934200D262602F1FFFB2012F86
:10294C002ED980221201C0239B01E3181A60204B60
:10295C00AA00D158002907D0586900F0DFFA0130DD
:10296C0043001B18033BFDD243465B0122685340D6
:10297C00E022134080225201A2181360012F1AD9B1
:10298C0080239B01E318802212011A60089B63606C
:10299C000F4BAD004A46EA50C0BCB946B046F8BD34
:1029AC00012ECED10322C0239B01E3181A60A36829
:1029BC00DB07FCD5D8E72168714003230B4013607B
:1029CC00A3680122B2401A42FAD0D9E70080004035
:1029DC00D080002070B582B006000D0014001800E5
:1029EC00069900F09BFA0300069A1102009122004E
:1029FC0029003000FFF78EFF02B070BD10B582B019
:102A0C00802464000094FFF785FF02B010BD000025
:102A1C00014B8000C0587047D0800020F0B5C646EE
:102A2C0000B504000E0017001D00374800F076FAC0
:102A3C008046364BFA18364B9A4239D8010038008A
:102A4C0000F06CFA0200103A98235B009A4235D8D9
:102A5C006B1E062B38D8069B013B062B34D83F093E
:102A6C00474537D32D04069B1B031D432368002BBE
:102A7C0036DB284B9C4244D00C2201239340264A3F
:102A8C001360264A1360264A1268190091430A1EE5
:102A9C00F9D12660A060234BE31821321A6022681A
:102AAC00002AFCDAE56008221A6080BCB846F0BD4A
:102ABC001D4B1E4A1E48112102F042FB1D4B1B4AA6
:102ACC001B48192102F03CFB1B4B184A18481C21CF
:102ADC0002F036FB194B154A1548232102F030FB46
:102AEC0022683F231340B342C3D1A3681B051B0DBF
:102AFC008342BED1E368EE22D2021340AB42B8D17E
:102B0C00D3E70D22B9E7C046001BB70080E84BD3D2
:102B1C0080F8A93200C0024000E0004000F0004004
:102B2C0008C0004004300000106F002030750020F9
:102B3C00606F0020A86F0020C46F00201070002070
:102B4C00024B1A68024B5A607047C0463481002011
:102B5C000080054010B5174B8022D2051A60164B29
:102B6C00164A1A6000290AD0154BE022D2041A60CA
:102B7C00002809D1124B802212061A6010BD0D4B91
:102B8C00E022D2041A60F3E743011B1A9B001818C9
:102B9C0000010C4B186080235B04984202D3094B54
:102BAC00094A1A60FFF7CCFF054B8022D2051A6048
:102BBC00E4E7C04600B0054008200140FCFF0100DE
:102BCC0000A0054034810020FFFFFF0010B503007A
:102BDC000C0010000B4A8021C9051160002B0DD090
:102BEC0001221343084A0949D1610949594011622C
:102BFC00546293620021FFF7ADFF10BD024B00221F
:102C0C00DA61F7E700B0054000800540D3C007B09B
:102C1C002D3FF84F80239B000B43014AD362704732
:102C2C000080054010B5010018231B881422108861
:102C3C00984710BD10B5010018231B881622108868
:102C4C00984710BDF0B5C64600B507000E0000252C
:102C5C000123984600E00135B5420AD2AC003C197C
:102C6C002068FFF7DFFF20600028F4D1002398468E
:102C7C00F1E7404680BCB846F0BD000070B50500D9
:102C8C000C000348FFF7CEFF0300210028009847F3
:102C9C0055420000074BAA2212011A608D225200E5
:102CAC00DA60054B054A1A60024B5B68002BFBDAB5
:102CBC007047C046004002400060024000B0FA007D
:102CCC0010B5040001E008CC9847024B9C42FAD3A3
:102CDC0010BDC046B87D00207047000010B50248FA
:102CEC00FFF7EEFF10BDC046787D002010B50248FE
:102CFC00FFF7E6FF10BDC046AC7D0020054B064A31
:102D0C001A60064B064A1A60064B1A68044B93432A
:102D1C00FAD1704700E00040BFCDFBFE00F0004050
:102D2C00FE7F3C0008C00040044BDB6C002B03D141
:102D3C00034B8022D2021A607047C046000011502B
:102D4C004C201150044B054A1A60054B1B68DB43A1
:102D5C00DB01FAD17047C04600F00040FFFFFF01D5
:102D6C0008C00040034B40229A675A671A67DA661C
:102D7C007047C04600F0014010B5FEF7F5FC10BDE1
:102D8C0010B50C4C0C4BE41AA4082200302C00D9C2
:102D9C00302292000948084901F074F804E0084A0E
:102DAC00064BA100CA5001342F2CF8D9034B054A0D
:102DBC00936010BDC0010010000100100000002045
:102DCC00C101001000ED00E070B50420FFF720FEFB
:102DDC00064900F0A3F805000024002C00DD70BDAE
:102DEC00E0B22900FFF716FF0134F6E740420F006E
:102DFC0030B583B0274B00229A67FFF74BFF264B69
:102E0C0001221A60234B5B6C012BFBD1234B032259
:102E1C001A60204B9B6B012BFBD1013300930433C5
:102E2C001F4A01211F48FFF7F9FD052300931E4A95
:102E3C0001211E48FFF7F2FD1D4B00220221042048
:102E4C00FFF7DCFD1B4D2B00002201210520FFF7B5
:102E5C00D5FD194C2300002200210720FFF7CEFDE1
:102E6C002300002200210820FFF7C8FD8023DB008F
:102E7C0000932300002200210920FFF7ABFD2B005B
:102E8C00002200210620FFF7B9FDFFF79DFF03B0DC
:102E9C0030BDC046008000403CB0004030B0004027
:102EAC00002F685900800240008C864700C0024009
:102EBC00001BB70040597307006CDC020148042169
:102ECC00014B184710770020592A0020124A936FA3
:102EDC009B0815D29066D166002905D0FFE7FFE765
:102EEC00FFE7516F106F704704B580210906C217B8
:102EFC005140002800D0C84302F054FF002104BD0B
:102F0C00F0B5146E556E576F166FFFF7E3FF14662E
:102F1C00556657671667F0BD000000D0114A936FD5
:102F2C009B0813D210665166002905D0FFE7FFE716
:102F3C00FFE7516F106F704704B5002801D00020D7
:102F4C00C04302F02FFF002104BDC046F0B5146E43
:102F5C00556E576F166FFFF7E5FF1466556657678A
:102F6C001667F0BD000000D094464A4A926F920852
:102F7C00624601D228E0C046F0B5464E346E756EFE
:102F8C00776F366F00F020F89446424A1466556607
:102F9C00576716676246F0BD94463E4A926F920898
:102FAC00624601D254E0C046F0B53A4E346E756EAE
:102FBC00776F366F00F04CF89446364A14665566B7
:102FCC00576716676246F0BD002B24DB11D0002931
:102FDC003EDA00B5C943404200D1013100F038F867
:102FEC00C943404200D10131DB43524200D101338D
:102FFC0000BD002AEBD1002801D1002905D000200A
:10300C00C90FC90701D1C043410800B502F0CAFE7F
:10301C000022002300BD00B500290ADBDB4352422D
:10302C0000D1013300F014F8C943404200D1013102
:10303C0000BDC943404200D10131DB43524200D1B3
:10304C00013300F005F8DB43524200D1013300BDDF
:10305C00002923D1002B18D1002A0CD0BC460D4FCF
:10306C0038667A6600210023FFE7FFE7FFE77A6FF7
:10307C00386F67467047002801D00748010000B53B
:10308C0002F090FE0022002300BD02000B00002085
:10309C0000217047000000D0FFFFFFFF002B00D085
:1030AC00BFE0130C28D1002AE7D080B4114F396649
:1030BC007A66FFE7FFE730B4040C7B6F396F1B04B3
:1030CC0023433B667A66FFE7FFE7FFE7C04684B21F
:1030DC007B6F3D6F1B0423433B667A66FFE7FFE77C
:1030EC00C04600232C042D0C7A6F386F00196941EF
:1030FC00B0BC7047000000D0F0B594460025140E0B
:10310C0001D112020835140F01D112010435940FAC
:10311C0001D192000235D40F01D152000135D40BEC
:10312C000134254F7C66254C3C660E0C93B2FFE7B0
:10313C00FFE7FFE73C6F6643360C7703BE467343ED
:10314C00DF0B5B04C01AB941130C7343DB18C91AAB
:10315C00CE086643360CB64493B273431F0F1B0163
:10316C00C01AB941130C73431F0B1B05C01AB9418C
:10317C00860D8F023E436643360C092D24DB520A22
:10318C007243801A7703460A6643360C16235B1B80
:10319C00DE40DF40BF1964466643821B704604352F
:1031AC0006330100D940A840C01900D30131A24216
:1031BC0006D20023F0BD0000000000D0FFFFFFFF8F
:1031CC00121B0130F3D3F1E709277F1BFE40644645
:1031DC00A2B27243801A00D20139220C7243130C32
:1031EC001204821A99410B00704604351337010002
:1031FC00F940A840801900D30131002B02D1A24222
:10320C000AD2F0BD013000D30131121BFAD2013BBE
:10321C00F8D1A24200D2F0BD013000D30131121B13
:10322C00F7E7F0B51C0C00D080E00CB400251C0AAC
:10323C0004D11B02160E3343120208351C0B04D1A9
:10324C001B01160F3343120104359C0B04D19B0058
:10325C00960F334392000235DC0B02D192185B417E
:10326C0001351C00971864410134464F7C66464C6E
:10327C003C660E0CFFE7FFE7FFE7C0463C6F66437A
:10328C00360C7703BE4697B27743C01B00D2013988
:10329C00C01B00D201399FB27743C91BC91B170C45
:1032AC0077437E04FF0B801BB941CE086643360C76
:1032BC000C2D33DBB644120B1F053A431B0B97B294
:1032CC007743C01B00D201399FB27743C91B170C3F
:1032DC0077433E043F0C801BB941860D8F023E4361
:1032EC00664329277F1BFE400C3D7746AF40BF1934
:1032FC0030BCA2B2ABB272437343801A9941220C18
:10330C007243130C1204801A994102000B0001370E
:10331C00001BA941F9D2781E0021F0BD0C277F1BA0
:10332C00FE4077467F0BAF40FF19E0E700245D1CA1
:10333C0007D0144F7D663966FFE7FFE7FFE7FFE72D
:10334C003C6F95B29EB265436643401BB141150C70
:10335C001E0C6543664336042F0C3E432D04401B64
:10336C00B141994204D202000B0020000021F0BDB3
:10337C0001D19042F7D3801A994101349942F2D38A
:10338C00F6E70000000000D0FFFFFFFF484041407F
:10339C00484018B41B4B5B68FC46019308BD04DF26
:1033AC009334002018B4174B1B68FC46019308BDDE
:1033BC0000DF9D3400209446134A926F920809D284
:1033CC00624618B40F4BDB68FC46019308BD0CDF5A
:1033DC00553700200C4AF0B5146E556E576F166FAA
:1033EC006246FFF7EEFF084A146655665767166784
:1033FC00F0BD18B4034B9B68FC46019308BD08DF75
:10340C00F935002058E50020000000D0FFB55040F1
:10341C004240504059404B40594000E0FFB5154FD9
:10342C004C00640D03D0BC4204D10C0314D8002012
:10343C00090D09055C00640D03D0BC4204D11C03CA
:10344C000AD800221B0D1B0501264B4009D44B400A
:10345C0003D58B4200D18242FFBD9942FCD19042F0
:10346C00FFBD0B43DB1803431343F5D0C943491885
:10347C00FFBD0000FF07000000B5FFF7CFFF804144
:10348C0000BDC04600B5FFF7C9FF01D9002000BD43
:10349C00012000BD00B5FFF7B9FF01D9002000BD28
:1034AC00012000BD00B5FFF7B1FF804100BD012038
:1034BC0040054A00121804D85A00121801D80020EE
:1034CC0070470120704700000021002805D170478B
:1034DC00C1174840401AFAD0C90713B5064B1B68F0
:1034EC0098470CBC441CA2401005120B0349091B45
:1034FC0009051943114310BD58E600201F040000B4
:10350C0010B54C00620D8023D218DB00D21A5B057B
:10351C007E2A10DD9E3A13DACC17090349081943A9
:10352C005242D140640001341532202A05DAD040D1
:10353C000843604310BD002010BD0846604310BD19
:10354C00C80FC018013810BD18B4044B5B6AFC4698
:10355C00019308BD24DF05390020000058E5002048
:10356C0018B4044BDB6FFC46019308BD7CDF853936
:10357C000020000058E5002070B513231C78012CA6
:10358C0012D0012C12DC214B214A93642148FFF705
:10359C0049FB214B186070BD1C491D4A9800815095
:1035AC0001331F2BF8D9ECE70023FAE71B48FFF790
:1035BC0041FB05001A48FFF73DFB023803789B00DE
:1035CC007F2B09DD12488022290000F05BFC022CC5
:1035DC0008D0022CDADCD6E7124B134A13483421FC
:1035EC0001F0AEFD124B1A88B5231B029A4209D189
:1035FC00104B1A88104B9A4204D1104B1A88104B5E
:10360C009A42E6D00020FEF703F8C0465934002059
:10361C0058E500204C33000058E6002053440000CD
:10362C00534600002C7000203C7500207070002068
:10363C0054380000D8380000494600009C3800007F
:10364C005946000007B56046002800D100BE01882D
:10365C000A0A0230DF2AFAD1C9B2820804D30288DE
:10366C0040880004104300E00068024A5050039068
:10367C0007BD000058E500200FB403BC0CBCF0B52E
:10368C000124E407634000E0F0B50C0DCF0F661E7B
:10369C003605891B640503D3C943404200D301316D
:1036AC00640D03D0661CF60A07D0E41B00207F00D3
:1036BC00791C89078912803C24031D0DDF0F6E1EB7
:1036CC0036059B1B6D0503D3DB43524200D30133FC
:1036DC006D0D03D06E1CF60A07D0ED1B00227F0087
:1036EC007B1C9B079B12803D2D032F1B661B58D404
:1036FC00A446202E46DA20371400BC401D00BD40E5
:10370C00F24033412A4380185941CB0F05D0C943AD
:10371C00C043002264425041514162464D0D28D1B4
:10372C000D0D07D100281FD0241940414941013A01
:10373C000D0DF9D0640006D3013000D30131002CFB
:10374C0001D140084000013A0BD4941CE40A04D186
:10375C0012051144DB071944F0BDD907204B19435E
:10376C0000E0D9070020F0BD0029DDD1002CDBD111
:10377C00F0BD0132C6074008CD0728434908002E8A
:10378C00E1D0D9E73C2E29DA203E40371400BC406A
:10379C0000D00124F24014431A00BB401C43D31741
:1037AC00ACE7AC46202F08DA20360400B4400D00FC
:1037BC00B540F84039412843A5E73C2F0CDA203FAF
:1037CC0040360400B44000D00124F8400443080003
:1037DC00B1400C43C117EAE710001900002494E72C
:1037EC000000F07FF0B50C0D661E3605891BE60A4D
:1037FC006405640D02D0651CED0A04D00020012183
:10380C000905803C2403A4461C0D671E3F05DB1BE9
:10381C00E70A6405640D02D0651CED0A04D0002291
:10382C0001231B05803C24037740644497B484B285
:10383C0096B27443070C7E43150C6F4380B26843F9
:10384C00361802D3012000043F183004350C00193F
:10385C007D41844688B29AB250430C0C62431F0CD3
:10386C007C438EB27E43921902D301263604A419EE
:10387C001604170C3618674101BC81B29AB2514339
:10388C00040C62431B0C5C4380B25843121802D3E5
:10389C000120000424181004130C401863412D1847
:1038AC005E410020474106BC88B293B258430C0CD1
:1038BC006343120C544389B251435B1802D3012168
:1038CC000904641819041A0C091862416D18564140
:1038DC000020474118BCF902720D1143F0026A0D29
:1038EC001043ED020A0D03D16D1940414941013BD2
:1038FC00124E9B1B7600B3420ED26D0007D30130E3
:10390C00002671416646354301D1400840001B0535
:10391C00C918E4072144F0BD0BDA013306D101309C
:10392C0004D101314F0D01D04908F2E7E107002025
:10393C00F0BD013631050020EBE70000FF0300006D
:10394C00F0B51C0D671E3F05DB1BE70A6405640D13
:10395C0002D0661CF60A04D0002201231B05803C11
:10396C002403D0252D060026F6432E661E096E660E
:10397C00CE0FF619B44649004F0D02D07E1CF60A44
:10398C0003D000200021403F3F033E1BB600B4444F
:10399C00013F7F05C91B49082E6F013676089C0232
:1039AC00950D25437543ED137543AD1301356D101E
:1039BC00F603761B0CB4CC02450D2C43A2B2B3B269
:1039CC005A43270C7B43350C6F43A4B26C431B1931
:1039DC0002D3012424043F191C041D0CA4187D419E
:1039EC0024196D41009A91B2ACB26143170C7C431F
:1039FC002B0C5F4392B25A43A41802D30122120437
:103A0C00BF182204230C52187B41019C6C431B19D8
:103A1C00520ED9010A434401A01A81B2B2B25143E9
:103A2C0003145A43360C734387B27743D617D21913
:103A3C0000277E4136049B191704160C7F185E4133
:103A4C007316ED18F301002680337541A90F06D1CA
:103A5C006400690AE8055B0A184309D22FE00422C6
:103A6C00944480337541A90AA8059B0A184326D3B0
:103A7C00404149412404009A019B0D005543641BAD
:103A8C004343E41A95B286B27543170C7E43030C7C
:103A9C005F4392B25A43B61802D301221204BF18E4
:103AAC003204330C52197B4152429C41002C02D4FB
:103ABC000022013051414008CA071043490802B0A6
:103ACC006246D7079210084BD218084B9A4203D281
:103ADC0012058918C919F0BD0020002A01DC390033
:103AEC00F0BD01331905F5E7FD030000FE070000EA
:103AFC00002200B5203200F004F8080000BD0000E0
:103B0C0000220B150AD410B5944600F05FF814147B
:103B1C00013400DA0021CB17144C2047002000217F
:103B2C0070476244343A0CD40C2A07DA04009140F2
:103B3C00904052422032D440214310BDD843D94347
:103B4C0010BD203207D40C46944052422032114111
:103B5C00D040204310BD0800C917203203D4524274
:103B6C002032104110BD1800190010BD373900204B
:103B7C004A00520D144BD21A13DDFF2A1EDAD2055D
:103B8C00CB0FDB071A43C300400F0903490A084354
:103B9C0010435B0001D301D0013070474308FBD2C6
:103BAC00704702D0C80FC00770470A0312130132C6
:103BBC00F8D1420F072AF5D1012200E0FF22C80FED
:103BCC0000028018C0057047800300000A0DCC0F5E
:103BDC00531E1B05C91A520503D3C943404200D3D7
:103BEC000131520D03D0531CDB0A07D0121B0020ED
:103BFC006400611C89078912803A1203014BD21AA6
:103C0C0070470000FF03000051434343C9188C4622
:103C1C00110C83B24B4310B4040C614392B280B2CA
:103C2C00504362431C041B0C001910BC5941130473
:103C3C00120CC0185141614470470000484041408B
:103C4C00484000239C46114B5B68184700239C4658
:103C5C000E4B1B6818470E4A936F9B0804D2002327
:103C6C009C460A4BDB681847F0B5146E556E576FBF
:103C7C00166FFFF7F4FF064A14665566576716670A
:103C8C00F0BD00239C46014B9B6818475CE6002066
:103C9C00000000D0491A002808D1084670470000DF
:103CAC00C10FC90700D54042002817D0F44603B411
:103CBC000B4B1B68984706BC81409E3840428031B4
:103CCC0007D20B0607D04900490AC0051043084328
:103CDC0060470130F8E7490A8902F5E770470000B0
:103CEC0058E6002000239C46014B5B6A18470000F5
:103CFC005CE60020034BDB6FFC4618477CDF4D3C39
:103D0C00002000005CE6002070B513231C782A48C4
:103D1C00FEF790FF0500012C12D0012C0ADD2B00C0
:103D2C00023B1B789B007F2B40DD2448802229001E
:103D3C0000F0A8F82248FEF775FF224B186070BD02
:103D4C001E485422290000F09DF81F4B1A881F4B67
:103D5C009A421CD1A7239B011A881D4B9A4216D15B
:103D6C001C4B1A881C4B9A4211D11C4B1A88942359
:103D7C009B019A420BD11A4B1A881A4B9A4206D1C4
:103D8C00194B1A68194B9A4201D1152307E01848B0
:103D9C00FDF73EFC1749094A9800815001331F2B4F
:103DAC00F8D9144B054A1362D361B6E7124B134A88
:103DBC001348432101F0C4F9534600005CE600208F
:103DCC004C33000058E60020EE290000C40F000020
:103DDC00C20D0000962B0000C0B50000182B00008F
:103DEC00CC2A000010B50000FC2C000051ED8764BB
:103DFC0044690020193C0020C87000205075002038
:103E0C00FC70002007B56046002800D100BE018878
:103E1C000A0A0230DF2AFAD1C9B2820804D3028816
:103E2C0040880004104300E00068024A50500390A0
:103E3C0007BD00005CE60020C30FDB0741000A0E43
:103E4C0007D0FF2A08D00909054A891819434007E9
:103E5C0070471900002070470249C918FAE70000A2
:103E6C00000000380000F07F01480421014B184786
:103E7C0020770020592A0020014B1B6818470000AE
:103E8C0020770020014B5B6818470000207700204A
:103E9C009A4200D288547047704710B5002802D05F
:103EAC000B684968984710BD0100002007E08300AB
:103EBC001B185B00501C08601078C01830380A685A
:103ECC001378303BDBB2092BF1D97047F0B5D646ED
:103EDC004F464646C0B505000E00100091461F0027
:103EEC00099C0B9B0222110019408A461A4234D1BC
:103EFC00DB0716D50200B84637002E001FE0551C14
:103F0C00330041462020B84701342A000A9B9C42CA
:103F1C00F5D33D0037004646099CB84637002E00C5
:103F2C000DE00200B0463E002F000994EEE7013C84
:103F3C00551C089B185D43463900B0472A00002CDD
:103F4C00F5D135003E0047465346002B16D11000E4
:103F5C00E0BCBA46B146A846F0BD0200B8463700F0
:103F6C002E00ECE7541C330029002020B847220017
:103F7C004B46D31A0A998B42F4D3E8E73B002F0047
:103F8C0035001E00F4E7F0B5CE46474680B585B047
:103F9C0006000F00904699460C9A0D9B0EA90978C5
:103FAC008C46109D119C129988071CD4002C0CD0A7
:103FBC00C8070AD56046002802D10C30084204D04C
:103FCC00013C02E03020D0540133AB4201D21F2B14
:103FDC00F8D9C80707D5A34205D21F2B03D8302028
:103FEC00D0540133F5E7C80612D5480505D4002B8B
:103FFC0003D0AB4223D0A34221D00F98102831D04C
:10400C000F98022838D01F2B0AD83020D0540133F7
:10401C001F2B05D86046002834D02D20D0540133F6
:10402C0003910294019300924B46424639003000B2
:10403C00FFF74CFF05B0C0BCB946B046F0BD581EEA
:10404C00012B17D00F9D102D0BD003000F981028AB
:10405C00D6D18806D4D51F2BD2D85820D0540133B2
:10406C00D1E7023B8806F1D41F2BEFD87820D0542F
:10407C000133C8E70300C0E71F2BD1D86030D05400
:10408C000133C0E7480703D52B20D0540133C7E7D1
:10409C000807C5D52020D0540133C1E7F0B5DE4662
:1040AC0057464E464546E0B593B080468946924603
:1040BC009B461CAB10CB1B7809931E9D002C03D187
:1040CC001023219A9A4321928023DB00219E1E40CB
:1040DC00219A1A4218D0002C22D0002614E0219AE2
:1040EC0092061BD54121C918C9B20A39C9B2771C2D
:1040FC000AAB995529002000FEF710FFAC4210D3F3
:10410C001F2F0ED83E00040029002000FEF706FFEA
:10411C00CBB2092BE3D83033D9B2E8E76121E2E71F
:10412C002700219B0693209B05931F9B04930395CB
:10413C00099B029301970AAB00935B465246494692
:10414C004046FFF720FF13B0F0BCBB46B246A94671
:10415C00A046F0BDF0B5DE4657464E464546E0B5A6
:10416C0095B08346089109920A931E9B99461F9F0E
:10417C0020AB1B780B93229B9846239C4B463B43CE
:10418C0003D11033269A9A4326928023DB00269D76
:10419C001D40269A1A4208D04B463B4339D0002585
:1041AC004E4623002C001D001FE04E4623002C0021
:1041BC001D001AE0269A920623D54122D218D2B2BB
:1041CC000A3AD2B2631C9A460CAB1A5542462B00E3
:1041DC0030003900FEF7E0FEBD421CD813D0534628
:1041EC001F2B14D8544606000F0042462B003000FB
:1041FC003900FEF7D1FED3B2092BDBD83033DAB25B
:10420C00E0E76122DAE7B045E9D9564604E05646C4
:10421C0002E0002600E05646269B0693259B05935C
:10422C00249B0493434603930B9B029301960CAB84
:10423C0000930A9B099A08995846FFF7A4FE15B0FB
:10424C00F0BCBB46B246A946A046F0BDF0B5DE4672
:10425C0057464E464546E0B595B004008A4693460F
:10426C0099461E9E1F9F32003B0030003900FFF71D
:10427C001EF9002800D0FBE001225242D64B300040
:10428C003900FFF70FF9002800D0F1E0012252426B
:10429C00D24B30003900FFF7EFF8002800D0E7E0F0
:1042AC000022002330003900FFF7E6F8002800D088
:1042BC00F3E0069607978023DB00229A1A401192AE
:1042CC00229A1A4201D106232093069807990200DC
:1042DC000B000A920B9303000A00024300D1E8E0A2
:1042EC00080D4005400DBE4DAC46604405000798D6
:1042FC000203120B00200021089009910893B94B7E
:10430C00134309932800FFF7E3F8B74AB74BFFF7BD
:10431C0070F8B74AB74BFFF745F80A900B9100229B
:10432C00B54B08980999FFF734F8B44AB44BFFF72A
:10433C0060F802000B000A980B99FFF733F8FFF7AF
:10434C00DFF880460890FFF7C3F8AE4AAE4B0A90F0
:10435C000B91FFF74EF80022AC4BFFF723F8FFF759
:10436C00CFF80500AA4AAB4B0A980B99FFF741F816
:10437C000A900B912800FFF7ABF8A74AA74BFFF761
:10438C0038F802000B000A980B99FFF702F80200AC
:10439C000B000A900B91FFF72CF80E900F912B004D
:1043AC009F4DAC466344002100220C910D921B05DD
:1043BC000D9300230C930A980B9902000B00FEF747
:1043CC00F1FF129013910A9A0B9B00208021C905D2
:1043DC00FEF7DFFF0A900B910022924B0E980F997B
:1043EC00FEF7E9FF0022904BFEF7DCFF02000B000A
:1043FC000E980F99FEF7DFFF00228C4BFEF7D2FFD1
:10440C0002000B000E980F99FEF7D5FF02000B006F
:10441C000A980B99FEF7C6FF02000B00129813992D
:10442C00FEF7C9FF00226F4BFEF7BCFF0C9A0D9BE9
:10443C00FEF7DFFF02000B000A920B93069A079B14
:10444C000C900D91FFF72EF800280AD04346013B43
:10445C0008930022744B0C980D99FEF7ACFF0A9050
:10446C000B91089B6333C62B49D804231D0024E011
:10447C00229B0493219B0393209B0293009601970C
:10448C004B465A465146200000F004F915B0F0BCDA
:10449C00BB46B246A946A046F0BD002100220691BB
:1044AC000792069680231B069C46BC4463460793E2
:1044BC0001E70023089304331D00229B1B052BD519
:1044CC000A9A0B9B1900114311D0594A594B069863
:1044DC000799FEF7DFFF002800D1B1E00022564B10
:1044EC0006980799FEF7C8FF002800D1A8E0209A8B
:1044FC00089B9A4206DDD31A013B209304E0052366
:10450C001D00DAE7002320938023DB00229A1A4354
:10451C00229200231D000893219A954200D39BE020
:10452C00531B98460223229A1A400C92229A134249
:10453C0003D0002D01D000239846089B002B07D0F8
:10454C000A9A0B9B06980799FEF735FF0690079180
:10455C000022002330003900FEF78EFF002800D027
:10456C007DE0364B229A1340049343460393209BE1
:10457C000293069A079B009201934B465A4651466A
:10458C00200000F087F8002D00D17FE7229B9B06CE
:10459C0071D54527461C4B46020051463800A047B2
:1045AC000898C317C2185A4005230593013D04957A
:1045BC00002303930A330293C30F019300924B46DB
:1045CC00320051462000FFF769FD0C9B002B00D1F7
:1045DC005CE70200219F56E0FFFFEF7FFFFFEFFF3C
:1045EC0001FCFFFF0000F03FFB799F501344D33FC9
:1045FC00B3C8608B288AC63F0000F83F61436F63E5
:10460C00A787D23F71A379094F930A400000E03F7E
:10461C001655B5BBB16B0240EF39FAFE422EE63FA0
:10462C00FF03000000002C40000024400000184054
:10463C002D431CEBE2361A3F80842E41FFF7FFFF1F
:10464C00209B002B00D167E7119B002B00D163E767
:10465C00209B013B20935FE70023984662E7069E70
:10466C00079F3200390080200006844661440B000D
:10467C000692079375E765278CE7561C4B46514607
:10468C002020A04732005B46D31ABB42F5D3100062
:10469C00FCE6C046F0B5DE4657464E464546E0B50C
:1046AC0095B081468A4693460A93209F1E9A1F9B7B
:1046BC0010001900FEF7FBFE002831D101225242F6
:1046CC00BA4B1E981F99FEF7D7FE002837D101224E
:1046DC005242B74B1E981F99FEF7E4FE00283DD1BD
:1046EC000022B44B1E981F99FEF7DCFE00284AD11D
:1046FC000022B14B1E981F99FEF7BEFE002842D136
:10470C00002200231E981F99FEF7B6FE00284AD1FE
:10471C0000230B93229B5B0500D4AFE0002452E0F6
:10472C00229B0393219B029303230193A34B00939E
:10473C000A9B5A4651464846FFF7C8FB1FE1229B8D
:10474C000393219B0293042301939D4B00930A9B9B
:10475C005A4651464846FFF7B9FB10E1229B5B07CE
:10476C000ED5984B04222299039121990291019222
:10477C0000930A9B5A4651464846FFF7A7FBFEE0BA
:10478C00914B0322EFE7229B0493219B0393029707
:10479C001E9B1F9C009301940A9B5A465146484607
:1047AC00FFF754FDEBE01E9A1F9B00200021FEF743
:1047BC00F0FD1E901F9101230B93ABE70CAB302245
:1047CC001A55013F01341F2C01D8092FF6D81E9819
:1047DC001F99FEF795FE0500FEF77AFE02000B000E
:1047EC001E981F99FEF7D5FD784BFA009B180CCB41
:1047FC0008920993FEF7FDFD06900791FEF7A4FEC3
:10480C000600FEF761FE02000B0006980799FEF702
:10481C00C0FD0690079100226D4BFEF743FE002869
:10482C002ED001363000FEF74FFE02000B00089828
:10483C000999FEF727FE002801D001350026002F2C
:10484C002CD12800FEF744FE02000B001E981F9985
:10485C00FEF79FFD06000F0000225D4BFEF70CFEDD
:10486C00002846D100225A4B30003900FEF71AFEC0
:10487C0000283ED1EB073CD501353AE006274DE741
:10488C000022534B06980799FEF7F6FD0028D6D167
:10489C00002E01D0F307D2D50136D0E7A8461F2C45
:1048AC0011D8013F0A213000FEF738FB651C30316E
:1048BC000CAB19550A213000FEF730FB092E0ED92E
:1048CC0006002C00EBE745461F2C0CD87B1E002F56
:1048DC0009D00CAA302111551F000134F4E72B002C
:1048EC0045461C00F0E71F2C03D80CAB2E221A55A2
:1048FC0001341F2C10D80A212800FEF7E7FA661C99
:10490C0030310CAB19550A212800FEF7DFFA051ED1
:10491C0001D03400EDE73400229B9B0719D4229B75
:10492C00DB0716D5219B002B0ED00B9B002B03D144
:10493C000C33229A134207D0219B013B219303E0B5
:10494C000CAB30221A550134219B9C4201D21F2CF6
:10495C00F6D91F2C06D80B9B002B17D00CAB2D2295
:10496C001A550134229B0393219B029301940CABA7
:10497C0000930A9B5A4651464846FFF7A7FA15B0D2
:10498C00F0BCBB46B246A946A046F0BD229B5B07D5
:10499C0004D50CAB2B221A550134E3E7229B1B07E1
:1049AC00E0D50CAB20221A550134DBE7FFFFEFFFFB
:1049BC00FFFFEF7F65CDCD4165CDCDC1D07100201E
:1049CC00D4710020C4710020CC710020D07500205F
:1049DC000000E03FF0B5DE4657464E464546E0B592
:1049EC0093B083468A4690461193002900D11AE36E
:1049FC0000255E46119B1878002800D116E3252867
:104A0C0009D06C1C43462A005146B047119B013318
:104A1C0011932500EEE701331193002712E0202AB1
:104A2C0025D0232A05D110221743013311930124D9
:104A3C0006E0002404E00222174301331193012401
:104A4C00002C1CD0119B1A782B2A0AD0E7D92D2ABE
:104A5C00F1D0302A11D12F3A17430133119301248D
:104A6C00EEE704221743013311930124E8E70822EF
:104A7C001743013311930124E2E70024E0E7119B73
:104A8C001A781300303BDBB2092B15D92A2A18D01F
:104A9C000B94119B1A782E2A23D0119B1A786C2A0E
:104AAC0047D03CD9742A62D07A2A65D18022520030
:104ABC001743013311935FE011A8FFF7F5F90B9041
:104ACC00E7E71C9B1A1D1C921B68002B04DB0B9345
:104ADC00119B01331193DCE7022217435B420B93CA
:104AEC00F6E78022D20017435A1C11925A78130011
:104AFC00303BDBB2092B0BD92A2ACED11C9B1A1DB9
:104B0C001C921C68002C08DB119B01331193C4E729
:104B1C0011A8FFF7C9F90400BFE70024F4E7682ADD
:104B2C0017D06A2A28D1802292001743013311939F
:104B3C0022E0802252003A43591C119159786C2979
:104B4C0001D0170018E0C0229200174302331193D2
:104B5C0012E080223A43591C11915978682901D0EE
:104B6C00170009E0C02217430233119304E080229E
:104B7C005200174301331193119B1878652840D0CC
:104B8C0077D8462800D18BE01BD9632831D102237A
:104B9C001A003A4091463B4200D1B0E101241C9BE3
:104BAC001A1D1C926F1C187843462A005146B047B8
:104BBC004B46002B00D0A6E1119B013311933D0015
:104BCC0018E7252809D16C1C43462A005146B047EA
:104BDC00119B0133119325000CE7452811D06C1C57
:104BEC0043462A005146B047119B013311932500CF
:104BFC0000E763282BD858282BD0622829D04728C7
:104C0C00EDD1672801D0472802D180231B011F4317
:104C1C00452801D0472801D120231F431C9B073373
:104C2C00072293431A0008321C9204970B9A0392A2
:104C3C0002940CCB0092019343462A00514630005B
:104C4C00FFF704FB0500119B01331193D2E6642896
:104C5C00C5D178284DD0582800D17CE06F2800D1E0
:104C6C007CE0622800D17CE010239F43063B9C46ED
:104C7C0041E0702800D1BCE10DD9732831D11C9BC7
:104C8C001A1D1C921B689B46002C00D06EE1012261
:104C9C0052425B464AE16728B3D01DD866289ED1A4
:104CAC00462800D11CE11C9B0733072293431A00B2
:104CBC0008321C9204970B9A039202940CCB00922C
:104CCC00019343462A0051463000FFF7E3FC0500F0
:104CDC00119B013311938DE66928BAD06F28B8D097
:104CEC007DE7732800D27AE77528B2D07828B0D047
:104CFC0075E710239C46582836D0692803D06428C1
:104D0C0001D00C2297437A0501D5012297436928DB
:104D1C002DD064282BD0BA0500D5A3E0FA0500D518
:104D2C00BBE07A0600D4CDE01C9A111D1C911168D1
:104D3C00FF220A4005970B9B04930394634602934E
:104D4C0000230193009243462A0051463000FFF79E
:104D5C00A5F905002AE010239C46CCE708239C46C5
:104D6C00C9E702239C46C6E720221743C5E7BA05CC
:104D7C0020D4FA0551D47A0667D51C9A111D1C91C2
:104D8C001168FF220A40D0171118414005970B9B60
:104D9C000493039463460293D20F0192009143460D
:104DAC002A0051463000FFF779F90500119B0133B9
:104DBC0011931FE61C9A073207218A431100083110
:104DCC001C91116853689946DB170C930D930C9A40
:104DDC000D9B100048400E900D9B49464B400F9385
:104DEC000E980F990C9A0D9B801A99410E900F9169
:104DFC0008970B9B07930694634604930023059333
:104E0C004B46DA0F02920090019143462A0051461C
:104E1C003000FFF79FF90500C8E71C9A111D1C9183
:104E2C001268D0171118414005970B9B04930394FB
:104E3C0063460293D20F0192009143462A005146D9
:104E4C003000FFF72BF90500B0E73A0605D51C9AA0
:104E5C00111D1C910023D25E95E71C9A111D1C910B
:104E6C00126890E71C9A073207218A431100083117
:104E7C001C9108970B9B079306946346049300239D
:104E8C00059302930CCA0092019343462A005146A3
:104E9C003000FFF75FF9050088E71C9A111D1C9183
:104EAC0005970B9B04930394634602930023019391
:104EBC001368009343462A0051463000FFF7EEF882
:104ECC00050073E73A0606D51C9A111D1C91126851
:104EDC001204120C2EE71C9A111D1C91126829E762
:104EEC0020231F43DFE6571C434651462020B04782
:104EFC0023003A005C1C9D42F5D815004FE60123B7
:104F0C002A000B9DF6E73A00B1460B9E06E0571CB3
:104F1C00434651462020C8472C003A00651CA64247
:104F2C00F5D817004E4647E601330A0019780029D8
:104F3C0002D0511E002AF7D15A469B1A8022D20069
:104F4C00390011408946174202D0A34200D92300F0
:104F5C0002221100394010913A4209D02A00250052
:104F6C005F469B4633004E46994621E0220090E670
:104F7C002A005546A24606E0541C43462900202030
:104F8C00B0473B0022005F1C0B999942F4D8544661
:104F9C00AA463B0025005F469B4633004E46994689
:104FAC0006E01D000137541C43465146C8472200F9
:104FBC003878002804D0002EF4D06B1E002DF0D1D0
:104FCC0015005B464E46109A002A03D1119B013303
:104FDC0011930FE52A000B9F06E0551C43465146E2
:104FEC002020B04723002A005C1C9F42F5D81500F6
:104FFC00ECE721233B431C9A111D1C91126805936D
:10500C000823049303940833029300230193009222
:10501C0043462A0051463000FFF740F80500119B2B
:10502C0001331193E6E40B4B9B46E1E4B346454553
:10503C000DD343465A1E434651460020D8472800FC
:10504C0013B0F0BCBB46B246A946A046F0BD2A0040
:10505C00F1E7C046AD3C00200EB400B584B00100B1
:10506C0005AA08CA039201208446054800926246AC
:10507C005242FFF7AFFC04B008BC03B01847C0465F
:10508C00A53C002000B585B08C4602A90290604674
:10509C004860012084460448009313006246524243
:1050AC00FFF798FC05B000BDAF3C002000BEFDE74B
:1050BC007047000003000A4A1268002A08D0084A08
:1050CC001068C318074A9A4206D3054A1360704702
:1050DC00034A05491160F2E701204042F7E7C04658
:1050EC00088100200000042070E7002010B50300A8
:1050FC0008001100002B04D1034B0CCB00F030F94D
:10510C0010BD01204042FBE72875002010B50300BC
:10511C0008001400013B012B06D8012300222100BA
:10512C0000F0D4F8200010BD01204042FBE7012024
:10513C004042704701204042704710B5FFF7B6FF60
:10514C0010B582B084460C001900002A0AD0074B17
:10515C000748019200932300624600F095F9012064
:10516C00FFF7A4FF034B1A00F2E7C046DC710020E6
:10517C00EC7100204469002010B5EFF30583002B7F
:10518C0000D000BEFDF7AAFD034C01E008CC984707
:10519C00024B9C42FAD310BDB87D0020B87D002094
:1051AC0010B50300080011001B68984710BD0000E3
:1051BC00F8B507000D001600437D002B02D000242B
:1051CC0000200CE003681100280098472BE03B7D81
:1051DC000FE03B68144802219847601C0134B4422C
:1051EC0013DA002CF3DD631EEB5C0D3B5A4253418A
:1051FC00DBB22A5D0A2AF1D1002BEFD1A042E8DA0A
:10520C003B68211A28189847E3E7B04203DA3B6859
:10521C00311A28189847002E05DD013EAB5D0D3B79
:10522C005A4253413B75F8BD2076002070B50500FD
:10523C000368002B16D00C4B1C6805E0290004C930
:10524C002000FFF7B5FF2469002C09D02368002B40
:10525C00F9D0064B1B68002BF0D0A342F3D1EDE73D
:10526C0000232B6070BDC046FC8000200481002010
:10527C0010B50B685A1C0A60CB181871802A00D024
:10528C0010BD0800FFF7D2FFFAE7000010B5FDF7DC
:10529C0045FA074A002312184B41002B03DB054843
:1052AC0001F0B8FA10BD01225242034BF7E7C04699
:1052BC0040420F00707D0020FFFFFF7F10B50248B9
:1052CC0001F0C2FA10BDC046707D0020F0B5CE468C
:1052DC00474680B583B080460D0016001C00FFF7D2
:1052EC00D5FF81466B1C05D0002C08D0184F194BEC
:1052FC001C6807E0404601F04BF80500F4E7164F38
:10530C00F5E72469002C16D02368002BF9D0134B39
:10531C001B68002B01D0A342F3D12A004146200088
:10532C00B847002EEDD06B46D91D0A230B70012215
:10533C002000B847E5E74B46002B05D1280003B009
:10534C00C0BCB946B046F0BDFFF7B8FFF6E7C046A3
:10535C00C54F0020FC800020B54F002004810020A8
:10536C00F0B583B006000D0001921F00154B1C68B0
:10537C0008E0A368002B04D02900300098470028CF
:10538C001EDC2469002C06D00F4B1B68002BF0D0C0
:10539C00A342F6D1EDE70D4B5B6A9F4209D80B494E
:1053AC00896A0198814209D29F4202D00220404270
:1053BC0006E001200021FDF7B9F9D7E702204042B1
:1053CC0003B0F0BDFC8000200481002000400540AB
:1053DC000A4A136802E01A0010321B69002B09D02C
:1053EC0013688342F7D1002907D1036913600023A6
:1053FC00036102E0002900D010607047FC8000209F
:10540C0010B5064B1C6800E02469002C04D06368BE
:10541C00002BF9D09847F7E710BDC046FC80002060
:10542C0010B500F045F9012010BD70B5050000F075
:10543C00AFFF04000123012201002800FFF746FF03
:10544C00FFF7DEFF200070BDF0B5A3B007000E0023
:10545C00FFF71CFF050001AC002301930948330042
:10546C003A002100FFF70EFE06002000FFF7DEFEDB
:10547C00FFF7C6FF002D02D1300023B0F0BDFFF7BF
:10548C001DFFF9E7855000200FB400B583B004A9C7
:10549C0001C90191FFF7D8FF03B008BC04B018474D
:1054AC0082B08C46144BC3185A425341134A5B00CA
:1054BC009B5E8B4205D06B46DA1D63461370002150
:1054CC0015E06B46DA1D0D23137000210029F2D173
:1054DC0083699B06FCD41378036001310132F5E734
:1054EC0083699B06FCD413780360013101320029D7
:1054FC00F6D002B07047C0460080FCBF60E70020C9
:10550C0082B000226B46D91D06E08369DB06FCD411
:10551C0003680B7001320131002AF6D06B46D87942
:10552C0002B0704770B506000D00002405E0315D37
:10553C00034B1868FFF7B4FF0134AC42F7DB70BDC6
:10554C0064E70020F8B506000D00002705E07C1C80
:10555C00F719FFF7D5FF38702700AF4204DA0D4A70
:10556C0010688269D206F2D50B4A1268002A0AD05A
:10557C00084A126850219163506B18390140074B4F
:10558C009C4662441160002F01D03800F8BD033FE7
:10559C00FBE7C04664E70020C08000203410000008
:1055AC0010B5064B1B68002B06D0054A126800216B
:1055BC009163044A1068984710BDC046C080002013
:1055CC0064E70020C4800020024B1A6893691B0713
:1055DC00FCD4704764E7002070B51E4B1B681E4A54
:1055EC00934208D01422150000281FD01B4B1B68B7
:1055FC00002B03D070BD15221500F5E7174B186072
:10560C00174B196017492800FCF77AF9012128007B
:10561C00FCF756F90F4B1B6850229A63596B183ADA
:10562C000A4011498C4663441A60E3E70B4A12683E
:10563C00002ADFD000249C6300212800FCF740F9ED
:10564C0008492800FCF794FA044B1C60044B1C60BE
:10565C00D0E7C04664E7002000800340C0800020F3
:10566C00C4800020B55300203410000070B50C002D
:10567C001D000D4B1860002A0BDA002D0EDA0A4BB8
:10568C0018682100FDF714F908480121FFF7A0FE66
:10569C0070BD02211000FBF70FFFEEE7022128007E
:1056AC00FBF70AFFEBE7C04664E7002030770020E9
:1056BC0010B5074B1B78074B1B78074B1B78E12168
:1056CC000523042209030548FFF7D0FF10BDC0468F
:1056DC00B8020010B4020010B002001000800340A9
:1056EC00014B00225A607047A880002003BD10B502
:1056FC000400FDF7FBFAA04710BDD0231B061B6D61
:10570C009B07FAD5D0231B06586540BF704700E0B5
:10571C0020BFD0231B061B6DDB07F9D5D0231B063E
:10572C00986D704710B5134B802252021A60124BC1
:10573C001B68DB03FBD50F20FCF7A8F80400002145
:10574C000F20FCF7BDF80D4B00225A700C4B802239
:10575C0052021A60FFF7DBFF002804D121000F2052
:10576C00FCF7AEF810BD074B074A08489221FFF72B
:10577C00E7FCC0460420014004000140F8800020F2
:10578C0004300140C072002064760020707200204A
:10579C00F0B587B004000D0016000F20FCF776F86A
:1057AC00070000210F20FCF78BF8002200920192D9
:1057BC0001320292039604950594124B5A700025FF
:1057CC000CE0D0231B069B6DD0231B061B6DDB0747
:1057DC00F7D440BF07E00135052D0DD8AB006A4664
:1057EC009C58002CF0D02000FFF787FFFFF78FFFAD
:1057FC008442F0D00025EFE739000F20FCF760F869
:10580C0007B0F0BDF880002010B58446080093075F
:10581C0015D103239A438B1819000C390B4A926843
:10582C0064460C6008246442A4469C446446206090
:10583C000748043B18600748FFF7AAFF10BD064B4A
:10584C00064A07489A21FFF77BFCC04600ED00E0B2
:10585C000355002001550020CC720020407600201A
:10586C007072002010B5064B064A934205D31900FE
:10587C0080221201FFF7C8FF10BD01214942F7E752
:10588C00000804200000042010B5040010220021A0
:10589C00FEF7F2FA80235B022360F8235B0263605D
:1058AC008023DB02A360C0231B03A360200010BD78
:1058BC000120704770B506000C0015008B79002B89
:1058CC001DD1FFF7F5FF00281CD00523E356002B54
:1058DC0001DBAB4219D130000D4B9C466044000DEE
:1058EC000C4B8000C258217901238B40013BAB400B
:1058FC001A4201D1002070BD09204042FBE7142060
:10590C004042F8E70B204042F5E70B204042F2E71B
:10591C000000E0AFB080002070B505000C00160050
:10592C00FFF7C8FF002822D1002205E0991993192E
:10593C0012339B00595101322379934208D92168C3
:10594C005300CB5A802189018B42EFD31900EEE72B
:10595C0001229A401300013B054A944665442D0DE3
:10596C00044AAD00A958B3400B43AB50300070BD96
:10597C000000E0AFB080002010B50A000C79202C9C
:10598C0019D8184B9C466044000D174B8000C15829
:10599C000123A340013B527952B2002A11DB202093
:1059AC00001BD4B2844219D810009340194201D084
:1059BC000120404210BD0D4B0D4A0E484321FFF70C
:1059CC00BFFB2020001B002805DB1A00824011427F
:1059DC00F0D00138F7E709204042EBE701204042C4
:1059EC00E8E7C0460000E0AFB0800020E87200207D
:1059FC007C7600201473002010B5054B9C46604447
:105A0C00000D800041180348FBF77EFE10BDC04618
:105A1C000000E0AFCC80002010B582B0094BC41858
:105A2C00240DA400E31C0848084A00922200FBF74E
:105A3C0043FE844202DC001B02B010BD0120404238
:105A4C00FAE7C0460000E0AFCC8000205C73002079
:105A5C0010B5054B9C466044000D8000411803486E
:105A6C00FBF704FE10BDC0460000E0AFCC80002068
:105A7C00F8B505000E00FBF7E3FD07003100280028
:105A8C00FFF77AFF041E04DA3800FBF7E5FD20006F
:105A9C00F8BD020031002800FFF73EFF0400F3E7D9
:105AAC0010B50400FBF7CCFD0A4BE3181B0D0A4A9A
:105ABC009B0000219950002306E01F2119401A0079
:105ACC0012329200115101331F2BF6D9FBF7C4FD92
